{
  "abi": [
    {
      "inputs": [],
      "stateMutability": "nonpayable",
      "type": "constructor"
    },
    {
      "anonymous": false,
      "inputs": [
        {
          "indexed": true,
          "internalType": "address",
          "name": "account",
          "type": "address"
        },
        {
          "indexed": true,
          "internalType": "address",
          "name": "operator",
          "type": "address"
        },
        {
          "indexed": false,
          "internalType": "bool",
          "name": "approved",
          "type": "bool"
        }
      ],
      "name": "ApprovalForAll",
      "type": "event"
    },
    {
      "anonymous": false,
      "inputs": [
        {
          "indexed": false,
          "internalType": "address",
          "name": "account",
          "type": "address"
        }
      ],
      "name": "Paused",
      "type": "event"
    },
    {
      "anonymous": false,
      "inputs": [
        {
          "indexed": true,
          "internalType": "bytes32",
          "name": "role",
          "type": "bytes32"
        },
        {
          "indexed": true,
          "internalType": "bytes32",
          "name": "previousAdminRole",
          "type": "bytes32"
        },
        {
          "indexed": true,
          "internalType": "bytes32",
          "name": "newAdminRole",
          "type": "bytes32"
        }
      ],
      "name": "RoleAdminChanged",
      "type": "event"
    },
    {
      "anonymous": false,
      "inputs": [
        {
          "indexed": true,
          "internalType": "bytes32",
          "name": "role",
          "type": "bytes32"
        },
        {
          "indexed": true,
          "internalType": "address",
          "name": "account",
          "type": "address"
        },
        {
          "indexed": true,
          "internalType": "address",
          "name": "sender",
          "type": "address"
        }
      ],
      "name": "RoleGranted",
      "type": "event"
    },
    {
      "anonymous": false,
      "inputs": [
        {
          "indexed": true,
          "internalType": "bytes32",
          "name": "role",
          "type": "bytes32"
        },
        {
          "indexed": true,
          "internalType": "address",
          "name": "account",
          "type": "address"
        },
        {
          "indexed": true,
          "internalType": "address",
          "name": "sender",
          "type": "address"
        }
      ],
      "name": "RoleRevoked",
      "type": "event"
    },
    {
      "anonymous": false,
      "inputs": [
        {
          "indexed": true,
          "internalType": "address",
          "name": "operator",
          "type": "address"
        },
        {
          "indexed": true,
          "internalType": "address",
          "name": "from",
          "type": "address"
        },
        {
          "indexed": true,
          "internalType": "address",
          "name": "to",
          "type": "address"
        },
        {
          "indexed": false,
          "internalType": "uint256[]",
          "name": "ids",
          "type": "uint256[]"
        },
        {
          "indexed": false,
          "internalType": "uint256[]",
          "name": "values",
          "type": "uint256[]"
        }
      ],
      "name": "TransferBatch",
      "type": "event"
    },
    {
      "anonymous": false,
      "inputs": [
        {
          "indexed": true,
          "internalType": "address",
          "name": "operator",
          "type": "address"
        },
        {
          "indexed": true,
          "internalType": "address",
          "name": "from",
          "type": "address"
        },
        {
          "indexed": true,
          "internalType": "address",
          "name": "to",
          "type": "address"
        },
        {
          "indexed": false,
          "internalType": "uint256",
          "name": "id",
          "type": "uint256"
        },
        {
          "indexed": false,
          "internalType": "uint256",
          "name": "value",
          "type": "uint256"
        }
      ],
      "name": "TransferSingle",
      "type": "event"
    },
    {
      "anonymous": false,
      "inputs": [
        {
          "indexed": false,
          "internalType": "string",
          "name": "value",
          "type": "string"
        },
        {
          "indexed": true,
          "internalType": "uint256",
          "name": "id",
          "type": "uint256"
        }
      ],
      "name": "URI",
      "type": "event"
    },
    {
      "anonymous": false,
      "inputs": [
        {
          "indexed": false,
          "internalType": "address",
          "name": "account",
          "type": "address"
        }
      ],
      "name": "Unpaused",
      "type": "event"
    },
    {
      "inputs": [],
      "name": "ALLOWED_LIST_ROLE",
      "outputs": [
        {
          "internalType": "bytes32",
          "name": "",
          "type": "bytes32"
        }
      ],
      "stateMutability": "view",
      "type": "function"
    },
    {
      "inputs": [],
      "name": "DEFAULT_ADMIN_ROLE",
      "outputs": [
        {
          "internalType": "bytes32",
          "name": "",
          "type": "bytes32"
        }
      ],
      "stateMutability": "view",
      "type": "function"
    },
    {
      "inputs": [],
      "name": "FREELANCER",
      "outputs": [
        {
          "internalType": "uint256",
          "name": "",
          "type": "uint256"
        }
      ],
      "stateMutability": "view",
      "type": "function"
    },
    {
      "inputs": [],
      "name": "FREELANCER_ROLE",
      "outputs": [
        {
          "internalType": "bytes32",
          "name": "",
          "type": "bytes32"
        }
      ],
      "stateMutability": "view",
      "type": "function"
    },
    {
      "inputs": [],
      "name": "HODLR",
      "outputs": [
        {
          "internalType": "uint256",
          "name": "",
          "type": "uint256"
        }
      ],
      "stateMutability": "view",
      "type": "function"
    },
    {
      "inputs": [],
      "name": "HODLR_ROLE",
      "outputs": [
        {
          "internalType": "bytes32",
          "name": "",
          "type": "bytes32"
        }
      ],
      "stateMutability": "view",
      "type": "function"
    },
    {
      "inputs": [],
      "name": "MAX_MINT_LIMIT_PRIV",
      "outputs": [
        {
          "internalType": "uint256",
          "name": "",
          "type": "uint256"
        }
      ],
      "stateMutability": "view",
      "type": "function"
    },
    {
      "inputs": [],
      "name": "MAX_MINT_LIMIT_PUB",
      "outputs": [
        {
          "internalType": "uint256",
          "name": "",
          "type": "uint256"
        }
      ],
      "stateMutability": "view",
      "type": "function"
    },
    {
      "inputs": [],
      "name": "MINTER_ROLE",
      "outputs": [
        {
          "internalType": "bytes32",
          "name": "",
          "type": "bytes32"
        }
      ],
      "stateMutability": "view",
      "type": "function"
    },
    {
      "inputs": [],
      "name": "PAUSER_ROLE",
      "outputs": [
        {
          "internalType": "bytes32",
          "name": "",
          "type": "bytes32"
        }
      ],
      "stateMutability": "view",
      "type": "function"
    },
    {
      "inputs": [],
      "name": "URI_SETTER_ROLE",
      "outputs": [
        {
          "internalType": "bytes32",
          "name": "",
          "type": "bytes32"
        }
      ],
      "stateMutability": "view",
      "type": "function"
    },
    {
      "inputs": [
        {
          "internalType": "address",
          "name": "account",
          "type": "address"
        },
        {
          "internalType": "uint256",
          "name": "id",
          "type": "uint256"
        }
      ],
      "name": "balanceOf",
      "outputs": [
        {
          "internalType": "uint256",
          "name": "",
          "type": "uint256"
        }
      ],
      "stateMutability": "view",
      "type": "function"
    },
    {
      "inputs": [
        {
          "internalType": "address[]",
          "name": "accounts",
          "type": "address[]"
        },
        {
          "internalType": "uint256[]",
          "name": "ids",
          "type": "uint256[]"
        }
      ],
      "name": "balanceOfBatch",
      "outputs": [
        {
          "internalType": "uint256[]",
          "name": "",
          "type": "uint256[]"
        }
      ],
      "stateMutability": "view",
      "type": "function"
    },
    {
      "inputs": [],
      "name": "baseExtension",
      "outputs": [
        {
          "internalType": "string",
          "name": "",
          "type": "string"
        }
      ],
      "stateMutability": "view",
      "type": "function"
    },
    {
      "inputs": [],
      "name": "baseURI",
      "outputs": [
        {
          "internalType": "string",
          "name": "",
          "type": "string"
        }
      ],
      "stateMutability": "view",
      "type": "function"
    },
    {
      "inputs": [
        {
          "internalType": "address",
          "name": "account",
          "type": "address"
        },
        {
          "internalType": "uint256",
          "name": "id",
          "type": "uint256"
        },
        {
          "internalType": "uint256",
          "name": "value",
          "type": "uint256"
        }
      ],
      "name": "burn",
      "outputs": [],
      "stateMutability": "nonpayable",
      "type": "function"
    },
    {
      "inputs": [
        {
          "internalType": "address",
          "name": "account",
          "type": "address"
        },
        {
          "internalType": "uint256[]",
          "name": "ids",
          "type": "uint256[]"
        },
        {
          "internalType": "uint256[]",
          "name": "values",
          "type": "uint256[]"
        }
      ],
      "name": "burnBatch",
      "outputs": [],
      "stateMutability": "nonpayable",
      "type": "function"
    },
    {
      "inputs": [
        {
          "internalType": "bytes32",
          "name": "role",
          "type": "bytes32"
        }
      ],
      "name": "getRoleAdmin",
      "outputs": [
        {
          "internalType": "bytes32",
          "name": "",
          "type": "bytes32"
        }
      ],
      "stateMutability": "view",
      "type": "function"
    },
    {
      "inputs": [
        {
          "internalType": "bytes32",
          "name": "role",
          "type": "bytes32"
        },
        {
          "internalType": "address",
          "name": "account",
          "type": "address"
        }
      ],
      "name": "grantRole",
      "outputs": [],
      "stateMutability": "nonpayable",
      "type": "function"
    },
    {
      "inputs": [
        {
          "internalType": "bytes32",
          "name": "role",
          "type": "bytes32"
        },
        {
          "internalType": "address",
          "name": "account",
          "type": "address"
        }
      ],
      "name": "hasRole",
      "outputs": [
        {
          "internalType": "bool",
          "name": "",
          "type": "bool"
        }
      ],
      "stateMutability": "view",
      "type": "function"
    },
    {
      "inputs": [
        {
          "internalType": "address",
          "name": "account",
          "type": "address"
        },
        {
          "internalType": "address",
          "name": "operator",
          "type": "address"
        }
      ],
      "name": "isApprovedForAll",
      "outputs": [
        {
          "internalType": "bool",
          "name": "",
          "type": "bool"
        }
      ],
      "stateMutability": "view",
      "type": "function"
    },
    {
      "inputs": [
        {
          "internalType": "address",
          "name": "account",
          "type": "address"
        },
        {
          "internalType": "uint256",
          "name": "id",
          "type": "uint256"
        },
        {
          "internalType": "uint256",
          "name": "amount",
          "type": "uint256"
        }
      ],
      "name": "melt",
      "outputs": [],
      "stateMutability": "nonpayable",
      "type": "function"
    },
    {
      "inputs": [
        {
          "internalType": "address",
          "name": "account",
          "type": "address"
        },
        {
          "internalType": "uint256[]",
          "name": "ids",
          "type": "uint256[]"
        },
        {
          "internalType": "uint256[]",
          "name": "amounts",
          "type": "uint256[]"
        }
      ],
      "name": "meltBatch",
      "outputs": [],
      "stateMutability": "nonpayable",
      "type": "function"
    },
    {
      "inputs": [
        {
          "internalType": "address",
          "name": "receiver",
          "type": "address"
        },
        {
          "internalType": "uint256[]",
          "name": "ids",
          "type": "uint256[]"
        },
        {
          "internalType": "uint256[]",
          "name": "amounts",
          "type": "uint256[]"
        }
      ],
      "name": "mintBatch",
      "outputs": [],
      "stateMutability": "nonpayable",
      "type": "function"
    },
    {
      "inputs": [
        {
          "internalType": "enum ERC1155Facet.mintTypes",
          "name": "mintType",
          "type": "uint8"
        },
        {
          "internalType": "address",
          "name": "account",
          "type": "address"
        },
        {
          "internalType": "uint256",
          "name": "id",
          "type": "uint256"
        },
        {
          "internalType": "uint256",
          "name": "amount",
          "type": "uint256"
        },
        {
          "internalType": "string",
          "name": "tokenURI",
          "type": "string"
        }
      ],
      "name": "mintOne",
      "outputs": [],
      "stateMutability": "payable",
      "type": "function"
    },
    {
      "inputs": [],
      "name": "paused",
      "outputs": [
        {
          "internalType": "bool",
          "name": "",
          "type": "bool"
        }
      ],
      "stateMutability": "view",
      "type": "function"
    },
    {
      "inputs": [
        {
          "internalType": "bytes32",
          "name": "role",
          "type": "bytes32"
        },
        {
          "internalType": "address",
          "name": "account",
          "type": "address"
        }
      ],
      "name": "renounceRole",
      "outputs": [],
      "stateMutability": "nonpayable",
      "type": "function"
    },
    {
      "inputs": [
        {
          "internalType": "bytes32",
          "name": "role",
          "type": "bytes32"
        },
        {
          "internalType": "address",
          "name": "account",
          "type": "address"
        }
      ],
      "name": "revokeRole",
      "outputs": [],
      "stateMutability": "nonpayable",
      "type": "function"
    },
    {
      "inputs": [
        {
          "internalType": "uint256",
          "name": "tokenId",
          "type": "uint256"
        },
        {
          "internalType": "uint256",
          "name": "value",
          "type": "uint256"
        }
      ],
      "name": "royaltyInfo",
      "outputs": [
        {
          "internalType": "address",
          "name": "receiver",
          "type": "address"
        },
        {
          "internalType": "uint256",
          "name": "royaltyAmount",
          "type": "uint256"
        }
      ],
      "stateMutability": "view",
      "type": "function"
    },
    {
      "inputs": [
        {
          "internalType": "address",
          "name": "from",
          "type": "address"
        },
        {
          "internalType": "address",
          "name": "to",
          "type": "address"
        },
        {
          "internalType": "uint256[]",
          "name": "ids",
          "type": "uint256[]"
        },
        {
          "internalType": "uint256[]",
          "name": "amounts",
          "type": "uint256[]"
        },
        {
          "internalType": "bytes",
          "name": "data",
          "type": "bytes"
        }
      ],
      "name": "safeBatchTransferFrom",
      "outputs": [],
      "stateMutability": "nonpayable",
      "type": "function"
    },
    {
      "inputs": [
        {
          "internalType": "address",
          "name": "from",
          "type": "address"
        },
        {
          "internalType": "address",
          "name": "to",
          "type": "address"
        },
        {
          "internalType": "uint256",
          "name": "id",
          "type": "uint256"
        },
        {
          "internalType": "uint256",
          "name": "amount",
          "type": "uint256"
        },
        {
          "internalType": "bytes",
          "name": "data",
          "type": "bytes"
        }
      ],
      "name": "safeTransferFrom",
      "outputs": [],
      "stateMutability": "nonpayable",
      "type": "function"
    },
    {
      "inputs": [
        {
          "internalType": "address",
          "name": "operator",
          "type": "address"
        },
        {
          "internalType": "bool",
          "name": "approved",
          "type": "bool"
        }
      ],
      "name": "setApprovalForAll",
      "outputs": [],
      "stateMutability": "nonpayable",
      "type": "function"
    },
    {
      "inputs": [
        {
          "internalType": "string",
          "name": "_newBaseURI",
          "type": "string"
        }
      ],
      "name": "setBaseURI",
      "outputs": [],
      "stateMutability": "nonpayable",
      "type": "function"
    },
    {
      "inputs": [
        {
          "internalType": "uint256",
          "name": "tokenId",
          "type": "uint256"
        },
        {
          "internalType": "address",
          "name": "recipient",
          "type": "address"
        },
        {
          "internalType": "uint256",
          "name": "value",
          "type": "uint256"
        }
      ],
      "name": "setTokenRoyalty",
      "outputs": [],
      "stateMutability": "nonpayable",
      "type": "function"
    },
    {
      "inputs": [
        {
          "internalType": "bytes4",
          "name": "interfaceId",
          "type": "bytes4"
        }
      ],
      "name": "supportsInterface",
      "outputs": [
        {
          "internalType": "bool",
          "name": "",
          "type": "bool"
        }
      ],
      "stateMutability": "view",
      "type": "function"
    },
    {
      "inputs": [
        {
          "internalType": "uint256",
          "name": "",
          "type": "uint256"
        }
      ],
      "name": "tokenOwners",
      "outputs": [
        {
          "internalType": "address",
          "name": "",
          "type": "address"
        }
      ],
      "stateMutability": "view",
      "type": "function"
    },
    {
      "inputs": [
        {
          "internalType": "uint256",
          "name": "",
          "type": "uint256"
        }
      ],
      "name": "tokenPrices",
      "outputs": [
        {
          "internalType": "uint256",
          "name": "",
          "type": "uint256"
        }
      ],
      "stateMutability": "view",
      "type": "function"
    },
    {
      "inputs": [
        {
          "internalType": "address",
          "name": "from",
          "type": "address"
        },
        {
          "internalType": "address",
          "name": "to",
          "type": "address"
        },
        {
          "internalType": "uint256",
          "name": "id",
          "type": "uint256"
        },
        {
          "internalType": "uint256",
          "name": "amount",
          "type": "uint256"
        }
      ],
      "name": "transfer",
      "outputs": [],
      "stateMutability": "payable",
      "type": "function"
    },
    {
      "inputs": [
        {
          "internalType": "uint256",
          "name": "id",
          "type": "uint256"
        }
      ],
      "name": "uri",
      "outputs": [
        {
          "internalType": "string",
          "name": "",
          "type": "string"
        }
      ],
      "stateMutability": "view",
      "type": "function"
    }
  ],
  "devdoc": {
    "kind": "dev",
    "methods": {
      "balanceOf(address,uint256)": {
        "details": "See {IERC1155-balanceOf}. Requirements: - `account` cannot be the zero address."
      },
      "balanceOfBatch(address[],uint256[])": {
        "details": "See {IERC1155-balanceOfBatch}. Requirements: - `accounts` and `ids` must have the same length."
      },
      "getRoleAdmin(bytes32)": {
        "details": "Returns the admin role that controls `role`. See {grantRole} and {revokeRole}. To change a role's admin, use {_setRoleAdmin}."
      },
      "grantRole(bytes32,address)": {
        "details": "Grants `role` to `account`. If `account` had not been already granted `role`, emits a {RoleGranted} event. Requirements: - the caller must have ``role``'s admin role. May emit a {RoleGranted} event."
      },
      "hasRole(bytes32,address)": {
        "details": "Returns `true` if `account` has been granted `role`."
      },
      "isApprovedForAll(address,address)": {
        "details": "See {IERC1155-isApprovedForAll}."
      },
      "paused()": {
        "details": "Returns true if the contract is paused, and false otherwise."
      },
      "renounceRole(bytes32,address)": {
        "details": "Revokes `role` from the calling account. Roles are often managed via {grantRole} and {revokeRole}: this function's purpose is to provide a mechanism for accounts to lose their privileges if they are compromised (such as when a trusted device is misplaced). If the calling account had been revoked `role`, emits a {RoleRevoked} event. Requirements: - the caller must be `account`. May emit a {RoleRevoked} event."
      },
      "revokeRole(bytes32,address)": {
        "details": "Revokes `role` from `account`. If `account` had been granted `role`, emits a {RoleRevoked} event. Requirements: - the caller must have ``role``'s admin role. May emit a {RoleRevoked} event."
      },
      "safeBatchTransferFrom(address,address,uint256[],uint256[],bytes)": {
        "details": "See {IERC1155-safeBatchTransferFrom}."
      },
      "safeTransferFrom(address,address,uint256,uint256,bytes)": {
        "details": "See {IERC1155-safeTransferFrom}."
      },
      "setApprovalForAll(address,bool)": {
        "details": "See {IERC1155-setApprovalForAll}."
      }
    },
    "version": 1
  },
  "evm": {
    "assembly": "    /* \"ERC1155Facet.sol\":1539:1576  string public baseExtension = \".json\" */\n  0xc0\n    /* \"ERC1155Facet.sol\":518:9080  contract ERC1155Facet is ... */\n  0x40\n    /* \"ERC1155Facet.sol\":1539:1576  string public baseExtension = \".json\" */\n  mstore\n  0x05\n    /* \"ERC1155Facet.sol\":518:9080  contract ERC1155Facet is ... */\n  0x80\n    /* \"ERC1155Facet.sol\":1539:1576  string public baseExtension = \".json\" */\n  dup2\n  swap1\n  mstore\n  shl(0xd9, 0x173539b7b7)\n  0xa0\n  swap1\n  dup2\n  mstore\n  tag_1\n  swap2\n  0x06\n  swap2\n  swap1\n  tag_2\n  jump\t// in\ntag_1:\n  pop\n    /* \"ERC1155Facet.sol\":2194:2284  constructor() ERC1155(\"\") {... */\n  callvalue\n  dup1\n  iszero\n  tag_3\n  jumpi\n  0x00\n  dup1\n  revert\ntag_3:\n  pop\n    /* \"@openzeppelin/contracts/token/ERC1155/ERC1155.sol\":1107:1169   */\n  0x40\n  dup1\n  mload\n  0x20\n  dup2\n  add\n  swap1\n  swap2\n  mstore\n  0x00\n  dup2\n  mstore\n    /* \"@openzeppelin/contracts/token/ERC1155/ERC1155.sol\":1149:1162   */\n  tag_8\n    /* \"@openzeppelin/contracts/token/ERC1155/ERC1155.sol\":1107:1169   */\n  dup2\n    /* \"@openzeppelin/contracts/token/ERC1155/ERC1155.sol\":1149:1156   */\n  tag_9\n    /* \"@openzeppelin/contracts/token/ERC1155/ERC1155.sol\":1149:1162   */\n  jump\t// in\ntag_8:\n  pop\n    /* \"@openzeppelin/contracts/security/Pausable.sol\":996:1003   */\n  0x04\n    /* \"@openzeppelin/contracts/security/Pausable.sol\":996:1011   */\n  dup1\n  sload\n  not(0xff)\n  and\n  swap1\n  sstore\n    /* \"ERC1155Facet.sol\":2230:2241  initRoles() */\n  tag_12\n    /* \"ERC1155Facet.sol\":2230:2239  initRoles */\n  tag_13\n    /* \"ERC1155Facet.sol\":2230:2241  initRoles() */\n  jump\t// in\ntag_12:\n    /* \"ERC1155Facet.sol\":518:9080  contract ERC1155Facet is ... */\n  jump(tag_48)\n    /* \"@openzeppelin/contracts/token/ERC1155/ERC1155.sol\":8173:8259   */\ntag_9:\n    /* \"@openzeppelin/contracts/token/ERC1155/ERC1155.sol\":8239:8252   */\n  dup1\n  mload\n  tag_16\n  swap1\n    /* \"@openzeppelin/contracts/token/ERC1155/ERC1155.sol\":8239:8243   */\n  0x02\n  swap1\n    /* \"@openzeppelin/contracts/token/ERC1155/ERC1155.sol\":8239:8252   */\n  0x20\n  dup5\n  add\n  swap1\n  tag_2\n  jump\t// in\ntag_16:\n  pop\n    /* \"@openzeppelin/contracts/token/ERC1155/ERC1155.sol\":8173:8259   */\n  pop\n  jump\t// out\n    /* \"ERC1155Facet.sol\":2290:2575  function initRoles() private {... */\ntag_13:\n    /* \"ERC1155Facet.sol\":2329:2373  _grantRole(DEFAULT_ADMIN_ROLE, _msgSender()) */\n  tag_18\n    /* \"@openzeppelin/contracts/access/AccessControl.sol\":2072:2076   */\n  0x00\n    /* \"@openzeppelin/contracts/utils/Context.sol\":719:729   */\n  caller\n    /* \"ERC1155Facet.sol\":2329:2339  _grantRole */\n  tag_21\n    /* \"ERC1155Facet.sol\":2329:2373  _grantRole(DEFAULT_ADMIN_ROLE, _msgSender()) */\n  jump\t// in\ntag_18:\n    /* \"ERC1155Facet.sol\":2383:2424  _grantRole(URI_SETTER_ROLE, _msgSender()) */\n  tag_22\n    /* \"ERC1155Facet.sol\":920:948  keccak256(\"URI_SETTER_ROLE\") */\n  0x7804d923f43a17d325d77e781528e0793b2edd9890ab45fc64efd7b4b427744c\n    /* \"@openzeppelin/contracts/utils/Context.sol\":719:729   */\n  caller\n    /* \"ERC1155Facet.sol\":2329:2339  _grantRole */\n  tag_21\n    /* \"ERC1155Facet.sol\":2329:2373  _grantRole(DEFAULT_ADMIN_ROLE, _msgSender()) */\n  jump\t// in\n    /* \"ERC1155Facet.sol\":2383:2424  _grantRole(URI_SETTER_ROLE, _msgSender()) */\ntag_22:\n    /* \"ERC1155Facet.sol\":2434:2471  _grantRole(MINTER_ROLE, _msgSender()) */\n  tag_24\n    /* \"ERC1155Facet.sol\":1060:1084  keccak256(\"MINTER_ROLE\") */\n  0x9f2df0fed2c77648de5860a4cc508cd0818c85b8b8a1ab4ceeef8d981c8956a6\n    /* \"@openzeppelin/contracts/utils/Context.sol\":719:729   */\n  caller\n    /* \"ERC1155Facet.sol\":2329:2339  _grantRole */\n  tag_21\n    /* \"ERC1155Facet.sol\":2329:2373  _grantRole(DEFAULT_ADMIN_ROLE, _msgSender()) */\n  jump\t// in\n    /* \"ERC1155Facet.sol\":2434:2471  _grantRole(MINTER_ROLE, _msgSender()) */\ntag_24:\n    /* \"ERC1155Facet.sol\":2481:2517  _grantRole(HODLR_ROLE, _msgSender()) */\n  tag_26\n    /* \"ERC1155Facet.sol\":772:795  keccak256(\"HODLR_ROLE\") */\n  0x5690342a5622b53ebb7dbf01640710d2f9bf4af2652bffa51830f5fb49cc30b3\n    /* \"@openzeppelin/contracts/utils/Context.sol\":719:729   */\n  caller\n    /* \"ERC1155Facet.sol\":2329:2339  _grantRole */\n  tag_21\n    /* \"ERC1155Facet.sol\":2329:2373  _grantRole(DEFAULT_ADMIN_ROLE, _msgSender()) */\n  jump\t// in\n    /* \"ERC1155Facet.sol\":2481:2517  _grantRole(HODLR_ROLE, _msgSender()) */\ntag_26:\n    /* \"ERC1155Facet.sol\":2527:2568  _grantRole(FREELANCER_ROLE, _msgSender()) */\n  tag_28\n    /* \"ERC1155Facet.sol\":843:871  keccak256(\"FREELANCER_ROLE\") */\n  0xdee5dd6a5465c6132eda87e8cb3980b287f43d6f5332a897e4a238c66a15aec2\n    /* \"@openzeppelin/contracts/utils/Context.sol\":719:729   */\n  caller\n    /* \"ERC1155Facet.sol\":2329:2339  _grantRole */\n  tag_21\n    /* \"ERC1155Facet.sol\":2329:2373  _grantRole(DEFAULT_ADMIN_ROLE, _msgSender()) */\n  jump\t// in\n    /* \"ERC1155Facet.sol\":2527:2568  _grantRole(FREELANCER_ROLE, _msgSender()) */\ntag_28:\n    /* \"ERC1155Facet.sol\":2290:2575  function initRoles() private {... */\n  jump\t// out\n    /* \"@openzeppelin/contracts/access/AccessControl.sol\":7474:7707   */\ntag_21:\n    /* \"@openzeppelin/contracts/access/AccessControl.sol\":2981:2985   */\n  0x00\n    /* \"@openzeppelin/contracts/access/AccessControl.sol\":3004:3016   */\n  dup3\n  dup2\n  mstore\n    /* \"@openzeppelin/contracts/access/AccessControl.sol\":3004:3010   */\n  0x03\n    /* \"@openzeppelin/contracts/access/AccessControl.sol\":3004:3016   */\n  0x20\n  swap1\n  dup2\n  mstore\n  0x40\n  dup1\n  dup4\n  keccak256\n  sub(shl(0xa0, 0x01), 0x01)\n    /* \"@openzeppelin/contracts/access/AccessControl.sol\":3004:3033   */\n  dup6\n  and\n  dup5\n  mstore\n  swap1\n  swap2\n  mstore\n  swap1\n  keccak256\n  sload\n  0xff\n  and\n    /* \"@openzeppelin/contracts/access/AccessControl.sol\":7552:7701   */\n  tag_16\n  jumpi\n    /* \"@openzeppelin/contracts/access/AccessControl.sol\":7595:7607   */\n  0x00\n  dup3\n  dup2\n  mstore\n    /* \"@openzeppelin/contracts/access/AccessControl.sol\":7595:7601   */\n  0x03\n    /* \"@openzeppelin/contracts/access/AccessControl.sol\":7595:7607   */\n  0x20\n  swap1\n  dup2\n  mstore\n  0x40\n  dup1\n  dup4\n  keccak256\n  sub(shl(0xa0, 0x01), 0x01)\n    /* \"@openzeppelin/contracts/access/AccessControl.sol\":7595:7624   */\n  dup6\n  and\n  dup5\n  mstore\n  swap1\n  swap2\n  mstore\n  swap1\n  keccak256\n    /* \"@openzeppelin/contracts/access/AccessControl.sol\":7595:7631   */\n  dup1\n  sload\n  not(0xff)\n  and\n    /* \"@openzeppelin/contracts/access/AccessControl.sol\":7627:7631   */\n  0x01\n    /* \"@openzeppelin/contracts/access/AccessControl.sol\":7595:7631   */\n  or\n  swap1\n  sstore\n    /* \"@openzeppelin/contracts/access/AccessControl.sol\":7677:7689   */\n  tag_35\n    /* \"@openzeppelin/contracts/utils/Context.sol\":719:729   */\n  caller\n  swap1\n    /* \"@openzeppelin/contracts/utils/Context.sol\":640:736   */\n  jump\n    /* \"@openzeppelin/contracts/access/AccessControl.sol\":7677:7689   */\ntag_35:\n  sub(shl(0xa0, 0x01), 0x01)\n    /* \"@openzeppelin/contracts/access/AccessControl.sol\":7650:7690   */\n  and\n    /* \"@openzeppelin/contracts/access/AccessControl.sol\":7668:7675   */\n  dup2\n  sub(shl(0xa0, 0x01), 0x01)\n    /* \"@openzeppelin/contracts/access/AccessControl.sol\":7650:7690   */\n  and\n    /* \"@openzeppelin/contracts/access/AccessControl.sol\":7662:7666   */\n  dup4\n    /* \"@openzeppelin/contracts/access/AccessControl.sol\":7650:7690   */\n  0x2f8788117e7eff1d82e926ec794901d17c78024a50270940304540a733656f0d\n  mload(0x40)\n  mload(0x40)\n  dup1\n  swap2\n  sub\n  swap1\n  log4\n    /* \"@openzeppelin/contracts/access/AccessControl.sol\":7474:7707   */\n  pop\n  pop\n  jump\t// out\n    /* \"ERC1155Facet.sol\":518:9080  contract ERC1155Facet is ... */\ntag_2:\n  dup3\n  dup1\n  sload\n  tag_37\n  swap1\n  tag_38\n  jump\t// in\ntag_37:\n  swap1\n  0x00\n  mstore\n  keccak256(0x00, 0x20)\n  swap1\n  0x1f\n  add\n  0x20\n  swap1\n  div\n  dup2\n  add\n  swap3\n  dup3\n  tag_40\n  jumpi\n  0x00\n  dup6\n  sstore\n  jump(tag_43)\ntag_40:\n  dup3\n  0x1f\n  lt\n  tag_41\n  jumpi\n  dup1\n  mload\n  not(0xff)\n  and\n  dup4\n  dup1\n  add\n  or\n  dup6\n  sstore\n  jump(tag_43)\ntag_41:\n  dup3\n  dup1\n  add\n  0x01\n  add\n  dup6\n  sstore\n  dup3\n  iszero\n  tag_43\n  jumpi\n  swap2\n  dup3\n  add\ntag_42:\n  dup3\n  dup2\n  gt\n  iszero\n  tag_43\n  jumpi\n  dup3\n  mload\n  dup3\n  sstore\n  swap2\n  0x20\n  add\n  swap2\n  swap1\n  0x01\n  add\n  swap1\n  jump(tag_42)\ntag_43:\n  pop\n  tag_44\n  swap3\n  swap2\n  pop\n  tag_45\n  jump\t// in\ntag_44:\n  pop\n  swap1\n  jump\t// out\ntag_45:\ntag_46:\n  dup1\n  dup3\n  gt\n  iszero\n  tag_44\n  jumpi\n  0x00\n  dup2\n  sstore\n  0x01\n  add\n  jump(tag_46)\n    /* \"#utility.yul\":14:394   */\ntag_38:\n    /* \"#utility.yul\":93:94   */\n  0x01\n    /* \"#utility.yul\":89:101   */\n  dup2\n  dup2\n  shr\n  swap1\n    /* \"#utility.yul\":136:148   */\n  dup3\n  and\n  dup1\n    /* \"#utility.yul\":157:218   */\n  tag_50\n  jumpi\n    /* \"#utility.yul\":211:215   */\n  0x7f\n    /* \"#utility.yul\":203:209   */\n  dup3\n    /* \"#utility.yul\":199:216   */\n  and\n    /* \"#utility.yul\":189:216   */\n  swap2\n  pop\n    /* \"#utility.yul\":157:218   */\ntag_50:\n    /* \"#utility.yul\":264:266   */\n  0x20\n    /* \"#utility.yul\":256:262   */\n  dup3\n    /* \"#utility.yul\":253:267   */\n  lt\n    /* \"#utility.yul\":233:251   */\n  dup2\n    /* \"#utility.yul\":230:268   */\n  sub\n    /* \"#utility.yul\":227:388   */\n  tag_51\n  jumpi\n    /* \"#utility.yul\":310:320   */\n  0x4e487b71\n    /* \"#utility.yul\":305:308   */\n  0xe0\n    /* \"#utility.yul\":301:321   */\n  shl\n    /* \"#utility.yul\":298:299   */\n  0x00\n    /* \"#utility.yul\":291:322   */\n  mstore\n    /* \"#utility.yul\":345:349   */\n  0x22\n    /* \"#utility.yul\":342:343   */\n  0x04\n    /* \"#utility.yul\":335:350   */\n  mstore\n    /* \"#utility.yul\":373:377   */\n  0x24\n    /* \"#utility.yul\":370:371   */\n  0x00\n    /* \"#utility.yul\":363:378   */\n  revert\n    /* \"#utility.yul\":227:388   */\ntag_51:\n  pop\n    /* \"#utility.yul\":14:394   */\n  swap2\n  swap1\n  pop\n  jump\t// out\ntag_48:\n    /* \"ERC1155Facet.sol\":518:9080  contract ERC1155Facet is ... */\n  dataSize(sub_0)\n  dup1\n  dataOffset(sub_0)\n  0x00\n  codecopy\n  0x00\n  return\nstop\n\nsub_0: assembly {\n        /* \"ERC1155Facet.sol\":518:9080  contract ERC1155Facet is ... */\n      mstore(0x40, 0x80)\n      jumpi(tag_1, lt(calldatasize, 0x04))\n      shr(0xe0, calldataload(0x00))\n      dup1\n      0x8a5927e8\n      gt\n      tag_41\n      jumpi\n      dup1\n      0xd547741f\n      gt\n      tag_42\n      jumpi\n      dup1\n      0xe985e9c5\n      gt\n      tag_43\n      jumpi\n      dup1\n      0xf242432a\n      gt\n      tag_44\n      jumpi\n      dup1\n      0xf242432a\n      eq\n      tag_38\n      jumpi\n      dup1\n      0xf5298aca\n      eq\n      tag_39\n      jumpi\n      dup1\n      0xf8a14f46\n      eq\n      tag_40\n      jumpi\n      0x00\n      dup1\n      revert\n    tag_44:\n      dup1\n      0xe985e9c5\n      eq\n      tag_36\n      jumpi\n      dup1\n      0xec1ca9b8\n      eq\n      tag_37\n      jumpi\n      0x00\n      dup1\n      revert\n    tag_43:\n      dup1\n      0xe5afe3e6\n      gt\n      tag_45\n      jumpi\n      dup1\n      0xe5afe3e6\n      eq\n      tag_33\n      jumpi\n      dup1\n      0xe5dc4d72\n      eq\n      tag_34\n      jumpi\n      dup1\n      0xe63ab1e9\n      eq\n      tag_35\n      jumpi\n      0x00\n      dup1\n      revert\n    tag_45:\n      dup1\n      0xd547741f\n      eq\n      tag_31\n      jumpi\n      dup1\n      0xd81d0a15\n      eq\n      tag_32\n      jumpi\n      0x00\n      dup1\n      revert\n    tag_42:\n      dup1\n      0xa22cb465\n      gt\n      tag_46\n      jumpi\n      dup1\n      0xb8f7c8d3\n      gt\n      tag_47\n      jumpi\n      dup1\n      0xb8f7c8d3\n      eq\n      tag_28\n      jumpi\n      dup1\n      0xc6682862\n      eq\n      tag_29\n      jumpi\n      dup1\n      0xd5391393\n      eq\n      tag_30\n      jumpi\n      0x00\n      dup1\n      revert\n    tag_47:\n      dup1\n      0xa22cb465\n      eq\n      tag_26\n      jumpi\n      dup1\n      0xb053b5ff\n      eq\n      tag_12\n      jumpi\n      0x00\n      dup1\n      revert\n    tag_46:\n      dup1\n      0x97059e32\n      gt\n      tag_48\n      jumpi\n      dup1\n      0x97059e32\n      eq\n      tag_23\n      jumpi\n      dup1\n      0x9713c807\n      eq\n      tag_24\n      jumpi\n      dup1\n      0xa217fddf\n      eq\n      tag_25\n      jumpi\n      0x00\n      dup1\n      revert\n    tag_48:\n      dup1\n      0x8a5927e8\n      eq\n      tag_21\n      jumpi\n      dup1\n      0x91d14854\n      eq\n      tag_22\n      jumpi\n      0x00\n      dup1\n      revert\n    tag_41:\n      dup1\n      0x36568abe\n      gt\n      tag_49\n      jumpi\n      dup1\n      0x5c975abb\n      gt\n      tag_50\n      jumpi\n      dup1\n      0x6c0360eb\n      gt\n      tag_51\n      jumpi\n      dup1\n      0x6c0360eb\n      eq\n      tag_18\n      jumpi\n      dup1\n      0x6cc606a6\n      eq\n      tag_19\n      jumpi\n      dup1\n      0x7f345710\n      eq\n      tag_20\n      jumpi\n      0x00\n      dup1\n      revert\n    tag_51:\n      dup1\n      0x5c975abb\n      eq\n      tag_16\n      jumpi\n      dup1\n      0x6b20c454\n      eq\n      tag_17\n      jumpi\n      0x00\n      dup1\n      revert\n    tag_50:\n      dup1\n      0x42061e9f\n      gt\n      tag_52\n      jumpi\n      dup1\n      0x42061e9f\n      eq\n      tag_13\n      jumpi\n      dup1\n      0x4e1273f4\n      eq\n      tag_14\n      jumpi\n      dup1\n      0x55f804b3\n      eq\n      tag_15\n      jumpi\n      0x00\n      dup1\n      revert\n    tag_52:\n      dup1\n      0x36568abe\n      eq\n      tag_11\n      jumpi\n      dup1\n      0x3765ecf7\n      eq\n      tag_12\n      jumpi\n      0x00\n      dup1\n      revert\n    tag_49:\n      dup1\n      0x248a9ca3\n      gt\n      tag_53\n      jumpi\n      dup1\n      0x2eb2c2d6\n      gt\n      tag_54\n      jumpi\n      dup1\n      0x2eb2c2d6\n      eq\n      tag_8\n      jumpi\n      dup1\n      0x2f2ff15d\n      eq\n      tag_9\n      jumpi\n      dup1\n      0x357fa9db\n      eq\n      tag_10\n      jumpi\n      0x00\n      dup1\n      revert\n    tag_54:\n      dup1\n      0x248a9ca3\n      eq\n      tag_6\n      jumpi\n      dup1\n      0x2a55205a\n      eq\n      tag_7\n      jumpi\n      0x00\n      dup1\n      revert\n    tag_53:\n      dup1\n      0xfdd58e\n      eq\n      tag_2\n      jumpi\n      dup1\n      0x01ffc9a7\n      eq\n      tag_3\n      jumpi\n      dup1\n      0x0411b252\n      eq\n      tag_4\n      jumpi\n      dup1\n      0x0e89341c\n      eq\n      tag_5\n      jumpi\n    tag_1:\n      0x00\n      dup1\n      revert\n        /* \"@openzeppelin/contracts/token/ERC1155/ERC1155.sol\":2185:2412   */\n    tag_2:\n      callvalue\n      dup1\n      iszero\n      tag_55\n      jumpi\n      0x00\n      dup1\n      revert\n    tag_55:\n      pop\n      tag_56\n      tag_57\n      calldatasize\n      0x04\n      tag_58\n      jump\t// in\n    tag_57:\n      tag_59\n      jump\t// in\n    tag_56:\n      mload(0x40)\n        /* \"#utility.yul\":620:645   */\n      swap1\n      dup2\n      mstore\n        /* \"#utility.yul\":608:610   */\n      0x20\n        /* \"#utility.yul\":593:611   */\n      add\n        /* \"@openzeppelin/contracts/token/ERC1155/ERC1155.sol\":2185:2412   */\n    tag_60:\n      mload(0x40)\n      dup1\n      swap2\n      sub\n      swap1\n      return\n        /* \"ERC1155Facet.sol\":8875:9078  function supportsInterface(bytes4 interfaceId)... */\n    tag_3:\n      callvalue\n      dup1\n      iszero\n      tag_62\n      jumpi\n      0x00\n      dup1\n      revert\n    tag_62:\n      pop\n      tag_63\n      tag_64\n      calldatasize\n      0x04\n      tag_65\n      jump\t// in\n    tag_64:\n      tag_66\n      jump\t// in\n    tag_63:\n      mload(0x40)\n        /* \"#utility.yul\":1207:1221   */\n      swap1\n      iszero\n        /* \"#utility.yul\":1200:1222   */\n      iszero\n        /* \"#utility.yul\":1182:1223   */\n      dup2\n      mstore\n        /* \"#utility.yul\":1170:1172   */\n      0x20\n        /* \"#utility.yul\":1155:1173   */\n      add\n        /* \"ERC1155Facet.sol\":8875:9078  function supportsInterface(bytes4 interfaceId)... */\n      tag_60\n        /* \"#utility.yul\":1042:1229   */\n      jump\n        /* \"ERC1155Facet.sol\":7141:7629  function transfer(... */\n    tag_4:\n      tag_69\n      tag_70\n      calldatasize\n      0x04\n      tag_71\n      jump\t// in\n    tag_70:\n      tag_72\n      jump\t// in\n    tag_69:\n      stop\n        /* \"ERC1155Facet.sol\":3261:3371  function uri(uint256 id) public view override returns (string memory) {... */\n    tag_5:\n      callvalue\n      dup1\n      iszero\n      tag_73\n      jumpi\n      0x00\n      dup1\n      revert\n    tag_73:\n      pop\n      tag_74\n      tag_75\n      calldatasize\n      0x04\n      tag_76\n      jump\t// in\n    tag_75:\n      tag_77\n      jump\t// in\n    tag_74:\n      mload(0x40)\n      tag_60\n      swap2\n      swap1\n      tag_79\n      jump\t// in\n        /* \"@openzeppelin/contracts/access/AccessControl.sol\":4391:4520   */\n    tag_6:\n      callvalue\n      dup1\n      iszero\n      tag_80\n      jumpi\n      0x00\n      dup1\n      revert\n    tag_80:\n      pop\n      tag_56\n      tag_82\n      calldatasize\n      0x04\n      tag_76\n      jump\t// in\n    tag_82:\n        /* \"@openzeppelin/contracts/access/AccessControl.sol\":4465:4472   */\n      0x00\n        /* \"@openzeppelin/contracts/access/AccessControl.sol\":4491:4503   */\n      swap1\n      dup2\n      mstore\n        /* \"@openzeppelin/contracts/access/AccessControl.sol\":4491:4497   */\n      0x03\n        /* \"@openzeppelin/contracts/access/AccessControl.sol\":4491:4503   */\n      0x20\n      mstore\n      0x40\n      swap1\n      keccak256\n        /* \"@openzeppelin/contracts/access/AccessControl.sol\":4491:4513   */\n      0x01\n      add\n      sload\n      swap1\n        /* \"@openzeppelin/contracts/access/AccessControl.sol\":4391:4520   */\n      jump\n        /* \"ERC1155Facet.sol\":2880:3192  function royaltyInfo(uint256 tokenId, uint256 value)... */\n    tag_7:\n      callvalue\n      dup1\n      iszero\n      tag_87\n      jumpi\n      0x00\n      dup1\n      revert\n    tag_87:\n      pop\n      tag_88\n      tag_89\n      calldatasize\n      0x04\n      tag_90\n      jump\t// in\n    tag_89:\n      tag_91\n      jump\t// in\n    tag_88:\n      0x40\n      dup1\n      mload\n      sub(shl(0xa0, 0x01), 0x01)\n        /* \"#utility.yul\":3384:3439   */\n      swap1\n      swap4\n      and\n        /* \"#utility.yul\":3366:3440   */\n      dup4\n      mstore\n        /* \"#utility.yul\":3471:3473   */\n      0x20\n        /* \"#utility.yul\":3456:3474   */\n      dup4\n      add\n        /* \"#utility.yul\":3449:3483   */\n      swap2\n      swap1\n      swap2\n      mstore\n        /* \"#utility.yul\":3339:3357   */\n      add\n        /* \"ERC1155Facet.sol\":2880:3192  function royaltyInfo(uint256 tokenId, uint256 value)... */\n      tag_60\n        /* \"#utility.yul\":3192:3489   */\n      jump\n        /* \"@openzeppelin/contracts/token/ERC1155/ERC1155.sol\":4065:4492   */\n    tag_8:\n      callvalue\n      dup1\n      iszero\n      tag_94\n      jumpi\n      0x00\n      dup1\n      revert\n    tag_94:\n      pop\n      tag_69\n      tag_96\n      calldatasize\n      0x04\n      tag_97\n      jump\t// in\n    tag_96:\n      tag_98\n      jump\t// in\n        /* \"@openzeppelin/contracts/access/AccessControl.sol\":4816:4961   */\n    tag_9:\n      callvalue\n      dup1\n      iszero\n      tag_99\n      jumpi\n      0x00\n      dup1\n      revert\n    tag_99:\n      pop\n      tag_69\n      tag_101\n      calldatasize\n      0x04\n      tag_102\n      jump\t// in\n    tag_101:\n      tag_103\n      jump\t// in\n        /* \"ERC1155Facet.sol\":801:871  bytes32 public constant FREELANCER_ROLE = keccak256(\"FREELANCER_ROLE\") */\n    tag_10:\n      callvalue\n      dup1\n      iszero\n      tag_104\n      jumpi\n      0x00\n      dup1\n      revert\n    tag_104:\n      pop\n      tag_56\n        /* \"ERC1155Facet.sol\":843:871  keccak256(\"FREELANCER_ROLE\") */\n      0xdee5dd6a5465c6132eda87e8cb3980b287f43d6f5332a897e4a238c66a15aec2\n        /* \"ERC1155Facet.sol\":801:871  bytes32 public constant FREELANCER_ROLE = keccak256(\"FREELANCER_ROLE\") */\n      dup2\n      jump\n        /* \"@openzeppelin/contracts/access/AccessControl.sol\":5925:6139   */\n    tag_11:\n      callvalue\n      dup1\n      iszero\n      tag_108\n      jumpi\n      0x00\n      dup1\n      revert\n    tag_108:\n      pop\n      tag_69\n      tag_110\n      calldatasize\n      0x04\n      tag_102\n      jump\t// in\n    tag_110:\n      tag_111\n      jump\t// in\n        /* \"ERC1155Facet.sol\":1459:1505  uint256 public constant MAX_MINT_LIMIT_PUB = 3 */\n    tag_12:\n      callvalue\n      dup1\n      iszero\n      tag_112\n      jumpi\n      0x00\n      dup1\n      revert\n    tag_112:\n      pop\n      tag_56\n        /* \"ERC1155Facet.sol\":1504:1505  3 */\n      0x03\n        /* \"ERC1155Facet.sol\":1459:1505  uint256 public constant MAX_MINT_LIMIT_PUB = 3 */\n      dup2\n      jump\n        /* \"ERC1155Facet.sol\":3899:4687  function mintOne(... */\n    tag_13:\n      tag_69\n      tag_117\n      calldatasize\n      0x04\n      tag_118\n      jump\t// in\n    tag_117:\n      tag_119\n      jump\t// in\n        /* \"@openzeppelin/contracts/token/ERC1155/ERC1155.sol\":2569:3077   */\n    tag_14:\n      callvalue\n      dup1\n      iszero\n      tag_120\n      jumpi\n      0x00\n      dup1\n      revert\n    tag_120:\n      pop\n      tag_121\n      tag_122\n      calldatasize\n      0x04\n      tag_123\n      jump\t// in\n    tag_122:\n      tag_124\n      jump\t// in\n    tag_121:\n      mload(0x40)\n      tag_60\n      swap2\n      swap1\n      tag_126\n      jump\t// in\n        /* \"ERC1155Facet.sol\":3666:3804  function setBaseURI(string memory _newBaseURI)... */\n    tag_15:\n      callvalue\n      dup1\n      iszero\n      tag_127\n      jumpi\n      0x00\n      dup1\n      revert\n    tag_127:\n      pop\n      tag_69\n      tag_129\n      calldatasize\n      0x04\n      tag_130\n      jump\t// in\n    tag_129:\n      tag_131\n      jump\t// in\n        /* \"@openzeppelin/contracts/security/Pausable.sol\":1615:1699   */\n    tag_16:\n      callvalue\n      dup1\n      iszero\n      tag_132\n      jumpi\n      0x00\n      dup1\n      revert\n    tag_132:\n      pop\n        /* \"@openzeppelin/contracts/security/Pausable.sol\":1685:1692   */\n      and(0xff, sload(0x04))\n        /* \"@openzeppelin/contracts/security/Pausable.sol\":1615:1699   */\n      jump(tag_63)\n        /* \"@openzeppelin/contracts/token/ERC1155/extensions/ERC1155Burnable.sol\":730:1078   */\n    tag_17:\n      callvalue\n      dup1\n      iszero\n      tag_136\n      jumpi\n      0x00\n      dup1\n      revert\n    tag_136:\n      pop\n      tag_69\n      tag_138\n      calldatasize\n      0x04\n      tag_139\n      jump\t// in\n    tag_138:\n      tag_140\n      jump\t// in\n        /* \"ERC1155Facet.sol\":1512:1533  string public baseURI */\n    tag_18:\n      callvalue\n      dup1\n      iszero\n      tag_141\n      jumpi\n      0x00\n      dup1\n      revert\n    tag_141:\n      pop\n      tag_74\n      tag_143\n      jump\t// in\n        /* \"ERC1155Facet.sol\":1148:1181  uint256 public constant HODLR = 1 */\n    tag_19:\n      callvalue\n      dup1\n      iszero\n      tag_145\n      jumpi\n      0x00\n      dup1\n      revert\n    tag_145:\n      pop\n      tag_56\n        /* \"ERC1155Facet.sol\":1180:1181  1 */\n      0x01\n        /* \"ERC1155Facet.sol\":1148:1181  uint256 public constant HODLR = 1 */\n      dup2\n      jump\n        /* \"ERC1155Facet.sol\":878:948  bytes32 public constant URI_SETTER_ROLE = keccak256(\"URI_SETTER_ROLE\") */\n    tag_20:\n      callvalue\n      dup1\n      iszero\n      tag_149\n      jumpi\n      0x00\n      dup1\n      revert\n    tag_149:\n      pop\n      tag_56\n        /* \"ERC1155Facet.sol\":920:948  keccak256(\"URI_SETTER_ROLE\") */\n      0x7804d923f43a17d325d77e781528e0793b2edd9890ab45fc64efd7b4b427744c\n        /* \"ERC1155Facet.sol\":878:948  bytes32 public constant URI_SETTER_ROLE = keccak256(\"URI_SETTER_ROLE\") */\n      dup2\n      jump\n        /* \"ERC1155Facet.sol\":6155:6963  function meltBatch(... */\n    tag_21:\n      callvalue\n      dup1\n      iszero\n      tag_153\n      jumpi\n      0x00\n      dup1\n      revert\n    tag_153:\n      pop\n      tag_69\n      tag_155\n      calldatasize\n      0x04\n      tag_156\n      jump\t// in\n    tag_155:\n      tag_157\n      jump\t// in\n        /* \"@openzeppelin/contracts/access/AccessControl.sol\":2895:3040   */\n    tag_22:\n      callvalue\n      dup1\n      iszero\n      tag_158\n      jumpi\n      0x00\n      dup1\n      revert\n    tag_158:\n      pop\n      tag_63\n      tag_160\n      calldatasize\n      0x04\n      tag_102\n      jump\t// in\n    tag_160:\n        /* \"@openzeppelin/contracts/access/AccessControl.sol\":2981:2985   */\n      0x00\n        /* \"@openzeppelin/contracts/access/AccessControl.sol\":3004:3016   */\n      swap2\n      dup3\n      mstore\n        /* \"@openzeppelin/contracts/access/AccessControl.sol\":3004:3010   */\n      0x03\n        /* \"@openzeppelin/contracts/access/AccessControl.sol\":3004:3016   */\n      0x20\n      swap1\n      dup2\n      mstore\n      0x40\n      dup1\n      dup5\n      keccak256\n      sub(shl(0xa0, 0x01), 0x01)\n        /* \"@openzeppelin/contracts/access/AccessControl.sol\":3004:3033   */\n      swap4\n      swap1\n      swap4\n      and\n      dup5\n      mstore\n      swap2\n      swap1\n      mstore\n      swap1\n      keccak256\n      sload\n      0xff\n      and\n      swap1\n        /* \"@openzeppelin/contracts/access/AccessControl.sol\":2895:3040   */\n      jump\n        /* \"ERC1155Facet.sol\":655:729  bytes32 public constant ALLOWED_LIST_ROLE = keccak256(\"ALLOWED_LIST_ROLE\") */\n    tag_23:\n      callvalue\n      dup1\n      iszero\n      tag_163\n      jumpi\n      0x00\n      dup1\n      revert\n    tag_163:\n      pop\n      tag_56\n        /* \"ERC1155Facet.sol\":699:729  keccak256(\"ALLOWED_LIST_ROLE\") */\n      0xe16362b29abc3a852e3b6d27b96bd379cb709b115d4edd02e14f8669095dc59e\n        /* \"ERC1155Facet.sol\":655:729  bytes32 public constant ALLOWED_LIST_ROLE = keccak256(\"ALLOWED_LIST_ROLE\") */\n      dup2\n      jump\n        /* \"ERC1155Facet.sol\":2581:2837  function setTokenRoyalty(... */\n    tag_24:\n      callvalue\n      dup1\n      iszero\n      tag_167\n      jumpi\n      0x00\n      dup1\n      revert\n    tag_167:\n      pop\n      tag_69\n      tag_169\n      calldatasize\n      0x04\n      tag_170\n      jump\t// in\n    tag_169:\n      tag_171\n      jump\t// in\n        /* \"@openzeppelin/contracts/access/AccessControl.sol\":2027:2076   */\n    tag_25:\n      callvalue\n      dup1\n      iszero\n      tag_172\n      jumpi\n      0x00\n      dup1\n      revert\n    tag_172:\n      pop\n      tag_56\n        /* \"@openzeppelin/contracts/access/AccessControl.sol\":2072:2076   */\n      0x00\n        /* \"@openzeppelin/contracts/access/AccessControl.sol\":2027:2076   */\n      dup2\n      jump\n        /* \"@openzeppelin/contracts/token/ERC1155/ERC1155.sol\":3145:3298   */\n    tag_26:\n      callvalue\n      dup1\n      iszero\n      tag_176\n      jumpi\n      0x00\n      dup1\n      revert\n    tag_176:\n      pop\n      tag_69\n      tag_178\n      calldatasize\n      0x04\n      tag_179\n      jump\t// in\n    tag_178:\n      tag_180\n      jump\t// in\n        /* \"ERC1155Facet.sol\":1187:1225  uint256 public constant FREELANCER = 2 */\n    tag_28:\n      callvalue\n      dup1\n      iszero\n      tag_185\n      jumpi\n      0x00\n      dup1\n      revert\n    tag_185:\n      pop\n      tag_56\n        /* \"ERC1155Facet.sol\":1224:1225  2 */\n      0x02\n        /* \"ERC1155Facet.sol\":1187:1225  uint256 public constant FREELANCER = 2 */\n      dup2\n      jump\n        /* \"ERC1155Facet.sol\":1539:1576  string public baseExtension = \".json\" */\n    tag_29:\n      callvalue\n      dup1\n      iszero\n      tag_189\n      jumpi\n      0x00\n      dup1\n      revert\n    tag_189:\n      pop\n      tag_74\n      tag_191\n      jump\t// in\n        /* \"ERC1155Facet.sol\":1022:1084  bytes32 public constant MINTER_ROLE = keccak256(\"MINTER_ROLE\") */\n    tag_30:\n      callvalue\n      dup1\n      iszero\n      tag_193\n      jumpi\n      0x00\n      dup1\n      revert\n    tag_193:\n      pop\n      tag_56\n        /* \"ERC1155Facet.sol\":1060:1084  keccak256(\"MINTER_ROLE\") */\n      0x9f2df0fed2c77648de5860a4cc508cd0818c85b8b8a1ab4ceeef8d981c8956a6\n        /* \"ERC1155Facet.sol\":1022:1084  bytes32 public constant MINTER_ROLE = keccak256(\"MINTER_ROLE\") */\n      dup2\n      jump\n        /* \"@openzeppelin/contracts/access/AccessControl.sol\":5241:5388   */\n    tag_31:\n      callvalue\n      dup1\n      iszero\n      tag_197\n      jumpi\n      0x00\n      dup1\n      revert\n    tag_197:\n      pop\n      tag_69\n      tag_199\n      calldatasize\n      0x04\n      tag_102\n      jump\t// in\n    tag_199:\n      tag_200\n      jump\t// in\n        /* \"ERC1155Facet.sol\":4753:5574  function mintBatch(... */\n    tag_32:\n      callvalue\n      dup1\n      iszero\n      tag_201\n      jumpi\n      0x00\n      dup1\n      revert\n    tag_201:\n      pop\n      tag_69\n      tag_203\n      calldatasize\n      0x04\n      tag_156\n      jump\t// in\n    tag_203:\n      tag_204\n      jump\t// in\n        /* \"ERC1155Facet.sol\":1824:1870  mapping(uint256 => uint256) public tokenPrices */\n    tag_33:\n      callvalue\n      dup1\n      iszero\n      tag_205\n      jumpi\n      0x00\n      dup1\n      revert\n    tag_205:\n      pop\n      tag_56\n      tag_207\n      calldatasize\n      0x04\n      tag_76\n      jump\t// in\n    tag_207:\n      mstore(0x20, 0x0a)\n      0x00\n      swap1\n      dup2\n      mstore\n      0x40\n      swap1\n      keccak256\n      sload\n      dup2\n      jump\n        /* \"ERC1155Facet.sol\":735:795  bytes32 public constant HODLR_ROLE = keccak256(\"HODLR_ROLE\") */\n    tag_34:\n      callvalue\n      dup1\n      iszero\n      tag_210\n      jumpi\n      0x00\n      dup1\n      revert\n    tag_210:\n      pop\n      tag_56\n        /* \"ERC1155Facet.sol\":772:795  keccak256(\"HODLR_ROLE\") */\n      0x5690342a5622b53ebb7dbf01640710d2f9bf4af2652bffa51830f5fb49cc30b3\n        /* \"ERC1155Facet.sol\":735:795  bytes32 public constant HODLR_ROLE = keccak256(\"HODLR_ROLE\") */\n      dup2\n      jump\n        /* \"ERC1155Facet.sol\":954:1016  bytes32 public constant PAUSER_ROLE = keccak256(\"PAUSER_ROLE\") */\n    tag_35:\n      callvalue\n      dup1\n      iszero\n      tag_214\n      jumpi\n      0x00\n      dup1\n      revert\n    tag_214:\n      pop\n      tag_56\n        /* \"ERC1155Facet.sol\":992:1016  keccak256(\"PAUSER_ROLE\") */\n      0x65d7a28e3265b37a6474929f336521b332c1681b933f6cb9f3376673440d862a\n        /* \"ERC1155Facet.sol\":954:1016  bytes32 public constant PAUSER_ROLE = keccak256(\"PAUSER_ROLE\") */\n      dup2\n      jump\n        /* \"@openzeppelin/contracts/token/ERC1155/ERC1155.sol\":3365:3531   */\n    tag_36:\n      callvalue\n      dup1\n      iszero\n      tag_218\n      jumpi\n      0x00\n      dup1\n      revert\n    tag_218:\n      pop\n      tag_63\n      tag_220\n      calldatasize\n      0x04\n      tag_221\n      jump\t// in\n    tag_220:\n      sub(shl(0xa0, 0x01), 0x01)\n        /* \"@openzeppelin/contracts/token/ERC1155/ERC1155.sol\":3487:3514   */\n      swap2\n      dup3\n      and\n        /* \"@openzeppelin/contracts/token/ERC1155/ERC1155.sol\":3464:3468   */\n      0x00\n        /* \"@openzeppelin/contracts/token/ERC1155/ERC1155.sol\":3487:3514   */\n      swap1\n      dup2\n      mstore\n        /* \"@openzeppelin/contracts/token/ERC1155/ERC1155.sol\":3487:3505   */\n      0x01\n        /* \"@openzeppelin/contracts/token/ERC1155/ERC1155.sol\":3487:3514   */\n      0x20\n      swap1\n      dup2\n      mstore\n      0x40\n      dup1\n      dup4\n      keccak256\n        /* \"@openzeppelin/contracts/token/ERC1155/ERC1155.sol\":3487:3524   */\n      swap4\n      swap1\n      swap5\n      and\n      dup3\n      mstore\n      swap2\n      swap1\n      swap2\n      mstore\n      keccak256\n      sload\n      0xff\n      and\n      swap1\n        /* \"@openzeppelin/contracts/token/ERC1155/ERC1155.sol\":3365:3531   */\n      jump\n        /* \"ERC1155Facet.sol\":5812:6149  function melt(... */\n    tag_37:\n      callvalue\n      dup1\n      iszero\n      tag_224\n      jumpi\n      0x00\n      dup1\n      revert\n    tag_224:\n      pop\n      tag_69\n      tag_226\n      calldatasize\n      0x04\n      tag_227\n      jump\t// in\n    tag_226:\n      tag_228\n      jump\t// in\n        /* \"@openzeppelin/contracts/token/ERC1155/ERC1155.sol\":3598:3993   */\n    tag_38:\n      callvalue\n      dup1\n      iszero\n      tag_229\n      jumpi\n      0x00\n      dup1\n      revert\n    tag_229:\n      pop\n      tag_69\n      tag_231\n      calldatasize\n      0x04\n      tag_232\n      jump\t// in\n    tag_231:\n      tag_233\n      jump\t// in\n        /* \"@openzeppelin/contracts/token/ERC1155/extensions/ERC1155Burnable.sol\":408:724   */\n    tag_39:\n      callvalue\n      dup1\n      iszero\n      tag_234\n      jumpi\n      0x00\n      dup1\n      revert\n    tag_234:\n      pop\n      tag_69\n      tag_236\n      calldatasize\n      0x04\n      tag_227\n      jump\t// in\n    tag_236:\n      tag_237\n      jump\t// in\n        /* \"ERC1155Facet.sol\":1772:1818  mapping(uint256 => address) public tokenOwners */\n    tag_40:\n      callvalue\n      dup1\n      iszero\n      tag_238\n      jumpi\n      0x00\n      dup1\n      revert\n    tag_238:\n      pop\n      tag_239\n      tag_240\n      calldatasize\n      0x04\n      tag_76\n      jump\t// in\n    tag_240:\n      mstore(0x20, 0x09)\n      0x00\n      swap1\n      dup2\n      mstore\n      0x40\n      swap1\n      keccak256\n      sload\n      sub(shl(0xa0, 0x01), 0x01)\n      and\n      dup2\n      jump\n    tag_239:\n      mload(0x40)\n      sub(shl(0xa0, 0x01), 0x01)\n        /* \"#utility.yul\":13447:13502   */\n      swap1\n      swap2\n      and\n        /* \"#utility.yul\":13429:13503   */\n      dup2\n      mstore\n        /* \"#utility.yul\":13417:13419   */\n      0x20\n        /* \"#utility.yul\":13402:13420   */\n      add\n        /* \"ERC1155Facet.sol\":1772:1818  mapping(uint256 => address) public tokenOwners */\n      tag_60\n        /* \"#utility.yul\":13283:13509   */\n      jump\n        /* \"@openzeppelin/contracts/token/ERC1155/ERC1155.sol\":2185:2412   */\n    tag_59:\n        /* \"@openzeppelin/contracts/token/ERC1155/ERC1155.sol\":2271:2278   */\n      0x00\n      sub(shl(0xa0, 0x01), 0x01)\n        /* \"@openzeppelin/contracts/token/ERC1155/ERC1155.sol\":2298:2319   */\n      dup4\n      and\n        /* \"@openzeppelin/contracts/token/ERC1155/ERC1155.sol\":2290:2366   */\n      tag_245\n      jumpi\n      mload(0x40)\n      shl(0xe5, 0x461bcd)\n      dup2\n      mstore\n        /* \"#utility.yul\":13716:13718   */\n      0x20\n        /* \"@openzeppelin/contracts/token/ERC1155/ERC1155.sol\":2290:2366   */\n      0x04\n      dup3\n      add\n        /* \"#utility.yul\":13698:13719   */\n      mstore\n        /* \"#utility.yul\":13755:13757   */\n      0x2a\n        /* \"#utility.yul\":13735:13753   */\n      0x24\n      dup3\n      add\n        /* \"#utility.yul\":13728:13758   */\n      mstore\n        /* \"#utility.yul\":13794:13828   */\n      0x455243313135353a2061646472657373207a65726f206973206e6f7420612076\n        /* \"#utility.yul\":13774:13792   */\n      0x44\n      dup3\n      add\n        /* \"#utility.yul\":13767:13829   */\n      mstore\n        /* \"#utility.yul\":13865:13877   */\n      0x616c6964206f776e657200000000000000000000000000000000000000000000\n        /* \"#utility.yul\":13845:13863   */\n      0x64\n      dup3\n      add\n        /* \"#utility.yul\":13838:13878   */\n      mstore\n        /* \"#utility.yul\":13895:13914   */\n      0x84\n      add\n        /* \"@openzeppelin/contracts/token/ERC1155/ERC1155.sol\":2290:2366   */\n    tag_246:\n      mload(0x40)\n      dup1\n      swap2\n      sub\n      swap1\n      revert\n    tag_245:\n      pop\n        /* \"@openzeppelin/contracts/token/ERC1155/ERC1155.sol\":2383:2392   */\n      0x00\n        /* \"@openzeppelin/contracts/token/ERC1155/ERC1155.sol\":2383:2396   */\n      swap1\n      dup2\n      mstore\n      0x20\n      dup2\n      dup2\n      mstore\n      0x40\n      dup1\n      dup4\n      keccak256\n      sub(shl(0xa0, 0x01), 0x01)\n        /* \"@openzeppelin/contracts/token/ERC1155/ERC1155.sol\":2383:2405   */\n      swap5\n      swap1\n      swap5\n      and\n      dup4\n      mstore\n      swap3\n      swap1\n      mstore\n      keccak256\n      sload\n      swap1\n        /* \"@openzeppelin/contracts/token/ERC1155/ERC1155.sol\":2185:2412   */\n      jump\t// out\n        /* \"ERC1155Facet.sol\":8875:9078  function supportsInterface(bytes4 interfaceId)... */\n    tag_66:\n        /* \"ERC1155Facet.sol\":9008:9012  bool */\n      0x00\n        /* \"ERC1155Facet.sol\":9035:9071  super.supportsInterface(interfaceId) */\n      tag_249\n        /* \"ERC1155Facet.sol\":9059:9070  interfaceId */\n      dup3\n        /* \"ERC1155Facet.sol\":9035:9058  super.supportsInterface */\n      tag_250\n        /* \"ERC1155Facet.sol\":9035:9071  super.supportsInterface(interfaceId) */\n      jump\t// in\n    tag_249:\n        /* \"ERC1155Facet.sol\":9028:9071  return super.supportsInterface(interfaceId) */\n      swap3\n        /* \"ERC1155Facet.sol\":8875:9078  function supportsInterface(bytes4 interfaceId)... */\n      swap2\n      pop\n      pop\n      jump\t// out\n        /* \"ERC1155Facet.sol\":7141:7629  function transfer(... */\n    tag_72:\n        /* \"@openzeppelin/contracts/security/Pausable.sol\":1239:1258   */\n      tag_252\n        /* \"@openzeppelin/contracts/security/Pausable.sol\":1239:1256   */\n      tag_253\n        /* \"@openzeppelin/contracts/security/Pausable.sol\":1239:1258   */\n      jump\t// in\n    tag_252:\n        /* \"@openzeppelin/contracts/utils/Context.sol\":719:729   */\n      caller\n      sub(shl(0xa0, 0x01), 0x01)\n        /* \"ERC1155Facet.sol\":7311:7331  _msgSender() == from */\n      dup6\n      and\n      eq\n        /* \"ERC1155Facet.sol\":7290:7371  require(... */\n      tag_257\n      jumpi\n      mload(0x40)\n      shl(0xe5, 0x461bcd)\n      dup2\n      mstore\n        /* \"#utility.yul\":14127:14129   */\n      0x20\n        /* \"ERC1155Facet.sol\":7290:7371  require(... */\n      0x04\n      dup3\n      add\n        /* \"#utility.yul\":14109:14130   */\n      mstore\n        /* \"#utility.yul\":14166:14168   */\n      0x0e\n        /* \"#utility.yul\":14146:14164   */\n      0x24\n      dup3\n      add\n        /* \"#utility.yul\":14139:14169   */\n      mstore\n        /* \"#utility.yul\":14205:14221   */\n      0x6e6f7420617574686f72697a6564000000000000000000000000000000000000\n        /* \"#utility.yul\":14185:14203   */\n      0x44\n      dup3\n      add\n        /* \"#utility.yul\":14178:14222   */\n      mstore\n        /* \"#utility.yul\":14239:14257   */\n      0x64\n      add\n        /* \"ERC1155Facet.sol\":7290:7371  require(... */\n      tag_246\n        /* \"#utility.yul\":13925:14263   */\n      jump\n        /* \"ERC1155Facet.sol\":7290:7371  require(... */\n    tag_257:\n        /* \"ERC1155Facet.sol\":7381:7393  uint256 cost */\n      0x00\n        /* \"ERC1155Facet.sol\":7396:7411  tokenPrices[id] */\n      dup3\n      dup2\n      mstore\n        /* \"ERC1155Facet.sol\":7396:7407  tokenPrices */\n      0x0a\n        /* \"ERC1155Facet.sol\":7396:7411  tokenPrices[id] */\n      0x20\n      mstore\n      0x40\n      dup2\n      keccak256\n      sload\n        /* \"ERC1155Facet.sol\":7396:7420  tokenPrices[id] * amount */\n      tag_260\n      swap1\n        /* \"ERC1155Facet.sol\":7414:7420  amount */\n      dup4\n      swap1\n        /* \"ERC1155Facet.sol\":7396:7420  tokenPrices[id] * amount */\n      tag_261\n      jump\t// in\n    tag_260:\n        /* \"ERC1155Facet.sol\":7381:7420  uint256 cost = tokenPrices[id] * amount */\n      swap1\n      pop\n        /* \"ERC1155Facet.sol\":7451:7455  cost */\n      dup1\n        /* \"ERC1155Facet.sol\":7438:7447  msg.value */\n      callvalue\n        /* \"ERC1155Facet.sol\":7438:7455  msg.value >= cost */\n      lt\n      iszero\n        /* \"ERC1155Facet.sol\":7430:7478  require(msg.value >= cost, \"Insufficient funds\") */\n      tag_262\n      jumpi\n      mload(0x40)\n      shl(0xe5, 0x461bcd)\n      dup2\n      mstore\n        /* \"#utility.yul\":14775:14777   */\n      0x20\n        /* \"ERC1155Facet.sol\":7430:7478  require(msg.value >= cost, \"Insufficient funds\") */\n      0x04\n      dup3\n      add\n        /* \"#utility.yul\":14757:14778   */\n      mstore\n        /* \"#utility.yul\":14814:14816   */\n      0x12\n        /* \"#utility.yul\":14794:14812   */\n      0x24\n      dup3\n      add\n        /* \"#utility.yul\":14787:14817   */\n      mstore\n        /* \"#utility.yul\":14853:14873   */\n      0x496e73756666696369656e742066756e64730000000000000000000000000000\n        /* \"#utility.yul\":14833:14851   */\n      0x44\n      dup3\n      add\n        /* \"#utility.yul\":14826:14874   */\n      mstore\n        /* \"#utility.yul\":14891:14909   */\n      0x64\n      add\n        /* \"ERC1155Facet.sol\":7430:7478  require(msg.value >= cost, \"Insufficient funds\") */\n      tag_246\n        /* \"#utility.yul\":14573:14915   */\n      jump\n        /* \"ERC1155Facet.sol\":7430:7478  require(msg.value >= cost, \"Insufficient funds\") */\n    tag_262:\n        /* \"ERC1155Facet.sol\":7488:7531  _safeTransferFrom(from, to, id, amount, \"\") */\n      tag_265\n        /* \"ERC1155Facet.sol\":7506:7510  from */\n      dup6\n        /* \"ERC1155Facet.sol\":7512:7514  to */\n      dup6\n        /* \"ERC1155Facet.sol\":7516:7518  id */\n      dup6\n        /* \"ERC1155Facet.sol\":7520:7526  amount */\n      dup6\n        /* \"ERC1155Facet.sol\":7488:7531  _safeTransferFrom(from, to, id, amount, \"\") */\n      mload(0x40)\n      dup1\n      0x20\n      add\n      0x40\n      mstore\n      dup1\n      0x00\n      dup2\n      mstore\n      pop\n        /* \"ERC1155Facet.sol\":7488:7505  _safeTransferFrom */\n      tag_266\n        /* \"ERC1155Facet.sol\":7488:7531  _safeTransferFrom(from, to, id, amount, \"\") */\n      jump\t// in\n    tag_265:\n      sub(shl(0xa0, 0x01), 0x01)\n        /* \"@openzeppelin/contracts/access/AccessControl.sol\":3004:3033   */\n      dup5\n      and\n        /* \"@openzeppelin/contracts/access/AccessControl.sol\":2981:2985   */\n      0x00\n        /* \"@openzeppelin/contracts/access/AccessControl.sol\":3004:3033   */\n      swap1\n      dup2\n      mstore\n        /* \"@openzeppelin/contracts/access/AccessControl.sol\":3004:3016   */\n      0xae31de4e6eb5ef760dd5745b55a6757794dfbcc58d4dabd5746fb21d667ff6b7\n      0x20\n        /* \"@openzeppelin/contracts/access/AccessControl.sol\":3004:3033   */\n      mstore\n        /* \"@openzeppelin/contracts/access/AccessControl.sol\":3004:3016   */\n      0x40\n        /* \"@openzeppelin/contracts/access/AccessControl.sol\":3004:3033   */\n      swap1\n      keccak256\n      sload\n      0xff\n      and\n        /* \"ERC1155Facet.sol\":7542:7623  if (!hasRole(HODLR_ROLE, to)) {... */\n      tag_269\n      jumpi\n        /* \"ERC1155Facet.sol\":7586:7612  _grantRole(HODLR_ROLE, to) */\n      tag_269\n        /* \"ERC1155Facet.sol\":772:795  keccak256(\"HODLR_ROLE\") */\n      0x5690342a5622b53ebb7dbf01640710d2f9bf4af2652bffa51830f5fb49cc30b3\n        /* \"ERC1155Facet.sol\":7609:7611  to */\n      dup6\n        /* \"ERC1155Facet.sol\":7586:7596  _grantRole */\n      tag_270\n        /* \"ERC1155Facet.sol\":7586:7612  _grantRole(HODLR_ROLE, to) */\n      jump\t// in\n    tag_269:\n        /* \"ERC1155Facet.sol\":7280:7629  {... */\n      pop\n        /* \"ERC1155Facet.sol\":7141:7629  function transfer(... */\n      pop\n      pop\n      pop\n      pop\n      jump\t// out\n        /* \"ERC1155Facet.sol\":3261:3371  function uri(uint256 id) public view override returns (string memory) {... */\n    tag_77:\n        /* \"ERC1155Facet.sol\":3349:3363  _tokenURIs[id] */\n      0x00\n      dup2\n      dup2\n      mstore\n        /* \"ERC1155Facet.sol\":3349:3359  _tokenURIs */\n      0x08\n        /* \"ERC1155Facet.sol\":3349:3363  _tokenURIs[id] */\n      0x20\n      mstore\n      0x40\n      swap1\n      keccak256\n        /* \"ERC1155Facet.sol\":3341:3364  return (_tokenURIs[id]) */\n      dup1\n      sload\n        /* \"ERC1155Facet.sol\":3316:3329  string memory */\n      0x60\n      swap2\n        /* \"ERC1155Facet.sol\":3349:3363  _tokenURIs[id] */\n      swap1\n        /* \"ERC1155Facet.sol\":3341:3364  return (_tokenURIs[id]) */\n      tag_272\n      swap1\n      tag_273\n      jump\t// in\n    tag_272:\n      dup1\n      0x1f\n      add\n      0x20\n      dup1\n      swap2\n      div\n      mul\n      0x20\n      add\n      mload(0x40)\n      swap1\n      dup2\n      add\n      0x40\n      mstore\n      dup1\n      swap3\n      swap2\n      swap1\n      dup2\n      dup2\n      mstore\n      0x20\n      add\n      dup3\n      dup1\n      sload\n      tag_274\n      swap1\n      tag_273\n      jump\t// in\n    tag_274:\n      dup1\n      iszero\n      tag_275\n      jumpi\n      dup1\n      0x1f\n      lt\n      tag_276\n      jumpi\n      0x0100\n      dup1\n      dup4\n      sload\n      div\n      mul\n      dup4\n      mstore\n      swap2\n      0x20\n      add\n      swap2\n      jump(tag_275)\n    tag_276:\n      dup3\n      add\n      swap2\n      swap1\n      0x00\n      mstore\n      keccak256(0x00, 0x20)\n      swap1\n    tag_277:\n      dup2\n      sload\n      dup2\n      mstore\n      swap1\n      0x01\n      add\n      swap1\n      0x20\n      add\n      dup1\n      dup4\n      gt\n      tag_277\n      jumpi\n      dup3\n      swap1\n      sub\n      0x1f\n      and\n      dup3\n      add\n      swap2\n    tag_275:\n      pop\n      pop\n      pop\n      pop\n      pop\n      swap1\n      pop\n        /* \"ERC1155Facet.sol\":3261:3371  function uri(uint256 id) public view override returns (string memory) {... */\n      swap2\n      swap1\n      pop\n      jump\t// out\n        /* \"ERC1155Facet.sol\":2880:3192  function royaltyInfo(uint256 tokenId, uint256 value)... */\n    tag_91:\n        /* \"ERC1155Facet.sol\":2980:2996  address receiver */\n      0x00\n        /* \"ERC1155Facet.sol\":3066:3085  _royalties[tokenId] */\n      dup3\n      dup2\n      mstore\n        /* \"ERC1155Facet.sol\":3066:3076  _royalties */\n      0x07\n        /* \"ERC1155Facet.sol\":3066:3085  _royalties[tokenId] */\n      0x20\n      swap1\n      dup2\n      mstore\n      0x40\n      dup1\n      dup4\n      keccak256\n        /* \"ERC1155Facet.sol\":3035:3085  RoyaltyInfo memory royalties = _royalties[tokenId] */\n      dup2\n      mload\n      dup1\n      dup4\n      add\n      swap1\n      swap3\n      mstore\n      sload\n      sub(shl(0xa0, 0x01), 0x01)\n      dup2\n      and\n      dup1\n      dup4\n      mstore\n      shl(0xa0, 0x01)\n      swap1\n      swap2\n      div\n      0xffffff\n      and\n      swap3\n      dup3\n      add\n      dup4\n      swap1\n      mstore\n      swap3\n        /* \"ERC1155Facet.sol\":2980:2996  address receiver */\n      swap2\n        /* \"ERC1155Facet.sol\":3180:3185  10000 */\n      0x2710\n      swap1\n        /* \"ERC1155Facet.sol\":3152:3176  value * royalties.amount */\n      tag_280\n      swap1\n        /* \"ERC1155Facet.sol\":3152:3157  value */\n      dup7\n        /* \"ERC1155Facet.sol\":3152:3176  value * royalties.amount */\n      tag_261\n      jump\t// in\n    tag_280:\n        /* \"ERC1155Facet.sol\":3151:3185  (value * royalties.amount) / 10000 */\n      tag_281\n      swap2\n      swap1\n      tag_282\n      jump\t// in\n    tag_281:\n        /* \"ERC1155Facet.sol\":3135:3185  royaltyAmount = (value * royalties.amount) / 10000 */\n      swap2\n      pop\n        /* \"ERC1155Facet.sol\":3025:3192  {... */\n      pop\n        /* \"ERC1155Facet.sol\":2880:3192  function royaltyInfo(uint256 tokenId, uint256 value)... */\n      swap3\n      pop\n      swap3\n      swap1\n      pop\n      jump\t// out\n        /* \"@openzeppelin/contracts/token/ERC1155/ERC1155.sol\":4065:4492   */\n    tag_98:\n      sub(shl(0xa0, 0x01), 0x01)\n        /* \"@openzeppelin/contracts/token/ERC1155/ERC1155.sol\":4290:4310   */\n      dup6\n      and\n        /* \"@openzeppelin/contracts/utils/Context.sol\":719:729   */\n      caller\n        /* \"@openzeppelin/contracts/token/ERC1155/ERC1155.sol\":4290:4310   */\n      eq\n      dup1\n        /* \"@openzeppelin/contracts/token/ERC1155/ERC1155.sol\":4290:4350   */\n      tag_286\n      jumpi\n      pop\n        /* \"@openzeppelin/contracts/token/ERC1155/ERC1155.sol\":4314:4350   */\n      tag_286\n        /* \"@openzeppelin/contracts/token/ERC1155/ERC1155.sol\":4331:4335   */\n      dup6\n        /* \"@openzeppelin/contracts/utils/Context.sol\":719:729   */\n      caller\n        /* \"@openzeppelin/contracts/token/ERC1155/ERC1155.sol\":3365:3531   */\n      tag_220\n      jump\t// in\n        /* \"@openzeppelin/contracts/token/ERC1155/ERC1155.sol\":4314:4350   */\n    tag_286:\n        /* \"@openzeppelin/contracts/token/ERC1155/ERC1155.sol\":4269:4423   */\n      tag_288\n      jumpi\n      mload(0x40)\n      shl(0xe5, 0x461bcd)\n      dup2\n      mstore\n        /* \"#utility.yul\":15729:15731   */\n      0x20\n        /* \"@openzeppelin/contracts/token/ERC1155/ERC1155.sol\":4269:4423   */\n      0x04\n      dup3\n      add\n        /* \"#utility.yul\":15711:15732   */\n      mstore\n        /* \"#utility.yul\":15768:15770   */\n      0x2f\n        /* \"#utility.yul\":15748:15766   */\n      0x24\n      dup3\n      add\n        /* \"#utility.yul\":15741:15771   */\n      mstore\n        /* \"#utility.yul\":15807:15841   */\n      0x455243313135353a2063616c6c6572206973206e6f7420746f6b656e206f776e\n        /* \"#utility.yul\":15787:15805   */\n      0x44\n      dup3\n      add\n        /* \"#utility.yul\":15780:15842   */\n      mstore\n      shl(0x8a, 0x195c881b9bdc88185c1c1c9bdd9959)\n        /* \"#utility.yul\":15858:15876   */\n      0x64\n      dup3\n      add\n        /* \"#utility.yul\":15851:15896   */\n      mstore\n        /* \"#utility.yul\":15913:15932   */\n      0x84\n      add\n        /* \"@openzeppelin/contracts/token/ERC1155/ERC1155.sol\":4269:4423   */\n      tag_246\n        /* \"#utility.yul\":15527:15938   */\n      jump\n        /* \"@openzeppelin/contracts/token/ERC1155/ERC1155.sol\":4269:4423   */\n    tag_288:\n        /* \"@openzeppelin/contracts/token/ERC1155/ERC1155.sol\":4433:4485   */\n      tag_269\n        /* \"@openzeppelin/contracts/token/ERC1155/ERC1155.sol\":4456:4460   */\n      dup6\n        /* \"@openzeppelin/contracts/token/ERC1155/ERC1155.sol\":4462:4464   */\n      dup6\n        /* \"@openzeppelin/contracts/token/ERC1155/ERC1155.sol\":4466:4469   */\n      dup6\n        /* \"@openzeppelin/contracts/token/ERC1155/ERC1155.sol\":4471:4478   */\n      dup6\n        /* \"@openzeppelin/contracts/token/ERC1155/ERC1155.sol\":4480:4484   */\n      dup6\n        /* \"@openzeppelin/contracts/token/ERC1155/ERC1155.sol\":4433:4455   */\n      tag_292\n        /* \"@openzeppelin/contracts/token/ERC1155/ERC1155.sol\":4433:4485   */\n      jump\t// in\n        /* \"@openzeppelin/contracts/access/AccessControl.sol\":4816:4961   */\n    tag_103:\n        /* \"@openzeppelin/contracts/access/AccessControl.sol\":4465:4472   */\n      0x00\n        /* \"@openzeppelin/contracts/access/AccessControl.sol\":4491:4503   */\n      dup3\n      dup2\n      mstore\n        /* \"@openzeppelin/contracts/access/AccessControl.sol\":4491:4497   */\n      0x03\n        /* \"@openzeppelin/contracts/access/AccessControl.sol\":4491:4503   */\n      0x20\n      mstore\n      0x40\n      swap1\n      keccak256\n        /* \"@openzeppelin/contracts/access/AccessControl.sol\":4491:4513   */\n      0x01\n      add\n      sload\n        /* \"@openzeppelin/contracts/access/AccessControl.sol\":2505:2521   */\n      tag_295\n        /* \"@openzeppelin/contracts/access/AccessControl.sol\":2516:2520   */\n      dup2\n        /* \"@openzeppelin/contracts/access/AccessControl.sol\":2505:2515   */\n      tag_296\n        /* \"@openzeppelin/contracts/access/AccessControl.sol\":2505:2521   */\n      jump\t// in\n    tag_295:\n        /* \"@openzeppelin/contracts/access/AccessControl.sol\":4929:4954   */\n      tag_298\n        /* \"@openzeppelin/contracts/access/AccessControl.sol\":4940:4944   */\n      dup4\n        /* \"@openzeppelin/contracts/access/AccessControl.sol\":4946:4953   */\n      dup4\n        /* \"@openzeppelin/contracts/access/AccessControl.sol\":4929:4939   */\n      tag_270\n        /* \"@openzeppelin/contracts/access/AccessControl.sol\":4929:4954   */\n      jump\t// in\n    tag_298:\n        /* \"@openzeppelin/contracts/access/AccessControl.sol\":4816:4961   */\n      pop\n      pop\n      pop\n      jump\t// out\n        /* \"@openzeppelin/contracts/access/AccessControl.sol\":5925:6139   */\n    tag_111:\n      sub(shl(0xa0, 0x01), 0x01)\n        /* \"@openzeppelin/contracts/access/AccessControl.sol\":6020:6043   */\n      dup2\n      and\n        /* \"@openzeppelin/contracts/utils/Context.sol\":719:729   */\n      caller\n        /* \"@openzeppelin/contracts/access/AccessControl.sol\":6020:6043   */\n      eq\n        /* \"@openzeppelin/contracts/access/AccessControl.sol\":6012:6095   */\n      tag_301\n      jumpi\n      mload(0x40)\n      shl(0xe5, 0x461bcd)\n      dup2\n      mstore\n        /* \"#utility.yul\":16145:16147   */\n      0x20\n        /* \"@openzeppelin/contracts/access/AccessControl.sol\":6012:6095   */\n      0x04\n      dup3\n      add\n        /* \"#utility.yul\":16127:16148   */\n      mstore\n        /* \"#utility.yul\":16184:16186   */\n      0x2f\n        /* \"#utility.yul\":16164:16182   */\n      0x24\n      dup3\n      add\n        /* \"#utility.yul\":16157:16187   */\n      mstore\n        /* \"#utility.yul\":16223:16257   */\n      0x416363657373436f6e74726f6c3a2063616e206f6e6c792072656e6f756e6365\n        /* \"#utility.yul\":16203:16221   */\n      0x44\n      dup3\n      add\n        /* \"#utility.yul\":16196:16258   */\n      mstore\n        /* \"#utility.yul\":16294:16311   */\n      0x20726f6c657320666f722073656c660000000000000000000000000000000000\n        /* \"#utility.yul\":16274:16292   */\n      0x64\n      dup3\n      add\n        /* \"#utility.yul\":16267:16312   */\n      mstore\n        /* \"#utility.yul\":16329:16348   */\n      0x84\n      add\n        /* \"@openzeppelin/contracts/access/AccessControl.sol\":6012:6095   */\n      tag_246\n        /* \"#utility.yul\":15943:16354   */\n      jump\n        /* \"@openzeppelin/contracts/access/AccessControl.sol\":6012:6095   */\n    tag_301:\n        /* \"@openzeppelin/contracts/access/AccessControl.sol\":6106:6132   */\n      tag_304\n        /* \"@openzeppelin/contracts/access/AccessControl.sol\":6118:6122   */\n      dup3\n        /* \"@openzeppelin/contracts/access/AccessControl.sol\":6124:6131   */\n      dup3\n        /* \"@openzeppelin/contracts/access/AccessControl.sol\":6106:6117   */\n      tag_305\n        /* \"@openzeppelin/contracts/access/AccessControl.sol\":6106:6132   */\n      jump\t// in\n    tag_304:\n        /* \"@openzeppelin/contracts/access/AccessControl.sol\":5925:6139   */\n      pop\n      pop\n      jump\t// out\n        /* \"ERC1155Facet.sol\":3899:4687  function mintOne(... */\n    tag_119:\n        /* \"ERC1155Facet.sol\":4092:4105  mintTypes.PUB */\n      0x00\n        /* \"ERC1155Facet.sol\":4080:4088  mintType */\n      dup6\n        /* \"ERC1155Facet.sol\":4080:4105  mintType == mintTypes.PUB */\n      0x01\n      dup2\n      gt\n      iszero\n      tag_311\n      jumpi\n      tag_311\n      tag_309\n      jump\t// in\n    tag_311:\n      sub\n        /* \"ERC1155Facet.sol\":4076:4239  if (mintType == mintTypes.PUB) {... */\n      tag_313\n      jumpi\n        /* \"ERC1155Facet.sol\":1504:1505  3 */\n      0x03\n        /* \"ERC1155Facet.sol\":4146:4152  amount */\n      dup3\n        /* \"ERC1155Facet.sol\":4146:4174  amount <= MAX_MINT_LIMIT_PUB */\n      gt\n      iszero\n        /* \"ERC1155Facet.sol\":4121:4228  require(... */\n      tag_313\n      jumpi\n      mload(0x40)\n      shl(0xe5, 0x461bcd)\n      dup2\n      mstore\n        /* \"#utility.yul\":16693:16695   */\n      0x20\n        /* \"ERC1155Facet.sol\":4121:4228  require(... */\n      0x04\n      dup3\n      add\n        /* \"#utility.yul\":16675:16696   */\n      mstore\n        /* \"#utility.yul\":16732:16734   */\n      0x14\n        /* \"#utility.yul\":16712:16730   */\n      0x24\n      dup3\n      add\n        /* \"#utility.yul\":16705:16735   */\n      mstore\n        /* \"#utility.yul\":16771:16793   */\n      0x63616e2774206d696e742074686174206d616e79000000000000000000000000\n        /* \"#utility.yul\":16751:16769   */\n      0x44\n      dup3\n      add\n        /* \"#utility.yul\":16744:16794   */\n      mstore\n        /* \"#utility.yul\":16811:16829   */\n      0x64\n      add\n        /* \"ERC1155Facet.sol\":4121:4228  require(... */\n      tag_246\n        /* \"#utility.yul\":16491:16835   */\n      jump\n        /* \"ERC1155Facet.sol\":4121:4228  require(... */\n    tag_313:\n        /* \"ERC1155Facet.sol\":4264:4278  mintTypes.PRIV */\n      0x01\n        /* \"ERC1155Facet.sol\":4252:4260  mintType */\n      dup6\n        /* \"ERC1155Facet.sol\":4252:4278  mintType == mintTypes.PRIV */\n      0x01\n      dup2\n      gt\n      iszero\n      tag_319\n      jumpi\n      tag_319\n      tag_309\n      jump\t// in\n    tag_319:\n      sub\n        /* \"ERC1155Facet.sol\":4248:4537  if (mintType == mintTypes.PRIV) {... */\n      tag_325\n      jumpi\n      sub(shl(0xa0, 0x01), 0x01)\n        /* \"@openzeppelin/contracts/access/AccessControl.sol\":3004:3033   */\n      dup5\n      and\n        /* \"@openzeppelin/contracts/access/AccessControl.sol\":2981:2985   */\n      0x00\n        /* \"@openzeppelin/contracts/access/AccessControl.sol\":3004:3033   */\n      swap1\n      dup2\n      mstore\n        /* \"@openzeppelin/contracts/access/AccessControl.sol\":3004:3016   */\n      0xe62b464510cee50b1276c2d445c9313ab6ecc5a2ae8cb01cce19b3a02959d36e\n      0x20\n        /* \"@openzeppelin/contracts/access/AccessControl.sol\":3004:3033   */\n      mstore\n        /* \"@openzeppelin/contracts/access/AccessControl.sol\":3004:3016   */\n      0x40\n        /* \"@openzeppelin/contracts/access/AccessControl.sol\":3004:3033   */\n      swap1\n      keccak256\n      sload\n      0xff\n      and\n        /* \"ERC1155Facet.sol\":4294:4404  require(... */\n      tag_322\n      jumpi\n      mload(0x40)\n      shl(0xe5, 0x461bcd)\n      dup2\n      mstore\n        /* \"#utility.yul\":17042:17044   */\n      0x20\n        /* \"ERC1155Facet.sol\":4294:4404  require(... */\n      0x04\n      dup3\n      add\n        /* \"#utility.yul\":17024:17045   */\n      mstore\n        /* \"#utility.yul\":17081:17083   */\n      0x10\n        /* \"#utility.yul\":17061:17079   */\n      0x24\n      dup3\n      add\n        /* \"#utility.yul\":17054:17084   */\n      mstore\n        /* \"#utility.yul\":17120:17138   */\n      0x6e6f742040616c6c6f7765644c69737400000000000000000000000000000000\n        /* \"#utility.yul\":17100:17118   */\n      0x44\n      dup3\n      add\n        /* \"#utility.yul\":17093:17139   */\n      mstore\n        /* \"#utility.yul\":17156:17174   */\n      0x64\n      add\n        /* \"ERC1155Facet.sol\":4294:4404  require(... */\n      tag_246\n        /* \"#utility.yul\":16840:17180   */\n      jump\n        /* \"ERC1155Facet.sol\":4294:4404  require(... */\n    tag_322:\n        /* \"ERC1155Facet.sol\":1452:1453  3 */\n      0x03\n        /* \"ERC1155Facet.sol\":4443:4449  amount */\n      dup3\n        /* \"ERC1155Facet.sol\":4443:4472  amount <= MAX_MINT_LIMIT_PRIV */\n      gt\n      iszero\n        /* \"ERC1155Facet.sol\":4418:4526  require(... */\n      tag_325\n      jumpi\n      mload(0x40)\n      shl(0xe5, 0x461bcd)\n      dup2\n      mstore\n        /* \"#utility.yul\":16693:16695   */\n      0x20\n        /* \"ERC1155Facet.sol\":4418:4526  require(... */\n      0x04\n      dup3\n      add\n        /* \"#utility.yul\":16675:16696   */\n      mstore\n        /* \"#utility.yul\":16732:16734   */\n      0x14\n        /* \"#utility.yul\":16712:16730   */\n      0x24\n      dup3\n      add\n        /* \"#utility.yul\":16705:16735   */\n      mstore\n        /* \"#utility.yul\":16771:16793   */\n      0x63616e2774206d696e742074686174206d616e79000000000000000000000000\n        /* \"#utility.yul\":16751:16769   */\n      0x44\n      dup3\n      add\n        /* \"#utility.yul\":16744:16794   */\n      mstore\n        /* \"#utility.yul\":16811:16829   */\n      0x64\n      add\n        /* \"ERC1155Facet.sol\":4418:4526  require(... */\n      tag_246\n        /* \"#utility.yul\":16491:16835   */\n      jump\n        /* \"ERC1155Facet.sol\":4418:4526  require(... */\n    tag_325:\n        /* \"ERC1155Facet.sol\":4546:4576  _mint(account, id, amount, \"\") */\n      tag_327\n        /* \"ERC1155Facet.sol\":4552:4559  account */\n      dup5\n        /* \"ERC1155Facet.sol\":4561:4563  id */\n      dup5\n        /* \"ERC1155Facet.sol\":4565:4571  amount */\n      dup5\n        /* \"ERC1155Facet.sol\":4546:4576  _mint(account, id, amount, \"\") */\n      mload(0x40)\n      dup1\n      0x20\n      add\n      0x40\n      mstore\n      dup1\n      0x00\n      dup2\n      mstore\n      pop\n        /* \"ERC1155Facet.sol\":4546:4551  _mint */\n      tag_328\n        /* \"ERC1155Facet.sol\":4546:4576  _mint(account, id, amount, \"\") */\n      jump\t// in\n    tag_327:\n        /* \"ERC1155Facet.sol\":4586:4601  tokenOwners[id] */\n      0x00\n      dup4\n      dup2\n      mstore\n        /* \"ERC1155Facet.sol\":4586:4597  tokenOwners */\n      0x09\n        /* \"ERC1155Facet.sol\":4586:4601  tokenOwners[id] */\n      0x20\n      mstore\n      0x40\n      swap1\n      keccak256\n        /* \"ERC1155Facet.sol\":4586:4611  tokenOwners[id] = account */\n      dup1\n      sload\n      not(0xffffffffffffffffffffffffffffffffffffffff)\n      and\n      sub(shl(0xa0, 0x01), 0x01)\n      dup7\n      and\n      or\n      swap1\n      sstore\n        /* \"ERC1155Facet.sol\":4621:4647  _setTokenURI(id, tokenURI) */\n      tag_269\n        /* \"ERC1155Facet.sol\":4586:4601  tokenOwners[id] */\n      dup4\n        /* \"ERC1155Facet.sol\":4638:4646  tokenURI */\n      dup3\n        /* \"ERC1155Facet.sol\":4621:4633  _setTokenURI */\n      tag_330\n        /* \"ERC1155Facet.sol\":4621:4647  _setTokenURI(id, tokenURI) */\n      jump\t// in\n        /* \"@openzeppelin/contracts/token/ERC1155/ERC1155.sol\":2569:3077   */\n    tag_124:\n        /* \"@openzeppelin/contracts/token/ERC1155/ERC1155.sol\":2720:2736   */\n      0x60\n        /* \"@openzeppelin/contracts/token/ERC1155/ERC1155.sol\":2779:2782   */\n      dup2\n        /* \"@openzeppelin/contracts/token/ERC1155/ERC1155.sol\":2779:2789   */\n      mload\n        /* \"@openzeppelin/contracts/token/ERC1155/ERC1155.sol\":2760:2768   */\n      dup4\n        /* \"@openzeppelin/contracts/token/ERC1155/ERC1155.sol\":2760:2775   */\n      mload\n        /* \"@openzeppelin/contracts/token/ERC1155/ERC1155.sol\":2760:2789   */\n      eq\n        /* \"@openzeppelin/contracts/token/ERC1155/ERC1155.sol\":2752:2835   */\n      tag_332\n      jumpi\n      mload(0x40)\n      shl(0xe5, 0x461bcd)\n      dup2\n      mstore\n        /* \"#utility.yul\":17387:17389   */\n      0x20\n        /* \"@openzeppelin/contracts/token/ERC1155/ERC1155.sol\":2752:2835   */\n      0x04\n      dup3\n      add\n        /* \"#utility.yul\":17369:17390   */\n      mstore\n        /* \"#utility.yul\":17426:17428   */\n      0x29\n        /* \"#utility.yul\":17406:17424   */\n      0x24\n      dup3\n      add\n        /* \"#utility.yul\":17399:17429   */\n      mstore\n        /* \"#utility.yul\":17465:17499   */\n      0x455243313135353a206163636f756e747320616e6420696473206c656e677468\n        /* \"#utility.yul\":17445:17463   */\n      0x44\n      dup3\n      add\n        /* \"#utility.yul\":17438:17500   */\n      mstore\n        /* \"#utility.yul\":17536:17547   */\n      0x206d69736d617463680000000000000000000000000000000000000000000000\n        /* \"#utility.yul\":17516:17534   */\n      0x64\n      dup3\n      add\n        /* \"#utility.yul\":17509:17548   */\n      mstore\n        /* \"#utility.yul\":17565:17584   */\n      0x84\n      add\n        /* \"@openzeppelin/contracts/token/ERC1155/ERC1155.sol\":2752:2835   */\n      tag_246\n        /* \"#utility.yul\":17185:17590   */\n      jump\n        /* \"@openzeppelin/contracts/token/ERC1155/ERC1155.sol\":2752:2835   */\n    tag_332:\n        /* \"@openzeppelin/contracts/token/ERC1155/ERC1155.sol\":2846:2876   */\n      0x00\n        /* \"@openzeppelin/contracts/token/ERC1155/ERC1155.sol\":2893:2901   */\n      dup4\n        /* \"@openzeppelin/contracts/token/ERC1155/ERC1155.sol\":2893:2908   */\n      mload\n        /* \"@openzeppelin/contracts/token/ERC1155/ERC1155.sol\":2879:2909   */\n      0xffffffffffffffff\n      dup2\n      gt\n      iszero\n      tag_336\n      jumpi\n      tag_336\n      tag_337\n      jump\t// in\n    tag_336:\n      mload(0x40)\n      swap1\n      dup1\n      dup3\n      mstore\n      dup1\n      0x20\n      mul\n      0x20\n      add\n      dup3\n      add\n      0x40\n      mstore\n      dup1\n      iszero\n      tag_338\n      jumpi\n      dup2\n      0x20\n      add\n      0x20\n      dup3\n      mul\n      dup1\n      calldatasize\n      dup4\n      calldatacopy\n      add\n      swap1\n      pop\n    tag_338:\n      pop\n        /* \"@openzeppelin/contracts/token/ERC1155/ERC1155.sol\":2846:2909   */\n      swap1\n      pop\n        /* \"@openzeppelin/contracts/token/ERC1155/ERC1155.sol\":2925:2934   */\n      0x00\n        /* \"@openzeppelin/contracts/token/ERC1155/ERC1155.sol\":2920:3040   */\n    tag_339:\n        /* \"@openzeppelin/contracts/token/ERC1155/ERC1155.sol\":2944:2952   */\n      dup5\n        /* \"@openzeppelin/contracts/token/ERC1155/ERC1155.sol\":2944:2959   */\n      mload\n        /* \"@openzeppelin/contracts/token/ERC1155/ERC1155.sol\":2940:2941   */\n      dup2\n        /* \"@openzeppelin/contracts/token/ERC1155/ERC1155.sol\":2940:2959   */\n      lt\n        /* \"@openzeppelin/contracts/token/ERC1155/ERC1155.sol\":2920:3040   */\n      iszero\n      tag_340\n      jumpi\n        /* \"@openzeppelin/contracts/token/ERC1155/ERC1155.sol\":2999:3029   */\n      tag_342\n        /* \"@openzeppelin/contracts/token/ERC1155/ERC1155.sol\":3009:3017   */\n      dup6\n        /* \"@openzeppelin/contracts/token/ERC1155/ERC1155.sol\":3018:3019   */\n      dup3\n        /* \"@openzeppelin/contracts/token/ERC1155/ERC1155.sol\":3009:3020   */\n      dup2\n      mload\n      dup2\n      lt\n      tag_344\n      jumpi\n      tag_344\n      tag_345\n      jump\t// in\n    tag_344:\n      0x20\n      mul\n      0x20\n      add\n      add\n      mload\n        /* \"@openzeppelin/contracts/token/ERC1155/ERC1155.sol\":3022:3025   */\n      dup6\n        /* \"@openzeppelin/contracts/token/ERC1155/ERC1155.sol\":3026:3027   */\n      dup4\n        /* \"@openzeppelin/contracts/token/ERC1155/ERC1155.sol\":3022:3028   */\n      dup2\n      mload\n      dup2\n      lt\n      tag_347\n      jumpi\n      tag_347\n      tag_345\n      jump\t// in\n    tag_347:\n      0x20\n      mul\n      0x20\n      add\n      add\n      mload\n        /* \"@openzeppelin/contracts/token/ERC1155/ERC1155.sol\":2999:3008   */\n      tag_59\n        /* \"@openzeppelin/contracts/token/ERC1155/ERC1155.sol\":2999:3029   */\n      jump\t// in\n    tag_342:\n        /* \"@openzeppelin/contracts/token/ERC1155/ERC1155.sol\":2980:2993   */\n      dup3\n        /* \"@openzeppelin/contracts/token/ERC1155/ERC1155.sol\":2994:2995   */\n      dup3\n        /* \"@openzeppelin/contracts/token/ERC1155/ERC1155.sol\":2980:2996   */\n      dup2\n      mload\n      dup2\n      lt\n      tag_349\n      jumpi\n      tag_349\n      tag_345\n      jump\t// in\n    tag_349:\n      0x20\n      swap1\n      dup2\n      mul\n      swap2\n      swap1\n      swap2\n      add\n      add\n        /* \"@openzeppelin/contracts/token/ERC1155/ERC1155.sol\":2980:3029   */\n      mstore\n        /* \"@openzeppelin/contracts/token/ERC1155/ERC1155.sol\":2961:2964   */\n      tag_350\n      dup2\n      tag_351\n      jump\t// in\n    tag_350:\n      swap1\n      pop\n        /* \"@openzeppelin/contracts/token/ERC1155/ERC1155.sol\":2920:3040   */\n      jump(tag_339)\n    tag_340:\n      pop\n        /* \"@openzeppelin/contracts/token/ERC1155/ERC1155.sol\":3057:3070   */\n      swap4\n        /* \"@openzeppelin/contracts/token/ERC1155/ERC1155.sol\":2569:3077   */\n      swap3\n      pop\n      pop\n      pop\n      jump\t// out\n        /* \"ERC1155Facet.sol\":3666:3804  function setBaseURI(string memory _newBaseURI)... */\n    tag_131:\n        /* \"ERC1155Facet.sol\":920:948  keccak256(\"URI_SETTER_ROLE\") */\n      0x7804d923f43a17d325d77e781528e0793b2edd9890ab45fc64efd7b4b427744c\n        /* \"@openzeppelin/contracts/access/AccessControl.sol\":2505:2521   */\n      tag_353\n        /* \"@openzeppelin/contracts/access/AccessControl.sol\":2516:2520   */\n      dup2\n        /* \"@openzeppelin/contracts/access/AccessControl.sol\":2505:2515   */\n      tag_296\n        /* \"@openzeppelin/contracts/access/AccessControl.sol\":2505:2521   */\n      jump\t// in\n    tag_353:\n        /* \"ERC1155Facet.sol\":3776:3797  baseURI = _newBaseURI */\n      dup2\n      mload\n      tag_298\n      swap1\n        /* \"ERC1155Facet.sol\":3776:3783  baseURI */\n      0x05\n      swap1\n        /* \"ERC1155Facet.sol\":3776:3797  baseURI = _newBaseURI */\n      0x20\n      dup6\n      add\n      swap1\n      tag_356\n      jump\t// in\n        /* \"@openzeppelin/contracts/token/ERC1155/extensions/ERC1155Burnable.sol\":730:1078   */\n    tag_140:\n      sub(shl(0xa0, 0x01), 0x01)\n        /* \"@openzeppelin/contracts/token/ERC1155/extensions/ERC1155Burnable.sol\":889:912   */\n      dup4\n      and\n        /* \"@openzeppelin/contracts/utils/Context.sol\":719:729   */\n      caller\n        /* \"@openzeppelin/contracts/token/ERC1155/extensions/ERC1155Burnable.sol\":889:912   */\n      eq\n      dup1\n        /* \"@openzeppelin/contracts/token/ERC1155/extensions/ERC1155Burnable.sol\":889:955   */\n      tag_361\n      jumpi\n      pop\n        /* \"@openzeppelin/contracts/token/ERC1155/extensions/ERC1155Burnable.sol\":916:955   */\n      tag_361\n        /* \"@openzeppelin/contracts/token/ERC1155/extensions/ERC1155Burnable.sol\":933:940   */\n      dup4\n        /* \"@openzeppelin/contracts/utils/Context.sol\":719:729   */\n      caller\n        /* \"@openzeppelin/contracts/token/ERC1155/ERC1155.sol\":3365:3531   */\n      tag_220\n      jump\t// in\n        /* \"@openzeppelin/contracts/token/ERC1155/extensions/ERC1155Burnable.sol\":916:955   */\n    tag_361:\n        /* \"@openzeppelin/contracts/token/ERC1155/extensions/ERC1155Burnable.sol\":868:1028   */\n      tag_363\n      jumpi\n      mload(0x40)\n      shl(0xe5, 0x461bcd)\n      dup2\n      mstore\n        /* \"#utility.yul\":15729:15731   */\n      0x20\n        /* \"@openzeppelin/contracts/token/ERC1155/extensions/ERC1155Burnable.sol\":868:1028   */\n      0x04\n      dup3\n      add\n        /* \"#utility.yul\":15711:15732   */\n      mstore\n        /* \"#utility.yul\":15768:15770   */\n      0x2f\n        /* \"#utility.yul\":15748:15766   */\n      0x24\n      dup3\n      add\n        /* \"#utility.yul\":15741:15771   */\n      mstore\n        /* \"#utility.yul\":15807:15841   */\n      0x455243313135353a2063616c6c6572206973206e6f7420746f6b656e206f776e\n        /* \"#utility.yul\":15787:15805   */\n      0x44\n      dup3\n      add\n        /* \"#utility.yul\":15780:15842   */\n      mstore\n      shl(0x8a, 0x195c881b9bdc88185c1c1c9bdd9959)\n        /* \"#utility.yul\":15858:15876   */\n      0x64\n      dup3\n      add\n        /* \"#utility.yul\":15851:15896   */\n      mstore\n        /* \"#utility.yul\":15913:15932   */\n      0x84\n      add\n        /* \"@openzeppelin/contracts/token/ERC1155/extensions/ERC1155Burnable.sol\":868:1028   */\n      tag_246\n        /* \"#utility.yul\":15527:15938   */\n      jump\n        /* \"@openzeppelin/contracts/token/ERC1155/extensions/ERC1155Burnable.sol\":868:1028   */\n    tag_363:\n        /* \"@openzeppelin/contracts/token/ERC1155/extensions/ERC1155Burnable.sol\":1039:1071   */\n      tag_298\n        /* \"@openzeppelin/contracts/token/ERC1155/extensions/ERC1155Burnable.sol\":1050:1057   */\n      dup4\n        /* \"@openzeppelin/contracts/token/ERC1155/extensions/ERC1155Burnable.sol\":1059:1062   */\n      dup4\n        /* \"@openzeppelin/contracts/token/ERC1155/extensions/ERC1155Burnable.sol\":1064:1070   */\n      dup4\n        /* \"@openzeppelin/contracts/token/ERC1155/extensions/ERC1155Burnable.sol\":1039:1049   */\n      tag_366\n        /* \"@openzeppelin/contracts/token/ERC1155/extensions/ERC1155Burnable.sol\":1039:1071   */\n      jump\t// in\n        /* \"ERC1155Facet.sol\":1512:1533  string public baseURI */\n    tag_143:\n      0x05\n      dup1\n      sload\n      tag_367\n      swap1\n      tag_273\n      jump\t// in\n    tag_367:\n      dup1\n      0x1f\n      add\n      0x20\n      dup1\n      swap2\n      div\n      mul\n      0x20\n      add\n      mload(0x40)\n      swap1\n      dup2\n      add\n      0x40\n      mstore\n      dup1\n      swap3\n      swap2\n      swap1\n      dup2\n      dup2\n      mstore\n      0x20\n      add\n      dup3\n      dup1\n      sload\n      tag_368\n      swap1\n      tag_273\n      jump\t// in\n    tag_368:\n      dup1\n      iszero\n      tag_369\n      jumpi\n      dup1\n      0x1f\n      lt\n      tag_370\n      jumpi\n      0x0100\n      dup1\n      dup4\n      sload\n      div\n      mul\n      dup4\n      mstore\n      swap2\n      0x20\n      add\n      swap2\n      jump(tag_369)\n    tag_370:\n      dup3\n      add\n      swap2\n      swap1\n      0x00\n      mstore\n      keccak256(0x00, 0x20)\n      swap1\n    tag_371:\n      dup2\n      sload\n      dup2\n      mstore\n      swap1\n      0x01\n      add\n      swap1\n      0x20\n      add\n      dup1\n      dup4\n      gt\n      tag_371\n      jumpi\n      dup3\n      swap1\n      sub\n      0x1f\n      and\n      dup3\n      add\n      swap2\n    tag_369:\n      pop\n      pop\n      pop\n      pop\n      pop\n      dup2\n      jump\t// out\n        /* \"ERC1155Facet.sol\":6155:6963  function meltBatch(... */\n    tag_157:\n        /* \"ERC1155Facet.sol\":772:795  keccak256(\"HODLR_ROLE\") */\n      0x5690342a5622b53ebb7dbf01640710d2f9bf4af2652bffa51830f5fb49cc30b3\n        /* \"@openzeppelin/contracts/access/AccessControl.sol\":2505:2521   */\n      tag_373\n        /* \"@openzeppelin/contracts/access/AccessControl.sol\":2516:2520   */\n      dup2\n        /* \"@openzeppelin/contracts/access/AccessControl.sol\":2505:2515   */\n      tag_296\n        /* \"@openzeppelin/contracts/access/AccessControl.sol\":2505:2521   */\n      jump\t// in\n    tag_373:\n        /* \"@openzeppelin/contracts/security/Pausable.sol\":1239:1258   */\n      tag_375\n        /* \"@openzeppelin/contracts/security/Pausable.sol\":1239:1256   */\n      tag_253\n        /* \"@openzeppelin/contracts/security/Pausable.sol\":1239:1258   */\n      jump\t// in\n    tag_375:\n        /* \"ERC1155Facet.sol\":6346:6374  ids.length == amounts.length */\n      dup4\n      dup3\n      eq\n        /* \"ERC1155Facet.sol\":6325:6426  require(... */\n      tag_377\n      jumpi\n      mload(0x40)\n      shl(0xe5, 0x461bcd)\n      dup2\n      mstore\n        /* \"#utility.yul\":18069:18071   */\n      0x20\n        /* \"ERC1155Facet.sol\":6325:6426  require(... */\n      0x04\n      dup3\n      add\n        /* \"#utility.yul\":18051:18072   */\n      mstore\n        /* \"#utility.yul\":18108:18110   */\n      0x1a\n        /* \"#utility.yul\":18088:18106   */\n      0x24\n      dup3\n      add\n        /* \"#utility.yul\":18081:18111   */\n      mstore\n        /* \"#utility.yul\":18147:18175   */\n      0x4561636820746f6b656e206e6565647320616e20616d6f756e74000000000000\n        /* \"#utility.yul\":18127:18145   */\n      0x44\n      dup3\n      add\n        /* \"#utility.yul\":18120:18176   */\n      mstore\n        /* \"#utility.yul\":18193:18211   */\n      0x64\n      add\n        /* \"ERC1155Facet.sol\":6325:6426  require(... */\n      tag_246\n        /* \"#utility.yul\":17867:18217   */\n      jump\n        /* \"ERC1155Facet.sol\":6325:6426  require(... */\n    tag_377:\n        /* \"ERC1155Facet.sol\":6436:6469  _burnBatch(account, ids, amounts) */\n      tag_380\n        /* \"ERC1155Facet.sol\":6447:6454  account */\n      dup7\n        /* \"ERC1155Facet.sol\":6456:6459  ids */\n      dup7\n      dup7\n        /* \"ERC1155Facet.sol\":6436:6469  _burnBatch(account, ids, amounts) */\n      dup1\n      dup1\n      0x20\n      mul\n      0x20\n      add\n      mload(0x40)\n      swap1\n      dup2\n      add\n      0x40\n      mstore\n      dup1\n      swap4\n      swap3\n      swap2\n      swap1\n      dup2\n      dup2\n      mstore\n      0x20\n      add\n      dup4\n      dup4\n      0x20\n      mul\n      dup1\n      dup3\n      dup5\n      calldatacopy\n      0x00\n      swap3\n      add\n      swap2\n      swap1\n      swap2\n      mstore\n      pop\n      pop\n      0x40\n      dup1\n      mload\n      0x20\n      dup1\n      dup11\n      mul\n      dup3\n      dup2\n      add\n      dup3\n      add\n      swap1\n      swap4\n      mstore\n      dup10\n      dup3\n      mstore\n      swap1\n      swap4\n      pop\n        /* \"ERC1155Facet.sol\":6461:6468  amounts */\n      dup10\n      swap3\n      pop\n      dup9\n      swap2\n      dup3\n      swap2\n        /* \"ERC1155Facet.sol\":6436:6469  _burnBatch(account, ids, amounts) */\n      dup6\n      add\n      swap1\n        /* \"ERC1155Facet.sol\":6461:6468  amounts */\n      dup5\n      swap1\n        /* \"ERC1155Facet.sol\":6436:6469  _burnBatch(account, ids, amounts) */\n      dup1\n        /* \"ERC1155Facet.sol\":6461:6468  amounts */\n      dup3\n        /* \"ERC1155Facet.sol\":6436:6469  _burnBatch(account, ids, amounts) */\n      dup5\n      calldatacopy\n      0x00\n      swap3\n      add\n      swap2\n      swap1\n      swap2\n      mstore\n      pop\n        /* \"ERC1155Facet.sol\":6436:6446  _burnBatch */\n      tag_366\n      swap3\n      pop\n      pop\n      pop\n        /* \"ERC1155Facet.sol\":6436:6469  _burnBatch(account, ids, amounts) */\n      jump\t// in\n    tag_380:\n        /* \"ERC1155Facet.sol\":6484:6493  uint256 x */\n      0x00\n        /* \"ERC1155Facet.sol\":6479:6572  for (uint256 x = 0; x <= ids.length; x++) {... */\n    tag_381:\n        /* \"ERC1155Facet.sol\":6499:6514  x <= ids.length */\n      dup5\n      dup2\n      gt\n        /* \"ERC1155Facet.sol\":6479:6572  for (uint256 x = 0; x <= ids.length; x++) {... */\n      tag_382\n      jumpi\n        /* \"ERC1155Facet.sol\":6542:6553  tokenOwners */\n      0x09\n        /* \"ERC1155Facet.sol\":6542:6561  tokenOwners[ids[x]] */\n      0x00\n        /* \"ERC1155Facet.sol\":6554:6557  ids */\n      dup8\n      dup8\n        /* \"ERC1155Facet.sol\":6558:6559  x */\n      dup5\n        /* \"ERC1155Facet.sol\":6554:6560  ids[x] */\n      dup2\n      dup2\n      lt\n      tag_385\n      jumpi\n      tag_385\n      tag_345\n      jump\t// in\n    tag_385:\n      0x20\n      swap1\n      dup2\n      mul\n      swap3\n      swap1\n      swap3\n      add\n      calldataload\n        /* \"ERC1155Facet.sol\":6542:6561  tokenOwners[ids[x]] */\n      dup4\n      mstore\n      pop\n      dup2\n      add\n      swap2\n      swap1\n      swap2\n      mstore\n      0x40\n      add\n      0x00\n      keccak256\n        /* \"ERC1155Facet.sol\":6535:6561  delete tokenOwners[ids[x]] */\n      dup1\n      sload\n      not(0xffffffffffffffffffffffffffffffffffffffff)\n      and\n      swap1\n      sstore\n        /* \"ERC1155Facet.sol\":6516:6519  x++ */\n      dup1\n      tag_386\n      dup2\n      tag_351\n      jump\t// in\n    tag_386:\n      swap2\n      pop\n      pop\n        /* \"ERC1155Facet.sol\":6479:6572  for (uint256 x = 0; x <= ids.length; x++) {... */\n      jump(tag_381)\n    tag_382:\n      pop\n        /* \"ERC1155Facet.sol\":6155:6963  function meltBatch(... */\n      pop\n      pop\n      pop\n      pop\n      pop\n      pop\n      jump\t// out\n        /* \"ERC1155Facet.sol\":2581:2837  function setTokenRoyalty(... */\n    tag_171:\n        /* \"ERC1155Facet.sol\":1060:1084  keccak256(\"MINTER_ROLE\") */\n      0x9f2df0fed2c77648de5860a4cc508cd0818c85b8b8a1ab4ceeef8d981c8956a6\n        /* \"@openzeppelin/contracts/access/AccessControl.sol\":2505:2521   */\n      tag_389\n        /* \"@openzeppelin/contracts/access/AccessControl.sol\":2516:2520   */\n      dup2\n        /* \"@openzeppelin/contracts/access/AccessControl.sol\":2505:2515   */\n      tag_296\n        /* \"@openzeppelin/contracts/access/AccessControl.sol\":2505:2521   */\n      jump\t// in\n    tag_389:\n        /* \"ERC1155Facet.sol\":2743:2748  10000 */\n      0x2710\n        /* \"ERC1155Facet.sol\":2734:2739  value */\n      dup3\n        /* \"ERC1155Facet.sol\":2734:2748  value <= 10000 */\n      gt\n      iszero\n        /* \"ERC1155Facet.sol\":2726:2761  require(value <= 10000, \"too high\") */\n      tag_391\n      jumpi\n      mload(0x40)\n      shl(0xe5, 0x461bcd)\n      dup2\n      mstore\n        /* \"#utility.yul\":18424:18426   */\n      0x20\n        /* \"ERC1155Facet.sol\":2726:2761  require(value <= 10000, \"too high\") */\n      0x04\n      dup3\n      add\n        /* \"#utility.yul\":18406:18427   */\n      mstore\n        /* \"#utility.yul\":18463:18464   */\n      0x08\n        /* \"#utility.yul\":18443:18461   */\n      0x24\n      dup3\n      add\n        /* \"#utility.yul\":18436:18465   */\n      mstore\n        /* \"#utility.yul\":18501:18511   */\n      0x746f6f2068696768000000000000000000000000000000000000000000000000\n        /* \"#utility.yul\":18481:18499   */\n      0x44\n      dup3\n      add\n        /* \"#utility.yul\":18474:18512   */\n      mstore\n        /* \"#utility.yul\":18529:18547   */\n      0x64\n      add\n        /* \"ERC1155Facet.sol\":2726:2761  require(value <= 10000, \"too high\") */\n      tag_246\n        /* \"#utility.yul\":18222:18553   */\n      jump\n        /* \"ERC1155Facet.sol\":2726:2761  require(value <= 10000, \"too high\") */\n    tag_391:\n      pop\n        /* \"ERC1155Facet.sol\":2793:2830  RoyaltyInfo(recipient, uint24(value)) */\n      0x40\n      dup1\n      mload\n      dup1\n      dup3\n      add\n      dup3\n      mstore\n      sub(shl(0xa0, 0x01), 0x01)\n      swap4\n      dup5\n      and\n      dup2\n      mstore\n      0xffffff\n      swap3\n      dup4\n      and\n      0x20\n      dup1\n      dup4\n      add\n      swap2\n      dup3\n      mstore\n      0x00\n        /* \"ERC1155Facet.sol\":2771:2790  _royalties[tokenId] */\n      swap7\n      dup8\n      mstore\n        /* \"ERC1155Facet.sol\":2771:2781  _royalties */\n      0x07\n        /* \"ERC1155Facet.sol\":2771:2790  _royalties[tokenId] */\n      swap1\n      mstore\n      swap2\n      swap1\n      swap5\n      keccak256\n        /* \"ERC1155Facet.sol\":2771:2830  _royalties[tokenId] = RoyaltyInfo(recipient, uint24(value)) */\n      swap4\n      mload\n      dup5\n      sload\n      swap2\n      mload\n      swap1\n      swap3\n      and\n      shl(0xa0, 0x01)\n      mul\n      0xffffffffffffffffff0000000000000000000000000000000000000000000000\n      swap1\n      swap2\n      and\n      swap2\n      swap1\n      swap3\n      and\n      or\n      or\n      swap1\n      sstore\n        /* \"ERC1155Facet.sol\":2581:2837  function setTokenRoyalty(... */\n      jump\t// out\n        /* \"@openzeppelin/contracts/token/ERC1155/ERC1155.sol\":3145:3298   */\n    tag_180:\n        /* \"@openzeppelin/contracts/token/ERC1155/ERC1155.sol\":3239:3291   */\n      tag_304\n        /* \"@openzeppelin/contracts/utils/Context.sol\":719:729   */\n      caller\n        /* \"@openzeppelin/contracts/token/ERC1155/ERC1155.sol\":3272:3280   */\n      dup4\n        /* \"@openzeppelin/contracts/token/ERC1155/ERC1155.sol\":3282:3290   */\n      dup4\n        /* \"@openzeppelin/contracts/token/ERC1155/ERC1155.sol\":3239:3257   */\n      tag_397\n        /* \"@openzeppelin/contracts/token/ERC1155/ERC1155.sol\":3239:3291   */\n      jump\t// in\n        /* \"ERC1155Facet.sol\":1539:1576  string public baseExtension = \".json\" */\n    tag_191:\n      0x06\n      dup1\n      sload\n      tag_367\n      swap1\n      tag_273\n      jump\t// in\n        /* \"@openzeppelin/contracts/access/AccessControl.sol\":5241:5388   */\n    tag_200:\n        /* \"@openzeppelin/contracts/access/AccessControl.sol\":4465:4472   */\n      0x00\n        /* \"@openzeppelin/contracts/access/AccessControl.sol\":4491:4503   */\n      dup3\n      dup2\n      mstore\n        /* \"@openzeppelin/contracts/access/AccessControl.sol\":4491:4497   */\n      0x03\n        /* \"@openzeppelin/contracts/access/AccessControl.sol\":4491:4503   */\n      0x20\n      mstore\n      0x40\n      swap1\n      keccak256\n        /* \"@openzeppelin/contracts/access/AccessControl.sol\":4491:4513   */\n      0x01\n      add\n      sload\n        /* \"@openzeppelin/contracts/access/AccessControl.sol\":2505:2521   */\n      tag_405\n        /* \"@openzeppelin/contracts/access/AccessControl.sol\":2516:2520   */\n      dup2\n        /* \"@openzeppelin/contracts/access/AccessControl.sol\":2505:2515   */\n      tag_296\n        /* \"@openzeppelin/contracts/access/AccessControl.sol\":2505:2521   */\n      jump\t// in\n    tag_405:\n        /* \"@openzeppelin/contracts/access/AccessControl.sol\":5355:5381   */\n      tag_298\n        /* \"@openzeppelin/contracts/access/AccessControl.sol\":5367:5371   */\n      dup4\n        /* \"@openzeppelin/contracts/access/AccessControl.sol\":5373:5380   */\n      dup4\n        /* \"@openzeppelin/contracts/access/AccessControl.sol\":5355:5366   */\n      tag_305\n        /* \"@openzeppelin/contracts/access/AccessControl.sol\":5355:5381   */\n      jump\t// in\n        /* \"ERC1155Facet.sol\":4753:5574  function mintBatch(... */\n    tag_204:\n        /* \"ERC1155Facet.sol\":1060:1084  keccak256(\"MINTER_ROLE\") */\n      0x9f2df0fed2c77648de5860a4cc508cd0818c85b8b8a1ab4ceeef8d981c8956a6\n        /* \"@openzeppelin/contracts/access/AccessControl.sol\":2505:2521   */\n      tag_409\n        /* \"@openzeppelin/contracts/access/AccessControl.sol\":2516:2520   */\n      dup2\n        /* \"@openzeppelin/contracts/access/AccessControl.sol\":2505:2515   */\n      tag_296\n        /* \"@openzeppelin/contracts/access/AccessControl.sol\":2505:2521   */\n      jump\t// in\n    tag_409:\n        /* \"@openzeppelin/contracts/security/Pausable.sol\":1239:1258   */\n      tag_411\n        /* \"@openzeppelin/contracts/security/Pausable.sol\":1239:1256   */\n      tag_253\n        /* \"@openzeppelin/contracts/security/Pausable.sol\":1239:1258   */\n      jump\t// in\n    tag_411:\n        /* \"ERC1155Facet.sol\":4946:4974  ids.length == amounts.length */\n      dup4\n      dup3\n      eq\n        /* \"ERC1155Facet.sol\":4925:5026  require(... */\n      tag_413\n      jumpi\n      mload(0x40)\n      shl(0xe5, 0x461bcd)\n      dup2\n      mstore\n        /* \"#utility.yul\":18069:18071   */\n      0x20\n        /* \"ERC1155Facet.sol\":4925:5026  require(... */\n      0x04\n      dup3\n      add\n        /* \"#utility.yul\":18051:18072   */\n      mstore\n        /* \"#utility.yul\":18108:18110   */\n      0x1a\n        /* \"#utility.yul\":18088:18106   */\n      0x24\n      dup3\n      add\n        /* \"#utility.yul\":18081:18111   */\n      mstore\n        /* \"#utility.yul\":18147:18175   */\n      0x4561636820746f6b656e206e6565647320616e20616d6f756e74000000000000\n        /* \"#utility.yul\":18127:18145   */\n      0x44\n      dup3\n      add\n        /* \"#utility.yul\":18120:18176   */\n      mstore\n        /* \"#utility.yul\":18193:18211   */\n      0x64\n      add\n        /* \"ERC1155Facet.sol\":4925:5026  require(... */\n      tag_246\n        /* \"#utility.yul\":17867:18217   */\n      jump\n        /* \"ERC1155Facet.sol\":4925:5026  require(... */\n    tag_413:\n        /* \"ERC1155Facet.sol\":5036:5074  _mintBatch(receiver, ids, amounts, \"\") */\n      tag_415\n        /* \"ERC1155Facet.sol\":5047:5055  receiver */\n      dup7\n        /* \"ERC1155Facet.sol\":5057:5060  ids */\n      dup7\n      dup7\n        /* \"ERC1155Facet.sol\":5036:5074  _mintBatch(receiver, ids, amounts, \"\") */\n      dup1\n      dup1\n      0x20\n      mul\n      0x20\n      add\n      mload(0x40)\n      swap1\n      dup2\n      add\n      0x40\n      mstore\n      dup1\n      swap4\n      swap3\n      swap2\n      swap1\n      dup2\n      dup2\n      mstore\n      0x20\n      add\n      dup4\n      dup4\n      0x20\n      mul\n      dup1\n      dup3\n      dup5\n      calldatacopy\n      0x00\n      swap3\n      add\n      swap2\n      swap1\n      swap2\n      mstore\n      pop\n      pop\n      0x40\n      dup1\n      mload\n      0x20\n      dup1\n      dup11\n      mul\n      dup3\n      dup2\n      add\n      dup3\n      add\n      swap1\n      swap4\n      mstore\n      dup10\n      dup3\n      mstore\n      swap1\n      swap4\n      pop\n        /* \"ERC1155Facet.sol\":5062:5069  amounts */\n      dup10\n      swap3\n      pop\n      dup9\n      swap2\n      dup3\n      swap2\n        /* \"ERC1155Facet.sol\":5036:5074  _mintBatch(receiver, ids, amounts, \"\") */\n      dup6\n      add\n      swap1\n        /* \"ERC1155Facet.sol\":5062:5069  amounts */\n      dup5\n      swap1\n        /* \"ERC1155Facet.sol\":5036:5074  _mintBatch(receiver, ids, amounts, \"\") */\n      dup1\n        /* \"ERC1155Facet.sol\":5062:5069  amounts */\n      dup3\n        /* \"ERC1155Facet.sol\":5036:5074  _mintBatch(receiver, ids, amounts, \"\") */\n      dup5\n      calldatacopy\n      0x00\n      swap3\n      add\n      dup3\n      swap1\n      mstore\n      pop\n      0x40\n      dup1\n      mload\n      0x20\n      dup2\n      add\n      swap1\n      swap2\n      mstore\n      swap1\n      dup2\n      mstore\n      swap3\n      pop\n        /* \"ERC1155Facet.sol\":5036:5046  _mintBatch */\n      tag_416\n      swap2\n      pop\n      pop\n        /* \"ERC1155Facet.sol\":5036:5074  _mintBatch(receiver, ids, amounts, \"\") */\n      jump\t// in\n    tag_415:\n        /* \"ERC1155Facet.sol\":5090:5099  uint256 x */\n      0x00\n        /* \"ERC1155Facet.sol\":5085:5182  for (uint256 x = 0; x <= ids.length; x++) {... */\n    tag_417:\n        /* \"ERC1155Facet.sol\":5105:5120  x <= ids.length */\n      dup5\n      dup2\n      gt\n        /* \"ERC1155Facet.sol\":5085:5182  for (uint256 x = 0; x <= ids.length; x++) {... */\n      tag_382\n      jumpi\n        /* \"ERC1155Facet.sol\":5163:5171  receiver */\n      dup7\n        /* \"ERC1155Facet.sol\":5141:5152  tokenOwners */\n      0x09\n        /* \"ERC1155Facet.sol\":5141:5160  tokenOwners[ids[x]] */\n      0x00\n        /* \"ERC1155Facet.sol\":5153:5156  ids */\n      dup9\n      dup9\n        /* \"ERC1155Facet.sol\":5157:5158  x */\n      dup6\n        /* \"ERC1155Facet.sol\":5153:5159  ids[x] */\n      dup2\n      dup2\n      lt\n      tag_421\n      jumpi\n      tag_421\n      tag_345\n      jump\t// in\n    tag_421:\n      swap1\n      pop\n      0x20\n      mul\n      add\n      calldataload\n        /* \"ERC1155Facet.sol\":5141:5160  tokenOwners[ids[x]] */\n      dup2\n      mstore\n      0x20\n      add\n      swap1\n      dup2\n      mstore\n      0x20\n      add\n      0x00\n      keccak256\n      0x00\n        /* \"ERC1155Facet.sol\":5141:5171  tokenOwners[ids[x]] = receiver */\n      0x0100\n      exp\n      dup2\n      sload\n      dup2\n      sub(shl(0xa0, 0x01), 0x01)\n      mul\n      not\n      and\n      swap1\n      dup4\n      sub(shl(0xa0, 0x01), 0x01)\n      and\n      mul\n      or\n      swap1\n      sstore\n      pop\n        /* \"ERC1155Facet.sol\":5122:5125  x++ */\n      dup1\n      dup1\n      tag_422\n      swap1\n      tag_351\n      jump\t// in\n    tag_422:\n      swap2\n      pop\n      pop\n        /* \"ERC1155Facet.sol\":5085:5182  for (uint256 x = 0; x <= ids.length; x++) {... */\n      jump(tag_417)\n        /* \"ERC1155Facet.sol\":5812:6149  function melt(... */\n    tag_228:\n        /* \"ERC1155Facet.sol\":772:795  keccak256(\"HODLR_ROLE\") */\n      0x5690342a5622b53ebb7dbf01640710d2f9bf4af2652bffa51830f5fb49cc30b3\n        /* \"@openzeppelin/contracts/access/AccessControl.sol\":2505:2521   */\n      tag_425\n        /* \"@openzeppelin/contracts/access/AccessControl.sol\":2516:2520   */\n      dup2\n        /* \"@openzeppelin/contracts/access/AccessControl.sol\":2505:2515   */\n      tag_296\n        /* \"@openzeppelin/contracts/access/AccessControl.sol\":2505:2521   */\n      jump\t// in\n    tag_425:\n        /* \"@openzeppelin/contracts/utils/Context.sol\":719:729   */\n      caller\n      sub(shl(0xa0, 0x01), 0x01)\n        /* \"ERC1155Facet.sol\":5960:5983  _msgSender() == account */\n      dup6\n      and\n      eq\n        /* \"ERC1155Facet.sol\":5939:6041  require(... */\n      tag_428\n      jumpi\n      mload(0x40)\n      shl(0xe5, 0x461bcd)\n      dup2\n      mstore\n        /* \"#utility.yul\":18760:18762   */\n      0x20\n        /* \"ERC1155Facet.sol\":5939:6041  require(... */\n      0x04\n      dup3\n      add\n        /* \"#utility.yul\":18742:18763   */\n      dup2\n      swap1\n      mstore\n        /* \"#utility.yul\":18779:18797   */\n      0x24\n      dup3\n      add\n        /* \"#utility.yul\":18772:18802   */\n      mstore\n        /* \"#utility.yul\":18838:18872   */\n      0x596f752063616e206f6e6c79206275726e20796f7572206f776e20746f6b656e\n        /* \"#utility.yul\":18818:18836   */\n      0x44\n      dup3\n      add\n        /* \"#utility.yul\":18811:18873   */\n      mstore\n        /* \"#utility.yul\":18890:18908   */\n      0x64\n      add\n        /* \"ERC1155Facet.sol\":5939:6041  require(... */\n      tag_246\n        /* \"#utility.yul\":18558:18914   */\n      jump\n        /* \"ERC1155Facet.sol\":5939:6041  require(... */\n    tag_428:\n        /* \"ERC1155Facet.sol\":6051:6077  _burn(account, id, amount) */\n      tag_431\n        /* \"ERC1155Facet.sol\":6057:6064  account */\n      dup5\n        /* \"ERC1155Facet.sol\":6066:6068  id */\n      dup5\n        /* \"ERC1155Facet.sol\":6070:6076  amount */\n      dup5\n        /* \"ERC1155Facet.sol\":6051:6056  _burn */\n      tag_432\n        /* \"ERC1155Facet.sol\":6051:6077  _burn(account, id, amount) */\n      jump\t// in\n    tag_431:\n      pop\n      pop\n        /* \"ERC1155Facet.sol\":6094:6109  tokenOwners[id] */\n      0x00\n      swap1\n      dup2\n      mstore\n        /* \"ERC1155Facet.sol\":6094:6105  tokenOwners */\n      0x09\n        /* \"ERC1155Facet.sol\":6094:6109  tokenOwners[id] */\n      0x20\n      mstore\n      0x40\n      swap1\n      keccak256\n        /* \"ERC1155Facet.sol\":6087:6109  delete tokenOwners[id] */\n      dup1\n      sload\n      not(0xffffffffffffffffffffffffffffffffffffffff)\n      and\n      swap1\n      sstore\n      pop\n        /* \"ERC1155Facet.sol\":5812:6149  function melt(... */\n      jump\t// out\n        /* \"@openzeppelin/contracts/token/ERC1155/ERC1155.sol\":3598:3993   */\n    tag_233:\n      sub(shl(0xa0, 0x01), 0x01)\n        /* \"@openzeppelin/contracts/token/ERC1155/ERC1155.sol\":3798:3818   */\n      dup6\n      and\n        /* \"@openzeppelin/contracts/utils/Context.sol\":719:729   */\n      caller\n        /* \"@openzeppelin/contracts/token/ERC1155/ERC1155.sol\":3798:3818   */\n      eq\n      dup1\n        /* \"@openzeppelin/contracts/token/ERC1155/ERC1155.sol\":3798:3858   */\n      tag_436\n      jumpi\n      pop\n        /* \"@openzeppelin/contracts/token/ERC1155/ERC1155.sol\":3822:3858   */\n      tag_436\n        /* \"@openzeppelin/contracts/token/ERC1155/ERC1155.sol\":3839:3843   */\n      dup6\n        /* \"@openzeppelin/contracts/utils/Context.sol\":719:729   */\n      caller\n        /* \"@openzeppelin/contracts/token/ERC1155/ERC1155.sol\":3365:3531   */\n      tag_220\n      jump\t// in\n        /* \"@openzeppelin/contracts/token/ERC1155/ERC1155.sol\":3822:3858   */\n    tag_436:\n        /* \"@openzeppelin/contracts/token/ERC1155/ERC1155.sol\":3777:3931   */\n      tag_438\n      jumpi\n      mload(0x40)\n      shl(0xe5, 0x461bcd)\n      dup2\n      mstore\n        /* \"#utility.yul\":15729:15731   */\n      0x20\n        /* \"@openzeppelin/contracts/token/ERC1155/ERC1155.sol\":3777:3931   */\n      0x04\n      dup3\n      add\n        /* \"#utility.yul\":15711:15732   */\n      mstore\n        /* \"#utility.yul\":15768:15770   */\n      0x2f\n        /* \"#utility.yul\":15748:15766   */\n      0x24\n      dup3\n      add\n        /* \"#utility.yul\":15741:15771   */\n      mstore\n        /* \"#utility.yul\":15807:15841   */\n      0x455243313135353a2063616c6c6572206973206e6f7420746f6b656e206f776e\n        /* \"#utility.yul\":15787:15805   */\n      0x44\n      dup3\n      add\n        /* \"#utility.yul\":15780:15842   */\n      mstore\n      shl(0x8a, 0x195c881b9bdc88185c1c1c9bdd9959)\n        /* \"#utility.yul\":15858:15876   */\n      0x64\n      dup3\n      add\n        /* \"#utility.yul\":15851:15896   */\n      mstore\n        /* \"#utility.yul\":15913:15932   */\n      0x84\n      add\n        /* \"@openzeppelin/contracts/token/ERC1155/ERC1155.sol\":3777:3931   */\n      tag_246\n        /* \"#utility.yul\":15527:15938   */\n      jump\n        /* \"@openzeppelin/contracts/token/ERC1155/ERC1155.sol\":3777:3931   */\n    tag_438:\n        /* \"@openzeppelin/contracts/token/ERC1155/ERC1155.sol\":3941:3986   */\n      tag_269\n        /* \"@openzeppelin/contracts/token/ERC1155/ERC1155.sol\":3959:3963   */\n      dup6\n        /* \"@openzeppelin/contracts/token/ERC1155/ERC1155.sol\":3965:3967   */\n      dup6\n        /* \"@openzeppelin/contracts/token/ERC1155/ERC1155.sol\":3969:3971   */\n      dup6\n        /* \"@openzeppelin/contracts/token/ERC1155/ERC1155.sol\":3973:3979   */\n      dup6\n        /* \"@openzeppelin/contracts/token/ERC1155/ERC1155.sol\":3981:3985   */\n      dup6\n        /* \"@openzeppelin/contracts/token/ERC1155/ERC1155.sol\":3941:3958   */\n      tag_266\n        /* \"@openzeppelin/contracts/token/ERC1155/ERC1155.sol\":3941:3986   */\n      jump\t// in\n        /* \"@openzeppelin/contracts/token/ERC1155/extensions/ERC1155Burnable.sol\":408:724   */\n    tag_237:\n      sub(shl(0xa0, 0x01), 0x01)\n        /* \"@openzeppelin/contracts/token/ERC1155/extensions/ERC1155Burnable.sol\":542:565   */\n      dup4\n      and\n        /* \"@openzeppelin/contracts/utils/Context.sol\":719:729   */\n      caller\n        /* \"@openzeppelin/contracts/token/ERC1155/extensions/ERC1155Burnable.sol\":542:565   */\n      eq\n      dup1\n        /* \"@openzeppelin/contracts/token/ERC1155/extensions/ERC1155Burnable.sol\":542:608   */\n      tag_444\n      jumpi\n      pop\n        /* \"@openzeppelin/contracts/token/ERC1155/extensions/ERC1155Burnable.sol\":569:608   */\n      tag_444\n        /* \"@openzeppelin/contracts/token/ERC1155/extensions/ERC1155Burnable.sol\":586:593   */\n      dup4\n        /* \"@openzeppelin/contracts/utils/Context.sol\":719:729   */\n      caller\n        /* \"@openzeppelin/contracts/token/ERC1155/ERC1155.sol\":3365:3531   */\n      tag_220\n      jump\t// in\n        /* \"@openzeppelin/contracts/token/ERC1155/extensions/ERC1155Burnable.sol\":569:608   */\n    tag_444:\n        /* \"@openzeppelin/contracts/token/ERC1155/extensions/ERC1155Burnable.sol\":521:681   */\n      tag_446\n      jumpi\n      mload(0x40)\n      shl(0xe5, 0x461bcd)\n      dup2\n      mstore\n        /* \"#utility.yul\":15729:15731   */\n      0x20\n        /* \"@openzeppelin/contracts/token/ERC1155/extensions/ERC1155Burnable.sol\":521:681   */\n      0x04\n      dup3\n      add\n        /* \"#utility.yul\":15711:15732   */\n      mstore\n        /* \"#utility.yul\":15768:15770   */\n      0x2f\n        /* \"#utility.yul\":15748:15766   */\n      0x24\n      dup3\n      add\n        /* \"#utility.yul\":15741:15771   */\n      mstore\n        /* \"#utility.yul\":15807:15841   */\n      0x455243313135353a2063616c6c6572206973206e6f7420746f6b656e206f776e\n        /* \"#utility.yul\":15787:15805   */\n      0x44\n      dup3\n      add\n        /* \"#utility.yul\":15780:15842   */\n      mstore\n      shl(0x8a, 0x195c881b9bdc88185c1c1c9bdd9959)\n        /* \"#utility.yul\":15858:15876   */\n      0x64\n      dup3\n      add\n        /* \"#utility.yul\":15851:15896   */\n      mstore\n        /* \"#utility.yul\":15913:15932   */\n      0x84\n      add\n        /* \"@openzeppelin/contracts/token/ERC1155/extensions/ERC1155Burnable.sol\":521:681   */\n      tag_246\n        /* \"#utility.yul\":15527:15938   */\n      jump\n        /* \"@openzeppelin/contracts/token/ERC1155/extensions/ERC1155Burnable.sol\":521:681   */\n    tag_446:\n        /* \"@openzeppelin/contracts/token/ERC1155/extensions/ERC1155Burnable.sol\":692:717   */\n      tag_298\n        /* \"@openzeppelin/contracts/token/ERC1155/extensions/ERC1155Burnable.sol\":698:705   */\n      dup4\n        /* \"@openzeppelin/contracts/token/ERC1155/extensions/ERC1155Burnable.sol\":707:709   */\n      dup4\n        /* \"@openzeppelin/contracts/token/ERC1155/extensions/ERC1155Burnable.sol\":711:716   */\n      dup4\n        /* \"@openzeppelin/contracts/token/ERC1155/extensions/ERC1155Burnable.sol\":692:697   */\n      tag_432\n        /* \"@openzeppelin/contracts/token/ERC1155/extensions/ERC1155Burnable.sol\":692:717   */\n      jump\t// in\n        /* \"@openzeppelin/contracts/access/AccessControl.sol\":2606:2808   */\n    tag_250:\n        /* \"@openzeppelin/contracts/access/AccessControl.sol\":2691:2695   */\n      0x00\n      not(sub(shl(0xe0, 0x01), 0x01))\n        /* \"@openzeppelin/contracts/access/AccessControl.sol\":2714:2761   */\n      dup3\n      and\n      shl(0xe0, 0x7965db0b)\n      eq\n      dup1\n        /* \"@openzeppelin/contracts/access/AccessControl.sol\":2714:2801   */\n      tag_249\n      jumpi\n      pop\n        /* \"@openzeppelin/contracts/access/AccessControl.sol\":2765:2801   */\n      tag_249\n        /* \"@openzeppelin/contracts/access/AccessControl.sol\":2789:2800   */\n      dup3\n        /* \"@openzeppelin/contracts/access/AccessControl.sol\":2765:2788   */\n      tag_452\n        /* \"@openzeppelin/contracts/access/AccessControl.sol\":2765:2801   */\n      jump\t// in\n        /* \"@openzeppelin/contracts/security/Pausable.sol\":1767:1873   */\n    tag_253:\n        /* \"@openzeppelin/contracts/security/Pausable.sol\":1685:1692   */\n      and(0xff, sload(0x04))\n        /* \"@openzeppelin/contracts/security/Pausable.sol\":1836:1845   */\n      iszero\n        /* \"@openzeppelin/contracts/security/Pausable.sol\":1828:1866   */\n      tag_455\n      jumpi\n      mload(0x40)\n      shl(0xe5, 0x461bcd)\n      dup2\n      mstore\n        /* \"#utility.yul\":19121:19123   */\n      0x20\n        /* \"@openzeppelin/contracts/security/Pausable.sol\":1828:1866   */\n      0x04\n      dup3\n      add\n        /* \"#utility.yul\":19103:19124   */\n      mstore\n        /* \"#utility.yul\":19160:19162   */\n      0x10\n        /* \"#utility.yul\":19140:19158   */\n      0x24\n      dup3\n      add\n        /* \"#utility.yul\":19133:19163   */\n      mstore\n        /* \"#utility.yul\":19199:19217   */\n      0x5061757361626c653a2070617573656400000000000000000000000000000000\n        /* \"#utility.yul\":19179:19197   */\n      0x44\n      dup3\n      add\n        /* \"#utility.yul\":19172:19218   */\n      mstore\n        /* \"#utility.yul\":19235:19253   */\n      0x64\n      add\n        /* \"@openzeppelin/contracts/security/Pausable.sol\":1828:1866   */\n      tag_246\n        /* \"#utility.yul\":18919:19259   */\n      jump\n        /* \"@openzeppelin/contracts/security/Pausable.sol\":1828:1866   */\n    tag_455:\n        /* \"@openzeppelin/contracts/security/Pausable.sol\":1767:1873   */\n      jump\t// out\n        /* \"@openzeppelin/contracts/token/ERC1155/ERC1155.sol\":4942:5889   */\n    tag_266:\n      sub(shl(0xa0, 0x01), 0x01)\n        /* \"@openzeppelin/contracts/token/ERC1155/ERC1155.sol\":5123:5139   */\n      dup5\n      and\n        /* \"@openzeppelin/contracts/token/ERC1155/ERC1155.sol\":5115:5181   */\n      tag_460\n      jumpi\n      mload(0x40)\n      shl(0xe5, 0x461bcd)\n      dup2\n      mstore\n        /* \"#utility.yul\":19466:19468   */\n      0x20\n        /* \"@openzeppelin/contracts/token/ERC1155/ERC1155.sol\":5115:5181   */\n      0x04\n      dup3\n      add\n        /* \"#utility.yul\":19448:19469   */\n      mstore\n        /* \"#utility.yul\":19505:19507   */\n      0x25\n        /* \"#utility.yul\":19485:19503   */\n      0x24\n      dup3\n      add\n        /* \"#utility.yul\":19478:19508   */\n      mstore\n        /* \"#utility.yul\":19544:19578   */\n      0x455243313135353a207472616e7366657220746f20746865207a65726f206164\n        /* \"#utility.yul\":19524:19542   */\n      0x44\n      dup3\n      add\n        /* \"#utility.yul\":19517:19579   */\n      mstore\n      shl(0xd8, 0x6472657373)\n        /* \"#utility.yul\":19595:19613   */\n      0x64\n      dup3\n      add\n        /* \"#utility.yul\":19588:19623   */\n      mstore\n        /* \"#utility.yul\":19640:19659   */\n      0x84\n      add\n        /* \"@openzeppelin/contracts/token/ERC1155/ERC1155.sol\":5115:5181   */\n      tag_246\n        /* \"#utility.yul\":19264:19665   */\n      jump\n        /* \"@openzeppelin/contracts/token/ERC1155/ERC1155.sol\":5115:5181   */\n    tag_460:\n        /* \"@openzeppelin/contracts/utils/Context.sol\":719:729   */\n      caller\n        /* \"@openzeppelin/contracts/token/ERC1155/ERC1155.sol\":5192:5208   */\n      0x00\n        /* \"@openzeppelin/contracts/token/ERC1155/ERC1155.sol\":5256:5277   */\n      tag_464\n        /* \"@openzeppelin/contracts/token/ERC1155/ERC1155.sol\":5274:5276   */\n      dup6\n        /* \"@openzeppelin/contracts/token/ERC1155/ERC1155.sol\":5256:5273   */\n      tag_465\n        /* \"@openzeppelin/contracts/token/ERC1155/ERC1155.sol\":5256:5277   */\n      jump\t// in\n    tag_464:\n        /* \"@openzeppelin/contracts/token/ERC1155/ERC1155.sol\":5233:5277   */\n      swap1\n      pop\n        /* \"@openzeppelin/contracts/token/ERC1155/ERC1155.sol\":5287:5311   */\n      0x00\n        /* \"@openzeppelin/contracts/token/ERC1155/ERC1155.sol\":5314:5339   */\n      tag_466\n        /* \"@openzeppelin/contracts/token/ERC1155/ERC1155.sol\":5332:5338   */\n      dup6\n        /* \"@openzeppelin/contracts/token/ERC1155/ERC1155.sol\":5314:5331   */\n      tag_465\n        /* \"@openzeppelin/contracts/token/ERC1155/ERC1155.sol\":5314:5339   */\n      jump\t// in\n    tag_466:\n        /* \"@openzeppelin/contracts/token/ERC1155/ERC1155.sol\":5287:5339   */\n      swap1\n      pop\n        /* \"@openzeppelin/contracts/token/ERC1155/ERC1155.sol\":5421:5440   */\n      0x00\n        /* \"@openzeppelin/contracts/token/ERC1155/ERC1155.sol\":5443:5456   */\n      dup7\n      dup2\n      mstore\n      0x20\n      dup2\n      dup2\n      mstore\n      0x40\n      dup1\n      dup4\n      keccak256\n      sub(shl(0xa0, 0x01), 0x01)\n        /* \"@openzeppelin/contracts/token/ERC1155/ERC1155.sol\":5443:5462   */\n      dup13\n      and\n      dup5\n      mstore\n      swap1\n      swap2\n      mstore\n      swap1\n      keccak256\n      sload\n        /* \"@openzeppelin/contracts/token/ERC1155/ERC1155.sol\":5480:5501   */\n      dup6\n      dup2\n      lt\n      iszero\n        /* \"@openzeppelin/contracts/token/ERC1155/ERC1155.sol\":5472:5548   */\n      tag_469\n      jumpi\n      mload(0x40)\n      shl(0xe5, 0x461bcd)\n      dup2\n      mstore\n        /* \"#utility.yul\":19872:19874   */\n      0x20\n        /* \"@openzeppelin/contracts/token/ERC1155/ERC1155.sol\":5472:5548   */\n      0x04\n      dup3\n      add\n        /* \"#utility.yul\":19854:19875   */\n      mstore\n        /* \"#utility.yul\":19911:19913   */\n      0x2a\n        /* \"#utility.yul\":19891:19909   */\n      0x24\n      dup3\n      add\n        /* \"#utility.yul\":19884:19914   */\n      mstore\n        /* \"#utility.yul\":19950:19984   */\n      0x455243313135353a20696e73756666696369656e742062616c616e636520666f\n        /* \"#utility.yul\":19930:19948   */\n      0x44\n      dup3\n      add\n        /* \"#utility.yul\":19923:19985   */\n      mstore\n      shl(0xb1, 0x39103a3930b739b332b9)\n        /* \"#utility.yul\":20001:20019   */\n      0x64\n      dup3\n      add\n        /* \"#utility.yul\":19994:20034   */\n      mstore\n        /* \"#utility.yul\":20051:20070   */\n      0x84\n      add\n        /* \"@openzeppelin/contracts/token/ERC1155/ERC1155.sol\":5472:5548   */\n      tag_246\n        /* \"#utility.yul\":19670:20076   */\n      jump\n        /* \"@openzeppelin/contracts/token/ERC1155/ERC1155.sol\":5472:5548   */\n    tag_469:\n        /* \"@openzeppelin/contracts/token/ERC1155/ERC1155.sol\":5582:5591   */\n      0x00\n        /* \"@openzeppelin/contracts/token/ERC1155/ERC1155.sol\":5582:5595   */\n      dup8\n      dup2\n      mstore\n      0x20\n      dup2\n      dup2\n      mstore\n      0x40\n      dup1\n      dup4\n      keccak256\n      sub(shl(0xa0, 0x01), 0x01)\n        /* \"@openzeppelin/contracts/token/ERC1155/ERC1155.sol\":5582:5601   */\n      dup14\n      dup2\n      and\n      dup6\n      mstore\n      swap3\n      mstore\n      dup1\n      dup4\n      keccak256\n        /* \"@openzeppelin/contracts/token/ERC1155/ERC1155.sol\":5604:5624   */\n      dup10\n      dup6\n      sub\n        /* \"@openzeppelin/contracts/token/ERC1155/ERC1155.sol\":5582:5624   */\n      swap1\n      sstore\n        /* \"@openzeppelin/contracts/token/ERC1155/ERC1155.sol\":5644:5661   */\n      swap1\n      dup11\n      and\n      dup3\n      mstore\n      dup2\n      keccak256\n        /* \"@openzeppelin/contracts/token/ERC1155/ERC1155.sol\":5644:5671   */\n      dup1\n      sload\n        /* \"@openzeppelin/contracts/token/ERC1155/ERC1155.sol\":5604:5624   */\n      dup9\n      swap3\n        /* \"@openzeppelin/contracts/token/ERC1155/ERC1155.sol\":5582:5591   */\n      swap1\n        /* \"@openzeppelin/contracts/token/ERC1155/ERC1155.sol\":5644:5671   */\n      tag_472\n      swap1\n        /* \"@openzeppelin/contracts/token/ERC1155/ERC1155.sol\":5604:5624   */\n      dup5\n      swap1\n        /* \"@openzeppelin/contracts/token/ERC1155/ERC1155.sol\":5644:5671   */\n      tag_473\n      jump\t// in\n    tag_472:\n      swap1\n      swap2\n      sstore\n      pop\n      pop\n        /* \"@openzeppelin/contracts/token/ERC1155/ERC1155.sol\":5687:5733   */\n      0x40\n      dup1\n      mload\n        /* \"#utility.yul\":20388:20413   */\n      dup9\n      dup2\n      mstore\n        /* \"#utility.yul\":20444:20446   */\n      0x20\n        /* \"#utility.yul\":20429:20447   */\n      dup2\n      add\n        /* \"#utility.yul\":20422:20456   */\n      dup9\n      swap1\n      mstore\n      sub(shl(0xa0, 0x01), 0x01)\n        /* \"@openzeppelin/contracts/token/ERC1155/ERC1155.sol\":5687:5733   */\n      dup1\n      dup12\n      and\n      swap3\n      dup13\n      dup3\n      and\n      swap3\n      swap2\n      dup9\n      and\n      swap2\n      0xc3d58168c5ae7397731d063d5bbf3d657854427343f4c083240f7aacaa2d0f62\n      swap2\n        /* \"#utility.yul\":20361:20379   */\n      add\n        /* \"@openzeppelin/contracts/token/ERC1155/ERC1155.sol\":5687:5733   */\n      mload(0x40)\n      dup1\n      swap2\n      sub\n      swap1\n      log4\n        /* \"@openzeppelin/contracts/token/ERC1155/ERC1155.sol\":5814:5882   */\n      tag_478\n        /* \"@openzeppelin/contracts/token/ERC1155/ERC1155.sol\":5845:5853   */\n      dup5\n        /* \"@openzeppelin/contracts/token/ERC1155/ERC1155.sol\":5855:5859   */\n      dup11\n        /* \"@openzeppelin/contracts/token/ERC1155/ERC1155.sol\":5861:5863   */\n      dup11\n        /* \"@openzeppelin/contracts/token/ERC1155/ERC1155.sol\":5865:5867   */\n      dup11\n        /* \"@openzeppelin/contracts/token/ERC1155/ERC1155.sol\":5869:5875   */\n      dup11\n        /* \"@openzeppelin/contracts/token/ERC1155/ERC1155.sol\":5877:5881   */\n      dup11\n        /* \"@openzeppelin/contracts/token/ERC1155/ERC1155.sol\":5814:5844   */\n      tag_479\n        /* \"@openzeppelin/contracts/token/ERC1155/ERC1155.sol\":5814:5882   */\n      jump\t// in\n    tag_478:\n        /* \"@openzeppelin/contracts/token/ERC1155/ERC1155.sol\":5105:5889   */\n      pop\n      pop\n      pop\n      pop\n        /* \"@openzeppelin/contracts/token/ERC1155/ERC1155.sol\":4942:5889   */\n      pop\n      pop\n      pop\n      pop\n      pop\n      jump\t// out\n        /* \"@openzeppelin/contracts/access/AccessControl.sol\":7474:7707   */\n    tag_270:\n        /* \"@openzeppelin/contracts/access/AccessControl.sol\":2981:2985   */\n      0x00\n        /* \"@openzeppelin/contracts/access/AccessControl.sol\":3004:3016   */\n      dup3\n      dup2\n      mstore\n        /* \"@openzeppelin/contracts/access/AccessControl.sol\":3004:3010   */\n      0x03\n        /* \"@openzeppelin/contracts/access/AccessControl.sol\":3004:3016   */\n      0x20\n      swap1\n      dup2\n      mstore\n      0x40\n      dup1\n      dup4\n      keccak256\n      sub(shl(0xa0, 0x01), 0x01)\n        /* \"@openzeppelin/contracts/access/AccessControl.sol\":3004:3033   */\n      dup6\n      and\n      dup5\n      mstore\n      swap1\n      swap2\n      mstore\n      swap1\n      keccak256\n      sload\n      0xff\n      and\n        /* \"@openzeppelin/contracts/access/AccessControl.sol\":7552:7701   */\n      tag_304\n      jumpi\n        /* \"@openzeppelin/contracts/access/AccessControl.sol\":7595:7607   */\n      0x00\n      dup3\n      dup2\n      mstore\n        /* \"@openzeppelin/contracts/access/AccessControl.sol\":7595:7601   */\n      0x03\n        /* \"@openzeppelin/contracts/access/AccessControl.sol\":7595:7607   */\n      0x20\n      swap1\n      dup2\n      mstore\n      0x40\n      dup1\n      dup4\n      keccak256\n      sub(shl(0xa0, 0x01), 0x01)\n        /* \"@openzeppelin/contracts/access/AccessControl.sol\":7595:7624   */\n      dup6\n      and\n      dup5\n      mstore\n      swap1\n      swap2\n      mstore\n      swap1\n      keccak256\n        /* \"@openzeppelin/contracts/access/AccessControl.sol\":7595:7631   */\n      dup1\n      sload\n      not(0xff)\n      and\n        /* \"@openzeppelin/contracts/access/AccessControl.sol\":7627:7631   */\n      0x01\n        /* \"@openzeppelin/contracts/access/AccessControl.sol\":7595:7631   */\n      or\n      swap1\n      sstore\n        /* \"@openzeppelin/contracts/access/AccessControl.sol\":7677:7689   */\n      tag_483\n        /* \"@openzeppelin/contracts/utils/Context.sol\":719:729   */\n      caller\n      swap1\n        /* \"@openzeppelin/contracts/utils/Context.sol\":640:736   */\n      jump\n        /* \"@openzeppelin/contracts/access/AccessControl.sol\":7677:7689   */\n    tag_483:\n      sub(shl(0xa0, 0x01), 0x01)\n        /* \"@openzeppelin/contracts/access/AccessControl.sol\":7650:7690   */\n      and\n        /* \"@openzeppelin/contracts/access/AccessControl.sol\":7668:7675   */\n      dup2\n      sub(shl(0xa0, 0x01), 0x01)\n        /* \"@openzeppelin/contracts/access/AccessControl.sol\":7650:7690   */\n      and\n        /* \"@openzeppelin/contracts/access/AccessControl.sol\":7662:7666   */\n      dup4\n        /* \"@openzeppelin/contracts/access/AccessControl.sol\":7650:7690   */\n      0x2f8788117e7eff1d82e926ec794901d17c78024a50270940304540a733656f0d\n      mload(0x40)\n      mload(0x40)\n      dup1\n      swap2\n      sub\n      swap1\n      log4\n        /* \"@openzeppelin/contracts/access/AccessControl.sol\":7474:7707   */\n      pop\n      pop\n      jump\t// out\n        /* \"@openzeppelin/contracts/token/ERC1155/ERC1155.sol\":6235:7350   */\n    tag_292:\n        /* \"@openzeppelin/contracts/token/ERC1155/ERC1155.sol\":6455:6462   */\n      dup2\n        /* \"@openzeppelin/contracts/token/ERC1155/ERC1155.sol\":6455:6469   */\n      mload\n        /* \"@openzeppelin/contracts/token/ERC1155/ERC1155.sol\":6441:6444   */\n      dup4\n        /* \"@openzeppelin/contracts/token/ERC1155/ERC1155.sol\":6441:6451   */\n      mload\n        /* \"@openzeppelin/contracts/token/ERC1155/ERC1155.sol\":6441:6469   */\n      eq\n        /* \"@openzeppelin/contracts/token/ERC1155/ERC1155.sol\":6433:6514   */\n      tag_485\n      jumpi\n      mload(0x40)\n      shl(0xe5, 0x461bcd)\n      dup2\n      mstore\n        /* \"#utility.yul\":20669:20671   */\n      0x20\n        /* \"@openzeppelin/contracts/token/ERC1155/ERC1155.sol\":6433:6514   */\n      0x04\n      dup3\n      add\n        /* \"#utility.yul\":20651:20672   */\n      mstore\n        /* \"#utility.yul\":20708:20710   */\n      0x28\n        /* \"#utility.yul\":20688:20706   */\n      0x24\n      dup3\n      add\n        /* \"#utility.yul\":20681:20711   */\n      mstore\n        /* \"#utility.yul\":20747:20781   */\n      0x455243313135353a2069647320616e6420616d6f756e7473206c656e67746820\n        /* \"#utility.yul\":20727:20745   */\n      0x44\n      dup3\n      add\n        /* \"#utility.yul\":20720:20782   */\n      mstore\n      shl(0xc3, 0x0dad2e6dac2e8c6d)\n        /* \"#utility.yul\":20798:20816   */\n      0x64\n      dup3\n      add\n        /* \"#utility.yul\":20791:20829   */\n      mstore\n        /* \"#utility.yul\":20846:20865   */\n      0x84\n      add\n        /* \"@openzeppelin/contracts/token/ERC1155/ERC1155.sol\":6433:6514   */\n      tag_246\n        /* \"#utility.yul\":20467:20871   */\n      jump\n        /* \"@openzeppelin/contracts/token/ERC1155/ERC1155.sol\":6433:6514   */\n    tag_485:\n      sub(shl(0xa0, 0x01), 0x01)\n        /* \"@openzeppelin/contracts/token/ERC1155/ERC1155.sol\":6532:6548   */\n      dup5\n      and\n        /* \"@openzeppelin/contracts/token/ERC1155/ERC1155.sol\":6524:6590   */\n      tag_488\n      jumpi\n      mload(0x40)\n      shl(0xe5, 0x461bcd)\n      dup2\n      mstore\n        /* \"#utility.yul\":19466:19468   */\n      0x20\n        /* \"@openzeppelin/contracts/token/ERC1155/ERC1155.sol\":6524:6590   */\n      0x04\n      dup3\n      add\n        /* \"#utility.yul\":19448:19469   */\n      mstore\n        /* \"#utility.yul\":19505:19507   */\n      0x25\n        /* \"#utility.yul\":19485:19503   */\n      0x24\n      dup3\n      add\n        /* \"#utility.yul\":19478:19508   */\n      mstore\n        /* \"#utility.yul\":19544:19578   */\n      0x455243313135353a207472616e7366657220746f20746865207a65726f206164\n        /* \"#utility.yul\":19524:19542   */\n      0x44\n      dup3\n      add\n        /* \"#utility.yul\":19517:19579   */\n      mstore\n      shl(0xd8, 0x6472657373)\n        /* \"#utility.yul\":19595:19613   */\n      0x64\n      dup3\n      add\n        /* \"#utility.yul\":19588:19623   */\n      mstore\n        /* \"#utility.yul\":19640:19659   */\n      0x84\n      add\n        /* \"@openzeppelin/contracts/token/ERC1155/ERC1155.sol\":6524:6590   */\n      tag_246\n        /* \"#utility.yul\":19264:19665   */\n      jump\n        /* \"@openzeppelin/contracts/token/ERC1155/ERC1155.sol\":6524:6590   */\n    tag_488:\n        /* \"@openzeppelin/contracts/utils/Context.sol\":719:729   */\n      caller\n        /* \"@openzeppelin/contracts/token/ERC1155/ERC1155.sol\":6601:6617   */\n      0x00\n        /* \"@openzeppelin/contracts/token/ERC1155/ERC1155.sol\":6714:7125   */\n    tag_492:\n        /* \"@openzeppelin/contracts/token/ERC1155/ERC1155.sol\":6738:6741   */\n      dup5\n        /* \"@openzeppelin/contracts/token/ERC1155/ERC1155.sol\":6738:6748   */\n      mload\n        /* \"@openzeppelin/contracts/token/ERC1155/ERC1155.sol\":6734:6735   */\n      dup2\n        /* \"@openzeppelin/contracts/token/ERC1155/ERC1155.sol\":6734:6748   */\n      lt\n        /* \"@openzeppelin/contracts/token/ERC1155/ERC1155.sol\":6714:7125   */\n      iszero\n      tag_493\n      jumpi\n        /* \"@openzeppelin/contracts/token/ERC1155/ERC1155.sol\":6769:6779   */\n      0x00\n        /* \"@openzeppelin/contracts/token/ERC1155/ERC1155.sol\":6782:6785   */\n      dup6\n        /* \"@openzeppelin/contracts/token/ERC1155/ERC1155.sol\":6786:6787   */\n      dup3\n        /* \"@openzeppelin/contracts/token/ERC1155/ERC1155.sol\":6782:6788   */\n      dup2\n      mload\n      dup2\n      lt\n      tag_496\n      jumpi\n      tag_496\n      tag_345\n      jump\t// in\n    tag_496:\n      0x20\n      mul\n      0x20\n      add\n      add\n      mload\n        /* \"@openzeppelin/contracts/token/ERC1155/ERC1155.sol\":6769:6788   */\n      swap1\n      pop\n        /* \"@openzeppelin/contracts/token/ERC1155/ERC1155.sol\":6802:6816   */\n      0x00\n        /* \"@openzeppelin/contracts/token/ERC1155/ERC1155.sol\":6819:6826   */\n      dup6\n        /* \"@openzeppelin/contracts/token/ERC1155/ERC1155.sol\":6827:6828   */\n      dup4\n        /* \"@openzeppelin/contracts/token/ERC1155/ERC1155.sol\":6819:6829   */\n      dup2\n      mload\n      dup2\n      lt\n      tag_498\n      jumpi\n      tag_498\n      tag_345\n      jump\t// in\n    tag_498:\n      0x20\n      swap1\n      dup2\n      mul\n      swap2\n      swap1\n      swap2\n      add\n      dup2\n      add\n      mload\n        /* \"@openzeppelin/contracts/token/ERC1155/ERC1155.sol\":6844:6863   */\n      0x00\n        /* \"@openzeppelin/contracts/token/ERC1155/ERC1155.sol\":6866:6879   */\n      dup5\n      dup2\n      mstore\n      dup1\n      dup4\n      mstore\n      0x40\n      dup1\n      dup3\n      keccak256\n      sub(shl(0xa0, 0x01), 0x01)\n        /* \"@openzeppelin/contracts/token/ERC1155/ERC1155.sol\":6866:6885   */\n      dup15\n      and\n      dup4\n      mstore\n      swap1\n      swap4\n      mstore\n      swap2\n      swap1\n      swap2\n      keccak256\n      sload\n        /* \"@openzeppelin/contracts/token/ERC1155/ERC1155.sol\":6819:6829   */\n      swap1\n      swap2\n      pop\n        /* \"@openzeppelin/contracts/token/ERC1155/ERC1155.sol\":6907:6928   */\n      dup2\n      dup2\n      lt\n      iszero\n        /* \"@openzeppelin/contracts/token/ERC1155/ERC1155.sol\":6899:6975   */\n      tag_499\n      jumpi\n      mload(0x40)\n      shl(0xe5, 0x461bcd)\n      dup2\n      mstore\n        /* \"#utility.yul\":19872:19874   */\n      0x20\n        /* \"@openzeppelin/contracts/token/ERC1155/ERC1155.sol\":6899:6975   */\n      0x04\n      dup3\n      add\n        /* \"#utility.yul\":19854:19875   */\n      mstore\n        /* \"#utility.yul\":19911:19913   */\n      0x2a\n        /* \"#utility.yul\":19891:19909   */\n      0x24\n      dup3\n      add\n        /* \"#utility.yul\":19884:19914   */\n      mstore\n        /* \"#utility.yul\":19950:19984   */\n      0x455243313135353a20696e73756666696369656e742062616c616e636520666f\n        /* \"#utility.yul\":19930:19948   */\n      0x44\n      dup3\n      add\n        /* \"#utility.yul\":19923:19985   */\n      mstore\n      shl(0xb1, 0x39103a3930b739b332b9)\n        /* \"#utility.yul\":20001:20019   */\n      0x64\n      dup3\n      add\n        /* \"#utility.yul\":19994:20034   */\n      mstore\n        /* \"#utility.yul\":20051:20070   */\n      0x84\n      add\n        /* \"@openzeppelin/contracts/token/ERC1155/ERC1155.sol\":6899:6975   */\n      tag_246\n        /* \"#utility.yul\":19670:20076   */\n      jump\n        /* \"@openzeppelin/contracts/token/ERC1155/ERC1155.sol\":6899:6975   */\n    tag_499:\n        /* \"@openzeppelin/contracts/token/ERC1155/ERC1155.sol\":7017:7026   */\n      0x00\n        /* \"@openzeppelin/contracts/token/ERC1155/ERC1155.sol\":7017:7030   */\n      dup4\n      dup2\n      mstore\n      0x20\n      dup2\n      dup2\n      mstore\n      0x40\n      dup1\n      dup4\n      keccak256\n      sub(shl(0xa0, 0x01), 0x01)\n        /* \"@openzeppelin/contracts/token/ERC1155/ERC1155.sol\":7017:7036   */\n      dup15\n      dup2\n      and\n      dup6\n      mstore\n      swap3\n      mstore\n      dup1\n      dup4\n      keccak256\n        /* \"@openzeppelin/contracts/token/ERC1155/ERC1155.sol\":7039:7059   */\n      dup6\n      dup6\n      sub\n        /* \"@openzeppelin/contracts/token/ERC1155/ERC1155.sol\":7017:7059   */\n      swap1\n      sstore\n        /* \"@openzeppelin/contracts/token/ERC1155/ERC1155.sol\":7087:7104   */\n      swap1\n      dup12\n      and\n      dup3\n      mstore\n      dup2\n      keccak256\n        /* \"@openzeppelin/contracts/token/ERC1155/ERC1155.sol\":7087:7114   */\n      dup1\n      sload\n        /* \"@openzeppelin/contracts/token/ERC1155/ERC1155.sol\":7039:7059   */\n      dup5\n      swap3\n        /* \"@openzeppelin/contracts/token/ERC1155/ERC1155.sol\":7017:7026   */\n      swap1\n        /* \"@openzeppelin/contracts/token/ERC1155/ERC1155.sol\":7087:7114   */\n      tag_501\n      swap1\n        /* \"@openzeppelin/contracts/token/ERC1155/ERC1155.sol\":7039:7059   */\n      dup5\n      swap1\n        /* \"@openzeppelin/contracts/token/ERC1155/ERC1155.sol\":7087:7114   */\n      tag_473\n      jump\t// in\n    tag_501:\n      swap3\n      pop\n      pop\n      dup2\n      swap1\n      sstore\n      pop\n        /* \"@openzeppelin/contracts/token/ERC1155/ERC1155.sol\":6755:7125   */\n      pop\n      pop\n      pop\n        /* \"@openzeppelin/contracts/token/ERC1155/ERC1155.sol\":6750:6753   */\n      dup1\n      tag_502\n      swap1\n      tag_351\n      jump\t// in\n    tag_502:\n      swap1\n      pop\n        /* \"@openzeppelin/contracts/token/ERC1155/ERC1155.sol\":6714:7125   */\n      jump(tag_492)\n    tag_493:\n      pop\n        /* \"@openzeppelin/contracts/token/ERC1155/ERC1155.sol\":7170:7172   */\n      dup5\n      sub(shl(0xa0, 0x01), 0x01)\n        /* \"@openzeppelin/contracts/token/ERC1155/ERC1155.sol\":7140:7187   */\n      and\n        /* \"@openzeppelin/contracts/token/ERC1155/ERC1155.sol\":7164:7168   */\n      dup7\n      sub(shl(0xa0, 0x01), 0x01)\n        /* \"@openzeppelin/contracts/token/ERC1155/ERC1155.sol\":7140:7187   */\n      and\n        /* \"@openzeppelin/contracts/token/ERC1155/ERC1155.sol\":7154:7162   */\n      dup3\n      sub(shl(0xa0, 0x01), 0x01)\n        /* \"@openzeppelin/contracts/token/ERC1155/ERC1155.sol\":7140:7187   */\n      and\n      0x4a39dc06d4c0dbc64b70af90fd698a233a518aa5d07e595d983b8c0526c8f7fb\n        /* \"@openzeppelin/contracts/token/ERC1155/ERC1155.sol\":7174:7177   */\n      dup8\n        /* \"@openzeppelin/contracts/token/ERC1155/ERC1155.sol\":7179:7186   */\n      dup8\n        /* \"@openzeppelin/contracts/token/ERC1155/ERC1155.sol\":7140:7187   */\n      mload(0x40)\n      tag_503\n      swap3\n      swap2\n      swap1\n      tag_504\n      jump\t// in\n    tag_503:\n      mload(0x40)\n      dup1\n      swap2\n      sub\n      swap1\n      log4\n        /* \"@openzeppelin/contracts/token/ERC1155/ERC1155.sol\":7268:7343   */\n      tag_506\n        /* \"@openzeppelin/contracts/token/ERC1155/ERC1155.sol\":7304:7312   */\n      dup2\n        /* \"@openzeppelin/contracts/token/ERC1155/ERC1155.sol\":7314:7318   */\n      dup8\n        /* \"@openzeppelin/contracts/token/ERC1155/ERC1155.sol\":7320:7322   */\n      dup8\n        /* \"@openzeppelin/contracts/token/ERC1155/ERC1155.sol\":7324:7327   */\n      dup8\n        /* \"@openzeppelin/contracts/token/ERC1155/ERC1155.sol\":7329:7336   */\n      dup8\n        /* \"@openzeppelin/contracts/token/ERC1155/ERC1155.sol\":7338:7342   */\n      dup8\n        /* \"@openzeppelin/contracts/token/ERC1155/ERC1155.sol\":7268:7303   */\n      tag_507\n        /* \"@openzeppelin/contracts/token/ERC1155/ERC1155.sol\":7268:7343   */\n      jump\t// in\n    tag_506:\n        /* \"@openzeppelin/contracts/token/ERC1155/ERC1155.sol\":6423:7350   */\n      pop\n        /* \"@openzeppelin/contracts/token/ERC1155/ERC1155.sol\":6235:7350   */\n      pop\n      pop\n      pop\n      pop\n      pop\n      jump\t// out\n        /* \"@openzeppelin/contracts/access/AccessControl.sol\":3334:3437   */\n    tag_296:\n        /* \"@openzeppelin/contracts/access/AccessControl.sol\":3400:3430   */\n      tag_509\n        /* \"@openzeppelin/contracts/access/AccessControl.sol\":3411:3415   */\n      dup2\n        /* \"@openzeppelin/contracts/utils/Context.sol\":719:729   */\n      caller\n        /* \"@openzeppelin/contracts/access/AccessControl.sol\":3400:3410   */\n      tag_511\n        /* \"@openzeppelin/contracts/access/AccessControl.sol\":3400:3430   */\n      jump\t// in\n    tag_509:\n        /* \"@openzeppelin/contracts/access/AccessControl.sol\":3334:3437   */\n      pop\n      jump\t// out\n        /* \"@openzeppelin/contracts/access/AccessControl.sol\":7878:8112   */\n    tag_305:\n        /* \"@openzeppelin/contracts/access/AccessControl.sol\":2981:2985   */\n      0x00\n        /* \"@openzeppelin/contracts/access/AccessControl.sol\":3004:3016   */\n      dup3\n      dup2\n      mstore\n        /* \"@openzeppelin/contracts/access/AccessControl.sol\":3004:3010   */\n      0x03\n        /* \"@openzeppelin/contracts/access/AccessControl.sol\":3004:3016   */\n      0x20\n      swap1\n      dup2\n      mstore\n      0x40\n      dup1\n      dup4\n      keccak256\n      sub(shl(0xa0, 0x01), 0x01)\n        /* \"@openzeppelin/contracts/access/AccessControl.sol\":3004:3033   */\n      dup6\n      and\n      dup5\n      mstore\n      swap1\n      swap2\n      mstore\n      swap1\n      keccak256\n      sload\n      0xff\n      and\n        /* \"@openzeppelin/contracts/access/AccessControl.sol\":7957:8106   */\n      iszero\n      tag_304\n      jumpi\n        /* \"@openzeppelin/contracts/access/AccessControl.sol\":8031:8036   */\n      0x00\n        /* \"@openzeppelin/contracts/access/AccessControl.sol\":7999:8011   */\n      dup3\n      dup2\n      mstore\n        /* \"@openzeppelin/contracts/access/AccessControl.sol\":7999:8005   */\n      0x03\n        /* \"@openzeppelin/contracts/access/AccessControl.sol\":7999:8011   */\n      0x20\n      swap1\n      dup2\n      mstore\n      0x40\n      dup1\n      dup4\n      keccak256\n      sub(shl(0xa0, 0x01), 0x01)\n        /* \"@openzeppelin/contracts/access/AccessControl.sol\":7999:8028   */\n      dup6\n      and\n      dup1\n      dup6\n      mstore\n      swap3\n      mstore\n      dup1\n      dup4\n      keccak256\n        /* \"@openzeppelin/contracts/access/AccessControl.sol\":7999:8036   */\n      dup1\n      sload\n      not(0xff)\n      and\n      swap1\n      sstore\n        /* \"@openzeppelin/contracts/access/AccessControl.sol\":8055:8095   */\n      mload\n        /* \"@openzeppelin/contracts/utils/Context.sol\":719:729   */\n      caller\n      swap3\n        /* \"@openzeppelin/contracts/access/AccessControl.sol\":7999:8011   */\n      dup6\n      swap2\n        /* \"@openzeppelin/contracts/access/AccessControl.sol\":8055:8095   */\n      0xf6391f5c32d9c69d2a47ea670b442974b53935d1edc7fd64eb21e047a839171b\n      swap2\n        /* \"@openzeppelin/contracts/access/AccessControl.sol\":8031:8036   */\n      swap1\n        /* \"@openzeppelin/contracts/access/AccessControl.sol\":8055:8095   */\n      log4\n        /* \"@openzeppelin/contracts/access/AccessControl.sol\":7878:8112   */\n      pop\n      pop\n      jump\t// out\n        /* \"@openzeppelin/contracts/token/ERC1155/ERC1155.sol\":8632:9341   */\n    tag_328:\n      sub(shl(0xa0, 0x01), 0x01)\n        /* \"@openzeppelin/contracts/token/ERC1155/ERC1155.sol\":8779:8795   */\n      dup5\n      and\n        /* \"@openzeppelin/contracts/token/ERC1155/ERC1155.sol\":8771:8833   */\n      tag_517\n      jumpi\n      mload(0x40)\n      shl(0xe5, 0x461bcd)\n      dup2\n      mstore\n        /* \"#utility.yul\":21548:21550   */\n      0x20\n        /* \"@openzeppelin/contracts/token/ERC1155/ERC1155.sol\":8771:8833   */\n      0x04\n      dup3\n      add\n        /* \"#utility.yul\":21530:21551   */\n      mstore\n        /* \"#utility.yul\":21587:21589   */\n      0x21\n        /* \"#utility.yul\":21567:21585   */\n      0x24\n      dup3\n      add\n        /* \"#utility.yul\":21560:21590   */\n      mstore\n        /* \"#utility.yul\":21626:21660   */\n      0x455243313135353a206d696e7420746f20746865207a65726f20616464726573\n        /* \"#utility.yul\":21606:21624   */\n      0x44\n      dup3\n      add\n        /* \"#utility.yul\":21599:21661   */\n      mstore\n      shl(0xf8, 0x73)\n        /* \"#utility.yul\":21677:21695   */\n      0x64\n      dup3\n      add\n        /* \"#utility.yul\":21670:21701   */\n      mstore\n        /* \"#utility.yul\":21718:21737   */\n      0x84\n      add\n        /* \"@openzeppelin/contracts/token/ERC1155/ERC1155.sol\":8771:8833   */\n      tag_246\n        /* \"#utility.yul\":21346:21743   */\n      jump\n        /* \"@openzeppelin/contracts/token/ERC1155/ERC1155.sol\":8771:8833   */\n    tag_517:\n        /* \"@openzeppelin/contracts/utils/Context.sol\":719:729   */\n      caller\n        /* \"@openzeppelin/contracts/token/ERC1155/ERC1155.sol\":8844:8860   */\n      0x00\n        /* \"@openzeppelin/contracts/token/ERC1155/ERC1155.sol\":8908:8929   */\n      tag_521\n        /* \"@openzeppelin/contracts/token/ERC1155/ERC1155.sol\":8926:8928   */\n      dup6\n        /* \"@openzeppelin/contracts/token/ERC1155/ERC1155.sol\":8908:8925   */\n      tag_465\n        /* \"@openzeppelin/contracts/token/ERC1155/ERC1155.sol\":8908:8929   */\n      jump\t// in\n    tag_521:\n        /* \"@openzeppelin/contracts/token/ERC1155/ERC1155.sol\":8885:8929   */\n      swap1\n      pop\n        /* \"@openzeppelin/contracts/token/ERC1155/ERC1155.sol\":8939:8963   */\n      0x00\n        /* \"@openzeppelin/contracts/token/ERC1155/ERC1155.sol\":8966:8991   */\n      tag_522\n        /* \"@openzeppelin/contracts/token/ERC1155/ERC1155.sol\":8984:8990   */\n      dup6\n        /* \"@openzeppelin/contracts/token/ERC1155/ERC1155.sol\":8966:8983   */\n      tag_465\n        /* \"@openzeppelin/contracts/token/ERC1155/ERC1155.sol\":8966:8991   */\n      jump\t// in\n    tag_522:\n        /* \"@openzeppelin/contracts/token/ERC1155/ERC1155.sol\":8939:8991   */\n      swap1\n      pop\n        /* \"@openzeppelin/contracts/token/ERC1155/ERC1155.sol\":9079:9088   */\n      0x00\n        /* \"@openzeppelin/contracts/token/ERC1155/ERC1155.sol\":9079:9092   */\n      dup7\n      dup2\n      mstore\n      0x20\n      dup2\n      dup2\n      mstore\n      0x40\n      dup1\n      dup4\n      keccak256\n      sub(shl(0xa0, 0x01), 0x01)\n        /* \"@openzeppelin/contracts/token/ERC1155/ERC1155.sol\":9079:9096   */\n      dup12\n      and\n      dup5\n      mstore\n      swap1\n      swap2\n      mstore\n      dup2\n      keccak256\n        /* \"@openzeppelin/contracts/token/ERC1155/ERC1155.sol\":9079:9106   */\n      dup1\n      sload\n        /* \"@openzeppelin/contracts/token/ERC1155/ERC1155.sol\":9100:9106   */\n      dup8\n      swap3\n        /* \"@openzeppelin/contracts/token/ERC1155/ERC1155.sol\":9079:9088   */\n      swap1\n        /* \"@openzeppelin/contracts/token/ERC1155/ERC1155.sol\":9079:9106   */\n      tag_524\n      swap1\n        /* \"@openzeppelin/contracts/token/ERC1155/ERC1155.sol\":9100:9106   */\n      dup5\n      swap1\n        /* \"@openzeppelin/contracts/token/ERC1155/ERC1155.sol\":9079:9106   */\n      tag_473\n      jump\t// in\n    tag_524:\n      swap1\n      swap2\n      sstore\n      pop\n      pop\n        /* \"@openzeppelin/contracts/token/ERC1155/ERC1155.sol\":9121:9173   */\n      0x40\n      dup1\n      mload\n        /* \"#utility.yul\":20388:20413   */\n      dup8\n      dup2\n      mstore\n        /* \"#utility.yul\":20444:20446   */\n      0x20\n        /* \"#utility.yul\":20429:20447   */\n      dup2\n      add\n        /* \"#utility.yul\":20422:20456   */\n      dup8\n      swap1\n      mstore\n      sub(shl(0xa0, 0x01), 0x01)\n        /* \"@openzeppelin/contracts/token/ERC1155/ERC1155.sol\":9121:9173   */\n      dup1\n      dup11\n      and\n      swap3\n        /* \"@openzeppelin/contracts/token/ERC1155/ERC1155.sol\":9154:9155   */\n      0x00\n      swap3\n        /* \"@openzeppelin/contracts/token/ERC1155/ERC1155.sol\":9121:9173   */\n      swap2\n      dup8\n      and\n      swap2\n      0xc3d58168c5ae7397731d063d5bbf3d657854427343f4c083240f7aacaa2d0f62\n      swap2\n        /* \"#utility.yul\":20361:20379   */\n      add\n        /* \"@openzeppelin/contracts/token/ERC1155/ERC1155.sol\":9121:9173   */\n      mload(0x40)\n      dup1\n      swap2\n      sub\n      swap1\n      log4\n        /* \"@openzeppelin/contracts/token/ERC1155/ERC1155.sol\":9260:9334   */\n      tag_382\n        /* \"@openzeppelin/contracts/token/ERC1155/ERC1155.sol\":9291:9299   */\n      dup4\n        /* \"@openzeppelin/contracts/token/ERC1155/ERC1155.sol\":9309:9310   */\n      0x00\n        /* \"@openzeppelin/contracts/token/ERC1155/ERC1155.sol\":9313:9315   */\n      dup10\n        /* \"@openzeppelin/contracts/token/ERC1155/ERC1155.sol\":9317:9319   */\n      dup10\n        /* \"@openzeppelin/contracts/token/ERC1155/ERC1155.sol\":9321:9327   */\n      dup10\n        /* \"@openzeppelin/contracts/token/ERC1155/ERC1155.sol\":9329:9333   */\n      dup10\n        /* \"@openzeppelin/contracts/token/ERC1155/ERC1155.sol\":9260:9290   */\n      tag_479\n        /* \"@openzeppelin/contracts/token/ERC1155/ERC1155.sol\":9260:9334   */\n      jump\t// in\n        /* \"ERC1155Facet.sol\":3377:3485  function _setTokenURI(uint256 id, string memory tokenURI) private {... */\n    tag_330:\n        /* \"ERC1155Facet.sol\":3453:3467  _tokenURIs[id] */\n      0x00\n      dup3\n      dup2\n      mstore\n        /* \"ERC1155Facet.sol\":3453:3463  _tokenURIs */\n      0x08\n        /* \"ERC1155Facet.sol\":3453:3467  _tokenURIs[id] */\n      0x20\n      swap1\n      dup2\n      mstore\n      0x40\n      swap1\n      swap2\n      keccak256\n        /* \"ERC1155Facet.sol\":3453:3478  _tokenURIs[id] = tokenURI */\n      dup3\n      mload\n      tag_298\n      swap3\n      dup5\n      add\n      swap1\n      tag_356\n      jump\t// in\n        /* \"@openzeppelin/contracts/token/ERC1155/ERC1155.sol\":11833:12776   */\n    tag_366:\n      sub(shl(0xa0, 0x01), 0x01)\n        /* \"@openzeppelin/contracts/token/ERC1155/ERC1155.sol\":11980:11998   */\n      dup4\n      and\n        /* \"@openzeppelin/contracts/token/ERC1155/ERC1155.sol\":11972:12038   */\n      tag_531\n      jumpi\n      mload(0x40)\n      shl(0xe5, 0x461bcd)\n      dup2\n      mstore\n        /* \"#utility.yul\":21950:21952   */\n      0x20\n        /* \"@openzeppelin/contracts/token/ERC1155/ERC1155.sol\":11972:12038   */\n      0x04\n      dup3\n      add\n        /* \"#utility.yul\":21932:21953   */\n      mstore\n        /* \"#utility.yul\":21989:21991   */\n      0x23\n        /* \"#utility.yul\":21969:21987   */\n      0x24\n      dup3\n      add\n        /* \"#utility.yul\":21962:21992   */\n      mstore\n        /* \"#utility.yul\":22028:22062   */\n      0x455243313135353a206275726e2066726f6d20746865207a65726f2061646472\n        /* \"#utility.yul\":22008:22026   */\n      0x44\n      dup3\n      add\n        /* \"#utility.yul\":22001:22063   */\n      mstore\n      shl(0xe8, 0x657373)\n        /* \"#utility.yul\":22079:22097   */\n      0x64\n      dup3\n      add\n        /* \"#utility.yul\":22072:22105   */\n      mstore\n        /* \"#utility.yul\":22122:22141   */\n      0x84\n      add\n        /* \"@openzeppelin/contracts/token/ERC1155/ERC1155.sol\":11972:12038   */\n      tag_246\n        /* \"#utility.yul\":21748:22147   */\n      jump\n        /* \"@openzeppelin/contracts/token/ERC1155/ERC1155.sol\":11972:12038   */\n    tag_531:\n        /* \"@openzeppelin/contracts/token/ERC1155/ERC1155.sol\":12070:12077   */\n      dup1\n        /* \"@openzeppelin/contracts/token/ERC1155/ERC1155.sol\":12070:12084   */\n      mload\n        /* \"@openzeppelin/contracts/token/ERC1155/ERC1155.sol\":12056:12059   */\n      dup3\n        /* \"@openzeppelin/contracts/token/ERC1155/ERC1155.sol\":12056:12066   */\n      mload\n        /* \"@openzeppelin/contracts/token/ERC1155/ERC1155.sol\":12056:12084   */\n      eq\n        /* \"@openzeppelin/contracts/token/ERC1155/ERC1155.sol\":12048:12129   */\n      tag_534\n      jumpi\n      mload(0x40)\n      shl(0xe5, 0x461bcd)\n      dup2\n      mstore\n        /* \"#utility.yul\":20669:20671   */\n      0x20\n        /* \"@openzeppelin/contracts/token/ERC1155/ERC1155.sol\":12048:12129   */\n      0x04\n      dup3\n      add\n        /* \"#utility.yul\":20651:20672   */\n      mstore\n        /* \"#utility.yul\":20708:20710   */\n      0x28\n        /* \"#utility.yul\":20688:20706   */\n      0x24\n      dup3\n      add\n        /* \"#utility.yul\":20681:20711   */\n      mstore\n        /* \"#utility.yul\":20747:20781   */\n      0x455243313135353a2069647320616e6420616d6f756e7473206c656e67746820\n        /* \"#utility.yul\":20727:20745   */\n      0x44\n      dup3\n      add\n        /* \"#utility.yul\":20720:20782   */\n      mstore\n      shl(0xc3, 0x0dad2e6dac2e8c6d)\n        /* \"#utility.yul\":20798:20816   */\n      0x64\n      dup3\n      add\n        /* \"#utility.yul\":20791:20829   */\n      mstore\n        /* \"#utility.yul\":20846:20865   */\n      0x84\n      add\n        /* \"@openzeppelin/contracts/token/ERC1155/ERC1155.sol\":12048:12129   */\n      tag_246\n        /* \"#utility.yul\":20467:20871   */\n      jump\n        /* \"@openzeppelin/contracts/token/ERC1155/ERC1155.sol\":12048:12129   */\n    tag_534:\n        /* \"@openzeppelin/contracts/token/ERC1155/ERC1155.sol\":12182:12248   */\n      0x40\n      dup1\n      mload\n      0x20\n      dup2\n      add\n      swap1\n      swap2\n      mstore\n        /* \"@openzeppelin/contracts/token/ERC1155/ERC1155.sol\":12140:12156   */\n      0x00\n        /* \"@openzeppelin/contracts/token/ERC1155/ERC1155.sol\":12182:12248   */\n      swap1\n      dup2\n      swap1\n      mstore\n        /* \"@openzeppelin/contracts/utils/Context.sol\":719:729   */\n      caller\n      swap1\n        /* \"@openzeppelin/contracts/token/ERC1155/ERC1155.sol\":12259:12623   */\n    tag_538:\n        /* \"@openzeppelin/contracts/token/ERC1155/ERC1155.sol\":12283:12286   */\n      dup4\n        /* \"@openzeppelin/contracts/token/ERC1155/ERC1155.sol\":12283:12293   */\n      mload\n        /* \"@openzeppelin/contracts/token/ERC1155/ERC1155.sol\":12279:12280   */\n      dup2\n        /* \"@openzeppelin/contracts/token/ERC1155/ERC1155.sol\":12279:12293   */\n      lt\n        /* \"@openzeppelin/contracts/token/ERC1155/ERC1155.sol\":12259:12623   */\n      iszero\n      tag_539\n      jumpi\n        /* \"@openzeppelin/contracts/token/ERC1155/ERC1155.sol\":12314:12324   */\n      0x00\n        /* \"@openzeppelin/contracts/token/ERC1155/ERC1155.sol\":12327:12330   */\n      dup5\n        /* \"@openzeppelin/contracts/token/ERC1155/ERC1155.sol\":12331:12332   */\n      dup3\n        /* \"@openzeppelin/contracts/token/ERC1155/ERC1155.sol\":12327:12333   */\n      dup2\n      mload\n      dup2\n      lt\n      tag_542\n      jumpi\n      tag_542\n      tag_345\n      jump\t// in\n    tag_542:\n      0x20\n      mul\n      0x20\n      add\n      add\n      mload\n        /* \"@openzeppelin/contracts/token/ERC1155/ERC1155.sol\":12314:12333   */\n      swap1\n      pop\n        /* \"@openzeppelin/contracts/token/ERC1155/ERC1155.sol\":12347:12361   */\n      0x00\n        /* \"@openzeppelin/contracts/token/ERC1155/ERC1155.sol\":12364:12371   */\n      dup5\n        /* \"@openzeppelin/contracts/token/ERC1155/ERC1155.sol\":12372:12373   */\n      dup4\n        /* \"@openzeppelin/contracts/token/ERC1155/ERC1155.sol\":12364:12374   */\n      dup2\n      mload\n      dup2\n      lt\n      tag_544\n      jumpi\n      tag_544\n      tag_345\n      jump\t// in\n    tag_544:\n      0x20\n      swap1\n      dup2\n      mul\n      swap2\n      swap1\n      swap2\n      add\n      dup2\n      add\n      mload\n        /* \"@openzeppelin/contracts/token/ERC1155/ERC1155.sol\":12389:12408   */\n      0x00\n        /* \"@openzeppelin/contracts/token/ERC1155/ERC1155.sol\":12411:12424   */\n      dup5\n      dup2\n      mstore\n      dup1\n      dup4\n      mstore\n      0x40\n      dup1\n      dup3\n      keccak256\n      sub(shl(0xa0, 0x01), 0x01)\n        /* \"@openzeppelin/contracts/token/ERC1155/ERC1155.sol\":12411:12430   */\n      dup13\n      and\n      dup4\n      mstore\n      swap1\n      swap4\n      mstore\n      swap2\n      swap1\n      swap2\n      keccak256\n      sload\n        /* \"@openzeppelin/contracts/token/ERC1155/ERC1155.sol\":12364:12374   */\n      swap1\n      swap2\n      pop\n        /* \"@openzeppelin/contracts/token/ERC1155/ERC1155.sol\":12452:12473   */\n      dup2\n      dup2\n      lt\n      iszero\n        /* \"@openzeppelin/contracts/token/ERC1155/ERC1155.sol\":12444:12514   */\n      tag_545\n      jumpi\n      mload(0x40)\n      shl(0xe5, 0x461bcd)\n      dup2\n      mstore\n        /* \"#utility.yul\":22354:22356   */\n      0x20\n        /* \"@openzeppelin/contracts/token/ERC1155/ERC1155.sol\":12444:12514   */\n      0x04\n      dup3\n      add\n        /* \"#utility.yul\":22336:22357   */\n      mstore\n        /* \"#utility.yul\":22393:22395   */\n      0x24\n        /* \"#utility.yul\":22373:22391   */\n      dup1\n      dup3\n      add\n        /* \"#utility.yul\":22366:22396   */\n      mstore\n        /* \"#utility.yul\":22432:22466   */\n      0x455243313135353a206275726e20616d6f756e7420657863656564732062616c\n        /* \"#utility.yul\":22412:22430   */\n      0x44\n      dup3\n      add\n        /* \"#utility.yul\":22405:22467   */\n      mstore\n      shl(0xe0, 0x616e6365)\n        /* \"#utility.yul\":22483:22501   */\n      0x64\n      dup3\n      add\n        /* \"#utility.yul\":22476:22510   */\n      mstore\n        /* \"#utility.yul\":22527:22546   */\n      0x84\n      add\n        /* \"@openzeppelin/contracts/token/ERC1155/ERC1155.sol\":12444:12514   */\n      tag_246\n        /* \"#utility.yul\":22152:22552   */\n      jump\n        /* \"@openzeppelin/contracts/token/ERC1155/ERC1155.sol\":12444:12514   */\n    tag_545:\n        /* \"@openzeppelin/contracts/token/ERC1155/ERC1155.sol\":12556:12565   */\n      0x00\n        /* \"@openzeppelin/contracts/token/ERC1155/ERC1155.sol\":12556:12569   */\n      swap3\n      dup4\n      mstore\n      0x20\n      dup4\n      dup2\n      mstore\n      0x40\n      dup1\n      dup6\n      keccak256\n      sub(shl(0xa0, 0x01), 0x01)\n        /* \"@openzeppelin/contracts/token/ERC1155/ERC1155.sol\":12556:12575   */\n      dup12\n      and\n      dup7\n      mstore\n      swap1\n      swap2\n      mstore\n      swap1\n      swap3\n      keccak256\n        /* \"@openzeppelin/contracts/token/ERC1155/ERC1155.sol\":12578:12598   */\n      swap2\n      sub\n        /* \"@openzeppelin/contracts/token/ERC1155/ERC1155.sol\":12556:12598   */\n      swap1\n      sstore\n        /* \"@openzeppelin/contracts/token/ERC1155/ERC1155.sol\":12295:12298   */\n      dup1\n      tag_548\n      dup2\n      tag_351\n      jump\t// in\n    tag_548:\n      swap2\n      pop\n      pop\n        /* \"@openzeppelin/contracts/token/ERC1155/ERC1155.sol\":12259:12623   */\n      jump(tag_538)\n    tag_539:\n      pop\n        /* \"@openzeppelin/contracts/token/ERC1155/ERC1155.sol\":12676:12677   */\n      0x00\n      sub(shl(0xa0, 0x01), 0x01)\n        /* \"@openzeppelin/contracts/token/ERC1155/ERC1155.sol\":12638:12693   */\n      and\n        /* \"@openzeppelin/contracts/token/ERC1155/ERC1155.sol\":12662:12666   */\n      dup5\n      sub(shl(0xa0, 0x01), 0x01)\n        /* \"@openzeppelin/contracts/token/ERC1155/ERC1155.sol\":12638:12693   */\n      and\n        /* \"@openzeppelin/contracts/token/ERC1155/ERC1155.sol\":12652:12660   */\n      dup3\n      sub(shl(0xa0, 0x01), 0x01)\n        /* \"@openzeppelin/contracts/token/ERC1155/ERC1155.sol\":12638:12693   */\n      and\n      0x4a39dc06d4c0dbc64b70af90fd698a233a518aa5d07e595d983b8c0526c8f7fb\n        /* \"@openzeppelin/contracts/token/ERC1155/ERC1155.sol\":12680:12683   */\n      dup7\n        /* \"@openzeppelin/contracts/token/ERC1155/ERC1155.sol\":12685:12692   */\n      dup7\n        /* \"@openzeppelin/contracts/token/ERC1155/ERC1155.sol\":12638:12693   */\n      mload(0x40)\n      tag_549\n      swap3\n      swap2\n      swap1\n      tag_504\n      jump\t// in\n    tag_549:\n      mload(0x40)\n      dup1\n      swap2\n      sub\n      swap1\n      log4\n        /* \"@openzeppelin/contracts/token/ERC1155/ERC1155.sol\":12704:12769   */\n      0x40\n      dup1\n      mload\n      0x20\n      dup2\n      add\n      swap1\n      swap2\n      mstore\n        /* \"@openzeppelin/contracts/token/ERC1155/ERC1155.sol\":12748:12749   */\n      0x00\n        /* \"@openzeppelin/contracts/token/ERC1155/ERC1155.sol\":12704:12769   */\n      swap1\n      mstore\n    tag_550:\n        /* \"@openzeppelin/contracts/token/ERC1155/ERC1155.sol\":11962:12776   */\n      pop\n        /* \"@openzeppelin/contracts/token/ERC1155/ERC1155.sol\":11833:12776   */\n      pop\n      pop\n      pop\n      jump\t// out\n        /* \"@openzeppelin/contracts/token/ERC1155/ERC1155.sol\":12912:13235   */\n    tag_397:\n        /* \"@openzeppelin/contracts/token/ERC1155/ERC1155.sol\":13062:13070   */\n      dup2\n      sub(shl(0xa0, 0x01), 0x01)\n        /* \"@openzeppelin/contracts/token/ERC1155/ERC1155.sol\":13053:13070   */\n      and\n        /* \"@openzeppelin/contracts/token/ERC1155/ERC1155.sol\":13053:13058   */\n      dup4\n      sub(shl(0xa0, 0x01), 0x01)\n        /* \"@openzeppelin/contracts/token/ERC1155/ERC1155.sol\":13053:13070   */\n      and\n      sub\n        /* \"@openzeppelin/contracts/token/ERC1155/ERC1155.sol\":13045:13116   */\n      tag_552\n      jumpi\n      mload(0x40)\n      shl(0xe5, 0x461bcd)\n      dup2\n      mstore\n        /* \"#utility.yul\":22759:22761   */\n      0x20\n        /* \"@openzeppelin/contracts/token/ERC1155/ERC1155.sol\":13045:13116   */\n      0x04\n      dup3\n      add\n        /* \"#utility.yul\":22741:22762   */\n      mstore\n        /* \"#utility.yul\":22798:22800   */\n      0x29\n        /* \"#utility.yul\":22778:22796   */\n      0x24\n      dup3\n      add\n        /* \"#utility.yul\":22771:22801   */\n      mstore\n        /* \"#utility.yul\":22837:22871   */\n      0x455243313135353a2073657474696e6720617070726f76616c20737461747573\n        /* \"#utility.yul\":22817:22835   */\n      0x44\n      dup3\n      add\n        /* \"#utility.yul\":22810:22872   */\n      mstore\n        /* \"#utility.yul\":22908:22919   */\n      0x20666f722073656c660000000000000000000000000000000000000000000000\n        /* \"#utility.yul\":22888:22906   */\n      0x64\n      dup3\n      add\n        /* \"#utility.yul\":22881:22920   */\n      mstore\n        /* \"#utility.yul\":22937:22956   */\n      0x84\n      add\n        /* \"@openzeppelin/contracts/token/ERC1155/ERC1155.sol\":13045:13116   */\n      tag_246\n        /* \"#utility.yul\":22557:22962   */\n      jump\n        /* \"@openzeppelin/contracts/token/ERC1155/ERC1155.sol\":13045:13116   */\n    tag_552:\n      sub(shl(0xa0, 0x01), 0x01)\n        /* \"@openzeppelin/contracts/token/ERC1155/ERC1155.sol\":13126:13151   */\n      dup4\n      dup2\n      and\n      0x00\n      dup2\n      dup2\n      mstore\n        /* \"@openzeppelin/contracts/token/ERC1155/ERC1155.sol\":13126:13144   */\n      0x01\n        /* \"@openzeppelin/contracts/token/ERC1155/ERC1155.sol\":13126:13151   */\n      0x20\n      swap1\n      dup2\n      mstore\n      0x40\n      dup1\n      dup4\n      keccak256\n        /* \"@openzeppelin/contracts/token/ERC1155/ERC1155.sol\":13126:13161   */\n      swap5\n      dup8\n      and\n      dup1\n      dup5\n      mstore\n      swap5\n      dup3\n      mstore\n      swap2\n      dup3\n      swap1\n      keccak256\n        /* \"@openzeppelin/contracts/token/ERC1155/ERC1155.sol\":13126:13172   */\n      dup1\n      sload\n      not(0xff)\n      and\n      dup7\n      iszero\n      iszero\n      swap1\n      dup2\n      or\n      swap1\n      swap2\n      sstore\n        /* \"@openzeppelin/contracts/token/ERC1155/ERC1155.sol\":13187:13228   */\n      swap2\n      mload\n        /* \"#utility.yul\":1182:1223   */\n      swap2\n      dup3\n      mstore\n        /* \"@openzeppelin/contracts/token/ERC1155/ERC1155.sol\":13187:13228   */\n      0x17307eab39ab6107e8899845ad3d59bd9653f200f220920489ca2b5937696c31\n      swap2\n        /* \"#utility.yul\":1155:1173   */\n      add\n        /* \"@openzeppelin/contracts/token/ERC1155/ERC1155.sol\":13187:13228   */\n      mload(0x40)\n      dup1\n      swap2\n      sub\n      swap1\n      log3\n        /* \"@openzeppelin/contracts/token/ERC1155/ERC1155.sol\":12912:13235   */\n      pop\n      pop\n      pop\n      jump\t// out\n        /* \"@openzeppelin/contracts/token/ERC1155/ERC1155.sol\":9731:10522   */\n    tag_416:\n      sub(shl(0xa0, 0x01), 0x01)\n        /* \"@openzeppelin/contracts/token/ERC1155/ERC1155.sol\":9903:9919   */\n      dup5\n      and\n        /* \"@openzeppelin/contracts/token/ERC1155/ERC1155.sol\":9895:9957   */\n      tag_557\n      jumpi\n      mload(0x40)\n      shl(0xe5, 0x461bcd)\n      dup2\n      mstore\n        /* \"#utility.yul\":21548:21550   */\n      0x20\n        /* \"@openzeppelin/contracts/token/ERC1155/ERC1155.sol\":9895:9957   */\n      0x04\n      dup3\n      add\n        /* \"#utility.yul\":21530:21551   */\n      mstore\n        /* \"#utility.yul\":21587:21589   */\n      0x21\n        /* \"#utility.yul\":21567:21585   */\n      0x24\n      dup3\n      add\n        /* \"#utility.yul\":21560:21590   */\n      mstore\n        /* \"#utility.yul\":21626:21660   */\n      0x455243313135353a206d696e7420746f20746865207a65726f20616464726573\n        /* \"#utility.yul\":21606:21624   */\n      0x44\n      dup3\n      add\n        /* \"#utility.yul\":21599:21661   */\n      mstore\n      shl(0xf8, 0x73)\n        /* \"#utility.yul\":21677:21695   */\n      0x64\n      dup3\n      add\n        /* \"#utility.yul\":21670:21701   */\n      mstore\n        /* \"#utility.yul\":21718:21737   */\n      0x84\n      add\n        /* \"@openzeppelin/contracts/token/ERC1155/ERC1155.sol\":9895:9957   */\n      tag_246\n        /* \"#utility.yul\":21346:21743   */\n      jump\n        /* \"@openzeppelin/contracts/token/ERC1155/ERC1155.sol\":9895:9957   */\n    tag_557:\n        /* \"@openzeppelin/contracts/token/ERC1155/ERC1155.sol\":9989:9996   */\n      dup2\n        /* \"@openzeppelin/contracts/token/ERC1155/ERC1155.sol\":9989:10003   */\n      mload\n        /* \"@openzeppelin/contracts/token/ERC1155/ERC1155.sol\":9975:9978   */\n      dup4\n        /* \"@openzeppelin/contracts/token/ERC1155/ERC1155.sol\":9975:9985   */\n      mload\n        /* \"@openzeppelin/contracts/token/ERC1155/ERC1155.sol\":9975:10003   */\n      eq\n        /* \"@openzeppelin/contracts/token/ERC1155/ERC1155.sol\":9967:10048   */\n      tag_559\n      jumpi\n      mload(0x40)\n      shl(0xe5, 0x461bcd)\n      dup2\n      mstore\n        /* \"#utility.yul\":20669:20671   */\n      0x20\n        /* \"@openzeppelin/contracts/token/ERC1155/ERC1155.sol\":9967:10048   */\n      0x04\n      dup3\n      add\n        /* \"#utility.yul\":20651:20672   */\n      mstore\n        /* \"#utility.yul\":20708:20710   */\n      0x28\n        /* \"#utility.yul\":20688:20706   */\n      0x24\n      dup3\n      add\n        /* \"#utility.yul\":20681:20711   */\n      mstore\n        /* \"#utility.yul\":20747:20781   */\n      0x455243313135353a2069647320616e6420616d6f756e7473206c656e67746820\n        /* \"#utility.yul\":20727:20745   */\n      0x44\n      dup3\n      add\n        /* \"#utility.yul\":20720:20782   */\n      mstore\n      shl(0xc3, 0x0dad2e6dac2e8c6d)\n        /* \"#utility.yul\":20798:20816   */\n      0x64\n      dup3\n      add\n        /* \"#utility.yul\":20791:20829   */\n      mstore\n        /* \"#utility.yul\":20846:20865   */\n      0x84\n      add\n        /* \"@openzeppelin/contracts/token/ERC1155/ERC1155.sol\":9967:10048   */\n      tag_246\n        /* \"#utility.yul\":20467:20871   */\n      jump\n        /* \"@openzeppelin/contracts/token/ERC1155/ERC1155.sol\":9967:10048   */\n    tag_559:\n        /* \"@openzeppelin/contracts/utils/Context.sol\":719:729   */\n      caller\n        /* \"@openzeppelin/contracts/token/ERC1155/ERC1155.sol\":10059:10075   */\n      0x00\n        /* \"@openzeppelin/contracts/token/ERC1155/ERC1155.sol\":10178:10279   */\n    tag_563:\n        /* \"@openzeppelin/contracts/token/ERC1155/ERC1155.sol\":10202:10205   */\n      dup5\n        /* \"@openzeppelin/contracts/token/ERC1155/ERC1155.sol\":10202:10212   */\n      mload\n        /* \"@openzeppelin/contracts/token/ERC1155/ERC1155.sol\":10198:10199   */\n      dup2\n        /* \"@openzeppelin/contracts/token/ERC1155/ERC1155.sol\":10198:10212   */\n      lt\n        /* \"@openzeppelin/contracts/token/ERC1155/ERC1155.sol\":10178:10279   */\n      iszero\n      tag_564\n      jumpi\n        /* \"@openzeppelin/contracts/token/ERC1155/ERC1155.sol\":10258:10265   */\n      dup4\n        /* \"@openzeppelin/contracts/token/ERC1155/ERC1155.sol\":10266:10267   */\n      dup2\n        /* \"@openzeppelin/contracts/token/ERC1155/ERC1155.sol\":10258:10268   */\n      dup2\n      mload\n      dup2\n      lt\n      tag_567\n      jumpi\n      tag_567\n      tag_345\n      jump\t// in\n    tag_567:\n      0x20\n      mul\n      0x20\n      add\n      add\n      mload\n        /* \"@openzeppelin/contracts/token/ERC1155/ERC1155.sol\":10233:10242   */\n      0x00\n        /* \"@openzeppelin/contracts/token/ERC1155/ERC1155.sol\":10233:10250   */\n      dup1\n        /* \"@openzeppelin/contracts/token/ERC1155/ERC1155.sol\":10243:10246   */\n      dup8\n        /* \"@openzeppelin/contracts/token/ERC1155/ERC1155.sol\":10247:10248   */\n      dup5\n        /* \"@openzeppelin/contracts/token/ERC1155/ERC1155.sol\":10243:10249   */\n      dup2\n      mload\n      dup2\n      lt\n      tag_569\n      jumpi\n      tag_569\n      tag_345\n      jump\t// in\n    tag_569:\n      0x20\n      mul\n      0x20\n      add\n      add\n      mload\n        /* \"@openzeppelin/contracts/token/ERC1155/ERC1155.sol\":10233:10250   */\n      dup2\n      mstore\n      0x20\n      add\n      swap1\n      dup2\n      mstore\n      0x20\n      add\n      0x00\n      keccak256\n        /* \"@openzeppelin/contracts/token/ERC1155/ERC1155.sol\":10233:10254   */\n      0x00\n        /* \"@openzeppelin/contracts/token/ERC1155/ERC1155.sol\":10251:10253   */\n      dup9\n      sub(shl(0xa0, 0x01), 0x01)\n        /* \"@openzeppelin/contracts/token/ERC1155/ERC1155.sol\":10233:10254   */\n      and\n      sub(shl(0xa0, 0x01), 0x01)\n      and\n      dup2\n      mstore\n      0x20\n      add\n      swap1\n      dup2\n      mstore\n      0x20\n      add\n      0x00\n      keccak256\n      0x00\n        /* \"@openzeppelin/contracts/token/ERC1155/ERC1155.sol\":10233:10268   */\n      dup3\n      dup3\n      sload\n      tag_570\n      swap2\n      swap1\n      tag_473\n      jump\t// in\n    tag_570:\n      swap1\n      swap2\n      sstore\n      pop\n        /* \"@openzeppelin/contracts/token/ERC1155/ERC1155.sol\":10214:10217   */\n      dup2\n      swap1\n      pop\n      tag_571\n      dup2\n      tag_351\n      jump\t// in\n    tag_571:\n      swap2\n      pop\n      pop\n        /* \"@openzeppelin/contracts/token/ERC1155/ERC1155.sol\":10178:10279   */\n      jump(tag_563)\n    tag_564:\n      pop\n        /* \"@openzeppelin/contracts/token/ERC1155/ERC1155.sol\":10330:10332   */\n      dup5\n      sub(shl(0xa0, 0x01), 0x01)\n        /* \"@openzeppelin/contracts/token/ERC1155/ERC1155.sol\":10294:10347   */\n      and\n        /* \"@openzeppelin/contracts/token/ERC1155/ERC1155.sol\":10326:10327   */\n      0x00\n      sub(shl(0xa0, 0x01), 0x01)\n        /* \"@openzeppelin/contracts/token/ERC1155/ERC1155.sol\":10294:10347   */\n      and\n        /* \"@openzeppelin/contracts/token/ERC1155/ERC1155.sol\":10308:10316   */\n      dup3\n      sub(shl(0xa0, 0x01), 0x01)\n        /* \"@openzeppelin/contracts/token/ERC1155/ERC1155.sol\":10294:10347   */\n      and\n      0x4a39dc06d4c0dbc64b70af90fd698a233a518aa5d07e595d983b8c0526c8f7fb\n        /* \"@openzeppelin/contracts/token/ERC1155/ERC1155.sol\":10334:10337   */\n      dup8\n        /* \"@openzeppelin/contracts/token/ERC1155/ERC1155.sol\":10339:10346   */\n      dup8\n        /* \"@openzeppelin/contracts/token/ERC1155/ERC1155.sol\":10294:10347   */\n      mload(0x40)\n      tag_572\n      swap3\n      swap2\n      swap1\n      tag_504\n      jump\t// in\n    tag_572:\n      mload(0x40)\n      dup1\n      swap2\n      sub\n      swap1\n      log4\n        /* \"@openzeppelin/contracts/token/ERC1155/ERC1155.sol\":10434:10515   */\n      tag_269\n        /* \"@openzeppelin/contracts/token/ERC1155/ERC1155.sol\":10470:10478   */\n      dup2\n        /* \"@openzeppelin/contracts/token/ERC1155/ERC1155.sol\":10488:10489   */\n      0x00\n        /* \"@openzeppelin/contracts/token/ERC1155/ERC1155.sol\":10492:10494   */\n      dup8\n        /* \"@openzeppelin/contracts/token/ERC1155/ERC1155.sol\":10496:10499   */\n      dup8\n        /* \"@openzeppelin/contracts/token/ERC1155/ERC1155.sol\":10501:10508   */\n      dup8\n        /* \"@openzeppelin/contracts/token/ERC1155/ERC1155.sol\":10510:10514   */\n      dup8\n        /* \"@openzeppelin/contracts/token/ERC1155/ERC1155.sol\":10434:10469   */\n      tag_507\n        /* \"@openzeppelin/contracts/token/ERC1155/ERC1155.sol\":10434:10515   */\n      jump\t// in\n        /* \"@openzeppelin/contracts/token/ERC1155/ERC1155.sol\":10808:11594   */\n    tag_432:\n      sub(shl(0xa0, 0x01), 0x01)\n        /* \"@openzeppelin/contracts/token/ERC1155/ERC1155.sol\":10930:10948   */\n      dup4\n      and\n        /* \"@openzeppelin/contracts/token/ERC1155/ERC1155.sol\":10922:10988   */\n      tag_576\n      jumpi\n      mload(0x40)\n      shl(0xe5, 0x461bcd)\n      dup2\n      mstore\n        /* \"#utility.yul\":21950:21952   */\n      0x20\n        /* \"@openzeppelin/contracts/token/ERC1155/ERC1155.sol\":10922:10988   */\n      0x04\n      dup3\n      add\n        /* \"#utility.yul\":21932:21953   */\n      mstore\n        /* \"#utility.yul\":21989:21991   */\n      0x23\n        /* \"#utility.yul\":21969:21987   */\n      0x24\n      dup3\n      add\n        /* \"#utility.yul\":21962:21992   */\n      mstore\n        /* \"#utility.yul\":22028:22062   */\n      0x455243313135353a206275726e2066726f6d20746865207a65726f2061646472\n        /* \"#utility.yul\":22008:22026   */\n      0x44\n      dup3\n      add\n        /* \"#utility.yul\":22001:22063   */\n      mstore\n      shl(0xe8, 0x657373)\n        /* \"#utility.yul\":22079:22097   */\n      0x64\n      dup3\n      add\n        /* \"#utility.yul\":22072:22105   */\n      mstore\n        /* \"#utility.yul\":22122:22141   */\n      0x84\n      add\n        /* \"@openzeppelin/contracts/token/ERC1155/ERC1155.sol\":10922:10988   */\n      tag_246\n        /* \"#utility.yul\":21748:22147   */\n      jump\n        /* \"@openzeppelin/contracts/token/ERC1155/ERC1155.sol\":10922:10988   */\n    tag_576:\n        /* \"@openzeppelin/contracts/utils/Context.sol\":719:729   */\n      caller\n        /* \"@openzeppelin/contracts/token/ERC1155/ERC1155.sol\":10999:11015   */\n      0x00\n        /* \"@openzeppelin/contracts/token/ERC1155/ERC1155.sol\":11063:11084   */\n      tag_579\n        /* \"@openzeppelin/contracts/token/ERC1155/ERC1155.sol\":11081:11083   */\n      dup5\n        /* \"@openzeppelin/contracts/token/ERC1155/ERC1155.sol\":11063:11080   */\n      tag_465\n        /* \"@openzeppelin/contracts/token/ERC1155/ERC1155.sol\":11063:11084   */\n      jump\t// in\n    tag_579:\n        /* \"@openzeppelin/contracts/token/ERC1155/ERC1155.sol\":11040:11084   */\n      swap1\n      pop\n        /* \"@openzeppelin/contracts/token/ERC1155/ERC1155.sol\":11094:11118   */\n      0x00\n        /* \"@openzeppelin/contracts/token/ERC1155/ERC1155.sol\":11121:11146   */\n      tag_580\n        /* \"@openzeppelin/contracts/token/ERC1155/ERC1155.sol\":11139:11145   */\n      dup5\n        /* \"@openzeppelin/contracts/token/ERC1155/ERC1155.sol\":11121:11138   */\n      tag_465\n        /* \"@openzeppelin/contracts/token/ERC1155/ERC1155.sol\":11121:11146   */\n      jump\t// in\n    tag_580:\n        /* \"@openzeppelin/contracts/token/ERC1155/ERC1155.sol\":11157:11223   */\n      0x40\n      dup1\n      mload\n      0x20\n      dup1\n      dup3\n      add\n      dup4\n      mstore\n      0x00\n      swap2\n      dup3\n      swap1\n      mstore\n        /* \"@openzeppelin/contracts/token/ERC1155/ERC1155.sol\":11256:11269   */\n      dup9\n      dup3\n      mstore\n      dup2\n      dup2\n      mstore\n      dup3\n      dup3\n      keccak256\n      sub(shl(0xa0, 0x01), 0x01)\n        /* \"@openzeppelin/contracts/token/ERC1155/ERC1155.sol\":11256:11275   */\n      dup12\n      and\n      dup4\n      mstore\n      swap1\n      mstore\n      keccak256\n      sload\n        /* \"@openzeppelin/contracts/token/ERC1155/ERC1155.sol\":11094:11146   */\n      swap1\n      swap2\n      pop\n        /* \"@openzeppelin/contracts/token/ERC1155/ERC1155.sol\":11293:11314   */\n      dup5\n      dup2\n      lt\n      iszero\n        /* \"@openzeppelin/contracts/token/ERC1155/ERC1155.sol\":11285:11355   */\n      tag_582\n      jumpi\n      mload(0x40)\n      shl(0xe5, 0x461bcd)\n      dup2\n      mstore\n        /* \"#utility.yul\":22354:22356   */\n      0x20\n        /* \"@openzeppelin/contracts/token/ERC1155/ERC1155.sol\":11285:11355   */\n      0x04\n      dup3\n      add\n        /* \"#utility.yul\":22336:22357   */\n      mstore\n        /* \"#utility.yul\":22393:22395   */\n      0x24\n        /* \"#utility.yul\":22373:22391   */\n      dup1\n      dup3\n      add\n        /* \"#utility.yul\":22366:22396   */\n      mstore\n        /* \"#utility.yul\":22432:22466   */\n      0x455243313135353a206275726e20616d6f756e7420657863656564732062616c\n        /* \"#utility.yul\":22412:22430   */\n      0x44\n      dup3\n      add\n        /* \"#utility.yul\":22405:22467   */\n      mstore\n      shl(0xe0, 0x616e6365)\n        /* \"#utility.yul\":22483:22501   */\n      0x64\n      dup3\n      add\n        /* \"#utility.yul\":22476:22510   */\n      mstore\n        /* \"#utility.yul\":22527:22546   */\n      0x84\n      add\n        /* \"@openzeppelin/contracts/token/ERC1155/ERC1155.sol\":11285:11355   */\n      tag_246\n        /* \"#utility.yul\":22152:22552   */\n      jump\n        /* \"@openzeppelin/contracts/token/ERC1155/ERC1155.sol\":11285:11355   */\n    tag_582:\n        /* \"@openzeppelin/contracts/token/ERC1155/ERC1155.sol\":11389:11398   */\n      0x00\n        /* \"@openzeppelin/contracts/token/ERC1155/ERC1155.sol\":11389:11402   */\n      dup7\n      dup2\n      mstore\n      0x20\n      dup2\n      dup2\n      mstore\n      0x40\n      dup1\n      dup4\n      keccak256\n      sub(shl(0xa0, 0x01), 0x01)\n        /* \"@openzeppelin/contracts/token/ERC1155/ERC1155.sol\":11389:11408   */\n      dup12\n      dup2\n      and\n      dup1\n      dup7\n      mstore\n      swap2\n      dup5\n      mstore\n      dup3\n      dup6\n      keccak256\n        /* \"@openzeppelin/contracts/token/ERC1155/ERC1155.sol\":11411:11431   */\n      dup11\n      dup8\n      sub\n        /* \"@openzeppelin/contracts/token/ERC1155/ERC1155.sol\":11389:11431   */\n      swap1\n      sstore\n        /* \"@openzeppelin/contracts/token/ERC1155/ERC1155.sol\":11457:11511   */\n      dup3\n      mload\n        /* \"#utility.yul\":20388:20413   */\n      dup12\n      dup2\n      mstore\n        /* \"#utility.yul\":20429:20447   */\n      swap4\n      dup5\n      add\n        /* \"#utility.yul\":20422:20456   */\n      dup11\n      swap1\n      mstore\n        /* \"@openzeppelin/contracts/token/ERC1155/ERC1155.sol\":11389:11408   */\n      swap1\n      swap3\n        /* \"@openzeppelin/contracts/token/ERC1155/ERC1155.sol\":11457:11511   */\n      swap1\n      dup9\n      and\n      swap2\n      0xc3d58168c5ae7397731d063d5bbf3d657854427343f4c083240f7aacaa2d0f62\n      swap2\n        /* \"#utility.yul\":20361:20379   */\n      add\n        /* \"@openzeppelin/contracts/token/ERC1155/ERC1155.sol\":11457:11511   */\n      mload(0x40)\n      dup1\n      swap2\n      sub\n      swap1\n      log4\n        /* \"@openzeppelin/contracts/token/ERC1155/ERC1155.sol\":11522:11587   */\n      0x40\n      dup1\n      mload\n      0x20\n      dup2\n      add\n      swap1\n      swap2\n      mstore\n        /* \"@openzeppelin/contracts/token/ERC1155/ERC1155.sol\":11566:11567   */\n      0x00\n        /* \"@openzeppelin/contracts/token/ERC1155/ERC1155.sol\":11522:11587   */\n      swap1\n      mstore\n      tag_382\n        /* \"@openzeppelin/contracts/token/ERC1155/ERC1155.sol\":6235:7350   */\n      jump\n        /* \"@openzeppelin/contracts/token/ERC1155/ERC1155.sol\":1236:1541   */\n    tag_452:\n        /* \"@openzeppelin/contracts/token/ERC1155/ERC1155.sol\":1338:1342   */\n      0x00\n      not(sub(shl(0xe0, 0x01), 0x01))\n        /* \"@openzeppelin/contracts/token/ERC1155/ERC1155.sol\":1373:1414   */\n      dup3\n      and\n      shl(0xe1, 0x6cdb3d13)\n      eq\n      dup1\n        /* \"@openzeppelin/contracts/token/ERC1155/ERC1155.sol\":1373:1482   */\n      tag_587\n      jumpi\n      pop\n      not(sub(shl(0xe0, 0x01), 0x01))\n        /* \"@openzeppelin/contracts/token/ERC1155/ERC1155.sol\":1430:1482   */\n      dup3\n      and\n      shl(0xe2, 0x03a24d07)\n      eq\n        /* \"@openzeppelin/contracts/token/ERC1155/ERC1155.sol\":1373:1482   */\n    tag_587:\n        /* \"@openzeppelin/contracts/token/ERC1155/ERC1155.sol\":1373:1534   */\n      dup1\n      tag_249\n      jumpi\n      pop\n      shl(0xe0, 0x01ffc9a7)\n      not(sub(shl(0xe0, 0x01), 0x01))\n        /* \"@openzeppelin/contracts/utils/introspection/ERC165.sol\":937:977   */\n      dup4\n      and\n      eq\n        /* \"@openzeppelin/contracts/token/ERC1155/ERC1155.sol\":1498:1534   */\n      tag_249\n        /* \"@openzeppelin/contracts/utils/introspection/ERC165.sol\":829:984   */\n      jump\n        /* \"@openzeppelin/contracts/token/ERC1155/ERC1155.sol\":17066:17259   */\n    tag_465:\n        /* \"@openzeppelin/contracts/token/ERC1155/ERC1155.sol\":17185:17201   */\n      0x40\n      dup1\n      mload\n        /* \"@openzeppelin/contracts/token/ERC1155/ERC1155.sol\":17199:17200   */\n      0x01\n        /* \"@openzeppelin/contracts/token/ERC1155/ERC1155.sol\":17185:17201   */\n      dup1\n      dup3\n      mstore\n      dup2\n      dup4\n      add\n      swap1\n      swap3\n      mstore\n        /* \"@openzeppelin/contracts/token/ERC1155/ERC1155.sol\":17132:17148   */\n      0x60\n      swap2\n        /* \"@openzeppelin/contracts/token/ERC1155/ERC1155.sol\":17160:17182   */\n      0x00\n      swap2\n        /* \"@openzeppelin/contracts/token/ERC1155/ERC1155.sol\":17185:17201   */\n      swap1\n      0x20\n      dup1\n      dup4\n      add\n      swap1\n      dup1\n      calldatasize\n      dup4\n      calldatacopy\n      add\n      swap1\n      pop\n      pop\n        /* \"@openzeppelin/contracts/token/ERC1155/ERC1155.sol\":17160:17201   */\n      swap1\n      pop\n        /* \"@openzeppelin/contracts/token/ERC1155/ERC1155.sol\":17222:17229   */\n      dup3\n        /* \"@openzeppelin/contracts/token/ERC1155/ERC1155.sol\":17211:17216   */\n      dup2\n        /* \"@openzeppelin/contracts/token/ERC1155/ERC1155.sol\":17217:17218   */\n      0x00\n        /* \"@openzeppelin/contracts/token/ERC1155/ERC1155.sol\":17211:17219   */\n      dup2\n      mload\n      dup2\n      lt\n      tag_596\n      jumpi\n      tag_596\n      tag_345\n      jump\t// in\n    tag_596:\n      0x20\n      swap1\n      dup2\n      mul\n      swap2\n      swap1\n      swap2\n      add\n      add\n        /* \"@openzeppelin/contracts/token/ERC1155/ERC1155.sol\":17211:17229   */\n      mstore\n        /* \"@openzeppelin/contracts/token/ERC1155/ERC1155.sol\":17247:17252   */\n      swap3\n        /* \"@openzeppelin/contracts/token/ERC1155/ERC1155.sol\":17066:17259   */\n      swap2\n      pop\n      pop\n      jump\t// out\n        /* \"@openzeppelin/contracts/token/ERC1155/ERC1155.sol\":15537:16262   */\n    tag_479:\n      sub(shl(0xa0, 0x01), 0x01)\n        /* \"@openzeppelin/contracts/token/ERC1155/ERC1155.sol\":15744:15757   */\n      dup5\n      and\n        /* \"@openzeppelin/contracts/utils/Address.sol\":1465:1484   */\n      extcodesize\n        /* \"@openzeppelin/contracts/utils/Address.sol\":1465:1488   */\n      iszero\n        /* \"@openzeppelin/contracts/token/ERC1155/ERC1155.sol\":15740:16256   */\n      tag_506\n      jumpi\n        /* \"@openzeppelin/contracts/token/ERC1155/ERC1155.sol\":15779:15851   */\n      mload(0x40)\n      shl(0xe0, 0xf23a6e61)\n      dup2\n      mstore\n      sub(shl(0xa0, 0x01), 0x01)\n        /* \"@openzeppelin/contracts/token/ERC1155/ERC1155.sol\":15779:15817   */\n      dup6\n      and\n      swap1\n      0xf23a6e61\n      swap1\n        /* \"@openzeppelin/contracts/token/ERC1155/ERC1155.sol\":15779:15851   */\n      tag_603\n      swap1\n        /* \"@openzeppelin/contracts/token/ERC1155/ERC1155.sol\":15818:15826   */\n      dup10\n      swap1\n        /* \"@openzeppelin/contracts/token/ERC1155/ERC1155.sol\":15828:15832   */\n      dup10\n      swap1\n        /* \"@openzeppelin/contracts/token/ERC1155/ERC1155.sol\":15834:15836   */\n      dup9\n      swap1\n        /* \"@openzeppelin/contracts/token/ERC1155/ERC1155.sol\":15838:15844   */\n      dup9\n      swap1\n        /* \"@openzeppelin/contracts/token/ERC1155/ERC1155.sol\":15846:15850   */\n      dup9\n      swap1\n        /* \"@openzeppelin/contracts/token/ERC1155/ERC1155.sol\":15779:15851   */\n      0x04\n      add\n      tag_604\n      jump\t// in\n    tag_603:\n      0x20\n      mload(0x40)\n      dup1\n      dup4\n      sub\n      dup2\n      0x00\n      dup8\n      gas\n      call\n      swap3\n      pop\n      pop\n      pop\n      dup1\n      iszero\n      tag_605\n      jumpi\n      pop\n      0x40\n      dup1\n      mload\n      0x1f\n      returndatasize\n      swap1\n      dup2\n      add\n      not(0x1f)\n      and\n      dup3\n      add\n      swap1\n      swap3\n      mstore\n      tag_606\n      swap2\n      dup2\n      add\n      swap1\n      tag_607\n      jump\t// in\n    tag_606:\n      0x01\n    tag_605:\n        /* \"@openzeppelin/contracts/token/ERC1155/ERC1155.sol\":15775:16246   */\n      tag_608\n      jumpi\n      tag_612\n      tag_613\n      jump\t// in\n    tag_612:\n      dup1\n      0x08c379a0\n      sub\n      tag_611\n      jumpi\n      pop\n      tag_614\n      tag_615\n      jump\t// in\n    tag_614:\n      dup1\n      tag_616\n      jumpi\n      pop\n      jump(tag_610)\n    tag_616:\n        /* \"@openzeppelin/contracts/token/ERC1155/ERC1155.sol\":16122:16128   */\n      dup1\n        /* \"@openzeppelin/contracts/token/ERC1155/ERC1155.sol\":16115:16129   */\n      mload(0x40)\n      shl(0xe5, 0x461bcd)\n      dup2\n      mstore\n      0x04\n      add\n      tag_246\n      swap2\n      swap1\n      tag_79\n      jump\t// in\n        /* \"@openzeppelin/contracts/token/ERC1155/ERC1155.sol\":15775:16246   */\n    tag_611:\n      pop\n    tag_610:\n        /* \"@openzeppelin/contracts/token/ERC1155/ERC1155.sol\":16169:16231   */\n      mload(0x40)\n      shl(0xe5, 0x461bcd)\n      dup2\n      mstore\n        /* \"#utility.yul\":24872:24874   */\n      0x20\n        /* \"@openzeppelin/contracts/token/ERC1155/ERC1155.sol\":16169:16231   */\n      0x04\n      dup3\n      add\n        /* \"#utility.yul\":24854:24875   */\n      mstore\n        /* \"#utility.yul\":24911:24913   */\n      0x34\n        /* \"#utility.yul\":24891:24909   */\n      0x24\n      dup3\n      add\n        /* \"#utility.yul\":24884:24914   */\n      mstore\n        /* \"#utility.yul\":24950:24984   */\n      0x455243313135353a207472616e7366657220746f206e6f6e2045524331313535\n        /* \"#utility.yul\":24930:24948   */\n      0x44\n      dup3\n      add\n        /* \"#utility.yul\":24923:24985   */\n      mstore\n        /* \"#utility.yul\":25021:25043   */\n      0x526563656976657220696d706c656d656e746572000000000000000000000000\n        /* \"#utility.yul\":25001:25019   */\n      0x64\n      dup3\n      add\n        /* \"#utility.yul\":24994:25044   */\n      mstore\n        /* \"#utility.yul\":25061:25080   */\n      0x84\n      add\n        /* \"@openzeppelin/contracts/token/ERC1155/ERC1155.sol\":16169:16231   */\n      tag_246\n        /* \"#utility.yul\":24670:25086   */\n      jump\n        /* \"@openzeppelin/contracts/token/ERC1155/ERC1155.sol\":15775:16246   */\n    tag_608:\n      not(sub(shl(0xe0, 0x01), 0x01))\n        /* \"@openzeppelin/contracts/token/ERC1155/ERC1155.sol\":15900:15955   */\n      dup2\n      and\n      shl(0xe0, 0xf23a6e61)\n      eq\n        /* \"@openzeppelin/contracts/token/ERC1155/ERC1155.sol\":15896:16048   */\n      tag_382\n      jumpi\n        /* \"@openzeppelin/contracts/token/ERC1155/ERC1155.sol\":15979:16029   */\n      mload(0x40)\n      shl(0xe5, 0x461bcd)\n      dup2\n      mstore\n        /* \"#utility.yul\":25293:25295   */\n      0x20\n        /* \"@openzeppelin/contracts/token/ERC1155/ERC1155.sol\":15979:16029   */\n      0x04\n      dup3\n      add\n        /* \"#utility.yul\":25275:25296   */\n      mstore\n        /* \"#utility.yul\":25332:25334   */\n      0x28\n        /* \"#utility.yul\":25312:25330   */\n      0x24\n      dup3\n      add\n        /* \"#utility.yul\":25305:25335   */\n      mstore\n        /* \"#utility.yul\":25371:25405   */\n      0x455243313135353a204552433131353552656365697665722072656a65637465\n        /* \"#utility.yul\":25351:25369   */\n      0x44\n      dup3\n      add\n        /* \"#utility.yul\":25344:25406   */\n      mstore\n      shl(0xc0, 0x6420746f6b656e73)\n        /* \"#utility.yul\":25422:25440   */\n      0x64\n      dup3\n      add\n        /* \"#utility.yul\":25415:25453   */\n      mstore\n        /* \"#utility.yul\":25470:25489   */\n      0x84\n      add\n        /* \"@openzeppelin/contracts/token/ERC1155/ERC1155.sol\":15979:16029   */\n      tag_246\n        /* \"#utility.yul\":25091:25495   */\n      jump\n        /* \"@openzeppelin/contracts/token/ERC1155/ERC1155.sol\":16268:17060   */\n    tag_507:\n      sub(shl(0xa0, 0x01), 0x01)\n        /* \"@openzeppelin/contracts/token/ERC1155/ERC1155.sol\":16500:16513   */\n      dup5\n      and\n        /* \"@openzeppelin/contracts/utils/Address.sol\":1465:1484   */\n      extcodesize\n        /* \"@openzeppelin/contracts/utils/Address.sol\":1465:1488   */\n      iszero\n        /* \"@openzeppelin/contracts/token/ERC1155/ERC1155.sol\":16496:17054   */\n      tag_506\n      jumpi\n        /* \"@openzeppelin/contracts/token/ERC1155/ERC1155.sol\":16535:16614   */\n      mload(0x40)\n      shl(0xe0, 0xbc197c81)\n      dup2\n      mstore\n      sub(shl(0xa0, 0x01), 0x01)\n        /* \"@openzeppelin/contracts/token/ERC1155/ERC1155.sol\":16535:16578   */\n      dup6\n      and\n      swap1\n      0xbc197c81\n      swap1\n        /* \"@openzeppelin/contracts/token/ERC1155/ERC1155.sol\":16535:16614   */\n      tag_627\n      swap1\n        /* \"@openzeppelin/contracts/token/ERC1155/ERC1155.sol\":16579:16587   */\n      dup10\n      swap1\n        /* \"@openzeppelin/contracts/token/ERC1155/ERC1155.sol\":16589:16593   */\n      dup10\n      swap1\n        /* \"@openzeppelin/contracts/token/ERC1155/ERC1155.sol\":16595:16598   */\n      dup9\n      swap1\n        /* \"@openzeppelin/contracts/token/ERC1155/ERC1155.sol\":16600:16607   */\n      dup9\n      swap1\n        /* \"@openzeppelin/contracts/token/ERC1155/ERC1155.sol\":16609:16613   */\n      dup9\n      swap1\n        /* \"@openzeppelin/contracts/token/ERC1155/ERC1155.sol\":16535:16614   */\n      0x04\n      add\n      tag_628\n      jump\t// in\n    tag_627:\n      0x20\n      mload(0x40)\n      dup1\n      dup4\n      sub\n      dup2\n      0x00\n      dup8\n      gas\n      call\n      swap3\n      pop\n      pop\n      pop\n      dup1\n      iszero\n      tag_629\n      jumpi\n      pop\n      0x40\n      dup1\n      mload\n      0x1f\n      returndatasize\n      swap1\n      dup2\n      add\n      not(0x1f)\n      and\n      dup3\n      add\n      swap1\n      swap3\n      mstore\n      tag_630\n      swap2\n      dup2\n      add\n      swap1\n      tag_607\n      jump\t// in\n    tag_630:\n      0x01\n    tag_629:\n        /* \"@openzeppelin/contracts/token/ERC1155/ERC1155.sol\":16531:17044   */\n      tag_631\n      jumpi\n      tag_612\n      tag_613\n      jump\t// in\n    tag_631:\n      not(sub(shl(0xe0, 0x01), 0x01))\n        /* \"@openzeppelin/contracts/token/ERC1155/ERC1155.sol\":16693:16753   */\n      dup2\n      and\n      shl(0xe0, 0xbc197c81)\n      eq\n        /* \"@openzeppelin/contracts/token/ERC1155/ERC1155.sol\":16689:16846   */\n      tag_382\n      jumpi\n        /* \"@openzeppelin/contracts/token/ERC1155/ERC1155.sol\":16777:16827   */\n      mload(0x40)\n      shl(0xe5, 0x461bcd)\n      dup2\n      mstore\n        /* \"#utility.yul\":25293:25295   */\n      0x20\n        /* \"@openzeppelin/contracts/token/ERC1155/ERC1155.sol\":16777:16827   */\n      0x04\n      dup3\n      add\n        /* \"#utility.yul\":25275:25296   */\n      mstore\n        /* \"#utility.yul\":25332:25334   */\n      0x28\n        /* \"#utility.yul\":25312:25330   */\n      0x24\n      dup3\n      add\n        /* \"#utility.yul\":25305:25335   */\n      mstore\n        /* \"#utility.yul\":25371:25405   */\n      0x455243313135353a204552433131353552656365697665722072656a65637465\n        /* \"#utility.yul\":25351:25369   */\n      0x44\n      dup3\n      add\n        /* \"#utility.yul\":25344:25406   */\n      mstore\n      shl(0xc0, 0x6420746f6b656e73)\n        /* \"#utility.yul\":25422:25440   */\n      0x64\n      dup3\n      add\n        /* \"#utility.yul\":25415:25453   */\n      mstore\n        /* \"#utility.yul\":25470:25489   */\n      0x84\n      add\n        /* \"@openzeppelin/contracts/token/ERC1155/ERC1155.sol\":16777:16827   */\n      tag_246\n        /* \"#utility.yul\":25091:25495   */\n      jump\n        /* \"@openzeppelin/contracts/access/AccessControl.sol\":3718:4210   */\n    tag_511:\n        /* \"@openzeppelin/contracts/access/AccessControl.sol\":2981:2985   */\n      0x00\n        /* \"@openzeppelin/contracts/access/AccessControl.sol\":3004:3016   */\n      dup3\n      dup2\n      mstore\n        /* \"@openzeppelin/contracts/access/AccessControl.sol\":3004:3010   */\n      0x03\n        /* \"@openzeppelin/contracts/access/AccessControl.sol\":3004:3016   */\n      0x20\n      swap1\n      dup2\n      mstore\n      0x40\n      dup1\n      dup4\n      keccak256\n      sub(shl(0xa0, 0x01), 0x01)\n        /* \"@openzeppelin/contracts/access/AccessControl.sol\":3004:3033   */\n      dup6\n      and\n      dup5\n      mstore\n      swap1\n      swap2\n      mstore\n      swap1\n      keccak256\n      sload\n      0xff\n      and\n        /* \"@openzeppelin/contracts/access/AccessControl.sol\":3801:4204   */\n      tag_304\n      jumpi\n        /* \"@openzeppelin/contracts/access/AccessControl.sol\":3989:4030   */\n      tag_646\n        /* \"@openzeppelin/contracts/access/AccessControl.sol\":4017:4024   */\n      dup2\n      sub(shl(0xa0, 0x01), 0x01)\n        /* \"@openzeppelin/contracts/access/AccessControl.sol\":3989:4030   */\n      and\n        /* \"@openzeppelin/contracts/access/AccessControl.sol\":4027:4029   */\n      0x14\n        /* \"@openzeppelin/contracts/access/AccessControl.sol\":3989:4008   */\n      tag_647\n        /* \"@openzeppelin/contracts/access/AccessControl.sol\":3989:4030   */\n      jump\t// in\n    tag_646:\n        /* \"@openzeppelin/contracts/access/AccessControl.sol\":4101:4139   */\n      tag_648\n        /* \"@openzeppelin/contracts/access/AccessControl.sol\":4129:4133   */\n      dup4\n        /* \"@openzeppelin/contracts/access/AccessControl.sol\":4136:4138   */\n      0x20\n        /* \"@openzeppelin/contracts/access/AccessControl.sol\":4101:4120   */\n      tag_647\n        /* \"@openzeppelin/contracts/access/AccessControl.sol\":4101:4139   */\n      jump\t// in\n    tag_648:\n        /* \"@openzeppelin/contracts/access/AccessControl.sol\":3896:4161   */\n      add(0x20, mload(0x40))\n      tag_649\n      swap3\n      swap2\n      swap1\n      tag_650\n      jump\t// in\n    tag_649:\n      0x40\n      dup1\n      mload\n      not(0x1f)\n      dup2\n      dup5\n      sub\n      add\n      dup2\n      mstore\n      swap1\n      dup3\n      swap1\n      mstore\n      shl(0xe5, 0x461bcd)\n        /* \"@openzeppelin/contracts/access/AccessControl.sol\":3844:4193   */\n      dup3\n      mstore\n      tag_246\n      swap2\n      0x04\n      add\n      tag_79\n      jump\t// in\n        /* \"@openzeppelin/contracts/utils/Strings.sol\":1652:2093   */\n    tag_647:\n        /* \"@openzeppelin/contracts/utils/Strings.sol\":1727:1740   */\n      0x60\n        /* \"@openzeppelin/contracts/utils/Strings.sol\":1752:1771   */\n      0x00\n        /* \"@openzeppelin/contracts/utils/Strings.sol\":1784:1794   */\n      tag_655\n        /* \"@openzeppelin/contracts/utils/Strings.sol\":1788:1794   */\n      dup4\n        /* \"@openzeppelin/contracts/utils/Strings.sol\":1784:1785   */\n      0x02\n        /* \"@openzeppelin/contracts/utils/Strings.sol\":1784:1794   */\n      tag_261\n      jump\t// in\n    tag_655:\n        /* \"@openzeppelin/contracts/utils/Strings.sol\":1784:1798   */\n      tag_656\n      swap1\n        /* \"@openzeppelin/contracts/utils/Strings.sol\":1797:1798   */\n      0x02\n        /* \"@openzeppelin/contracts/utils/Strings.sol\":1784:1798   */\n      tag_473\n      jump\t// in\n    tag_656:\n        /* \"@openzeppelin/contracts/utils/Strings.sol\":1774:1799   */\n      0xffffffffffffffff\n      dup2\n      gt\n      iszero\n      tag_658\n      jumpi\n      tag_658\n      tag_337\n      jump\t// in\n    tag_658:\n      mload(0x40)\n      swap1\n      dup1\n      dup3\n      mstore\n      dup1\n      0x1f\n      add\n      not(0x1f)\n      and\n      0x20\n      add\n      dup3\n      add\n      0x40\n      mstore\n      dup1\n      iszero\n      tag_659\n      jumpi\n      0x20\n      dup3\n      add\n      dup2\n      dup1\n      calldatasize\n      dup4\n      calldatacopy\n      add\n      swap1\n      pop\n    tag_659:\n      pop\n        /* \"@openzeppelin/contracts/utils/Strings.sol\":1752:1799   */\n      swap1\n      pop\n      shl(0xfc, 0x03)\n        /* \"@openzeppelin/contracts/utils/Strings.sol\":1809:1815   */\n      dup2\n        /* \"@openzeppelin/contracts/utils/Strings.sol\":1816:1817   */\n      0x00\n        /* \"@openzeppelin/contracts/utils/Strings.sol\":1809:1818   */\n      dup2\n      mload\n      dup2\n      lt\n      tag_661\n      jumpi\n      tag_661\n      tag_345\n      jump\t// in\n    tag_661:\n      0x20\n      add\n      add\n        /* \"@openzeppelin/contracts/utils/Strings.sol\":1809:1824   */\n      swap1\n      not(sub(shl(0xf8, 0x01), 0x01))\n      and\n      swap1\n      dup2\n      0x00\n      byte\n      swap1\n      mstore8\n      pop\n      shl(0xfb, 0x0f)\n        /* \"@openzeppelin/contracts/utils/Strings.sol\":1834:1840   */\n      dup2\n        /* \"@openzeppelin/contracts/utils/Strings.sol\":1841:1842   */\n      0x01\n        /* \"@openzeppelin/contracts/utils/Strings.sol\":1834:1843   */\n      dup2\n      mload\n      dup2\n      lt\n      tag_663\n      jumpi\n      tag_663\n      tag_345\n      jump\t// in\n    tag_663:\n      0x20\n      add\n      add\n        /* \"@openzeppelin/contracts/utils/Strings.sol\":1834:1849   */\n      swap1\n      not(sub(shl(0xf8, 0x01), 0x01))\n      and\n      swap1\n      dup2\n      0x00\n      byte\n      swap1\n      mstore8\n      pop\n        /* \"@openzeppelin/contracts/utils/Strings.sol\":1864:1873   */\n      0x00\n        /* \"@openzeppelin/contracts/utils/Strings.sol\":1876:1886   */\n      tag_667\n        /* \"@openzeppelin/contracts/utils/Strings.sol\":1880:1886   */\n      dup5\n        /* \"@openzeppelin/contracts/utils/Strings.sol\":1876:1877   */\n      0x02\n        /* \"@openzeppelin/contracts/utils/Strings.sol\":1876:1886   */\n      tag_261\n      jump\t// in\n    tag_667:\n        /* \"@openzeppelin/contracts/utils/Strings.sol\":1876:1890   */\n      tag_668\n      swap1\n        /* \"@openzeppelin/contracts/utils/Strings.sol\":1889:1890   */\n      0x01\n        /* \"@openzeppelin/contracts/utils/Strings.sol\":1876:1890   */\n      tag_473\n      jump\t// in\n    tag_668:\n        /* \"@openzeppelin/contracts/utils/Strings.sol\":1864:1890   */\n      swap1\n      pop\n        /* \"@openzeppelin/contracts/utils/Strings.sol\":1859:1991   */\n    tag_664:\n        /* \"@openzeppelin/contracts/utils/Strings.sol\":1896:1897   */\n      0x01\n        /* \"@openzeppelin/contracts/utils/Strings.sol\":1892:1893   */\n      dup2\n        /* \"@openzeppelin/contracts/utils/Strings.sol\":1892:1897   */\n      gt\n        /* \"@openzeppelin/contracts/utils/Strings.sol\":1859:1991   */\n      iszero\n      tag_665\n      jumpi\n        /* \"@openzeppelin/contracts/utils/Strings.sol\":1930:1942   */\n      0x3031323334353637383961626364656600000000000000000000000000000000\n        /* \"@openzeppelin/contracts/utils/Strings.sol\":1943:1948   */\n      dup6\n        /* \"@openzeppelin/contracts/utils/Strings.sol\":1951:1954   */\n      0x0f\n        /* \"@openzeppelin/contracts/utils/Strings.sol\":1943:1954   */\n      and\n        /* \"@openzeppelin/contracts/utils/Strings.sol\":1930:1955   */\n      0x10\n      dup2\n      lt\n      tag_670\n      jumpi\n      tag_670\n      tag_345\n      jump\t// in\n    tag_670:\n      byte\n      0xf8\n      shl\n        /* \"@openzeppelin/contracts/utils/Strings.sol\":1918:1924   */\n      dup3\n        /* \"@openzeppelin/contracts/utils/Strings.sol\":1925:1926   */\n      dup3\n        /* \"@openzeppelin/contracts/utils/Strings.sol\":1918:1927   */\n      dup2\n      mload\n      dup2\n      lt\n      tag_672\n      jumpi\n      tag_672\n      tag_345\n      jump\t// in\n    tag_672:\n      0x20\n      add\n      add\n        /* \"@openzeppelin/contracts/utils/Strings.sol\":1918:1955   */\n      swap1\n      not(sub(shl(0xf8, 0x01), 0x01))\n      and\n      swap1\n      dup2\n      0x00\n      byte\n      swap1\n      mstore8\n      pop\n        /* \"@openzeppelin/contracts/utils/Strings.sol\":1979:1980   */\n      0x04\n        /* \"@openzeppelin/contracts/utils/Strings.sol\":1969:1980   */\n      swap5\n      swap1\n      swap5\n      shr\n      swap4\n        /* \"@openzeppelin/contracts/utils/Strings.sol\":1899:1902   */\n      tag_673\n      dup2\n      tag_674\n      jump\t// in\n    tag_673:\n      swap1\n      pop\n        /* \"@openzeppelin/contracts/utils/Strings.sol\":1859:1991   */\n      jump(tag_664)\n    tag_665:\n      pop\n        /* \"@openzeppelin/contracts/utils/Strings.sol\":2008:2018   */\n      dup4\n      iszero\n        /* \"@openzeppelin/contracts/utils/Strings.sol\":2000:2055   */\n      tag_675\n      jumpi\n      mload(0x40)\n      shl(0xe5, 0x461bcd)\n      dup2\n      mstore\n        /* \"#utility.yul\":27489:27491   */\n      0x20\n        /* \"@openzeppelin/contracts/utils/Strings.sol\":2000:2055   */\n      0x04\n      dup3\n      add\n        /* \"#utility.yul\":27471:27492   */\n      dup2\n      swap1\n      mstore\n        /* \"#utility.yul\":27508:27526   */\n      0x24\n      dup3\n      add\n        /* \"#utility.yul\":27501:27531   */\n      mstore\n        /* \"#utility.yul\":27567:27601   */\n      0x537472696e67733a20686578206c656e67746820696e73756666696369656e74\n        /* \"#utility.yul\":27547:27565   */\n      0x44\n      dup3\n      add\n        /* \"#utility.yul\":27540:27602   */\n      mstore\n        /* \"#utility.yul\":27619:27637   */\n      0x64\n      add\n        /* \"@openzeppelin/contracts/utils/Strings.sol\":2000:2055   */\n      tag_246\n        /* \"#utility.yul\":27287:27643   */\n      jump\n        /* \"@openzeppelin/contracts/utils/Strings.sol\":2000:2055   */\n    tag_675:\n        /* \"@openzeppelin/contracts/utils/Strings.sol\":2079:2085   */\n      swap4\n        /* \"@openzeppelin/contracts/utils/Strings.sol\":1652:2093   */\n      swap3\n      pop\n      pop\n      pop\n      jump\t// out\n    tag_356:\n      dup3\n      dup1\n      sload\n      tag_678\n      swap1\n      tag_273\n      jump\t// in\n    tag_678:\n      swap1\n      0x00\n      mstore\n      keccak256(0x00, 0x20)\n      swap1\n      0x1f\n      add\n      0x20\n      swap1\n      div\n      dup2\n      add\n      swap3\n      dup3\n      tag_680\n      jumpi\n      0x00\n      dup6\n      sstore\n      jump(tag_683)\n    tag_680:\n      dup3\n      0x1f\n      lt\n      tag_681\n      jumpi\n      dup1\n      mload\n      not(0xff)\n      and\n      dup4\n      dup1\n      add\n      or\n      dup6\n      sstore\n      jump(tag_683)\n    tag_681:\n      dup3\n      dup1\n      add\n      0x01\n      add\n      dup6\n      sstore\n      dup3\n      iszero\n      tag_683\n      jumpi\n      swap2\n      dup3\n      add\n    tag_682:\n      dup3\n      dup2\n      gt\n      iszero\n      tag_683\n      jumpi\n      dup3\n      mload\n      dup3\n      sstore\n      swap2\n      0x20\n      add\n      swap2\n      swap1\n      0x01\n      add\n      swap1\n      jump(tag_682)\n    tag_683:\n      pop\n      tag_684\n      swap3\n      swap2\n      pop\n      tag_685\n      jump\t// in\n    tag_684:\n      pop\n      swap1\n      jump\t// out\n    tag_685:\n    tag_686:\n      dup1\n      dup3\n      gt\n      iszero\n      tag_684\n      jumpi\n      0x00\n      dup2\n      sstore\n      0x01\n      add\n      jump(tag_686)\n        /* \"#utility.yul\":14:210   */\n    tag_688:\n        /* \"#utility.yul\":82:102   */\n      dup1\n      calldataload\n      sub(shl(0xa0, 0x01), 0x01)\n        /* \"#utility.yul\":131:185   */\n      dup2\n      and\n        /* \"#utility.yul\":121:186   */\n      dup2\n      eq\n        /* \"#utility.yul\":111:204   */\n      tag_701\n      jumpi\n        /* \"#utility.yul\":200:201   */\n      0x00\n        /* \"#utility.yul\":197:198   */\n      dup1\n        /* \"#utility.yul\":190:202   */\n      revert\n        /* \"#utility.yul\":111:204   */\n    tag_701:\n        /* \"#utility.yul\":14:210   */\n      swap2\n      swap1\n      pop\n      jump\t// out\n        /* \"#utility.yul\":215:469   */\n    tag_58:\n        /* \"#utility.yul\":283:289   */\n      0x00\n        /* \"#utility.yul\":291:297   */\n      dup1\n        /* \"#utility.yul\":344:346   */\n      0x40\n        /* \"#utility.yul\":332:341   */\n      dup4\n        /* \"#utility.yul\":323:330   */\n      dup6\n        /* \"#utility.yul\":319:342   */\n      sub\n        /* \"#utility.yul\":315:347   */\n      slt\n        /* \"#utility.yul\":312:364   */\n      iszero\n      tag_703\n      jumpi\n        /* \"#utility.yul\":360:361   */\n      0x00\n        /* \"#utility.yul\":357:358   */\n      dup1\n        /* \"#utility.yul\":350:362   */\n      revert\n        /* \"#utility.yul\":312:364   */\n    tag_703:\n        /* \"#utility.yul\":383:412   */\n      tag_704\n        /* \"#utility.yul\":402:411   */\n      dup4\n        /* \"#utility.yul\":383:412   */\n      tag_688\n      jump\t// in\n    tag_704:\n        /* \"#utility.yul\":373:412   */\n      swap5\n        /* \"#utility.yul\":459:461   */\n      0x20\n        /* \"#utility.yul\":444:462   */\n      swap4\n      swap1\n      swap4\n      add\n        /* \"#utility.yul\":431:463   */\n      calldataload\n      swap4\n      pop\n      pop\n      pop\n        /* \"#utility.yul\":215:469   */\n      jump\t// out\n        /* \"#utility.yul\":656:787   */\n    tag_689:\n      not(sub(shl(0xe0, 0x01), 0x01))\n        /* \"#utility.yul\":730:762   */\n      dup2\n      and\n        /* \"#utility.yul\":720:763   */\n      dup2\n      eq\n        /* \"#utility.yul\":710:781   */\n      tag_509\n      jumpi\n        /* \"#utility.yul\":777:778   */\n      0x00\n        /* \"#utility.yul\":774:775   */\n      dup1\n        /* \"#utility.yul\":767:779   */\n      revert\n        /* \"#utility.yul\":792:1037   */\n    tag_65:\n        /* \"#utility.yul\":850:856   */\n      0x00\n        /* \"#utility.yul\":903:905   */\n      0x20\n        /* \"#utility.yul\":891:900   */\n      dup3\n        /* \"#utility.yul\":882:889   */\n      dup5\n        /* \"#utility.yul\":878:901   */\n      sub\n        /* \"#utility.yul\":874:906   */\n      slt\n        /* \"#utility.yul\":871:923   */\n      iszero\n      tag_709\n      jumpi\n        /* \"#utility.yul\":919:920   */\n      0x00\n        /* \"#utility.yul\":916:917   */\n      dup1\n        /* \"#utility.yul\":909:921   */\n      revert\n        /* \"#utility.yul\":871:923   */\n    tag_709:\n        /* \"#utility.yul\":958:967   */\n      dup2\n        /* \"#utility.yul\":945:968   */\n      calldataload\n        /* \"#utility.yul\":977:1007   */\n      tag_675\n        /* \"#utility.yul\":1001:1006   */\n      dup2\n        /* \"#utility.yul\":977:1007   */\n      tag_689\n      jump\t// in\n        /* \"#utility.yul\":1234:1631   */\n    tag_71:\n        /* \"#utility.yul\":1320:1326   */\n      0x00\n        /* \"#utility.yul\":1328:1334   */\n      dup1\n        /* \"#utility.yul\":1336:1342   */\n      0x00\n        /* \"#utility.yul\":1344:1350   */\n      dup1\n        /* \"#utility.yul\":1397:1400   */\n      0x80\n        /* \"#utility.yul\":1385:1394   */\n      dup6\n        /* \"#utility.yul\":1376:1383   */\n      dup8\n        /* \"#utility.yul\":1372:1395   */\n      sub\n        /* \"#utility.yul\":1368:1401   */\n      slt\n        /* \"#utility.yul\":1365:1418   */\n      iszero\n      tag_713\n      jumpi\n        /* \"#utility.yul\":1414:1415   */\n      0x00\n        /* \"#utility.yul\":1411:1412   */\n      dup1\n        /* \"#utility.yul\":1404:1416   */\n      revert\n        /* \"#utility.yul\":1365:1418   */\n    tag_713:\n        /* \"#utility.yul\":1437:1466   */\n      tag_714\n        /* \"#utility.yul\":1456:1465   */\n      dup6\n        /* \"#utility.yul\":1437:1466   */\n      tag_688\n      jump\t// in\n    tag_714:\n        /* \"#utility.yul\":1427:1466   */\n      swap4\n      pop\n        /* \"#utility.yul\":1485:1523   */\n      tag_715\n        /* \"#utility.yul\":1519:1521   */\n      0x20\n        /* \"#utility.yul\":1508:1517   */\n      dup7\n        /* \"#utility.yul\":1504:1522   */\n      add\n        /* \"#utility.yul\":1485:1523   */\n      tag_688\n      jump\t// in\n    tag_715:\n        /* \"#utility.yul\":1234:1631   */\n      swap4\n      swap7\n        /* \"#utility.yul\":1475:1523   */\n      swap4\n      swap6\n      pop\n      pop\n      pop\n      pop\n        /* \"#utility.yul\":1570:1572   */\n      0x40\n        /* \"#utility.yul\":1555:1573   */\n      dup3\n      add\n        /* \"#utility.yul\":1542:1574   */\n      calldataload\n      swap2\n        /* \"#utility.yul\":1621:1623   */\n      0x60\n        /* \"#utility.yul\":1606:1624   */\n      add\n        /* \"#utility.yul\":1593:1625   */\n      calldataload\n      swap1\n        /* \"#utility.yul\":1234:1631   */\n      jump\t// out\n        /* \"#utility.yul\":1636:1816   */\n    tag_76:\n        /* \"#utility.yul\":1695:1701   */\n      0x00\n        /* \"#utility.yul\":1748:1750   */\n      0x20\n        /* \"#utility.yul\":1736:1745   */\n      dup3\n        /* \"#utility.yul\":1727:1734   */\n      dup5\n        /* \"#utility.yul\":1723:1746   */\n      sub\n        /* \"#utility.yul\":1719:1751   */\n      slt\n        /* \"#utility.yul\":1716:1768   */\n      iszero\n      tag_717\n      jumpi\n        /* \"#utility.yul\":1764:1765   */\n      0x00\n        /* \"#utility.yul\":1761:1762   */\n      dup1\n        /* \"#utility.yul\":1754:1766   */\n      revert\n        /* \"#utility.yul\":1716:1768   */\n    tag_717:\n      pop\n        /* \"#utility.yul\":1787:1810   */\n      calldataload\n      swap2\n        /* \"#utility.yul\":1636:1816   */\n      swap1\n      pop\n      jump\t// out\n        /* \"#utility.yul\":1821:2079   */\n    tag_690:\n        /* \"#utility.yul\":1893:1894   */\n      0x00\n        /* \"#utility.yul\":1903:2016   */\n    tag_719:\n        /* \"#utility.yul\":1917:1923   */\n      dup4\n        /* \"#utility.yul\":1914:1915   */\n      dup2\n        /* \"#utility.yul\":1911:1924   */\n      lt\n        /* \"#utility.yul\":1903:2016   */\n      iszero\n      tag_721\n      jumpi\n        /* \"#utility.yul\":1993:2004   */\n      dup2\n      dup2\n      add\n        /* \"#utility.yul\":1987:2005   */\n      mload\n        /* \"#utility.yul\":1974:1985   */\n      dup4\n      dup3\n      add\n        /* \"#utility.yul\":1967:2006   */\n      mstore\n        /* \"#utility.yul\":1939:1941   */\n      0x20\n        /* \"#utility.yul\":1932:1942   */\n      add\n        /* \"#utility.yul\":1903:2016   */\n      jump(tag_719)\n    tag_721:\n        /* \"#utility.yul\":2034:2040   */\n      dup4\n        /* \"#utility.yul\":2031:2032   */\n      dup2\n        /* \"#utility.yul\":2028:2041   */\n      gt\n        /* \"#utility.yul\":2025:2073   */\n      iszero\n      tag_550\n      jumpi\n      pop\n      pop\n        /* \"#utility.yul\":2069:2070   */\n      0x00\n        /* \"#utility.yul\":2051:2067   */\n      swap2\n      add\n        /* \"#utility.yul\":2044:2071   */\n      mstore\n        /* \"#utility.yul\":1821:2079   */\n      jump\t// out\n        /* \"#utility.yul\":2084:2342   */\n    tag_691:\n        /* \"#utility.yul\":2126:2129   */\n      0x00\n        /* \"#utility.yul\":2164:2169   */\n      dup2\n        /* \"#utility.yul\":2158:2170   */\n      mload\n        /* \"#utility.yul\":2191:2197   */\n      dup1\n        /* \"#utility.yul\":2186:2189   */\n      dup5\n        /* \"#utility.yul\":2179:2198   */\n      mstore\n        /* \"#utility.yul\":2207:2270   */\n      tag_724\n        /* \"#utility.yul\":2263:2269   */\n      dup2\n        /* \"#utility.yul\":2256:2260   */\n      0x20\n        /* \"#utility.yul\":2251:2254   */\n      dup7\n        /* \"#utility.yul\":2247:2261   */\n      add\n        /* \"#utility.yul\":2240:2244   */\n      0x20\n        /* \"#utility.yul\":2233:2238   */\n      dup7\n        /* \"#utility.yul\":2229:2245   */\n      add\n        /* \"#utility.yul\":2207:2270   */\n      tag_690\n      jump\t// in\n    tag_724:\n        /* \"#utility.yul\":2324:2326   */\n      0x1f\n        /* \"#utility.yul\":2303:2318   */\n      add\n      not(0x1f)\n        /* \"#utility.yul\":2299:2328   */\n      and\n        /* \"#utility.yul\":2290:2329   */\n      swap3\n      swap1\n      swap3\n      add\n        /* \"#utility.yul\":2331:2335   */\n      0x20\n        /* \"#utility.yul\":2286:2336   */\n      add\n      swap3\n        /* \"#utility.yul\":2084:2342   */\n      swap2\n      pop\n      pop\n      jump\t// out\n        /* \"#utility.yul\":2347:2567   */\n    tag_79:\n        /* \"#utility.yul\":2496:2498   */\n      0x20\n        /* \"#utility.yul\":2485:2494   */\n      dup2\n        /* \"#utility.yul\":2478:2499   */\n      mstore\n        /* \"#utility.yul\":2459:2463   */\n      0x00\n        /* \"#utility.yul\":2516:2561   */\n      tag_675\n        /* \"#utility.yul\":2557:2559   */\n      0x20\n        /* \"#utility.yul\":2546:2555   */\n      dup4\n        /* \"#utility.yul\":2542:2560   */\n      add\n        /* \"#utility.yul\":2534:2540   */\n      dup5\n        /* \"#utility.yul\":2516:2561   */\n      tag_691\n      jump\t// in\n        /* \"#utility.yul\":2939:3187   */\n    tag_90:\n        /* \"#utility.yul\":3007:3013   */\n      0x00\n        /* \"#utility.yul\":3015:3021   */\n      dup1\n        /* \"#utility.yul\":3068:3070   */\n      0x40\n        /* \"#utility.yul\":3056:3065   */\n      dup4\n        /* \"#utility.yul\":3047:3054   */\n      dup6\n        /* \"#utility.yul\":3043:3066   */\n      sub\n        /* \"#utility.yul\":3039:3071   */\n      slt\n        /* \"#utility.yul\":3036:3088   */\n      iszero\n      tag_731\n      jumpi\n        /* \"#utility.yul\":3084:3085   */\n      0x00\n        /* \"#utility.yul\":3081:3082   */\n      dup1\n        /* \"#utility.yul\":3074:3086   */\n      revert\n        /* \"#utility.yul\":3036:3088   */\n    tag_731:\n      pop\n      pop\n        /* \"#utility.yul\":3107:3130   */\n      dup1\n      calldataload\n      swap3\n        /* \"#utility.yul\":3177:3179   */\n      0x20\n        /* \"#utility.yul\":3162:3180   */\n      swap1\n      swap2\n      add\n        /* \"#utility.yul\":3149:3181   */\n      calldataload\n      swap2\n      pop\n        /* \"#utility.yul\":2939:3187   */\n      jump\t// out\n        /* \"#utility.yul\":3494:3621   */\n    tag_337:\n        /* \"#utility.yul\":3555:3565   */\n      0x4e487b71\n        /* \"#utility.yul\":3550:3553   */\n      0xe0\n        /* \"#utility.yul\":3546:3566   */\n      shl\n        /* \"#utility.yul\":3543:3544   */\n      0x00\n        /* \"#utility.yul\":3536:3567   */\n      mstore\n        /* \"#utility.yul\":3586:3590   */\n      0x41\n        /* \"#utility.yul\":3583:3584   */\n      0x04\n        /* \"#utility.yul\":3576:3591   */\n      mstore\n        /* \"#utility.yul\":3610:3614   */\n      0x24\n        /* \"#utility.yul\":3607:3608   */\n      0x00\n        /* \"#utility.yul\":3600:3615   */\n      revert\n        /* \"#utility.yul\":3626:3875   */\n    tag_692:\n        /* \"#utility.yul\":3736:3738   */\n      0x1f\n        /* \"#utility.yul\":3717:3730   */\n      dup3\n      add\n      not(0x1f)\n        /* \"#utility.yul\":3713:3740   */\n      and\n        /* \"#utility.yul\":3701:3741   */\n      dup2\n      add\n        /* \"#utility.yul\":3771:3789   */\n      0xffffffffffffffff\n        /* \"#utility.yul\":3756:3790   */\n      dup2\n      gt\n        /* \"#utility.yul\":3792:3814   */\n      dup3\n      dup3\n      lt\n        /* \"#utility.yul\":3753:3815   */\n      or\n        /* \"#utility.yul\":3750:3838   */\n      iszero\n      tag_736\n      jumpi\n        /* \"#utility.yul\":3818:3836   */\n      tag_736\n      tag_337\n      jump\t// in\n    tag_736:\n        /* \"#utility.yul\":3854:3856   */\n      0x40\n        /* \"#utility.yul\":3847:3869   */\n      mstore\n      pop\n      pop\n        /* \"#utility.yul\":3626:3875   */\n      jump\t// out\n        /* \"#utility.yul\":3880:4063   */\n    tag_693:\n        /* \"#utility.yul\":3940:3944   */\n      0x00\n        /* \"#utility.yul\":3973:3991   */\n      0xffffffffffffffff\n        /* \"#utility.yul\":3965:3971   */\n      dup3\n        /* \"#utility.yul\":3962:3992   */\n      gt\n        /* \"#utility.yul\":3959:4015   */\n      iszero\n      tag_739\n      jumpi\n        /* \"#utility.yul\":3995:4013   */\n      tag_739\n      tag_337\n      jump\t// in\n    tag_739:\n      pop\n        /* \"#utility.yul\":4040:4041   */\n      0x05\n        /* \"#utility.yul\":4036:4050   */\n      shl\n        /* \"#utility.yul\":4052:4056   */\n      0x20\n        /* \"#utility.yul\":4032:4057   */\n      add\n      swap1\n        /* \"#utility.yul\":3880:4063   */\n      jump\t// out\n        /* \"#utility.yul\":4068:4792   */\n    tag_694:\n        /* \"#utility.yul\":4122:4127   */\n      0x00\n        /* \"#utility.yul\":4175:4178   */\n      dup3\n        /* \"#utility.yul\":4168:4172   */\n      0x1f\n        /* \"#utility.yul\":4160:4166   */\n      dup4\n        /* \"#utility.yul\":4156:4173   */\n      add\n        /* \"#utility.yul\":4152:4179   */\n      slt\n        /* \"#utility.yul\":4142:4197   */\n      tag_741\n      jumpi\n        /* \"#utility.yul\":4193:4194   */\n      0x00\n        /* \"#utility.yul\":4190:4191   */\n      dup1\n        /* \"#utility.yul\":4183:4195   */\n      revert\n        /* \"#utility.yul\":4142:4197   */\n    tag_741:\n        /* \"#utility.yul\":4229:4235   */\n      dup2\n        /* \"#utility.yul\":4216:4236   */\n      calldataload\n        /* \"#utility.yul\":4255:4259   */\n      0x20\n        /* \"#utility.yul\":4278:4321   */\n      tag_742\n        /* \"#utility.yul\":4318:4320   */\n      dup3\n        /* \"#utility.yul\":4278:4321   */\n      tag_693\n      jump\t// in\n    tag_742:\n        /* \"#utility.yul\":4350:4352   */\n      0x40\n        /* \"#utility.yul\":4344:4353   */\n      mload\n        /* \"#utility.yul\":4362:4393   */\n      tag_743\n        /* \"#utility.yul\":4390:4392   */\n      dup3\n        /* \"#utility.yul\":4382:4388   */\n      dup3\n        /* \"#utility.yul\":4362:4393   */\n      tag_692\n      jump\t// in\n    tag_743:\n        /* \"#utility.yul\":4428:4446   */\n      dup4\n      dup2\n      mstore\n        /* \"#utility.yul\":4520:4521   */\n      0x05\n        /* \"#utility.yul\":4516:4526   */\n      swap4\n      swap1\n      swap4\n      shl\n        /* \"#utility.yul\":4504:4527   */\n      dup6\n      add\n        /* \"#utility.yul\":4500:4532   */\n      dup3\n      add\n      swap3\n        /* \"#utility.yul\":4462:4477   */\n      dup3\n      dup2\n      add\n      swap2\n      pop\n        /* \"#utility.yul\":4544:4559   */\n      dup7\n      dup5\n      gt\n        /* \"#utility.yul\":4541:4576   */\n      iszero\n      tag_744\n      jumpi\n        /* \"#utility.yul\":4572:4573   */\n      0x00\n        /* \"#utility.yul\":4569:4570   */\n      dup1\n        /* \"#utility.yul\":4562:4574   */\n      revert\n        /* \"#utility.yul\":4541:4576   */\n    tag_744:\n        /* \"#utility.yul\":4608:4610   */\n      dup3\n        /* \"#utility.yul\":4600:4606   */\n      dup7\n        /* \"#utility.yul\":4596:4611   */\n      add\n        /* \"#utility.yul\":4620:4762   */\n    tag_745:\n        /* \"#utility.yul\":4636:4642   */\n      dup5\n        /* \"#utility.yul\":4631:4634   */\n      dup2\n        /* \"#utility.yul\":4628:4643   */\n      lt\n        /* \"#utility.yul\":4620:4762   */\n      iszero\n      tag_747\n      jumpi\n        /* \"#utility.yul\":4702:4719   */\n      dup1\n      calldataload\n        /* \"#utility.yul\":4690:4720   */\n      dup4\n      mstore\n        /* \"#utility.yul\":4740:4752   */\n      swap2\n      dup4\n      add\n      swap2\n        /* \"#utility.yul\":4653:4665   */\n      dup4\n      add\n        /* \"#utility.yul\":4620:4762   */\n      jump(tag_745)\n    tag_747:\n      pop\n        /* \"#utility.yul\":4780:4786   */\n      swap7\n        /* \"#utility.yul\":4068:4792   */\n      swap6\n      pop\n      pop\n      pop\n      pop\n      pop\n      pop\n      jump\t// out\n        /* \"#utility.yul\":4797:5352   */\n    tag_695:\n        /* \"#utility.yul\":4839:4844   */\n      0x00\n        /* \"#utility.yul\":4892:4895   */\n      dup3\n        /* \"#utility.yul\":4885:4889   */\n      0x1f\n        /* \"#utility.yul\":4877:4883   */\n      dup4\n        /* \"#utility.yul\":4873:4890   */\n      add\n        /* \"#utility.yul\":4869:4896   */\n      slt\n        /* \"#utility.yul\":4859:4914   */\n      tag_749\n      jumpi\n        /* \"#utility.yul\":4910:4911   */\n      0x00\n        /* \"#utility.yul\":4907:4908   */\n      dup1\n        /* \"#utility.yul\":4900:4912   */\n      revert\n        /* \"#utility.yul\":4859:4914   */\n    tag_749:\n        /* \"#utility.yul\":4946:4952   */\n      dup2\n        /* \"#utility.yul\":4933:4953   */\n      calldataload\n        /* \"#utility.yul\":4972:4990   */\n      0xffffffffffffffff\n        /* \"#utility.yul\":4968:4970   */\n      dup2\n        /* \"#utility.yul\":4965:4991   */\n      gt\n        /* \"#utility.yul\":4962:5014   */\n      iszero\n      tag_751\n      jumpi\n        /* \"#utility.yul\":4994:5012   */\n      tag_751\n      tag_337\n      jump\t// in\n    tag_751:\n        /* \"#utility.yul\":5043:5045   */\n      0x40\n        /* \"#utility.yul\":5037:5046   */\n      mload\n        /* \"#utility.yul\":5055:5122   */\n      tag_752\n        /* \"#utility.yul\":5110:5112   */\n      0x1f\n        /* \"#utility.yul\":5091:5104   */\n      dup4\n      add\n      not(0x1f)\n        /* \"#utility.yul\":5087:5114   */\n      and\n        /* \"#utility.yul\":5116:5120   */\n      0x20\n        /* \"#utility.yul\":5083:5121   */\n      add\n        /* \"#utility.yul\":5037:5046   */\n      dup3\n        /* \"#utility.yul\":5055:5122   */\n      tag_692\n      jump\t// in\n    tag_752:\n        /* \"#utility.yul\":5146:5148   */\n      dup2\n        /* \"#utility.yul\":5138:5144   */\n      dup2\n        /* \"#utility.yul\":5131:5149   */\n      mstore\n        /* \"#utility.yul\":5192:5195   */\n      dup5\n        /* \"#utility.yul\":5185:5189   */\n      0x20\n        /* \"#utility.yul\":5180:5182   */\n      dup4\n        /* \"#utility.yul\":5172:5178   */\n      dup7\n        /* \"#utility.yul\":5168:5183   */\n      add\n        /* \"#utility.yul\":5164:5190   */\n      add\n        /* \"#utility.yul\":5161:5196   */\n      gt\n        /* \"#utility.yul\":5158:5213   */\n      iszero\n      tag_753\n      jumpi\n        /* \"#utility.yul\":5209:5210   */\n      0x00\n        /* \"#utility.yul\":5206:5207   */\n      dup1\n        /* \"#utility.yul\":5199:5211   */\n      revert\n        /* \"#utility.yul\":5158:5213   */\n    tag_753:\n        /* \"#utility.yul\":5273:5275   */\n      dup2\n        /* \"#utility.yul\":5266:5270   */\n      0x20\n        /* \"#utility.yul\":5258:5264   */\n      dup6\n        /* \"#utility.yul\":5254:5271   */\n      add\n        /* \"#utility.yul\":5247:5251   */\n      0x20\n        /* \"#utility.yul\":5239:5245   */\n      dup4\n        /* \"#utility.yul\":5235:5252   */\n      add\n        /* \"#utility.yul\":5222:5276   */\n      calldatacopy\n        /* \"#utility.yul\":5320:5321   */\n      0x00\n        /* \"#utility.yul\":5296:5311   */\n      swap2\n      dup2\n      add\n        /* \"#utility.yul\":5313:5317   */\n      0x20\n        /* \"#utility.yul\":5292:5318   */\n      add\n        /* \"#utility.yul\":5285:5322   */\n      swap2\n      swap1\n      swap2\n      mstore\n        /* \"#utility.yul\":5300:5306   */\n      swap4\n        /* \"#utility.yul\":4797:5352   */\n      swap3\n      pop\n      pop\n      pop\n      jump\t// out\n        /* \"#utility.yul\":5357:6300   */\n    tag_97:\n        /* \"#utility.yul\":5511:5517   */\n      0x00\n        /* \"#utility.yul\":5519:5525   */\n      dup1\n        /* \"#utility.yul\":5527:5533   */\n      0x00\n        /* \"#utility.yul\":5535:5541   */\n      dup1\n        /* \"#utility.yul\":5543:5549   */\n      0x00\n        /* \"#utility.yul\":5596:5599   */\n      0xa0\n        /* \"#utility.yul\":5584:5593   */\n      dup7\n        /* \"#utility.yul\":5575:5582   */\n      dup9\n        /* \"#utility.yul\":5571:5594   */\n      sub\n        /* \"#utility.yul\":5567:5600   */\n      slt\n        /* \"#utility.yul\":5564:5617   */\n      iszero\n      tag_755\n      jumpi\n        /* \"#utility.yul\":5613:5614   */\n      0x00\n        /* \"#utility.yul\":5610:5611   */\n      dup1\n        /* \"#utility.yul\":5603:5615   */\n      revert\n        /* \"#utility.yul\":5564:5617   */\n    tag_755:\n        /* \"#utility.yul\":5636:5665   */\n      tag_756\n        /* \"#utility.yul\":5655:5664   */\n      dup7\n        /* \"#utility.yul\":5636:5665   */\n      tag_688\n      jump\t// in\n    tag_756:\n        /* \"#utility.yul\":5626:5665   */\n      swap5\n      pop\n        /* \"#utility.yul\":5684:5722   */\n      tag_757\n        /* \"#utility.yul\":5718:5720   */\n      0x20\n        /* \"#utility.yul\":5707:5716   */\n      dup8\n        /* \"#utility.yul\":5703:5721   */\n      add\n        /* \"#utility.yul\":5684:5722   */\n      tag_688\n      jump\t// in\n    tag_757:\n        /* \"#utility.yul\":5674:5722   */\n      swap4\n      pop\n        /* \"#utility.yul\":5773:5775   */\n      0x40\n        /* \"#utility.yul\":5762:5771   */\n      dup7\n        /* \"#utility.yul\":5758:5776   */\n      add\n        /* \"#utility.yul\":5745:5777   */\n      calldataload\n        /* \"#utility.yul\":5796:5814   */\n      0xffffffffffffffff\n        /* \"#utility.yul\":5837:5839   */\n      dup1\n        /* \"#utility.yul\":5829:5835   */\n      dup3\n        /* \"#utility.yul\":5826:5840   */\n      gt\n        /* \"#utility.yul\":5823:5857   */\n      iszero\n      tag_758\n      jumpi\n        /* \"#utility.yul\":5853:5854   */\n      0x00\n        /* \"#utility.yul\":5850:5851   */\n      dup1\n        /* \"#utility.yul\":5843:5855   */\n      revert\n        /* \"#utility.yul\":5823:5857   */\n    tag_758:\n        /* \"#utility.yul\":5876:5937   */\n      tag_759\n        /* \"#utility.yul\":5929:5936   */\n      dup10\n        /* \"#utility.yul\":5920:5926   */\n      dup4\n        /* \"#utility.yul\":5909:5918   */\n      dup11\n        /* \"#utility.yul\":5905:5927   */\n      add\n        /* \"#utility.yul\":5876:5937   */\n      tag_694\n      jump\t// in\n    tag_759:\n        /* \"#utility.yul\":5866:5937   */\n      swap5\n      pop\n        /* \"#utility.yul\":5990:5992   */\n      0x60\n        /* \"#utility.yul\":5979:5988   */\n      dup9\n        /* \"#utility.yul\":5975:5993   */\n      add\n        /* \"#utility.yul\":5962:5994   */\n      calldataload\n        /* \"#utility.yul\":5946:5994   */\n      swap2\n      pop\n        /* \"#utility.yul\":6019:6021   */\n      dup1\n        /* \"#utility.yul\":6009:6017   */\n      dup3\n        /* \"#utility.yul\":6006:6022   */\n      gt\n        /* \"#utility.yul\":6003:6039   */\n      iszero\n      tag_760\n      jumpi\n        /* \"#utility.yul\":6035:6036   */\n      0x00\n        /* \"#utility.yul\":6032:6033   */\n      dup1\n        /* \"#utility.yul\":6025:6037   */\n      revert\n        /* \"#utility.yul\":6003:6039   */\n    tag_760:\n        /* \"#utility.yul\":6058:6121   */\n      tag_761\n        /* \"#utility.yul\":6113:6120   */\n      dup10\n        /* \"#utility.yul\":6102:6110   */\n      dup4\n        /* \"#utility.yul\":6091:6100   */\n      dup11\n        /* \"#utility.yul\":6087:6111   */\n      add\n        /* \"#utility.yul\":6058:6121   */\n      tag_694\n      jump\t// in\n    tag_761:\n        /* \"#utility.yul\":6048:6121   */\n      swap4\n      pop\n        /* \"#utility.yul\":6174:6177   */\n      0x80\n        /* \"#utility.yul\":6163:6172   */\n      dup9\n        /* \"#utility.yul\":6159:6178   */\n      add\n        /* \"#utility.yul\":6146:6179   */\n      calldataload\n        /* \"#utility.yul\":6130:6179   */\n      swap2\n      pop\n        /* \"#utility.yul\":6204:6206   */\n      dup1\n        /* \"#utility.yul\":6194:6202   */\n      dup3\n        /* \"#utility.yul\":6191:6207   */\n      gt\n        /* \"#utility.yul\":6188:6224   */\n      iszero\n      tag_762\n      jumpi\n        /* \"#utility.yul\":6220:6221   */\n      0x00\n        /* \"#utility.yul\":6217:6218   */\n      dup1\n        /* \"#utility.yul\":6210:6222   */\n      revert\n        /* \"#utility.yul\":6188:6224   */\n    tag_762:\n      pop\n        /* \"#utility.yul\":6243:6294   */\n      tag_763\n        /* \"#utility.yul\":6286:6293   */\n      dup9\n        /* \"#utility.yul\":6275:6283   */\n      dup3\n        /* \"#utility.yul\":6264:6273   */\n      dup10\n        /* \"#utility.yul\":6260:6284   */\n      add\n        /* \"#utility.yul\":6243:6294   */\n      tag_695\n      jump\t// in\n    tag_763:\n        /* \"#utility.yul\":6233:6294   */\n      swap2\n      pop\n      pop\n        /* \"#utility.yul\":5357:6300   */\n      swap3\n      swap6\n      pop\n      swap3\n      swap6\n      swap1\n      swap4\n      pop\n      jump\t// out\n        /* \"#utility.yul\":6305:6559   */\n    tag_102:\n        /* \"#utility.yul\":6373:6379   */\n      0x00\n        /* \"#utility.yul\":6381:6387   */\n      dup1\n        /* \"#utility.yul\":6434:6436   */\n      0x40\n        /* \"#utility.yul\":6422:6431   */\n      dup4\n        /* \"#utility.yul\":6413:6420   */\n      dup6\n        /* \"#utility.yul\":6409:6432   */\n      sub\n        /* \"#utility.yul\":6405:6437   */\n      slt\n        /* \"#utility.yul\":6402:6454   */\n      iszero\n      tag_765\n      jumpi\n        /* \"#utility.yul\":6450:6451   */\n      0x00\n        /* \"#utility.yul\":6447:6448   */\n      dup1\n        /* \"#utility.yul\":6440:6452   */\n      revert\n        /* \"#utility.yul\":6402:6454   */\n    tag_765:\n        /* \"#utility.yul\":6486:6495   */\n      dup3\n        /* \"#utility.yul\":6473:6496   */\n      calldataload\n        /* \"#utility.yul\":6463:6496   */\n      swap2\n      pop\n        /* \"#utility.yul\":6515:6553   */\n      tag_766\n        /* \"#utility.yul\":6549:6551   */\n      0x20\n        /* \"#utility.yul\":6538:6547   */\n      dup5\n        /* \"#utility.yul\":6534:6552   */\n      add\n        /* \"#utility.yul\":6515:6553   */\n      tag_688\n      jump\t// in\n    tag_766:\n        /* \"#utility.yul\":6505:6553   */\n      swap1\n      pop\n        /* \"#utility.yul\":6305:6559   */\n      swap3\n      pop\n      swap3\n      swap1\n      pop\n      jump\t// out\n        /* \"#utility.yul\":6564:7253   */\n    tag_118:\n        /* \"#utility.yul\":6681:6687   */\n      0x00\n        /* \"#utility.yul\":6689:6695   */\n      dup1\n        /* \"#utility.yul\":6697:6703   */\n      0x00\n        /* \"#utility.yul\":6705:6711   */\n      dup1\n        /* \"#utility.yul\":6713:6719   */\n      0x00\n        /* \"#utility.yul\":6766:6769   */\n      0xa0\n        /* \"#utility.yul\":6754:6763   */\n      dup7\n        /* \"#utility.yul\":6745:6752   */\n      dup9\n        /* \"#utility.yul\":6741:6764   */\n      sub\n        /* \"#utility.yul\":6737:6770   */\n      slt\n        /* \"#utility.yul\":6734:6787   */\n      iszero\n      tag_768\n      jumpi\n        /* \"#utility.yul\":6783:6784   */\n      0x00\n        /* \"#utility.yul\":6780:6781   */\n      dup1\n        /* \"#utility.yul\":6773:6785   */\n      revert\n        /* \"#utility.yul\":6734:6787   */\n    tag_768:\n        /* \"#utility.yul\":6822:6831   */\n      dup6\n        /* \"#utility.yul\":6809:6832   */\n      calldataload\n        /* \"#utility.yul\":6861:6862   */\n      0x02\n        /* \"#utility.yul\":6854:6859   */\n      dup2\n        /* \"#utility.yul\":6851:6863   */\n      lt\n        /* \"#utility.yul\":6841:6881   */\n      tag_769\n      jumpi\n        /* \"#utility.yul\":6877:6878   */\n      0x00\n        /* \"#utility.yul\":6874:6875   */\n      dup1\n        /* \"#utility.yul\":6867:6879   */\n      revert\n        /* \"#utility.yul\":6841:6881   */\n    tag_769:\n        /* \"#utility.yul\":6900:6905   */\n      swap5\n      pop\n        /* \"#utility.yul\":6924:6962   */\n      tag_770\n        /* \"#utility.yul\":6958:6960   */\n      0x20\n        /* \"#utility.yul\":6943:6961   */\n      dup8\n      add\n        /* \"#utility.yul\":6924:6962   */\n      tag_688\n      jump\t// in\n    tag_770:\n        /* \"#utility.yul\":6914:6962   */\n      swap4\n      pop\n        /* \"#utility.yul\":7009:7011   */\n      0x40\n        /* \"#utility.yul\":6998:7007   */\n      dup7\n        /* \"#utility.yul\":6994:7012   */\n      add\n        /* \"#utility.yul\":6981:7013   */\n      calldataload\n        /* \"#utility.yul\":6971:7013   */\n      swap3\n      pop\n        /* \"#utility.yul\":7060:7062   */\n      0x60\n        /* \"#utility.yul\":7049:7058   */\n      dup7\n        /* \"#utility.yul\":7045:7063   */\n      add\n        /* \"#utility.yul\":7032:7064   */\n      calldataload\n        /* \"#utility.yul\":7022:7064   */\n      swap2\n      pop\n        /* \"#utility.yul\":7115:7118   */\n      0x80\n        /* \"#utility.yul\":7104:7113   */\n      dup7\n        /* \"#utility.yul\":7100:7119   */\n      add\n        /* \"#utility.yul\":7087:7120   */\n      calldataload\n        /* \"#utility.yul\":7143:7161   */\n      0xffffffffffffffff\n        /* \"#utility.yul\":7135:7141   */\n      dup2\n        /* \"#utility.yul\":7132:7162   */\n      gt\n        /* \"#utility.yul\":7129:7179   */\n      iszero\n      tag_771\n      jumpi\n        /* \"#utility.yul\":7175:7176   */\n      0x00\n        /* \"#utility.yul\":7172:7173   */\n      dup1\n        /* \"#utility.yul\":7165:7177   */\n      revert\n        /* \"#utility.yul\":7129:7179   */\n    tag_771:\n        /* \"#utility.yul\":7198:7247   */\n      tag_763\n        /* \"#utility.yul\":7239:7246   */\n      dup9\n        /* \"#utility.yul\":7230:7236   */\n      dup3\n        /* \"#utility.yul\":7219:7228   */\n      dup10\n        /* \"#utility.yul\":7215:7237   */\n      add\n        /* \"#utility.yul\":7198:7247   */\n      tag_695\n      jump\t// in\n        /* \"#utility.yul\":7258:8466   */\n    tag_123:\n        /* \"#utility.yul\":7376:7382   */\n      0x00\n        /* \"#utility.yul\":7384:7390   */\n      dup1\n        /* \"#utility.yul\":7437:7439   */\n      0x40\n        /* \"#utility.yul\":7425:7434   */\n      dup4\n        /* \"#utility.yul\":7416:7423   */\n      dup6\n        /* \"#utility.yul\":7412:7435   */\n      sub\n        /* \"#utility.yul\":7408:7440   */\n      slt\n        /* \"#utility.yul\":7405:7457   */\n      iszero\n      tag_774\n      jumpi\n        /* \"#utility.yul\":7453:7454   */\n      0x00\n        /* \"#utility.yul\":7450:7451   */\n      dup1\n        /* \"#utility.yul\":7443:7455   */\n      revert\n        /* \"#utility.yul\":7405:7457   */\n    tag_774:\n        /* \"#utility.yul\":7493:7502   */\n      dup3\n        /* \"#utility.yul\":7480:7503   */\n      calldataload\n        /* \"#utility.yul\":7522:7540   */\n      0xffffffffffffffff\n        /* \"#utility.yul\":7563:7565   */\n      dup1\n        /* \"#utility.yul\":7555:7561   */\n      dup3\n        /* \"#utility.yul\":7552:7566   */\n      gt\n        /* \"#utility.yul\":7549:7583   */\n      iszero\n      tag_775\n      jumpi\n        /* \"#utility.yul\":7579:7580   */\n      0x00\n        /* \"#utility.yul\":7576:7577   */\n      dup1\n        /* \"#utility.yul\":7569:7581   */\n      revert\n        /* \"#utility.yul\":7549:7583   */\n    tag_775:\n        /* \"#utility.yul\":7617:7623   */\n      dup2\n        /* \"#utility.yul\":7606:7615   */\n      dup6\n        /* \"#utility.yul\":7602:7624   */\n      add\n        /* \"#utility.yul\":7592:7624   */\n      swap2\n      pop\n        /* \"#utility.yul\":7662:7669   */\n      dup6\n        /* \"#utility.yul\":7655:7659   */\n      0x1f\n        /* \"#utility.yul\":7651:7653   */\n      dup4\n        /* \"#utility.yul\":7647:7660   */\n      add\n        /* \"#utility.yul\":7643:7670   */\n      slt\n        /* \"#utility.yul\":7633:7688   */\n      tag_776\n      jumpi\n        /* \"#utility.yul\":7684:7685   */\n      0x00\n        /* \"#utility.yul\":7681:7682   */\n      dup1\n        /* \"#utility.yul\":7674:7686   */\n      revert\n        /* \"#utility.yul\":7633:7688   */\n    tag_776:\n        /* \"#utility.yul\":7720:7722   */\n      dup2\n        /* \"#utility.yul\":7707:7723   */\n      calldataload\n        /* \"#utility.yul\":7742:7746   */\n      0x20\n        /* \"#utility.yul\":7765:7808   */\n      tag_777\n        /* \"#utility.yul\":7805:7807   */\n      dup3\n        /* \"#utility.yul\":7765:7808   */\n      tag_693\n      jump\t// in\n    tag_777:\n        /* \"#utility.yul\":7837:7839   */\n      0x40\n        /* \"#utility.yul\":7831:7840   */\n      mload\n        /* \"#utility.yul\":7849:7880   */\n      tag_778\n        /* \"#utility.yul\":7877:7879   */\n      dup3\n        /* \"#utility.yul\":7869:7875   */\n      dup3\n        /* \"#utility.yul\":7849:7880   */\n      tag_692\n      jump\t// in\n    tag_778:\n        /* \"#utility.yul\":7915:7933   */\n      dup4\n      dup2\n      mstore\n        /* \"#utility.yul\":8003:8004   */\n      0x05\n        /* \"#utility.yul\":7999:8009   */\n      swap4\n      swap1\n      swap4\n      shl\n        /* \"#utility.yul\":7991:8010   */\n      dup6\n      add\n        /* \"#utility.yul\":7987:8015   */\n      dup3\n      add\n      swap3\n        /* \"#utility.yul\":7949:7964   */\n      dup3\n      dup2\n      add\n      swap2\n      pop\n        /* \"#utility.yul\":8027:8046   */\n      dup10\n      dup5\n      gt\n        /* \"#utility.yul\":8024:8063   */\n      iszero\n      tag_779\n      jumpi\n        /* \"#utility.yul\":8059:8060   */\n      0x00\n        /* \"#utility.yul\":8056:8057   */\n      dup1\n        /* \"#utility.yul\":8049:8061   */\n      revert\n        /* \"#utility.yul\":8024:8063   */\n    tag_779:\n        /* \"#utility.yul\":8083:8094   */\n      swap5\n      dup3\n      add\n      swap5\n        /* \"#utility.yul\":8103:8251   */\n    tag_780:\n        /* \"#utility.yul\":8119:8125   */\n      dup4\n        /* \"#utility.yul\":8114:8117   */\n      dup7\n        /* \"#utility.yul\":8111:8126   */\n      lt\n        /* \"#utility.yul\":8103:8251   */\n      iszero\n      tag_782\n      jumpi\n        /* \"#utility.yul\":8185:8208   */\n      tag_783\n        /* \"#utility.yul\":8204:8207   */\n      dup7\n        /* \"#utility.yul\":8185:8208   */\n      tag_688\n      jump\t// in\n    tag_783:\n        /* \"#utility.yul\":8173:8209   */\n      dup3\n      mstore\n        /* \"#utility.yul\":8136:8148   */\n      swap5\n      dup3\n      add\n      swap5\n        /* \"#utility.yul\":8229:8241   */\n      swap1\n      dup3\n      add\n      swap1\n        /* \"#utility.yul\":8103:8251   */\n      jump(tag_780)\n    tag_782:\n        /* \"#utility.yul\":8270:8276   */\n      swap7\n      pop\n      pop\n        /* \"#utility.yul\":8314:8332   */\n      dup7\n      add\n        /* \"#utility.yul\":8301:8333   */\n      calldataload\n      swap3\n      pop\n      pop\n        /* \"#utility.yul\":8345:8361   */\n      dup1\n      dup3\n      gt\n        /* \"#utility.yul\":8342:8378   */\n      iszero\n      tag_784\n      jumpi\n        /* \"#utility.yul\":8374:8375   */\n      0x00\n        /* \"#utility.yul\":8371:8372   */\n      dup1\n        /* \"#utility.yul\":8364:8376   */\n      revert\n        /* \"#utility.yul\":8342:8378   */\n    tag_784:\n      pop\n        /* \"#utility.yul\":8397:8460   */\n      tag_281\n        /* \"#utility.yul\":8452:8459   */\n      dup6\n        /* \"#utility.yul\":8441:8449   */\n      dup3\n        /* \"#utility.yul\":8430:8439   */\n      dup7\n        /* \"#utility.yul\":8426:8450   */\n      add\n        /* \"#utility.yul\":8397:8460   */\n      tag_694\n      jump\t// in\n        /* \"#utility.yul\":8471:8906   */\n    tag_696:\n        /* \"#utility.yul\":8524:8527   */\n      0x00\n        /* \"#utility.yul\":8562:8567   */\n      dup2\n        /* \"#utility.yul\":8556:8568   */\n      mload\n        /* \"#utility.yul\":8589:8595   */\n      dup1\n        /* \"#utility.yul\":8584:8587   */\n      dup5\n        /* \"#utility.yul\":8577:8596   */\n      mstore\n        /* \"#utility.yul\":8615:8619   */\n      0x20\n        /* \"#utility.yul\":8644:8646   */\n      dup1\n        /* \"#utility.yul\":8639:8642   */\n      dup6\n        /* \"#utility.yul\":8635:8647   */\n      add\n        /* \"#utility.yul\":8628:8647   */\n      swap5\n      pop\n        /* \"#utility.yul\":8681:8683   */\n      dup1\n        /* \"#utility.yul\":8674:8679   */\n      dup5\n        /* \"#utility.yul\":8670:8684   */\n      add\n        /* \"#utility.yul\":8702:8703   */\n      0x00\n        /* \"#utility.yul\":8712:8881   */\n    tag_787:\n        /* \"#utility.yul\":8726:8732   */\n      dup4\n        /* \"#utility.yul\":8723:8724   */\n      dup2\n        /* \"#utility.yul\":8720:8733   */\n      lt\n        /* \"#utility.yul\":8712:8881   */\n      iszero\n      tag_789\n      jumpi\n        /* \"#utility.yul\":8787:8800   */\n      dup2\n      mload\n        /* \"#utility.yul\":8775:8801   */\n      dup8\n      mstore\n        /* \"#utility.yul\":8821:8833   */\n      swap6\n      dup3\n      add\n      swap6\n        /* \"#utility.yul\":8856:8871   */\n      swap1\n      dup3\n      add\n      swap1\n        /* \"#utility.yul\":8748:8749   */\n      0x01\n        /* \"#utility.yul\":8741:8750   */\n      add\n        /* \"#utility.yul\":8712:8881   */\n      jump(tag_787)\n    tag_789:\n      pop\n        /* \"#utility.yul\":8897:8900   */\n      swap5\n      swap6\n        /* \"#utility.yul\":8471:8906   */\n      swap5\n      pop\n      pop\n      pop\n      pop\n      pop\n      jump\t// out\n        /* \"#utility.yul\":8911:9172   */\n    tag_126:\n        /* \"#utility.yul\":9090:9092   */\n      0x20\n        /* \"#utility.yul\":9079:9088   */\n      dup2\n        /* \"#utility.yul\":9072:9093   */\n      mstore\n        /* \"#utility.yul\":9053:9057   */\n      0x00\n        /* \"#utility.yul\":9110:9166   */\n      tag_675\n        /* \"#utility.yul\":9162:9164   */\n      0x20\n        /* \"#utility.yul\":9151:9160   */\n      dup4\n        /* \"#utility.yul\":9147:9165   */\n      add\n        /* \"#utility.yul\":9139:9145   */\n      dup5\n        /* \"#utility.yul\":9110:9166   */\n      tag_696\n      jump\t// in\n        /* \"#utility.yul\":9177:9498   */\n    tag_130:\n        /* \"#utility.yul\":9246:9252   */\n      0x00\n        /* \"#utility.yul\":9299:9301   */\n      0x20\n        /* \"#utility.yul\":9287:9296   */\n      dup3\n        /* \"#utility.yul\":9278:9285   */\n      dup5\n        /* \"#utility.yul\":9274:9297   */\n      sub\n        /* \"#utility.yul\":9270:9302   */\n      slt\n        /* \"#utility.yul\":9267:9319   */\n      iszero\n      tag_793\n      jumpi\n        /* \"#utility.yul\":9315:9316   */\n      0x00\n        /* \"#utility.yul\":9312:9313   */\n      dup1\n        /* \"#utility.yul\":9305:9317   */\n      revert\n        /* \"#utility.yul\":9267:9319   */\n    tag_793:\n        /* \"#utility.yul\":9355:9364   */\n      dup2\n        /* \"#utility.yul\":9342:9365   */\n      calldataload\n        /* \"#utility.yul\":9388:9406   */\n      0xffffffffffffffff\n        /* \"#utility.yul\":9380:9386   */\n      dup2\n        /* \"#utility.yul\":9377:9407   */\n      gt\n        /* \"#utility.yul\":9374:9424   */\n      iszero\n      tag_794\n      jumpi\n        /* \"#utility.yul\":9420:9421   */\n      0x00\n        /* \"#utility.yul\":9417:9418   */\n      dup1\n        /* \"#utility.yul\":9410:9422   */\n      revert\n        /* \"#utility.yul\":9374:9424   */\n    tag_794:\n        /* \"#utility.yul\":9443:9492   */\n      tag_795\n        /* \"#utility.yul\":9484:9491   */\n      dup5\n        /* \"#utility.yul\":9475:9481   */\n      dup3\n        /* \"#utility.yul\":9464:9473   */\n      dup6\n        /* \"#utility.yul\":9460:9482   */\n      add\n        /* \"#utility.yul\":9443:9492   */\n      tag_695\n      jump\t// in\n    tag_795:\n        /* \"#utility.yul\":9433:9492   */\n      swap5\n        /* \"#utility.yul\":9177:9498   */\n      swap4\n      pop\n      pop\n      pop\n      pop\n      jump\t// out\n        /* \"#utility.yul\":9503:10172   */\n    tag_139:\n        /* \"#utility.yul\":9630:9636   */\n      0x00\n        /* \"#utility.yul\":9638:9644   */\n      dup1\n        /* \"#utility.yul\":9646:9652   */\n      0x00\n        /* \"#utility.yul\":9699:9701   */\n      0x60\n        /* \"#utility.yul\":9687:9696   */\n      dup5\n        /* \"#utility.yul\":9678:9685   */\n      dup7\n        /* \"#utility.yul\":9674:9697   */\n      sub\n        /* \"#utility.yul\":9670:9702   */\n      slt\n        /* \"#utility.yul\":9667:9719   */\n      iszero\n      tag_797\n      jumpi\n        /* \"#utility.yul\":9715:9716   */\n      0x00\n        /* \"#utility.yul\":9712:9713   */\n      dup1\n        /* \"#utility.yul\":9705:9717   */\n      revert\n        /* \"#utility.yul\":9667:9719   */\n    tag_797:\n        /* \"#utility.yul\":9738:9767   */\n      tag_798\n        /* \"#utility.yul\":9757:9766   */\n      dup5\n        /* \"#utility.yul\":9738:9767   */\n      tag_688\n      jump\t// in\n    tag_798:\n        /* \"#utility.yul\":9728:9767   */\n      swap3\n      pop\n        /* \"#utility.yul\":9818:9820   */\n      0x20\n        /* \"#utility.yul\":9807:9816   */\n      dup5\n        /* \"#utility.yul\":9803:9821   */\n      add\n        /* \"#utility.yul\":9790:9822   */\n      calldataload\n        /* \"#utility.yul\":9841:9859   */\n      0xffffffffffffffff\n        /* \"#utility.yul\":9882:9884   */\n      dup1\n        /* \"#utility.yul\":9874:9880   */\n      dup3\n        /* \"#utility.yul\":9871:9885   */\n      gt\n        /* \"#utility.yul\":9868:9902   */\n      iszero\n      tag_799\n      jumpi\n        /* \"#utility.yul\":9898:9899   */\n      0x00\n        /* \"#utility.yul\":9895:9896   */\n      dup1\n        /* \"#utility.yul\":9888:9900   */\n      revert\n        /* \"#utility.yul\":9868:9902   */\n    tag_799:\n        /* \"#utility.yul\":9921:9982   */\n      tag_800\n        /* \"#utility.yul\":9974:9981   */\n      dup8\n        /* \"#utility.yul\":9965:9971   */\n      dup4\n        /* \"#utility.yul\":9954:9963   */\n      dup9\n        /* \"#utility.yul\":9950:9972   */\n      add\n        /* \"#utility.yul\":9921:9982   */\n      tag_694\n      jump\t// in\n    tag_800:\n        /* \"#utility.yul\":9911:9982   */\n      swap4\n      pop\n        /* \"#utility.yul\":10035:10037   */\n      0x40\n        /* \"#utility.yul\":10024:10033   */\n      dup7\n        /* \"#utility.yul\":10020:10038   */\n      add\n        /* \"#utility.yul\":10007:10039   */\n      calldataload\n        /* \"#utility.yul\":9991:10039   */\n      swap2\n      pop\n        /* \"#utility.yul\":10064:10066   */\n      dup1\n        /* \"#utility.yul\":10054:10062   */\n      dup3\n        /* \"#utility.yul\":10051:10067   */\n      gt\n        /* \"#utility.yul\":10048:10084   */\n      iszero\n      tag_801\n      jumpi\n        /* \"#utility.yul\":10080:10081   */\n      0x00\n        /* \"#utility.yul\":10077:10078   */\n      dup1\n        /* \"#utility.yul\":10070:10082   */\n      revert\n        /* \"#utility.yul\":10048:10084   */\n    tag_801:\n      pop\n        /* \"#utility.yul\":10103:10166   */\n      tag_802\n        /* \"#utility.yul\":10158:10165   */\n      dup7\n        /* \"#utility.yul\":10147:10155   */\n      dup3\n        /* \"#utility.yul\":10136:10145   */\n      dup8\n        /* \"#utility.yul\":10132:10156   */\n      add\n        /* \"#utility.yul\":10103:10166   */\n      tag_694\n      jump\t// in\n    tag_802:\n        /* \"#utility.yul\":10093:10166   */\n      swap2\n      pop\n      pop\n        /* \"#utility.yul\":9503:10172   */\n      swap3\n      pop\n      swap3\n      pop\n      swap3\n      jump\t// out\n        /* \"#utility.yul\":10177:10544   */\n    tag_697:\n        /* \"#utility.yul\":10240:10248   */\n      0x00\n        /* \"#utility.yul\":10250:10256   */\n      dup1\n        /* \"#utility.yul\":10304:10307   */\n      dup4\n        /* \"#utility.yul\":10297:10301   */\n      0x1f\n        /* \"#utility.yul\":10289:10295   */\n      dup5\n        /* \"#utility.yul\":10285:10302   */\n      add\n        /* \"#utility.yul\":10281:10308   */\n      slt\n        /* \"#utility.yul\":10271:10326   */\n      tag_804\n      jumpi\n        /* \"#utility.yul\":10322:10323   */\n      0x00\n        /* \"#utility.yul\":10319:10320   */\n      dup1\n        /* \"#utility.yul\":10312:10324   */\n      revert\n        /* \"#utility.yul\":10271:10326   */\n    tag_804:\n      pop\n        /* \"#utility.yul\":10345:10365   */\n      dup2\n      calldataload\n        /* \"#utility.yul\":10388:10406   */\n      0xffffffffffffffff\n        /* \"#utility.yul\":10377:10407   */\n      dup2\n      gt\n        /* \"#utility.yul\":10374:10424   */\n      iszero\n      tag_805\n      jumpi\n        /* \"#utility.yul\":10420:10421   */\n      0x00\n        /* \"#utility.yul\":10417:10418   */\n      dup1\n        /* \"#utility.yul\":10410:10422   */\n      revert\n        /* \"#utility.yul\":10374:10424   */\n    tag_805:\n        /* \"#utility.yul\":10457:10461   */\n      0x20\n        /* \"#utility.yul\":10449:10455   */\n      dup4\n        /* \"#utility.yul\":10445:10462   */\n      add\n        /* \"#utility.yul\":10433:10462   */\n      swap2\n      pop\n        /* \"#utility.yul\":10517:10520   */\n      dup4\n        /* \"#utility.yul\":10510:10514   */\n      0x20\n        /* \"#utility.yul\":10500:10506   */\n      dup3\n        /* \"#utility.yul\":10497:10498   */\n      0x05\n        /* \"#utility.yul\":10493:10507   */\n      shl\n        /* \"#utility.yul\":10485:10491   */\n      dup6\n        /* \"#utility.yul\":10481:10508   */\n      add\n        /* \"#utility.yul\":10477:10515   */\n      add\n        /* \"#utility.yul\":10474:10521   */\n      gt\n        /* \"#utility.yul\":10471:10538   */\n      iszero\n      tag_806\n      jumpi\n        /* \"#utility.yul\":10534:10535   */\n      0x00\n        /* \"#utility.yul\":10531:10532   */\n      dup1\n        /* \"#utility.yul\":10524:10536   */\n      revert\n        /* \"#utility.yul\":10471:10538   */\n    tag_806:\n        /* \"#utility.yul\":10177:10544   */\n      swap3\n      pop\n      swap3\n      swap1\n      pop\n      jump\t// out\n        /* \"#utility.yul\":10549:11396   */\n    tag_156:\n        /* \"#utility.yul\":10680:10686   */\n      0x00\n        /* \"#utility.yul\":10688:10694   */\n      dup1\n        /* \"#utility.yul\":10696:10702   */\n      0x00\n        /* \"#utility.yul\":10704:10710   */\n      dup1\n        /* \"#utility.yul\":10712:10718   */\n      0x00\n        /* \"#utility.yul\":10765:10767   */\n      0x60\n        /* \"#utility.yul\":10753:10762   */\n      dup7\n        /* \"#utility.yul\":10744:10751   */\n      dup9\n        /* \"#utility.yul\":10740:10763   */\n      sub\n        /* \"#utility.yul\":10736:10768   */\n      slt\n        /* \"#utility.yul\":10733:10785   */\n      iszero\n      tag_808\n      jumpi\n        /* \"#utility.yul\":10781:10782   */\n      0x00\n        /* \"#utility.yul\":10778:10779   */\n      dup1\n        /* \"#utility.yul\":10771:10783   */\n      revert\n        /* \"#utility.yul\":10733:10785   */\n    tag_808:\n        /* \"#utility.yul\":10804:10833   */\n      tag_809\n        /* \"#utility.yul\":10823:10832   */\n      dup7\n        /* \"#utility.yul\":10804:10833   */\n      tag_688\n      jump\t// in\n    tag_809:\n        /* \"#utility.yul\":10794:10833   */\n      swap5\n      pop\n        /* \"#utility.yul\":10884:10886   */\n      0x20\n        /* \"#utility.yul\":10873:10882   */\n      dup7\n        /* \"#utility.yul\":10869:10887   */\n      add\n        /* \"#utility.yul\":10856:10888   */\n      calldataload\n        /* \"#utility.yul\":10907:10925   */\n      0xffffffffffffffff\n        /* \"#utility.yul\":10948:10950   */\n      dup1\n        /* \"#utility.yul\":10940:10946   */\n      dup3\n        /* \"#utility.yul\":10937:10951   */\n      gt\n        /* \"#utility.yul\":10934:10968   */\n      iszero\n      tag_810\n      jumpi\n        /* \"#utility.yul\":10964:10965   */\n      0x00\n        /* \"#utility.yul\":10961:10962   */\n      dup1\n        /* \"#utility.yul\":10954:10966   */\n      revert\n        /* \"#utility.yul\":10934:10968   */\n    tag_810:\n        /* \"#utility.yul\":11003:11073   */\n      tag_811\n        /* \"#utility.yul\":11065:11072   */\n      dup10\n        /* \"#utility.yul\":11056:11062   */\n      dup4\n        /* \"#utility.yul\":11045:11054   */\n      dup11\n        /* \"#utility.yul\":11041:11063   */\n      add\n        /* \"#utility.yul\":11003:11073   */\n      tag_697\n      jump\t// in\n    tag_811:\n        /* \"#utility.yul\":11092:11100   */\n      swap1\n      swap7\n      pop\n        /* \"#utility.yul\":10977:11073   */\n      swap5\n      pop\n        /* \"#utility.yul\":11180:11182   */\n      0x40\n        /* \"#utility.yul\":11165:11183   */\n      dup9\n      add\n        /* \"#utility.yul\":11152:11184   */\n      calldataload\n      swap2\n      pop\n        /* \"#utility.yul\":11196:11212   */\n      dup1\n      dup3\n      gt\n        /* \"#utility.yul\":11193:11229   */\n      iszero\n      tag_812\n      jumpi\n        /* \"#utility.yul\":11225:11226   */\n      0x00\n        /* \"#utility.yul\":11222:11223   */\n      dup1\n        /* \"#utility.yul\":11215:11227   */\n      revert\n        /* \"#utility.yul\":11193:11229   */\n    tag_812:\n      pop\n        /* \"#utility.yul\":11264:11336   */\n      tag_813\n        /* \"#utility.yul\":11328:11335   */\n      dup9\n        /* \"#utility.yul\":11317:11325   */\n      dup3\n        /* \"#utility.yul\":11306:11315   */\n      dup10\n        /* \"#utility.yul\":11302:11326   */\n      add\n        /* \"#utility.yul\":11264:11336   */\n      tag_697\n      jump\t// in\n    tag_813:\n        /* \"#utility.yul\":10549:11396   */\n      swap7\n      swap10\n      swap6\n      swap9\n      pop\n      swap4\n      swap7\n      pop\n        /* \"#utility.yul\":11355:11363   */\n      swap3\n      swap5\n        /* \"#utility.yul\":11238:11336   */\n      swap4\n        /* \"#utility.yul\":10549:11396   */\n      swap3\n      pop\n      pop\n      pop\n      jump\t// out\n        /* \"#utility.yul\":11401:11723   */\n    tag_170:\n        /* \"#utility.yul\":11478:11484   */\n      0x00\n        /* \"#utility.yul\":11486:11492   */\n      dup1\n        /* \"#utility.yul\":11494:11500   */\n      0x00\n        /* \"#utility.yul\":11547:11549   */\n      0x60\n        /* \"#utility.yul\":11535:11544   */\n      dup5\n        /* \"#utility.yul\":11526:11533   */\n      dup7\n        /* \"#utility.yul\":11522:11545   */\n      sub\n        /* \"#utility.yul\":11518:11550   */\n      slt\n        /* \"#utility.yul\":11515:11567   */\n      iszero\n      tag_815\n      jumpi\n        /* \"#utility.yul\":11563:11564   */\n      0x00\n        /* \"#utility.yul\":11560:11561   */\n      dup1\n        /* \"#utility.yul\":11553:11565   */\n      revert\n        /* \"#utility.yul\":11515:11567   */\n    tag_815:\n        /* \"#utility.yul\":11599:11608   */\n      dup4\n        /* \"#utility.yul\":11586:11609   */\n      calldataload\n        /* \"#utility.yul\":11576:11609   */\n      swap3\n      pop\n        /* \"#utility.yul\":11628:11666   */\n      tag_816\n        /* \"#utility.yul\":11662:11664   */\n      0x20\n        /* \"#utility.yul\":11651:11660   */\n      dup6\n        /* \"#utility.yul\":11647:11665   */\n      add\n        /* \"#utility.yul\":11628:11666   */\n      tag_688\n      jump\t// in\n    tag_816:\n        /* \"#utility.yul\":11618:11666   */\n      swap2\n      pop\n        /* \"#utility.yul\":11713:11715   */\n      0x40\n        /* \"#utility.yul\":11702:11711   */\n      dup5\n        /* \"#utility.yul\":11698:11716   */\n      add\n        /* \"#utility.yul\":11685:11717   */\n      calldataload\n        /* \"#utility.yul\":11675:11717   */\n      swap1\n      pop\n        /* \"#utility.yul\":11401:11723   */\n      swap3\n      pop\n      swap3\n      pop\n      swap3\n      jump\t// out\n        /* \"#utility.yul\":11728:12075   */\n    tag_179:\n        /* \"#utility.yul\":11793:11799   */\n      0x00\n        /* \"#utility.yul\":11801:11807   */\n      dup1\n        /* \"#utility.yul\":11854:11856   */\n      0x40\n        /* \"#utility.yul\":11842:11851   */\n      dup4\n        /* \"#utility.yul\":11833:11840   */\n      dup6\n        /* \"#utility.yul\":11829:11852   */\n      sub\n        /* \"#utility.yul\":11825:11857   */\n      slt\n        /* \"#utility.yul\":11822:11874   */\n      iszero\n      tag_818\n      jumpi\n        /* \"#utility.yul\":11870:11871   */\n      0x00\n        /* \"#utility.yul\":11867:11868   */\n      dup1\n        /* \"#utility.yul\":11860:11872   */\n      revert\n        /* \"#utility.yul\":11822:11874   */\n    tag_818:\n        /* \"#utility.yul\":11893:11922   */\n      tag_819\n        /* \"#utility.yul\":11912:11921   */\n      dup4\n        /* \"#utility.yul\":11893:11922   */\n      tag_688\n      jump\t// in\n    tag_819:\n        /* \"#utility.yul\":11883:11922   */\n      swap2\n      pop\n        /* \"#utility.yul\":11972:11974   */\n      0x20\n        /* \"#utility.yul\":11961:11970   */\n      dup4\n        /* \"#utility.yul\":11957:11975   */\n      add\n        /* \"#utility.yul\":11944:11976   */\n      calldataload\n        /* \"#utility.yul\":12019:12024   */\n      dup1\n        /* \"#utility.yul\":12012:12025   */\n      iszero\n        /* \"#utility.yul\":12005:12026   */\n      iszero\n        /* \"#utility.yul\":11998:12003   */\n      dup2\n        /* \"#utility.yul\":11995:12027   */\n      eq\n        /* \"#utility.yul\":11985:12045   */\n      tag_820\n      jumpi\n        /* \"#utility.yul\":12041:12042   */\n      0x00\n        /* \"#utility.yul\":12038:12039   */\n      dup1\n        /* \"#utility.yul\":12031:12043   */\n      revert\n        /* \"#utility.yul\":11985:12045   */\n    tag_820:\n        /* \"#utility.yul\":12064:12069   */\n      dup1\n        /* \"#utility.yul\":12054:12069   */\n      swap2\n      pop\n      pop\n        /* \"#utility.yul\":11728:12075   */\n      swap3\n      pop\n      swap3\n      swap1\n      pop\n      jump\t// out\n        /* \"#utility.yul\":12080:12340   */\n    tag_221:\n        /* \"#utility.yul\":12148:12154   */\n      0x00\n        /* \"#utility.yul\":12156:12162   */\n      dup1\n        /* \"#utility.yul\":12209:12211   */\n      0x40\n        /* \"#utility.yul\":12197:12206   */\n      dup4\n        /* \"#utility.yul\":12188:12195   */\n      dup6\n        /* \"#utility.yul\":12184:12207   */\n      sub\n        /* \"#utility.yul\":12180:12212   */\n      slt\n        /* \"#utility.yul\":12177:12229   */\n      iszero\n      tag_822\n      jumpi\n        /* \"#utility.yul\":12225:12226   */\n      0x00\n        /* \"#utility.yul\":12222:12223   */\n      dup1\n        /* \"#utility.yul\":12215:12227   */\n      revert\n        /* \"#utility.yul\":12177:12229   */\n    tag_822:\n        /* \"#utility.yul\":12248:12277   */\n      tag_823\n        /* \"#utility.yul\":12267:12276   */\n      dup4\n        /* \"#utility.yul\":12248:12277   */\n      tag_688\n      jump\t// in\n    tag_823:\n        /* \"#utility.yul\":12238:12277   */\n      swap2\n      pop\n        /* \"#utility.yul\":12296:12334   */\n      tag_766\n        /* \"#utility.yul\":12330:12332   */\n      0x20\n        /* \"#utility.yul\":12319:12328   */\n      dup5\n        /* \"#utility.yul\":12315:12333   */\n      add\n        /* \"#utility.yul\":12296:12334   */\n      tag_688\n      jump\t// in\n        /* \"#utility.yul\":12345:12667   */\n    tag_227:\n        /* \"#utility.yul\":12422:12428   */\n      0x00\n        /* \"#utility.yul\":12430:12436   */\n      dup1\n        /* \"#utility.yul\":12438:12444   */\n      0x00\n        /* \"#utility.yul\":12491:12493   */\n      0x60\n        /* \"#utility.yul\":12479:12488   */\n      dup5\n        /* \"#utility.yul\":12470:12477   */\n      dup7\n        /* \"#utility.yul\":12466:12489   */\n      sub\n        /* \"#utility.yul\":12462:12494   */\n      slt\n        /* \"#utility.yul\":12459:12511   */\n      iszero\n      tag_826\n      jumpi\n        /* \"#utility.yul\":12507:12508   */\n      0x00\n        /* \"#utility.yul\":12504:12505   */\n      dup1\n        /* \"#utility.yul\":12497:12509   */\n      revert\n        /* \"#utility.yul\":12459:12511   */\n    tag_826:\n        /* \"#utility.yul\":12530:12559   */\n      tag_827\n        /* \"#utility.yul\":12549:12558   */\n      dup5\n        /* \"#utility.yul\":12530:12559   */\n      tag_688\n      jump\t// in\n    tag_827:\n        /* \"#utility.yul\":12520:12559   */\n      swap6\n        /* \"#utility.yul\":12606:12608   */\n      0x20\n        /* \"#utility.yul\":12591:12609   */\n      dup6\n      add\n        /* \"#utility.yul\":12578:12610   */\n      calldataload\n      swap6\n      pop\n        /* \"#utility.yul\":12657:12659   */\n      0x40\n        /* \"#utility.yul\":12642:12660   */\n      swap1\n      swap5\n      add\n        /* \"#utility.yul\":12629:12661   */\n      calldataload\n      swap4\n        /* \"#utility.yul\":12345:12667   */\n      swap3\n      pop\n      pop\n      pop\n      jump\t// out\n        /* \"#utility.yul\":12672:13278   */\n    tag_232:\n        /* \"#utility.yul\":12776:12782   */\n      0x00\n        /* \"#utility.yul\":12784:12790   */\n      dup1\n        /* \"#utility.yul\":12792:12798   */\n      0x00\n        /* \"#utility.yul\":12800:12806   */\n      dup1\n        /* \"#utility.yul\":12808:12814   */\n      0x00\n        /* \"#utility.yul\":12861:12864   */\n      0xa0\n        /* \"#utility.yul\":12849:12858   */\n      dup7\n        /* \"#utility.yul\":12840:12847   */\n      dup9\n        /* \"#utility.yul\":12836:12859   */\n      sub\n        /* \"#utility.yul\":12832:12865   */\n      slt\n        /* \"#utility.yul\":12829:12882   */\n      iszero\n      tag_829\n      jumpi\n        /* \"#utility.yul\":12878:12879   */\n      0x00\n        /* \"#utility.yul\":12875:12876   */\n      dup1\n        /* \"#utility.yul\":12868:12880   */\n      revert\n        /* \"#utility.yul\":12829:12882   */\n    tag_829:\n        /* \"#utility.yul\":12901:12930   */\n      tag_769\n        /* \"#utility.yul\":12920:12929   */\n      dup7\n        /* \"#utility.yul\":12901:12930   */\n      tag_688\n      jump\t// in\n        /* \"#utility.yul\":14268:14395   */\n    tag_698:\n        /* \"#utility.yul\":14329:14339   */\n      0x4e487b71\n        /* \"#utility.yul\":14324:14327   */\n      0xe0\n        /* \"#utility.yul\":14320:14340   */\n      shl\n        /* \"#utility.yul\":14317:14318   */\n      0x00\n        /* \"#utility.yul\":14310:14341   */\n      mstore\n        /* \"#utility.yul\":14360:14364   */\n      0x11\n        /* \"#utility.yul\":14357:14358   */\n      0x04\n        /* \"#utility.yul\":14350:14365   */\n      mstore\n        /* \"#utility.yul\":14384:14388   */\n      0x24\n        /* \"#utility.yul\":14381:14382   */\n      0x00\n        /* \"#utility.yul\":14374:14389   */\n      revert\n        /* \"#utility.yul\":14400:14568   */\n    tag_261:\n        /* \"#utility.yul\":14440:14447   */\n      0x00\n        /* \"#utility.yul\":14506:14507   */\n      dup2\n        /* \"#utility.yul\":14502:14503   */\n      0x00\n        /* \"#utility.yul\":14498:14504   */\n      not\n        /* \"#utility.yul\":14494:14508   */\n      div\n        /* \"#utility.yul\":14491:14492   */\n      dup4\n        /* \"#utility.yul\":14488:14509   */\n      gt\n        /* \"#utility.yul\":14483:14484   */\n      dup3\n        /* \"#utility.yul\":14476:14485   */\n      iszero\n        /* \"#utility.yul\":14469:14486   */\n      iszero\n        /* \"#utility.yul\":14465:14510   */\n      and\n        /* \"#utility.yul\":14462:14533   */\n      iszero\n      tag_840\n      jumpi\n        /* \"#utility.yul\":14513:14531   */\n      tag_840\n      tag_698\n      jump\t// in\n    tag_840:\n      pop\n        /* \"#utility.yul\":14553:14562   */\n      mul\n      swap1\n        /* \"#utility.yul\":14400:14568   */\n      jump\t// out\n        /* \"#utility.yul\":14920:15300   */\n    tag_273:\n        /* \"#utility.yul\":14999:15000   */\n      0x01\n        /* \"#utility.yul\":14995:15007   */\n      dup2\n      dup2\n      shr\n      swap1\n        /* \"#utility.yul\":15042:15054   */\n      dup3\n      and\n      dup1\n        /* \"#utility.yul\":15063:15124   */\n      tag_843\n      jumpi\n        /* \"#utility.yul\":15117:15121   */\n      0x7f\n        /* \"#utility.yul\":15109:15115   */\n      dup3\n        /* \"#utility.yul\":15105:15122   */\n      and\n        /* \"#utility.yul\":15095:15122   */\n      swap2\n      pop\n        /* \"#utility.yul\":15063:15124   */\n    tag_843:\n        /* \"#utility.yul\":15170:15172   */\n      0x20\n        /* \"#utility.yul\":15162:15168   */\n      dup3\n        /* \"#utility.yul\":15159:15173   */\n      lt\n        /* \"#utility.yul\":15139:15157   */\n      dup2\n        /* \"#utility.yul\":15136:15174   */\n      sub\n        /* \"#utility.yul\":15133:15294   */\n      tag_844\n      jumpi\n        /* \"#utility.yul\":15216:15226   */\n      0x4e487b71\n        /* \"#utility.yul\":15211:15214   */\n      0xe0\n        /* \"#utility.yul\":15207:15227   */\n      shl\n        /* \"#utility.yul\":15204:15205   */\n      0x00\n        /* \"#utility.yul\":15197:15228   */\n      mstore\n        /* \"#utility.yul\":15251:15255   */\n      0x22\n        /* \"#utility.yul\":15248:15249   */\n      0x04\n        /* \"#utility.yul\":15241:15256   */\n      mstore\n        /* \"#utility.yul\":15279:15283   */\n      0x24\n        /* \"#utility.yul\":15276:15277   */\n      0x00\n        /* \"#utility.yul\":15269:15284   */\n      revert\n        /* \"#utility.yul\":15133:15294   */\n    tag_844:\n      pop\n        /* \"#utility.yul\":14920:15300   */\n      swap2\n      swap1\n      pop\n      jump\t// out\n        /* \"#utility.yul\":15305:15522   */\n    tag_282:\n        /* \"#utility.yul\":15345:15346   */\n      0x00\n        /* \"#utility.yul\":15371:15372   */\n      dup3\n        /* \"#utility.yul\":15361:15493   */\n      tag_846\n      jumpi\n        /* \"#utility.yul\":15415:15425   */\n      0x4e487b71\n        /* \"#utility.yul\":15410:15413   */\n      0xe0\n        /* \"#utility.yul\":15406:15426   */\n      shl\n        /* \"#utility.yul\":15403:15404   */\n      0x00\n        /* \"#utility.yul\":15396:15427   */\n      mstore\n        /* \"#utility.yul\":15450:15454   */\n      0x12\n        /* \"#utility.yul\":15447:15448   */\n      0x04\n        /* \"#utility.yul\":15440:15455   */\n      mstore\n        /* \"#utility.yul\":15478:15482   */\n      0x24\n        /* \"#utility.yul\":15475:15476   */\n      0x00\n        /* \"#utility.yul\":15468:15483   */\n      revert\n        /* \"#utility.yul\":15361:15493   */\n    tag_846:\n      pop\n        /* \"#utility.yul\":15507:15516   */\n      div\n      swap1\n        /* \"#utility.yul\":15305:15522   */\n      jump\t// out\n        /* \"#utility.yul\":16359:16486   */\n    tag_309:\n        /* \"#utility.yul\":16420:16430   */\n      0x4e487b71\n        /* \"#utility.yul\":16415:16418   */\n      0xe0\n        /* \"#utility.yul\":16411:16431   */\n      shl\n        /* \"#utility.yul\":16408:16409   */\n      0x00\n        /* \"#utility.yul\":16401:16432   */\n      mstore\n        /* \"#utility.yul\":16451:16455   */\n      0x21\n        /* \"#utility.yul\":16448:16449   */\n      0x04\n        /* \"#utility.yul\":16441:16456   */\n      mstore\n        /* \"#utility.yul\":16475:16479   */\n      0x24\n        /* \"#utility.yul\":16472:16473   */\n      0x00\n        /* \"#utility.yul\":16465:16480   */\n      revert\n        /* \"#utility.yul\":17595:17722   */\n    tag_345:\n        /* \"#utility.yul\":17656:17666   */\n      0x4e487b71\n        /* \"#utility.yul\":17651:17654   */\n      0xe0\n        /* \"#utility.yul\":17647:17667   */\n      shl\n        /* \"#utility.yul\":17644:17645   */\n      0x00\n        /* \"#utility.yul\":17637:17668   */\n      mstore\n        /* \"#utility.yul\":17687:17691   */\n      0x32\n        /* \"#utility.yul\":17684:17685   */\n      0x04\n        /* \"#utility.yul\":17677:17692   */\n      mstore\n        /* \"#utility.yul\":17711:17715   */\n      0x24\n        /* \"#utility.yul\":17708:17709   */\n      0x00\n        /* \"#utility.yul\":17701:17716   */\n      revert\n        /* \"#utility.yul\":17727:17862   */\n    tag_351:\n        /* \"#utility.yul\":17766:17769   */\n      0x00\n        /* \"#utility.yul\":17787:17804   */\n      0x01\n      dup3\n      add\n        /* \"#utility.yul\":17784:17827   */\n      tag_856\n      jumpi\n        /* \"#utility.yul\":17807:17825   */\n      tag_856\n      tag_698\n      jump\t// in\n    tag_856:\n      pop\n        /* \"#utility.yul\":17854:17855   */\n      0x01\n        /* \"#utility.yul\":17843:17856   */\n      add\n      swap1\n        /* \"#utility.yul\":17727:17862   */\n      jump\t// out\n        /* \"#utility.yul\":20081:20209   */\n    tag_473:\n        /* \"#utility.yul\":20121:20124   */\n      0x00\n        /* \"#utility.yul\":20152:20153   */\n      dup3\n        /* \"#utility.yul\":20148:20154   */\n      not\n        /* \"#utility.yul\":20145:20146   */\n      dup3\n        /* \"#utility.yul\":20142:20155   */\n      gt\n        /* \"#utility.yul\":20139:20178   */\n      iszero\n      tag_865\n      jumpi\n        /* \"#utility.yul\":20158:20176   */\n      tag_865\n      tag_698\n      jump\t// in\n    tag_865:\n      pop\n        /* \"#utility.yul\":20194:20203   */\n      add\n      swap1\n        /* \"#utility.yul\":20081:20209   */\n      jump\t// out\n        /* \"#utility.yul\":20876:21341   */\n    tag_504:\n        /* \"#utility.yul\":21133:21135   */\n      0x40\n        /* \"#utility.yul\":21122:21131   */\n      dup2\n        /* \"#utility.yul\":21115:21136   */\n      mstore\n        /* \"#utility.yul\":21096:21100   */\n      0x00\n        /* \"#utility.yul\":21159:21215   */\n      tag_869\n        /* \"#utility.yul\":21211:21213   */\n      0x40\n        /* \"#utility.yul\":21200:21209   */\n      dup4\n        /* \"#utility.yul\":21196:21214   */\n      add\n        /* \"#utility.yul\":21188:21194   */\n      dup6\n        /* \"#utility.yul\":21159:21215   */\n      tag_696\n      jump\t// in\n    tag_869:\n        /* \"#utility.yul\":21263:21272   */\n      dup3\n        /* \"#utility.yul\":21255:21261   */\n      dup2\n        /* \"#utility.yul\":21251:21273   */\n      sub\n        /* \"#utility.yul\":21246:21248   */\n      0x20\n        /* \"#utility.yul\":21235:21244   */\n      dup5\n        /* \"#utility.yul\":21231:21249   */\n      add\n        /* \"#utility.yul\":21224:21274   */\n      mstore\n        /* \"#utility.yul\":21291:21335   */\n      tag_870\n        /* \"#utility.yul\":21328:21334   */\n      dup2\n        /* \"#utility.yul\":21320:21326   */\n      dup6\n        /* \"#utility.yul\":21291:21335   */\n      tag_696\n      jump\t// in\n    tag_870:\n        /* \"#utility.yul\":21283:21335   */\n      swap6\n        /* \"#utility.yul\":20876:21341   */\n      swap5\n      pop\n      pop\n      pop\n      pop\n      pop\n      jump\t// out\n        /* \"#utility.yul\":22967:23551   */\n    tag_604:\n        /* \"#utility.yul\":23189:23193   */\n      0x00\n      sub(shl(0xa0, 0x01), 0x01)\n        /* \"#utility.yul\":23299:23301   */\n      dup1\n        /* \"#utility.yul\":23291:23297   */\n      dup9\n        /* \"#utility.yul\":23287:23302   */\n      and\n        /* \"#utility.yul\":23276:23285   */\n      dup4\n        /* \"#utility.yul\":23269:23303   */\n      mstore\n        /* \"#utility.yul\":23351:23353   */\n      dup1\n        /* \"#utility.yul\":23343:23349   */\n      dup8\n        /* \"#utility.yul\":23339:23354   */\n      and\n        /* \"#utility.yul\":23334:23336   */\n      0x20\n        /* \"#utility.yul\":23323:23332   */\n      dup5\n        /* \"#utility.yul\":23319:23337   */\n      add\n        /* \"#utility.yul\":23312:23355   */\n      mstore\n      pop\n        /* \"#utility.yul\":23391:23397   */\n      dup5\n        /* \"#utility.yul\":23386:23388   */\n      0x40\n        /* \"#utility.yul\":23375:23384   */\n      dup4\n        /* \"#utility.yul\":23371:23389   */\n      add\n        /* \"#utility.yul\":23364:23398   */\n      mstore\n        /* \"#utility.yul\":23434:23440   */\n      dup4\n        /* \"#utility.yul\":23429:23431   */\n      0x60\n        /* \"#utility.yul\":23418:23427   */\n      dup4\n        /* \"#utility.yul\":23414:23432   */\n      add\n        /* \"#utility.yul\":23407:23441   */\n      mstore\n        /* \"#utility.yul\":23478:23481   */\n      0xa0\n        /* \"#utility.yul\":23472:23475   */\n      0x80\n        /* \"#utility.yul\":23461:23470   */\n      dup4\n        /* \"#utility.yul\":23457:23476   */\n      add\n        /* \"#utility.yul\":23450:23482   */\n      mstore\n        /* \"#utility.yul\":23499:23545   */\n      tag_876\n        /* \"#utility.yul\":23540:23543   */\n      0xa0\n        /* \"#utility.yul\":23529:23538   */\n      dup4\n        /* \"#utility.yul\":23525:23544   */\n      add\n        /* \"#utility.yul\":23517:23523   */\n      dup5\n        /* \"#utility.yul\":23499:23545   */\n      tag_691\n      jump\t// in\n    tag_876:\n        /* \"#utility.yul\":23491:23545   */\n      swap8\n        /* \"#utility.yul\":22967:23551   */\n      swap7\n      pop\n      pop\n      pop\n      pop\n      pop\n      pop\n      pop\n      jump\t// out\n        /* \"#utility.yul\":23556:23805   */\n    tag_607:\n        /* \"#utility.yul\":23625:23631   */\n      0x00\n        /* \"#utility.yul\":23678:23680   */\n      0x20\n        /* \"#utility.yul\":23666:23675   */\n      dup3\n        /* \"#utility.yul\":23657:23664   */\n      dup5\n        /* \"#utility.yul\":23653:23676   */\n      sub\n        /* \"#utility.yul\":23649:23681   */\n      slt\n        /* \"#utility.yul\":23646:23698   */\n      iszero\n      tag_878\n      jumpi\n        /* \"#utility.yul\":23694:23695   */\n      0x00\n        /* \"#utility.yul\":23691:23692   */\n      dup1\n        /* \"#utility.yul\":23684:23696   */\n      revert\n        /* \"#utility.yul\":23646:23698   */\n    tag_878:\n        /* \"#utility.yul\":23726:23735   */\n      dup2\n        /* \"#utility.yul\":23720:23736   */\n      mload\n        /* \"#utility.yul\":23745:23775   */\n      tag_675\n        /* \"#utility.yul\":23769:23774   */\n      dup2\n        /* \"#utility.yul\":23745:23775   */\n      tag_689\n      jump\t// in\n        /* \"#utility.yul\":23810:23989   */\n    tag_613:\n        /* \"#utility.yul\":23845:23848   */\n      0x00\n        /* \"#utility.yul\":23887:23888   */\n      0x03\n        /* \"#utility.yul\":23869:23885   */\n      returndatasize\n        /* \"#utility.yul\":23866:23889   */\n      gt\n        /* \"#utility.yul\":23863:23983   */\n      iszero\n      tag_881\n      jumpi\n        /* \"#utility.yul\":23933:23934   */\n      0x04\n        /* \"#utility.yul\":23930:23931   */\n      0x00\n        /* \"#utility.yul\":23927:23928   */\n      dup1\n        /* \"#utility.yul\":23912:23935   */\n      returndatacopy\n      pop\n        /* \"#utility.yul\":23970:23971   */\n      0x00\n        /* \"#utility.yul\":23964:23972   */\n      mload\n        /* \"#utility.yul\":23959:23962   */\n      0xe0\n        /* \"#utility.yul\":23955:23973   */\n      shr\n        /* \"#utility.yul\":23863:23983   */\n    tag_881:\n        /* \"#utility.yul\":23810:23989   */\n      swap1\n      jump\t// out\n        /* \"#utility.yul\":23994:24665   */\n    tag_615:\n        /* \"#utility.yul\":24033:24036   */\n      0x00\n        /* \"#utility.yul\":24075:24079   */\n      0x44\n        /* \"#utility.yul\":24057:24073   */\n      returndatasize\n        /* \"#utility.yul\":24054:24080   */\n      lt\n        /* \"#utility.yul\":24051:24090   */\n      iszero\n      tag_883\n      jumpi\n        /* \"#utility.yul\":23994:24665   */\n      swap1\n      jump\t// out\n        /* \"#utility.yul\":24051:24090   */\n    tag_883:\n        /* \"#utility.yul\":24117:24119   */\n      0x40\n        /* \"#utility.yul\":24111:24120   */\n      mload\n      not(0x03)\n        /* \"#utility.yul\":24182:24198   */\n      returndatasize\n        /* \"#utility.yul\":24178:24203   */\n      dup2\n      add\n        /* \"#utility.yul\":24175:24176   */\n      0x04\n        /* \"#utility.yul\":24111:24120   */\n      dup4\n        /* \"#utility.yul\":24154:24204   */\n      returndatacopy\n        /* \"#utility.yul\":24233:24237   */\n      dup2\n        /* \"#utility.yul\":24227:24238   */\n      mload\n        /* \"#utility.yul\":24257:24273   */\n      returndatasize\n        /* \"#utility.yul\":24292:24310   */\n      0xffffffffffffffff\n        /* \"#utility.yul\":24363:24365   */\n      dup2\n        /* \"#utility.yul\":24356:24360   */\n      0x24\n        /* \"#utility.yul\":24348:24354   */\n      dup5\n        /* \"#utility.yul\":24344:24361   */\n      add\n        /* \"#utility.yul\":24341:24366   */\n      gt\n        /* \"#utility.yul\":24336:24338   */\n      dup2\n        /* \"#utility.yul\":24328:24334   */\n      dup5\n        /* \"#utility.yul\":24325:24339   */\n      gt\n        /* \"#utility.yul\":24322:24367   */\n      or\n        /* \"#utility.yul\":24319:24377   */\n      iszero\n      tag_884\n      jumpi\n        /* \"#utility.yul\":24370:24375   */\n      pop\n      pop\n      pop\n      pop\n      pop\n        /* \"#utility.yul\":23994:24665   */\n      swap1\n      jump\t// out\n        /* \"#utility.yul\":24319:24377   */\n    tag_884:\n        /* \"#utility.yul\":24407:24413   */\n      dup3\n        /* \"#utility.yul\":24401:24405   */\n      dup6\n        /* \"#utility.yul\":24397:24414   */\n      add\n        /* \"#utility.yul\":24386:24414   */\n      swap2\n      pop\n        /* \"#utility.yul\":24443:24446   */\n      dup2\n        /* \"#utility.yul\":24437:24447   */\n      mload\n        /* \"#utility.yul\":24470:24472   */\n      dup2\n        /* \"#utility.yul\":24462:24468   */\n      dup2\n        /* \"#utility.yul\":24459:24473   */\n      gt\n        /* \"#utility.yul\":24456:24483   */\n      iszero\n      tag_885\n      jumpi\n        /* \"#utility.yul\":24476:24481   */\n      pop\n      pop\n      pop\n      pop\n      pop\n      pop\n        /* \"#utility.yul\":23994:24665   */\n      swap1\n      jump\t// out\n        /* \"#utility.yul\":24456:24483   */\n    tag_885:\n        /* \"#utility.yul\":24560:24562   */\n      dup5\n        /* \"#utility.yul\":24541:24557   */\n      returndatasize\n        /* \"#utility.yul\":24535:24539   */\n      dup8\n        /* \"#utility.yul\":24531:24558   */\n      add\n        /* \"#utility.yul\":24527:24563   */\n      add\n        /* \"#utility.yul\":24520:24524   */\n      0x20\n        /* \"#utility.yul\":24511:24517   */\n      dup3\n        /* \"#utility.yul\":24506:24509   */\n      dup6\n        /* \"#utility.yul\":24502:24518   */\n      add\n        /* \"#utility.yul\":24498:24525   */\n      add\n        /* \"#utility.yul\":24495:24564   */\n      gt\n        /* \"#utility.yul\":24492:24574   */\n      iszero\n      tag_886\n      jumpi\n        /* \"#utility.yul\":24567:24572   */\n      pop\n      pop\n      pop\n      pop\n      pop\n      pop\n        /* \"#utility.yul\":23994:24665   */\n      swap1\n      jump\t// out\n        /* \"#utility.yul\":24492:24574   */\n    tag_886:\n        /* \"#utility.yul\":24583:24640   */\n      tag_887\n        /* \"#utility.yul\":24634:24638   */\n      0x20\n        /* \"#utility.yul\":24625:24631   */\n      dup3\n        /* \"#utility.yul\":24617:24623   */\n      dup7\n        /* \"#utility.yul\":24613:24632   */\n      add\n        /* \"#utility.yul\":24609:24639   */\n      add\n        /* \"#utility.yul\":24603:24607   */\n      dup8\n        /* \"#utility.yul\":24583:24640   */\n      tag_692\n      jump\t// in\n    tag_887:\n      pop\n        /* \"#utility.yul\":24656:24659   */\n      swap1\n      swap6\n        /* \"#utility.yul\":23994:24665   */\n      swap5\n      pop\n      pop\n      pop\n      pop\n      pop\n      jump\t// out\n        /* \"#utility.yul\":25500:26350   */\n    tag_628:\n        /* \"#utility.yul\":25822:25826   */\n      0x00\n      sub(shl(0xa0, 0x01), 0x01)\n        /* \"#utility.yul\":25932:25934   */\n      dup1\n        /* \"#utility.yul\":25924:25930   */\n      dup9\n        /* \"#utility.yul\":25920:25935   */\n      and\n        /* \"#utility.yul\":25909:25918   */\n      dup4\n        /* \"#utility.yul\":25902:25936   */\n      mstore\n        /* \"#utility.yul\":25984:25986   */\n      dup1\n        /* \"#utility.yul\":25976:25982   */\n      dup8\n        /* \"#utility.yul\":25972:25987   */\n      and\n        /* \"#utility.yul\":25967:25969   */\n      0x20\n        /* \"#utility.yul\":25956:25965   */\n      dup5\n        /* \"#utility.yul\":25952:25970   */\n      add\n        /* \"#utility.yul\":25945:25988   */\n      mstore\n      pop\n        /* \"#utility.yul\":26024:26027   */\n      0xa0\n        /* \"#utility.yul\":26019:26021   */\n      0x40\n        /* \"#utility.yul\":26008:26017   */\n      dup4\n        /* \"#utility.yul\":26004:26022   */\n      add\n        /* \"#utility.yul\":25997:26028   */\n      mstore\n        /* \"#utility.yul\":26051:26108   */\n      tag_891\n        /* \"#utility.yul\":26103:26106   */\n      0xa0\n        /* \"#utility.yul\":26092:26101   */\n      dup4\n        /* \"#utility.yul\":26088:26107   */\n      add\n        /* \"#utility.yul\":26080:26086   */\n      dup7\n        /* \"#utility.yul\":26051:26108   */\n      tag_696\n      jump\t// in\n    tag_891:\n        /* \"#utility.yul\":26156:26165   */\n      dup3\n        /* \"#utility.yul\":26148:26154   */\n      dup2\n        /* \"#utility.yul\":26144:26166   */\n      sub\n        /* \"#utility.yul\":26139:26141   */\n      0x60\n        /* \"#utility.yul\":26128:26137   */\n      dup5\n        /* \"#utility.yul\":26124:26142   */\n      add\n        /* \"#utility.yul\":26117:26167   */\n      mstore\n        /* \"#utility.yul\":26190:26234   */\n      tag_892\n        /* \"#utility.yul\":26227:26233   */\n      dup2\n        /* \"#utility.yul\":26219:26225   */\n      dup7\n        /* \"#utility.yul\":26190:26234   */\n      tag_696\n      jump\t// in\n    tag_892:\n        /* \"#utility.yul\":26176:26234   */\n      swap1\n      pop\n        /* \"#utility.yul\":26283:26292   */\n      dup3\n        /* \"#utility.yul\":26275:26281   */\n      dup2\n        /* \"#utility.yul\":26271:26293   */\n      sub\n        /* \"#utility.yul\":26265:26268   */\n      0x80\n        /* \"#utility.yul\":26254:26263   */\n      dup5\n        /* \"#utility.yul\":26250:26269   */\n      add\n        /* \"#utility.yul\":26243:26294   */\n      mstore\n        /* \"#utility.yul\":26311:26344   */\n      tag_893\n        /* \"#utility.yul\":26337:26343   */\n      dup2\n        /* \"#utility.yul\":26329:26335   */\n      dup6\n        /* \"#utility.yul\":26311:26344   */\n      tag_691\n      jump\t// in\n    tag_893:\n        /* \"#utility.yul\":26303:26344   */\n      swap9\n        /* \"#utility.yul\":25500:26350   */\n      swap8\n      pop\n      pop\n      pop\n      pop\n      pop\n      pop\n      pop\n      pop\n      jump\t// out\n        /* \"#utility.yul\":26355:27141   */\n    tag_650:\n        /* \"#utility.yul\":26766:26791   */\n      0x416363657373436f6e74726f6c3a206163636f756e7420000000000000000000\n        /* \"#utility.yul\":26761:26764   */\n      dup2\n        /* \"#utility.yul\":26754:26792   */\n      mstore\n        /* \"#utility.yul\":26736:26739   */\n      0x00\n        /* \"#utility.yul\":26821:26827   */\n      dup4\n        /* \"#utility.yul\":26815:26828   */\n      mload\n        /* \"#utility.yul\":26837:26899   */\n      tag_895\n        /* \"#utility.yul\":26892:26898   */\n      dup2\n        /* \"#utility.yul\":26887:26889   */\n      0x17\n        /* \"#utility.yul\":26882:26885   */\n      dup6\n        /* \"#utility.yul\":26878:26890   */\n      add\n        /* \"#utility.yul\":26871:26875   */\n      0x20\n        /* \"#utility.yul\":26863:26869   */\n      dup9\n        /* \"#utility.yul\":26859:26876   */\n      add\n        /* \"#utility.yul\":26837:26899   */\n      tag_690\n      jump\t// in\n    tag_895:\n        /* \"#utility.yul\":26963:26982   */\n      0x206973206d697373696e6720726f6c6520000000000000000000000000000000\n        /* \"#utility.yul\":26958:26960   */\n      0x17\n        /* \"#utility.yul\":26918:26934   */\n      swap2\n      dup5\n      add\n        /* \"#utility.yul\":26950:26961   */\n      swap2\n      dup3\n      add\n        /* \"#utility.yul\":26943:26983   */\n      mstore\n        /* \"#utility.yul\":27008:27021   */\n      dup4\n      mload\n        /* \"#utility.yul\":27030:27093   */\n      tag_896\n        /* \"#utility.yul\":27008:27021   */\n      dup2\n        /* \"#utility.yul\":27079:27081   */\n      0x28\n        /* \"#utility.yul\":27071:27082   */\n      dup5\n      add\n        /* \"#utility.yul\":27064:27068   */\n      0x20\n        /* \"#utility.yul\":27052:27069   */\n      dup9\n      add\n        /* \"#utility.yul\":27030:27093   */\n      tag_690\n      jump\t// in\n    tag_896:\n        /* \"#utility.yul\":27113:27130   */\n      add\n        /* \"#utility.yul\":27132:27134   */\n      0x28\n        /* \"#utility.yul\":27109:27135   */\n      add\n      swap5\n        /* \"#utility.yul\":26355:27141   */\n      swap4\n      pop\n      pop\n      pop\n      pop\n      jump\t// out\n        /* \"#utility.yul\":27146:27282   */\n    tag_674:\n        /* \"#utility.yul\":27185:27188   */\n      0x00\n        /* \"#utility.yul\":27213:27218   */\n      dup2\n        /* \"#utility.yul\":27203:27242   */\n      tag_899\n      jumpi\n        /* \"#utility.yul\":27222:27240   */\n      tag_899\n      tag_698\n      jump\t// in\n    tag_899:\n      pop\n      not(0x00)\n        /* \"#utility.yul\":27258:27276   */\n      add\n      swap1\n        /* \"#utility.yul\":27146:27282   */\n      jump\t// out\n\n    auxdata: 0xa2646970667358221220bb3b3736c4756dc2899a4511d048af3dd73b73dc03337a9e69b7530ac912662f64736f6c634300080d0033\n}\n",
    "bytecode": {
      "linkReferences": {},
      "object": "60c06040526005608081905264173539b7b760d91b60a0908152620000289160069190620001e8565b503480156200003657600080fd5b5060408051602081019091526000815262000051816200006c565b506004805460ff191690556200006662000085565b620002ca565b805162000081906002906020840190620001e8565b5050565b6200009260003362000144565b620000be7f7804d923f43a17d325d77e781528e0793b2edd9890ab45fc64efd7b4b427744c3362000144565b620000ea7f9f2df0fed2c77648de5860a4cc508cd0818c85b8b8a1ab4ceeef8d981c8956a63362000144565b620001167f5690342a5622b53ebb7dbf01640710d2f9bf4af2652bffa51830f5fb49cc30b33362000144565b620001427fdee5dd6a5465c6132eda87e8cb3980b287f43d6f5332a897e4a238c66a15aec23362000144565b565b60008281526003602090815260408083206001600160a01b038516845290915290205460ff16620000815760008281526003602090815260408083206001600160a01b03851684529091529020805460ff19166001179055620001a43390565b6001600160a01b0316816001600160a01b0316837f2f8788117e7eff1d82e926ec794901d17c78024a50270940304540a733656f0d60405160405180910390a45050565b828054620001f6906200028e565b90600052602060002090601f0160209004810192826200021a576000855562000265565b82601f106200023557805160ff191683800117855562000265565b8280016001018555821562000265579182015b828111156200026557825182559160200191906001019062000248565b506200027392915062000277565b5090565b5b8082111562000273576000815560010162000278565b600181811c90821680620002a357607f821691505b602082108103620002c457634e487b7160e01b600052602260045260246000fd5b50919050565b6134e880620002da6000396000f3fe60806040526004361061029f5760003560e01c80638a5927e81161016e578063d547741f116100cb578063e985e9c51161007f578063f242432a11610064578063f242432a146107e2578063f5298aca14610802578063f8a14f461461082257600080fd5b8063e985e9c514610779578063ec1ca9b8146107c257600080fd5b8063e5afe3e6116100b0578063e5afe3e6146106e4578063e5dc4d7214610711578063e63ab1e91461074557600080fd5b8063d547741f146106a4578063d81d0a15146106c457600080fd5b8063a22cb46511610122578063b8f7c8d311610107578063b8f7c8d314610646578063c66828621461065b578063d53913931461067057600080fd5b8063a22cb46514610626578063b053b5ff1461044c57600080fd5b806397059e321161015357806397059e32146105bd5780639713c807146105f1578063a217fddf1461061157600080fd5b80638a5927e81461055757806391d148541461057757600080fd5b806336568abe1161021c5780635c975abb116101d05780636c0360eb116101b55780636c0360eb146104f95780636cc606a61461050e5780637f3457101461052357600080fd5b80635c975abb146104c15780636b20c454146104d957600080fd5b806342061e9f1161020157806342061e9f146104615780634e1273f41461047457806355f804b3146104a157600080fd5b806336568abe1461042c5780633765ecf71461044c57600080fd5b8063248a9ca3116102735780632eb2c2d6116102585780632eb2c2d6146103b85780632f2ff15d146103d8578063357fa9db146103f857600080fd5b8063248a9ca3146103495780632a55205a1461037957600080fd5b8062fdd58e146102a457806301ffc9a7146102d75780630411b252146103075780630e89341c1461031c575b600080fd5b3480156102b057600080fd5b506102c46102bf366004612a4c565b610870565b6040519081526020015b60405180910390f35b3480156102e357600080fd5b506102f76102f2366004612a8c565b610919565b60405190151581526020016102ce565b61031a610315366004612aa9565b61092a565b005b34801561032857600080fd5b5061033c610337366004612aeb565b610a82565b6040516102ce9190612b5c565b34801561035557600080fd5b506102c4610364366004612aeb565b60009081526003602052604090206001015490565b34801561038557600080fd5b50610399610394366004612b6f565b610b24565b604080516001600160a01b0390931683526020830191909152016102ce565b3480156103c457600080fd5b5061031a6103d3366004612cdd565b610b82565b3480156103e457600080fd5b5061031a6103f3366004612d87565b610c0f565b34801561040457600080fd5b506102c47fdee5dd6a5465c6132eda87e8cb3980b287f43d6f5332a897e4a238c66a15aec281565b34801561043857600080fd5b5061031a610447366004612d87565b610c39565b34801561045857600080fd5b506102c4600381565b61031a61046f366004612db3565b610cc5565b34801561048057600080fd5b5061049461048f366004612e1e565b610e79565b6040516102ce9190612f1a565b3480156104ad57600080fd5b5061031a6104bc366004612f2d565b610fb7565b3480156104cd57600080fd5b5060045460ff166102f7565b3480156104e557600080fd5b5061031a6104f4366004612f6a565b610ff4565b34801561050557600080fd5b5061033c61107f565b34801561051a57600080fd5b506102c4600181565b34801561052f57600080fd5b506102c47f7804d923f43a17d325d77e781528e0793b2edd9890ab45fc64efd7b4b427744c81565b34801561056357600080fd5b5061031a61057236600461302a565b61110d565b34801561058357600080fd5b506102f7610592366004612d87565b60009182526003602090815260408084206001600160a01b0393909316845291905290205460ff1690565b3480156105c957600080fd5b506102c47fe16362b29abc3a852e3b6d27b96bd379cb709b115d4edd02e14f8669095dc59e81565b3480156105fd57600080fd5b5061031a61060c3660046130ab565b61126b565b34801561061d57600080fd5b506102c4600081565b34801561063257600080fd5b5061031a6106413660046130e0565b611357565b34801561065257600080fd5b506102c4600281565b34801561066757600080fd5b5061033c611362565b34801561067c57600080fd5b506102c47f9f2df0fed2c77648de5860a4cc508cd0818c85b8b8a1ab4ceeef8d981c8956a681565b3480156106b057600080fd5b5061031a6106bf366004612d87565b61136f565b3480156106d057600080fd5b5061031a6106df36600461302a565b611394565b3480156106f057600080fd5b506102c46106ff366004612aeb565b600a6020526000908152604090205481565b34801561071d57600080fd5b506102c47f5690342a5622b53ebb7dbf01640710d2f9bf4af2652bffa51830f5fb49cc30b381565b34801561075157600080fd5b506102c47f65d7a28e3265b37a6474929f336521b332c1681b933f6cb9f3376673440d862a81565b34801561078557600080fd5b506102f761079436600461311c565b6001600160a01b03918216600090815260016020908152604080832093909416825291909152205460ff1690565b3480156107ce57600080fd5b5061031a6107dd366004613146565b6114fe565b3480156107ee57600080fd5b5061031a6107fd366004613179565b6115b9565b34801561080e57600080fd5b5061031a61081d366004613146565b611646565b34801561082e57600080fd5b5061085861083d366004612aeb565b6009602052600090815260409020546001600160a01b031681565b6040516001600160a01b0390911681526020016102ce565b60006001600160a01b0383166108f35760405162461bcd60e51b815260206004820152602a60248201527f455243313135353a2061646472657373207a65726f206973206e6f742061207660448201527f616c6964206f776e65720000000000000000000000000000000000000000000060648201526084015b60405180910390fd5b506000908152602081815260408083206001600160a01b03949094168352929052205490565b6000610924826116d1565b92915050565b6109326116f6565b336001600160a01b0385161461098a5760405162461bcd60e51b815260206004820152600e60248201527f6e6f7420617574686f72697a656400000000000000000000000000000000000060448201526064016108ea565b6000828152600a60205260408120546109a49083906131b0565b9050803410156109f65760405162461bcd60e51b815260206004820152601260248201527f496e73756666696369656e742066756e6473000000000000000000000000000060448201526064016108ea565b610a12858585856040518060200160405280600081525061174b565b6001600160a01b03841660009081527fae31de4e6eb5ef760dd5745b55a6757794dfbcc58d4dabd5746fb21d667ff6b7602052604090205460ff16610a7b57610a7b7f5690342a5622b53ebb7dbf01640710d2f9bf4af2652bffa51830f5fb49cc30b3856118f6565b5050505050565b6000818152600860205260409020805460609190610a9f906131cf565b80601f0160208091040260200160405190810160405280929190818152602001828054610acb906131cf565b8015610b185780601f10610aed57610100808354040283529160200191610b18565b820191906000526020600020905b815481529060010190602001808311610afb57829003601f168201915b50505050509050919050565b60008281526007602090815260408083208151808301909252546001600160a01b038116808352600160a01b90910462ffffff16928201839052929161271090610b6e90866131b0565b610b789190613209565b9150509250929050565b6001600160a01b038516331480610b9e5750610b9e8533610794565b610c025760405162461bcd60e51b815260206004820152602f60248201527f455243313135353a2063616c6c6572206973206e6f7420746f6b656e206f776e60448201526e195c881b9bdc88185c1c1c9bdd9959608a1b60648201526084016108ea565b610a7b8585858585611998565b600082815260036020526040902060010154610c2a81611bf6565b610c3483836118f6565b505050565b6001600160a01b0381163314610cb75760405162461bcd60e51b815260206004820152602f60248201527f416363657373436f6e74726f6c3a2063616e206f6e6c792072656e6f756e636560448201527f20726f6c657320666f722073656c66000000000000000000000000000000000060648201526084016108ea565b610cc18282611c03565b5050565b6000856001811115610cd957610cd961322b565b03610d2f576003821115610d2f5760405162461bcd60e51b815260206004820152601460248201527f63616e2774206d696e742074686174206d616e7900000000000000000000000060448201526064016108ea565b6001856001811115610d4357610d4361322b565b03610e20576001600160a01b03841660009081527fe62b464510cee50b1276c2d445c9313ab6ecc5a2ae8cb01cce19b3a02959d36e602052604090205460ff16610dcf5760405162461bcd60e51b815260206004820152601060248201527f6e6f742040616c6c6f7765644c6973740000000000000000000000000000000060448201526064016108ea565b6003821115610e205760405162461bcd60e51b815260206004820152601460248201527f63616e2774206d696e742074686174206d616e7900000000000000000000000060448201526064016108ea565b610e3b84848460405180602001604052806000815250611c86565b6000838152600960205260409020805473ffffffffffffffffffffffffffffffffffffffff19166001600160a01b038616179055610a7b8382611d91565b60608151835114610ef25760405162461bcd60e51b815260206004820152602960248201527f455243313135353a206163636f756e747320616e6420696473206c656e67746860448201527f206d69736d61746368000000000000000000000000000000000000000000000060648201526084016108ea565b6000835167ffffffffffffffff811115610f0e57610f0e612b91565b604051908082528060200260200182016040528015610f37578160200160208202803683370190505b50905060005b8451811015610faf57610f82858281518110610f5b57610f5b613241565b6020026020010151858381518110610f7557610f75613241565b6020026020010151610870565b828281518110610f9457610f94613241565b6020908102919091010152610fa881613257565b9050610f3d565b509392505050565b7f7804d923f43a17d325d77e781528e0793b2edd9890ab45fc64efd7b4b427744c610fe181611bf6565b8151610c34906005906020850190612997565b6001600160a01b03831633148061101057506110108333610794565b6110745760405162461bcd60e51b815260206004820152602f60248201527f455243313135353a2063616c6c6572206973206e6f7420746f6b656e206f776e60448201526e195c881b9bdc88185c1c1c9bdd9959608a1b60648201526084016108ea565b610c34838383611db0565b6005805461108c906131cf565b80601f01602080910402602001604051908101604052809291908181526020018280546110b8906131cf565b80156111055780601f106110da57610100808354040283529160200191611105565b820191906000526020600020905b8154815290600101906020018083116110e857829003601f168201915b505050505081565b7f5690342a5622b53ebb7dbf01640710d2f9bf4af2652bffa51830f5fb49cc30b361113781611bf6565b61113f6116f6565b83821461118e5760405162461bcd60e51b815260206004820152601a60248201527f4561636820746f6b656e206e6565647320616e20616d6f756e7400000000000060448201526064016108ea565b6111fc8686868080602002602001604051908101604052809392919081815260200183836020028082843760009201919091525050604080516020808a02828101820190935289825290935089925088918291850190849080828437600092019190915250611db092505050565b60005b848111611262576009600087878481811061121c5761121c613241565b60209081029290920135835250810191909152604001600020805473ffffffffffffffffffffffffffffffffffffffff191690558061125a81613257565b9150506111ff565b50505050505050565b7f9f2df0fed2c77648de5860a4cc508cd0818c85b8b8a1ab4ceeef8d981c8956a661129581611bf6565b6127108211156112e75760405162461bcd60e51b815260206004820152600860248201527f746f6f206869676800000000000000000000000000000000000000000000000060448201526064016108ea565b506040805180820182526001600160a01b03938416815262ffffff928316602080830191825260009687526007905291909420935184549151909216600160a01b027fffffffffffffffffff00000000000000000000000000000000000000000000009091169190921617179055565b610cc1338383611ff5565b6006805461108c906131cf565b60008281526003602052604090206001015461138a81611bf6565b610c348383611c03565b7f9f2df0fed2c77648de5860a4cc508cd0818c85b8b8a1ab4ceeef8d981c8956a66113be81611bf6565b6113c66116f6565b8382146114155760405162461bcd60e51b815260206004820152601a60248201527f4561636820746f6b656e206e6565647320616e20616d6f756e7400000000000060448201526064016108ea565b6114918686868080602002602001604051908101604052809392919081815260200183836020028082843760009201919091525050604080516020808a028281018201909352898252909350899250889182918501908490808284376000920182905250604080516020810190915290815292506120e9915050565b60005b8481116112625786600960008888858181106114b2576114b2613241565b90506020020135815260200190815260200160002060006101000a8154816001600160a01b0302191690836001600160a01b0316021790555080806114f690613257565b915050611494565b7f5690342a5622b53ebb7dbf01640710d2f9bf4af2652bffa51830f5fb49cc30b361152881611bf6565b336001600160a01b038516146115805760405162461bcd60e51b815260206004820181905260248201527f596f752063616e206f6e6c79206275726e20796f7572206f776e20746f6b656e60448201526064016108ea565b61158b8484846122af565b50506000908152600960205260409020805473ffffffffffffffffffffffffffffffffffffffff1916905550565b6001600160a01b0385163314806115d557506115d58533610794565b6116395760405162461bcd60e51b815260206004820152602f60248201527f455243313135353a2063616c6c6572206973206e6f7420746f6b656e206f776e60448201526e195c881b9bdc88185c1c1c9bdd9959608a1b60648201526084016108ea565b610a7b858585858561174b565b6001600160a01b03831633148061166257506116628333610794565b6116c65760405162461bcd60e51b815260206004820152602f60248201527f455243313135353a2063616c6c6572206973206e6f7420746f6b656e206f776e60448201526e195c881b9bdc88185c1c1c9bdd9959608a1b60648201526084016108ea565b610c348383836122af565b60006001600160e01b03198216637965db0b60e01b148061092457506109248261242b565b60045460ff16156117495760405162461bcd60e51b815260206004820152601060248201527f5061757361626c653a207061757365640000000000000000000000000000000060448201526064016108ea565b565b6001600160a01b0384166117af5760405162461bcd60e51b815260206004820152602560248201527f455243313135353a207472616e7366657220746f20746865207a65726f206164604482015264647265737360d81b60648201526084016108ea565b3360006117bb8561247b565b905060006117c88561247b565b90506000868152602081815260408083206001600160a01b038c1684529091529020548581101561184e5760405162461bcd60e51b815260206004820152602a60248201527f455243313135353a20696e73756666696369656e742062616c616e636520666f60448201526939103a3930b739b332b960b11b60648201526084016108ea565b6000878152602081815260408083206001600160a01b038d8116855292528083208985039055908a1682528120805488929061188b908490613270565b909155505060408051888152602081018890526001600160a01b03808b16928c821692918816917fc3d58168c5ae7397731d063d5bbf3d657854427343f4c083240f7aacaa2d0f62910160405180910390a46118eb848a8a8a8a8a6124c6565b505050505050505050565b60008281526003602090815260408083206001600160a01b038516845290915290205460ff16610cc15760008281526003602090815260408083206001600160a01b03851684529091529020805460ff191660011790556119543390565b6001600160a01b0316816001600160a01b0316837f2f8788117e7eff1d82e926ec794901d17c78024a50270940304540a733656f0d60405160405180910390a45050565b81518351146119fa5760405162461bcd60e51b815260206004820152602860248201527f455243313135353a2069647320616e6420616d6f756e7473206c656e677468206044820152670dad2e6dac2e8c6d60c31b60648201526084016108ea565b6001600160a01b038416611a5e5760405162461bcd60e51b815260206004820152602560248201527f455243313135353a207472616e7366657220746f20746865207a65726f206164604482015264647265737360d81b60648201526084016108ea565b3360005b8451811015611b88576000858281518110611a7f57611a7f613241565b602002602001015190506000858381518110611a9d57611a9d613241565b602090810291909101810151600084815280835260408082206001600160a01b038e168352909352919091205490915081811015611b305760405162461bcd60e51b815260206004820152602a60248201527f455243313135353a20696e73756666696369656e742062616c616e636520666f60448201526939103a3930b739b332b960b11b60648201526084016108ea565b6000838152602081815260408083206001600160a01b038e8116855292528083208585039055908b16825281208054849290611b6d908490613270565b9250508190555050505080611b8190613257565b9050611a62565b50846001600160a01b0316866001600160a01b0316826001600160a01b03167f4a39dc06d4c0dbc64b70af90fd698a233a518aa5d07e595d983b8c0526c8f7fb8787604051611bd8929190613288565b60405180910390a4611bee81878787878761266b565b505050505050565b611c008133612767565b50565b60008281526003602090815260408083206001600160a01b038516845290915290205460ff1615610cc15760008281526003602090815260408083206001600160a01b0385168085529252808320805460ff1916905551339285917ff6391f5c32d9c69d2a47ea670b442974b53935d1edc7fd64eb21e047a839171b9190a45050565b6001600160a01b038416611ce65760405162461bcd60e51b815260206004820152602160248201527f455243313135353a206d696e7420746f20746865207a65726f206164647265736044820152607360f81b60648201526084016108ea565b336000611cf28561247b565b90506000611cff8561247b565b90506000868152602081815260408083206001600160a01b038b16845290915281208054879290611d31908490613270565b909155505060408051878152602081018790526001600160a01b03808a1692600092918716917fc3d58168c5ae7397731d063d5bbf3d657854427343f4c083240f7aacaa2d0f62910160405180910390a4611262836000898989896124c6565b60008281526008602090815260409091208251610c3492840190612997565b6001600160a01b038316611e125760405162461bcd60e51b815260206004820152602360248201527f455243313135353a206275726e2066726f6d20746865207a65726f206164647260448201526265737360e81b60648201526084016108ea565b8051825114611e745760405162461bcd60e51b815260206004820152602860248201527f455243313135353a2069647320616e6420616d6f756e7473206c656e677468206044820152670dad2e6dac2e8c6d60c31b60648201526084016108ea565b604080516020810190915260009081905233905b8351811015611f86576000848281518110611ea557611ea5613241565b602002602001015190506000848381518110611ec357611ec3613241565b602090810291909101810151600084815280835260408082206001600160a01b038c168352909352919091205490915081811015611f4f5760405162461bcd60e51b8152602060048201526024808201527f455243313135353a206275726e20616d6f756e7420657863656564732062616c604482015263616e636560e01b60648201526084016108ea565b6000928352602083815260408085206001600160a01b038b1686529091529092209103905580611f7e81613257565b915050611e88565b5060006001600160a01b0316846001600160a01b0316826001600160a01b03167f4a39dc06d4c0dbc64b70af90fd698a233a518aa5d07e595d983b8c0526c8f7fb8686604051611fd7929190613288565b60405180910390a46040805160208101909152600090525b50505050565b816001600160a01b0316836001600160a01b03160361207c5760405162461bcd60e51b815260206004820152602960248201527f455243313135353a2073657474696e6720617070726f76616c2073746174757360448201527f20666f722073656c66000000000000000000000000000000000000000000000060648201526084016108ea565b6001600160a01b03838116600081815260016020908152604080832094871680845294825291829020805460ff191686151590811790915591519182527f17307eab39ab6107e8899845ad3d59bd9653f200f220920489ca2b5937696c31910160405180910390a3505050565b6001600160a01b0384166121495760405162461bcd60e51b815260206004820152602160248201527f455243313135353a206d696e7420746f20746865207a65726f206164647265736044820152607360f81b60648201526084016108ea565b81518351146121ab5760405162461bcd60e51b815260206004820152602860248201527f455243313135353a2069647320616e6420616d6f756e7473206c656e677468206044820152670dad2e6dac2e8c6d60c31b60648201526084016108ea565b3360005b8451811015612247578381815181106121ca576121ca613241565b60200260200101516000808784815181106121e7576121e7613241565b602002602001015181526020019081526020016000206000886001600160a01b03166001600160a01b03168152602001908152602001600020600082825461222f9190613270565b9091555081905061223f81613257565b9150506121af565b50846001600160a01b031660006001600160a01b0316826001600160a01b03167f4a39dc06d4c0dbc64b70af90fd698a233a518aa5d07e595d983b8c0526c8f7fb8787604051612298929190613288565b60405180910390a4610a7b8160008787878761266b565b6001600160a01b0383166123115760405162461bcd60e51b815260206004820152602360248201527f455243313135353a206275726e2066726f6d20746865207a65726f206164647260448201526265737360e81b60648201526084016108ea565b33600061231d8461247b565b9050600061232a8461247b565b60408051602080820183526000918290528882528181528282206001600160a01b038b16835290522054909150848110156123b35760405162461bcd60e51b8152602060048201526024808201527f455243313135353a206275726e20616d6f756e7420657863656564732062616c604482015263616e636560e01b60648201526084016108ea565b6000868152602081815260408083206001600160a01b038b81168086529184528285208a8703905582518b81529384018a90529092908816917fc3d58168c5ae7397731d063d5bbf3d657854427343f4c083240f7aacaa2d0f62910160405180910390a4604080516020810190915260009052611262565b60006001600160e01b03198216636cdb3d1360e11b148061245c57506001600160e01b031982166303a24d0760e21b145b8061092457506301ffc9a760e01b6001600160e01b0319831614610924565b604080516001808252818301909252606091600091906020808301908036833701905050905082816000815181106124b5576124b5613241565b602090810291909101015292915050565b6001600160a01b0384163b15611bee5760405163f23a6e6160e01b81526001600160a01b0385169063f23a6e619061250a90899089908890889088906004016132b6565b6020604051808303816000875af1925050508015612545575060408051601f3d908101601f19168201909252612542918101906132f9565b60015b6125fa57612551613316565b806308c379a00361258a5750612565613332565b80612570575061258c565b8060405162461bcd60e51b81526004016108ea9190612b5c565b505b60405162461bcd60e51b815260206004820152603460248201527f455243313135353a207472616e7366657220746f206e6f6e204552433131353560448201527f526563656976657220696d706c656d656e74657200000000000000000000000060648201526084016108ea565b6001600160e01b0319811663f23a6e6160e01b146112625760405162461bcd60e51b815260206004820152602860248201527f455243313135353a204552433131353552656365697665722072656a656374656044820152676420746f6b656e7360c01b60648201526084016108ea565b6001600160a01b0384163b15611bee5760405163bc197c8160e01b81526001600160a01b0385169063bc197c81906126af90899089908890889088906004016133bc565b6020604051808303816000875af19250505080156126ea575060408051601f3d908101601f191682019092526126e7918101906132f9565b60015b6126f657612551613316565b6001600160e01b0319811663bc197c8160e01b146112625760405162461bcd60e51b815260206004820152602860248201527f455243313135353a204552433131353552656365697665722072656a656374656044820152676420746f6b656e7360c01b60648201526084016108ea565b60008281526003602090815260408083206001600160a01b038516845290915290205460ff16610cc1576127a5816001600160a01b031660146127e7565b6127b08360206127e7565b6040516020016127c192919061341a565b60408051601f198184030181529082905262461bcd60e51b82526108ea91600401612b5c565b606060006127f68360026131b0565b612801906002613270565b67ffffffffffffffff81111561281957612819612b91565b6040519080825280601f01601f191660200182016040528015612843576020820181803683370190505b509050600360fc1b8160008151811061285e5761285e613241565b60200101906001600160f81b031916908160001a905350600f60fb1b8160018151811061288d5761288d613241565b60200101906001600160f81b031916908160001a90535060006128b18460026131b0565b6128bc906001613270565b90505b6001811115612941577f303132333435363738396162636465660000000000000000000000000000000085600f16601081106128fd576128fd613241565b1a60f81b82828151811061291357612913613241565b60200101906001600160f81b031916908160001a90535060049490941c9361293a8161349b565b90506128bf565b5083156129905760405162461bcd60e51b815260206004820181905260248201527f537472696e67733a20686578206c656e67746820696e73756666696369656e7460448201526064016108ea565b9392505050565b8280546129a3906131cf565b90600052602060002090601f0160209004810192826129c55760008555612a0b565b82601f106129de57805160ff1916838001178555612a0b565b82800160010185558215612a0b579182015b82811115612a0b5782518255916020019190600101906129f0565b50612a17929150612a1b565b5090565b5b80821115612a175760008155600101612a1c565b80356001600160a01b0381168114612a4757600080fd5b919050565b60008060408385031215612a5f57600080fd5b612a6883612a30565b946020939093013593505050565b6001600160e01b031981168114611c0057600080fd5b600060208284031215612a9e57600080fd5b813561299081612a76565b60008060008060808587031215612abf57600080fd5b612ac885612a30565b9350612ad660208601612a30565b93969395505050506040820135916060013590565b600060208284031215612afd57600080fd5b5035919050565b60005b83811015612b1f578181015183820152602001612b07565b83811115611fef5750506000910152565b60008151808452612b48816020860160208601612b04565b601f01601f19169290920160200192915050565b6020815260006129906020830184612b30565b60008060408385031215612b8257600080fd5b50508035926020909101359150565b634e487b7160e01b600052604160045260246000fd5b601f8201601f1916810167ffffffffffffffff81118282101715612bcd57612bcd612b91565b6040525050565b600067ffffffffffffffff821115612bee57612bee612b91565b5060051b60200190565b600082601f830112612c0957600080fd5b81356020612c1682612bd4565b604051612c238282612ba7565b83815260059390931b8501820192828101915086841115612c4357600080fd5b8286015b84811015612c5e5780358352918301918301612c47565b509695505050505050565b600082601f830112612c7a57600080fd5b813567ffffffffffffffff811115612c9457612c94612b91565b604051612cab601f8301601f191660200182612ba7565b818152846020838601011115612cc057600080fd5b816020850160208301376000918101602001919091529392505050565b600080600080600060a08688031215612cf557600080fd5b612cfe86612a30565b9450612d0c60208701612a30565b9350604086013567ffffffffffffffff80821115612d2957600080fd5b612d3589838a01612bf8565b94506060880135915080821115612d4b57600080fd5b612d5789838a01612bf8565b93506080880135915080821115612d6d57600080fd5b50612d7a88828901612c69565b9150509295509295909350565b60008060408385031215612d9a57600080fd5b82359150612daa60208401612a30565b90509250929050565b600080600080600060a08688031215612dcb57600080fd5b853560028110612dda57600080fd5b9450612de860208701612a30565b93506040860135925060608601359150608086013567ffffffffffffffff811115612e1257600080fd5b612d7a88828901612c69565b60008060408385031215612e3157600080fd5b823567ffffffffffffffff80821115612e4957600080fd5b818501915085601f830112612e5d57600080fd5b81356020612e6a82612bd4565b604051612e778282612ba7565b83815260059390931b8501820192828101915089841115612e9757600080fd5b948201945b83861015612ebc57612ead86612a30565b82529482019490820190612e9c565b96505086013592505080821115612ed257600080fd5b50610b7885828601612bf8565b600081518084526020808501945080840160005b83811015612f0f57815187529582019590820190600101612ef3565b509495945050505050565b6020815260006129906020830184612edf565b600060208284031215612f3f57600080fd5b813567ffffffffffffffff811115612f5657600080fd5b612f6284828501612c69565b949350505050565b600080600060608486031215612f7f57600080fd5b612f8884612a30565b9250602084013567ffffffffffffffff80821115612fa557600080fd5b612fb187838801612bf8565b93506040860135915080821115612fc757600080fd5b50612fd486828701612bf8565b9150509250925092565b60008083601f840112612ff057600080fd5b50813567ffffffffffffffff81111561300857600080fd5b6020830191508360208260051b850101111561302357600080fd5b9250929050565b60008060008060006060868803121561304257600080fd5b61304b86612a30565b9450602086013567ffffffffffffffff8082111561306857600080fd5b61307489838a01612fde565b9096509450604088013591508082111561308d57600080fd5b5061309a88828901612fde565b969995985093965092949392505050565b6000806000606084860312156130c057600080fd5b833592506130d060208501612a30565b9150604084013590509250925092565b600080604083850312156130f357600080fd5b6130fc83612a30565b91506020830135801515811461311157600080fd5b809150509250929050565b6000806040838503121561312f57600080fd5b61313883612a30565b9150612daa60208401612a30565b60008060006060848603121561315b57600080fd5b61316484612a30565b95602085013595506040909401359392505050565b600080600080600060a0868803121561319157600080fd5b612dda86612a30565b634e487b7160e01b600052601160045260246000fd5b60008160001904831182151516156131ca576131ca61319a565b500290565b600181811c908216806131e357607f821691505b60208210810361320357634e487b7160e01b600052602260045260246000fd5b50919050565b60008261322657634e487b7160e01b600052601260045260246000fd5b500490565b634e487b7160e01b600052602160045260246000fd5b634e487b7160e01b600052603260045260246000fd5b6000600182016132695761326961319a565b5060010190565b600082198211156132835761328361319a565b500190565b60408152600061329b6040830185612edf565b82810360208401526132ad8185612edf565b95945050505050565b60006001600160a01b03808816835280871660208401525084604083015283606083015260a060808301526132ee60a0830184612b30565b979650505050505050565b60006020828403121561330b57600080fd5b815161299081612a76565b600060033d111561332f5760046000803e5060005160e01c5b90565b600060443d10156133405790565b6040516003193d81016004833e81513d67ffffffffffffffff816024840111818411171561337057505050505090565b82850191508151818111156133885750505050505090565b843d87010160208285010111156133a25750505050505090565b6133b160208286010187612ba7565b509095945050505050565b60006001600160a01b03808816835280871660208401525060a060408301526133e860a0830186612edf565b82810360608401526133fa8186612edf565b9050828103608084015261340e8185612b30565b98975050505050505050565b7f416363657373436f6e74726f6c3a206163636f756e7420000000000000000000815260008351613452816017850160208801612b04565b7f206973206d697373696e6720726f6c6520000000000000000000000000000000601791840191820152835161348f816028840160208801612b04565b01602801949350505050565b6000816134aa576134aa61319a565b50600019019056fea2646970667358221220bb3b3736c4756dc2899a4511d048af3dd73b73dc03337a9e69b7530ac912662f64736f6c634300080d0033",
      "opcodes": "PUSH1 0xC0 PUSH1 0x40 MSTORE PUSH1 0x5 PUSH1 0x80 DUP2 SWAP1 MSTORE PUSH5 0x173539B7B7 PUSH1 0xD9 SHL PUSH1 0xA0 SWAP1 DUP2 MSTORE PUSH3 0x28 SWAP2 PUSH1 0x6 SWAP2 SWAP1 PUSH3 0x1E8 JUMP JUMPDEST POP CALLVALUE DUP1 ISZERO PUSH3 0x36 JUMPI PUSH1 0x0 DUP1 REVERT JUMPDEST POP PUSH1 0x40 DUP1 MLOAD PUSH1 0x20 DUP2 ADD SWAP1 SWAP2 MSTORE PUSH1 0x0 DUP2 MSTORE PUSH3 0x51 DUP2 PUSH3 0x6C JUMP JUMPDEST POP PUSH1 0x4 DUP1 SLOAD PUSH1 0xFF NOT AND SWAP1 SSTORE PUSH3 0x66 PUSH3 0x85 JUMP JUMPDEST PUSH3 0x2CA JUMP JUMPDEST DUP1 MLOAD PUSH3 0x81 SWAP1 PUSH1 0x2 SWAP1 PUSH1 0x20 DUP5 ADD SWAP1 PUSH3 0x1E8 JUMP JUMPDEST POP POP JUMP JUMPDEST PUSH3 0x92 PUSH1 0x0 CALLER PUSH3 0x144 JUMP JUMPDEST PUSH3 0xBE PUSH32 0x7804D923F43A17D325D77E781528E0793B2EDD9890AB45FC64EFD7B4B427744C CALLER PUSH3 0x144 JUMP JUMPDEST PUSH3 0xEA PUSH32 0x9F2DF0FED2C77648DE5860A4CC508CD0818C85B8B8A1AB4CEEEF8D981C8956A6 CALLER PUSH3 0x144 JUMP JUMPDEST PUSH3 0x116 PUSH32 0x5690342A5622B53EBB7DBF01640710D2F9BF4AF2652BFFA51830F5FB49CC30B3 CALLER PUSH3 0x144 JUMP JUMPDEST PUSH3 0x142 PUSH32 0xDEE5DD6A5465C6132EDA87E8CB3980B287F43D6F5332A897E4A238C66A15AEC2 CALLER PUSH3 0x144 JUMP JUMPDEST JUMP JUMPDEST PUSH1 0x0 DUP3 DUP2 MSTORE PUSH1 0x3 PUSH1 0x20 SWAP1 DUP2 MSTORE PUSH1 0x40 DUP1 DUP4 KECCAK256 PUSH1 0x1 PUSH1 0x1 PUSH1 0xA0 SHL SUB DUP6 AND DUP5 MSTORE SWAP1 SWAP2 MSTORE SWAP1 KECCAK256 SLOAD PUSH1 0xFF AND PUSH3 0x81 JUMPI PUSH1 0x0 DUP3 DUP2 MSTORE PUSH1 0x3 PUSH1 0x20 SWAP1 DUP2 MSTORE PUSH1 0x40 DUP1 DUP4 KECCAK256 PUSH1 0x1 PUSH1 0x1 PUSH1 0xA0 SHL SUB DUP6 AND DUP5 MSTORE SWAP1 SWAP2 MSTORE SWAP1 KECCAK256 DUP1 SLOAD PUSH1 0xFF NOT AND PUSH1 0x1 OR SWAP1 SSTORE PUSH3 0x1A4 CALLER SWAP1 JUMP JUMPDEST PUSH1 0x1 PUSH1 0x1 PUSH1 0xA0 SHL SUB AND DUP2 PUSH1 0x1 PUSH1 0x1 PUSH1 0xA0 SHL SUB AND DUP4 PUSH32 0x2F8788117E7EFF1D82E926EC794901D17C78024A50270940304540A733656F0D PUSH1 0x40 MLOAD PUSH1 0x40 MLOAD DUP1 SWAP2 SUB SWAP1 LOG4 POP POP JUMP JUMPDEST DUP3 DUP1 SLOAD PUSH3 0x1F6 SWAP1 PUSH3 0x28E JUMP JUMPDEST SWAP1 PUSH1 0x0 MSTORE PUSH1 0x20 PUSH1 0x0 KECCAK256 SWAP1 PUSH1 0x1F ADD PUSH1 0x20 SWAP1 DIV DUP2 ADD SWAP3 DUP3 PUSH3 0x21A JUMPI PUSH1 0x0 DUP6 SSTORE PUSH3 0x265 JUMP JUMPDEST DUP3 PUSH1 0x1F LT PUSH3 0x235 JUMPI DUP1 MLOAD PUSH1 0xFF NOT AND DUP4 DUP1 ADD OR DUP6 SSTORE PUSH3 0x265 JUMP JUMPDEST DUP3 DUP1 ADD PUSH1 0x1 ADD DUP6 SSTORE DUP3 ISZERO PUSH3 0x265 JUMPI SWAP2 DUP3 ADD JUMPDEST DUP3 DUP2 GT ISZERO PUSH3 0x265 JUMPI DUP3 MLOAD DUP3 SSTORE SWAP2 PUSH1 0x20 ADD SWAP2 SWAP1 PUSH1 0x1 ADD SWAP1 PUSH3 0x248 JUMP JUMPDEST POP PUSH3 0x273 SWAP3 SWAP2 POP PUSH3 0x277 JUMP JUMPDEST POP SWAP1 JUMP JUMPDEST JUMPDEST DUP1 DUP3 GT ISZERO PUSH3 0x273 JUMPI PUSH1 0x0 DUP2 SSTORE PUSH1 0x1 ADD PUSH3 0x278 JUMP JUMPDEST PUSH1 0x1 DUP2 DUP2 SHR SWAP1 DUP3 AND DUP1 PUSH3 0x2A3 JUMPI PUSH1 0x7F DUP3 AND SWAP2 POP JUMPDEST PUSH1 0x20 DUP3 LT DUP2 SUB PUSH3 0x2C4 JUMPI PUSH4 0x4E487B71 PUSH1 0xE0 SHL PUSH1 0x0 MSTORE PUSH1 0x22 PUSH1 0x4 MSTORE PUSH1 0x24 PUSH1 0x0 REVERT JUMPDEST POP SWAP2 SWAP1 POP JUMP JUMPDEST PUSH2 0x34E8 DUP1 PUSH3 0x2DA PUSH1 0x0 CODECOPY PUSH1 0x0 RETURN INVALID PUSH1 0x80 PUSH1 0x40 MSTORE PUSH1 0x4 CALLDATASIZE LT PUSH2 0x29F JUMPI PUSH1 0x0 CALLDATALOAD PUSH1 0xE0 SHR DUP1 PUSH4 0x8A5927E8 GT PUSH2 0x16E JUMPI DUP1 PUSH4 0xD547741F GT PUSH2 0xCB JUMPI DUP1 PUSH4 0xE985E9C5 GT PUSH2 0x7F JUMPI DUP1 PUSH4 0xF242432A GT PUSH2 0x64 JUMPI DUP1 PUSH4 0xF242432A EQ PUSH2 0x7E2 JUMPI DUP1 PUSH4 0xF5298ACA EQ PUSH2 0x802 JUMPI DUP1 PUSH4 0xF8A14F46 EQ PUSH2 0x822 JUMPI PUSH1 0x0 DUP1 REVERT JUMPDEST DUP1 PUSH4 0xE985E9C5 EQ PUSH2 0x779 JUMPI DUP1 PUSH4 0xEC1CA9B8 EQ PUSH2 0x7C2 JUMPI PUSH1 0x0 DUP1 REVERT JUMPDEST DUP1 PUSH4 0xE5AFE3E6 GT PUSH2 0xB0 JUMPI DUP1 PUSH4 0xE5AFE3E6 EQ PUSH2 0x6E4 JUMPI DUP1 PUSH4 0xE5DC4D72 EQ PUSH2 0x711 JUMPI DUP1 PUSH4 0xE63AB1E9 EQ PUSH2 0x745 JUMPI PUSH1 0x0 DUP1 REVERT JUMPDEST DUP1 PUSH4 0xD547741F EQ PUSH2 0x6A4 JUMPI DUP1 PUSH4 0xD81D0A15 EQ PUSH2 0x6C4 JUMPI PUSH1 0x0 DUP1 REVERT JUMPDEST DUP1 PUSH4 0xA22CB465 GT PUSH2 0x122 JUMPI DUP1 PUSH4 0xB8F7C8D3 GT PUSH2 0x107 JUMPI DUP1 PUSH4 0xB8F7C8D3 EQ PUSH2 0x646 JUMPI DUP1 PUSH4 0xC6682862 EQ PUSH2 0x65B JUMPI DUP1 PUSH4 0xD5391393 EQ PUSH2 0x670 JUMPI PUSH1 0x0 DUP1 REVERT JUMPDEST DUP1 PUSH4 0xA22CB465 EQ PUSH2 0x626 JUMPI DUP1 PUSH4 0xB053B5FF EQ PUSH2 0x44C JUMPI PUSH1 0x0 DUP1 REVERT JUMPDEST DUP1 PUSH4 0x97059E32 GT PUSH2 0x153 JUMPI DUP1 PUSH4 0x97059E32 EQ PUSH2 0x5BD JUMPI DUP1 PUSH4 0x9713C807 EQ PUSH2 0x5F1 JUMPI DUP1 PUSH4 0xA217FDDF EQ PUSH2 0x611 JUMPI PUSH1 0x0 DUP1 REVERT JUMPDEST DUP1 PUSH4 0x8A5927E8 EQ PUSH2 0x557 JUMPI DUP1 PUSH4 0x91D14854 EQ PUSH2 0x577 JUMPI PUSH1 0x0 DUP1 REVERT JUMPDEST DUP1 PUSH4 0x36568ABE GT PUSH2 0x21C JUMPI DUP1 PUSH4 0x5C975ABB GT PUSH2 0x1D0 JUMPI DUP1 PUSH4 0x6C0360EB GT PUSH2 0x1B5 JUMPI DUP1 PUSH4 0x6C0360EB EQ PUSH2 0x4F9 JUMPI DUP1 PUSH4 0x6CC606A6 EQ PUSH2 0x50E JUMPI DUP1 PUSH4 0x7F345710 EQ PUSH2 0x523 JUMPI PUSH1 0x0 DUP1 REVERT JUMPDEST DUP1 PUSH4 0x5C975ABB EQ PUSH2 0x4C1 JUMPI DUP1 PUSH4 0x6B20C454 EQ PUSH2 0x4D9 JUMPI PUSH1 0x0 DUP1 REVERT JUMPDEST DUP1 PUSH4 0x42061E9F GT PUSH2 0x201 JUMPI DUP1 PUSH4 0x42061E9F EQ PUSH2 0x461 JUMPI DUP1 PUSH4 0x4E1273F4 EQ PUSH2 0x474 JUMPI DUP1 PUSH4 0x55F804B3 EQ PUSH2 0x4A1 JUMPI PUSH1 0x0 DUP1 REVERT JUMPDEST DUP1 PUSH4 0x36568ABE EQ PUSH2 0x42C JUMPI DUP1 PUSH4 0x3765ECF7 EQ PUSH2 0x44C JUMPI PUSH1 0x0 DUP1 REVERT JUMPDEST DUP1 PUSH4 0x248A9CA3 GT PUSH2 0x273 JUMPI DUP1 PUSH4 0x2EB2C2D6 GT PUSH2 0x258 JUMPI DUP1 PUSH4 0x2EB2C2D6 EQ PUSH2 0x3B8 JUMPI DUP1 PUSH4 0x2F2FF15D EQ PUSH2 0x3D8 JUMPI DUP1 PUSH4 0x357FA9DB EQ PUSH2 0x3F8 JUMPI PUSH1 0x0 DUP1 REVERT JUMPDEST DUP1 PUSH4 0x248A9CA3 EQ PUSH2 0x349 JUMPI DUP1 PUSH4 0x2A55205A EQ PUSH2 0x379 JUMPI PUSH1 0x0 DUP1 REVERT JUMPDEST DUP1 PUSH3 0xFDD58E EQ PUSH2 0x2A4 JUMPI DUP1 PUSH4 0x1FFC9A7 EQ PUSH2 0x2D7 JUMPI DUP1 PUSH4 0x411B252 EQ PUSH2 0x307 JUMPI DUP1 PUSH4 0xE89341C EQ PUSH2 0x31C JUMPI JUMPDEST PUSH1 0x0 DUP1 REVERT JUMPDEST CALLVALUE DUP1 ISZERO PUSH2 0x2B0 JUMPI PUSH1 0x0 DUP1 REVERT JUMPDEST POP PUSH2 0x2C4 PUSH2 0x2BF CALLDATASIZE PUSH1 0x4 PUSH2 0x2A4C JUMP JUMPDEST PUSH2 0x870 JUMP JUMPDEST PUSH1 0x40 MLOAD SWAP1 DUP2 MSTORE PUSH1 0x20 ADD JUMPDEST PUSH1 0x40 MLOAD DUP1 SWAP2 SUB SWAP1 RETURN JUMPDEST CALLVALUE DUP1 ISZERO PUSH2 0x2E3 JUMPI PUSH1 0x0 DUP1 REVERT JUMPDEST POP PUSH2 0x2F7 PUSH2 0x2F2 CALLDATASIZE PUSH1 0x4 PUSH2 0x2A8C JUMP JUMPDEST PUSH2 0x919 JUMP JUMPDEST PUSH1 0x40 MLOAD SWAP1 ISZERO ISZERO DUP2 MSTORE PUSH1 0x20 ADD PUSH2 0x2CE JUMP JUMPDEST PUSH2 0x31A PUSH2 0x315 CALLDATASIZE PUSH1 0x4 PUSH2 0x2AA9 JUMP JUMPDEST PUSH2 0x92A JUMP JUMPDEST STOP JUMPDEST CALLVALUE DUP1 ISZERO PUSH2 0x328 JUMPI PUSH1 0x0 DUP1 REVERT JUMPDEST POP PUSH2 0x33C PUSH2 0x337 CALLDATASIZE PUSH1 0x4 PUSH2 0x2AEB JUMP JUMPDEST PUSH2 0xA82 JUMP JUMPDEST PUSH1 0x40 MLOAD PUSH2 0x2CE SWAP2 SWAP1 PUSH2 0x2B5C JUMP JUMPDEST CALLVALUE DUP1 ISZERO PUSH2 0x355 JUMPI PUSH1 0x0 DUP1 REVERT JUMPDEST POP PUSH2 0x2C4 PUSH2 0x364 CALLDATASIZE PUSH1 0x4 PUSH2 0x2AEB JUMP JUMPDEST PUSH1 0x0 SWAP1 DUP2 MSTORE PUSH1 0x3 PUSH1 0x20 MSTORE PUSH1 0x40 SWAP1 KECCAK256 PUSH1 0x1 ADD SLOAD SWAP1 JUMP JUMPDEST CALLVALUE DUP1 ISZERO PUSH2 0x385 JUMPI PUSH1 0x0 DUP1 REVERT JUMPDEST POP PUSH2 0x399 PUSH2 0x394 CALLDATASIZE PUSH1 0x4 PUSH2 0x2B6F JUMP JUMPDEST PUSH2 0xB24 JUMP JUMPDEST PUSH1 0x40 DUP1 MLOAD PUSH1 0x1 PUSH1 0x1 PUSH1 0xA0 SHL SUB SWAP1 SWAP4 AND DUP4 MSTORE PUSH1 0x20 DUP4 ADD SWAP2 SWAP1 SWAP2 MSTORE ADD PUSH2 0x2CE JUMP JUMPDEST CALLVALUE DUP1 ISZERO PUSH2 0x3C4 JUMPI PUSH1 0x0 DUP1 REVERT JUMPDEST POP PUSH2 0x31A PUSH2 0x3D3 CALLDATASIZE PUSH1 0x4 PUSH2 0x2CDD JUMP JUMPDEST PUSH2 0xB82 JUMP JUMPDEST CALLVALUE DUP1 ISZERO PUSH2 0x3E4 JUMPI PUSH1 0x0 DUP1 REVERT JUMPDEST POP PUSH2 0x31A PUSH2 0x3F3 CALLDATASIZE PUSH1 0x4 PUSH2 0x2D87 JUMP JUMPDEST PUSH2 0xC0F JUMP JUMPDEST CALLVALUE DUP1 ISZERO PUSH2 0x404 JUMPI PUSH1 0x0 DUP1 REVERT JUMPDEST POP PUSH2 0x2C4 PUSH32 0xDEE5DD6A5465C6132EDA87E8CB3980B287F43D6F5332A897E4A238C66A15AEC2 DUP2 JUMP JUMPDEST CALLVALUE DUP1 ISZERO PUSH2 0x438 JUMPI PUSH1 0x0 DUP1 REVERT JUMPDEST POP PUSH2 0x31A PUSH2 0x447 CALLDATASIZE PUSH1 0x4 PUSH2 0x2D87 JUMP JUMPDEST PUSH2 0xC39 JUMP JUMPDEST CALLVALUE DUP1 ISZERO PUSH2 0x458 JUMPI PUSH1 0x0 DUP1 REVERT JUMPDEST POP PUSH2 0x2C4 PUSH1 0x3 DUP2 JUMP JUMPDEST PUSH2 0x31A PUSH2 0x46F CALLDATASIZE PUSH1 0x4 PUSH2 0x2DB3 JUMP JUMPDEST PUSH2 0xCC5 JUMP JUMPDEST CALLVALUE DUP1 ISZERO PUSH2 0x480 JUMPI PUSH1 0x0 DUP1 REVERT JUMPDEST POP PUSH2 0x494 PUSH2 0x48F CALLDATASIZE PUSH1 0x4 PUSH2 0x2E1E JUMP JUMPDEST PUSH2 0xE79 JUMP JUMPDEST PUSH1 0x40 MLOAD PUSH2 0x2CE SWAP2 SWAP1 PUSH2 0x2F1A JUMP JUMPDEST CALLVALUE DUP1 ISZERO PUSH2 0x4AD JUMPI PUSH1 0x0 DUP1 REVERT JUMPDEST POP PUSH2 0x31A PUSH2 0x4BC CALLDATASIZE PUSH1 0x4 PUSH2 0x2F2D JUMP JUMPDEST PUSH2 0xFB7 JUMP JUMPDEST CALLVALUE DUP1 ISZERO PUSH2 0x4CD JUMPI PUSH1 0x0 DUP1 REVERT JUMPDEST POP PUSH1 0x4 SLOAD PUSH1 0xFF AND PUSH2 0x2F7 JUMP JUMPDEST CALLVALUE DUP1 ISZERO PUSH2 0x4E5 JUMPI PUSH1 0x0 DUP1 REVERT JUMPDEST POP PUSH2 0x31A PUSH2 0x4F4 CALLDATASIZE PUSH1 0x4 PUSH2 0x2F6A JUMP JUMPDEST PUSH2 0xFF4 JUMP JUMPDEST CALLVALUE DUP1 ISZERO PUSH2 0x505 JUMPI PUSH1 0x0 DUP1 REVERT JUMPDEST POP PUSH2 0x33C PUSH2 0x107F JUMP JUMPDEST CALLVALUE DUP1 ISZERO PUSH2 0x51A JUMPI PUSH1 0x0 DUP1 REVERT JUMPDEST POP PUSH2 0x2C4 PUSH1 0x1 DUP2 JUMP JUMPDEST CALLVALUE DUP1 ISZERO PUSH2 0x52F JUMPI PUSH1 0x0 DUP1 REVERT JUMPDEST POP PUSH2 0x2C4 PUSH32 0x7804D923F43A17D325D77E781528E0793B2EDD9890AB45FC64EFD7B4B427744C DUP2 JUMP JUMPDEST CALLVALUE DUP1 ISZERO PUSH2 0x563 JUMPI PUSH1 0x0 DUP1 REVERT JUMPDEST POP PUSH2 0x31A PUSH2 0x572 CALLDATASIZE PUSH1 0x4 PUSH2 0x302A JUMP JUMPDEST PUSH2 0x110D JUMP JUMPDEST CALLVALUE DUP1 ISZERO PUSH2 0x583 JUMPI PUSH1 0x0 DUP1 REVERT JUMPDEST POP PUSH2 0x2F7 PUSH2 0x592 CALLDATASIZE PUSH1 0x4 PUSH2 0x2D87 JUMP JUMPDEST PUSH1 0x0 SWAP2 DUP3 MSTORE PUSH1 0x3 PUSH1 0x20 SWAP1 DUP2 MSTORE PUSH1 0x40 DUP1 DUP5 KECCAK256 PUSH1 0x1 PUSH1 0x1 PUSH1 0xA0 SHL SUB SWAP4 SWAP1 SWAP4 AND DUP5 MSTORE SWAP2 SWAP1 MSTORE SWAP1 KECCAK256 SLOAD PUSH1 0xFF AND SWAP1 JUMP JUMPDEST CALLVALUE DUP1 ISZERO PUSH2 0x5C9 JUMPI PUSH1 0x0 DUP1 REVERT JUMPDEST POP PUSH2 0x2C4 PUSH32 0xE16362B29ABC3A852E3B6D27B96BD379CB709B115D4EDD02E14F8669095DC59E DUP2 JUMP JUMPDEST CALLVALUE DUP1 ISZERO PUSH2 0x5FD JUMPI PUSH1 0x0 DUP1 REVERT JUMPDEST POP PUSH2 0x31A PUSH2 0x60C CALLDATASIZE PUSH1 0x4 PUSH2 0x30AB JUMP JUMPDEST PUSH2 0x126B JUMP JUMPDEST CALLVALUE DUP1 ISZERO PUSH2 0x61D JUMPI PUSH1 0x0 DUP1 REVERT JUMPDEST POP PUSH2 0x2C4 PUSH1 0x0 DUP2 JUMP JUMPDEST CALLVALUE DUP1 ISZERO PUSH2 0x632 JUMPI PUSH1 0x0 DUP1 REVERT JUMPDEST POP PUSH2 0x31A PUSH2 0x641 CALLDATASIZE PUSH1 0x4 PUSH2 0x30E0 JUMP JUMPDEST PUSH2 0x1357 JUMP JUMPDEST CALLVALUE DUP1 ISZERO PUSH2 0x652 JUMPI PUSH1 0x0 DUP1 REVERT JUMPDEST POP PUSH2 0x2C4 PUSH1 0x2 DUP2 JUMP JUMPDEST CALLVALUE DUP1 ISZERO PUSH2 0x667 JUMPI PUSH1 0x0 DUP1 REVERT JUMPDEST POP PUSH2 0x33C PUSH2 0x1362 JUMP JUMPDEST CALLVALUE DUP1 ISZERO PUSH2 0x67C JUMPI PUSH1 0x0 DUP1 REVERT JUMPDEST POP PUSH2 0x2C4 PUSH32 0x9F2DF0FED2C77648DE5860A4CC508CD0818C85B8B8A1AB4CEEEF8D981C8956A6 DUP2 JUMP JUMPDEST CALLVALUE DUP1 ISZERO PUSH2 0x6B0 JUMPI PUSH1 0x0 DUP1 REVERT JUMPDEST POP PUSH2 0x31A PUSH2 0x6BF CALLDATASIZE PUSH1 0x4 PUSH2 0x2D87 JUMP JUMPDEST PUSH2 0x136F JUMP JUMPDEST CALLVALUE DUP1 ISZERO PUSH2 0x6D0 JUMPI PUSH1 0x0 DUP1 REVERT JUMPDEST POP PUSH2 0x31A PUSH2 0x6DF CALLDATASIZE PUSH1 0x4 PUSH2 0x302A JUMP JUMPDEST PUSH2 0x1394 JUMP JUMPDEST CALLVALUE DUP1 ISZERO PUSH2 0x6F0 JUMPI PUSH1 0x0 DUP1 REVERT JUMPDEST POP PUSH2 0x2C4 PUSH2 0x6FF CALLDATASIZE PUSH1 0x4 PUSH2 0x2AEB JUMP JUMPDEST PUSH1 0xA PUSH1 0x20 MSTORE PUSH1 0x0 SWAP1 DUP2 MSTORE PUSH1 0x40 SWAP1 KECCAK256 SLOAD DUP2 JUMP JUMPDEST CALLVALUE DUP1 ISZERO PUSH2 0x71D JUMPI PUSH1 0x0 DUP1 REVERT JUMPDEST POP PUSH2 0x2C4 PUSH32 0x5690342A5622B53EBB7DBF01640710D2F9BF4AF2652BFFA51830F5FB49CC30B3 DUP2 JUMP JUMPDEST CALLVALUE DUP1 ISZERO PUSH2 0x751 JUMPI PUSH1 0x0 DUP1 REVERT JUMPDEST POP PUSH2 0x2C4 PUSH32 0x65D7A28E3265B37A6474929F336521B332C1681B933F6CB9F3376673440D862A DUP2 JUMP JUMPDEST CALLVALUE DUP1 ISZERO PUSH2 0x785 JUMPI PUSH1 0x0 DUP1 REVERT JUMPDEST POP PUSH2 0x2F7 PUSH2 0x794 CALLDATASIZE PUSH1 0x4 PUSH2 0x311C JUMP JUMPDEST PUSH1 0x1 PUSH1 0x1 PUSH1 0xA0 SHL SUB SWAP2 DUP3 AND PUSH1 0x0 SWAP1 DUP2 MSTORE PUSH1 0x1 PUSH1 0x20 SWAP1 DUP2 MSTORE PUSH1 0x40 DUP1 DUP4 KECCAK256 SWAP4 SWAP1 SWAP5 AND DUP3 MSTORE SWAP2 SWAP1 SWAP2 MSTORE KECCAK256 SLOAD PUSH1 0xFF AND SWAP1 JUMP JUMPDEST CALLVALUE DUP1 ISZERO PUSH2 0x7CE JUMPI PUSH1 0x0 DUP1 REVERT JUMPDEST POP PUSH2 0x31A PUSH2 0x7DD CALLDATASIZE PUSH1 0x4 PUSH2 0x3146 JUMP JUMPDEST PUSH2 0x14FE JUMP JUMPDEST CALLVALUE DUP1 ISZERO PUSH2 0x7EE JUMPI PUSH1 0x0 DUP1 REVERT JUMPDEST POP PUSH2 0x31A PUSH2 0x7FD CALLDATASIZE PUSH1 0x4 PUSH2 0x3179 JUMP JUMPDEST PUSH2 0x15B9 JUMP JUMPDEST CALLVALUE DUP1 ISZERO PUSH2 0x80E JUMPI PUSH1 0x0 DUP1 REVERT JUMPDEST POP PUSH2 0x31A PUSH2 0x81D CALLDATASIZE PUSH1 0x4 PUSH2 0x3146 JUMP JUMPDEST PUSH2 0x1646 JUMP JUMPDEST CALLVALUE DUP1 ISZERO PUSH2 0x82E JUMPI PUSH1 0x0 DUP1 REVERT JUMPDEST POP PUSH2 0x858 PUSH2 0x83D CALLDATASIZE PUSH1 0x4 PUSH2 0x2AEB JUMP JUMPDEST PUSH1 0x9 PUSH1 0x20 MSTORE PUSH1 0x0 SWAP1 DUP2 MSTORE PUSH1 0x40 SWAP1 KECCAK256 SLOAD PUSH1 0x1 PUSH1 0x1 PUSH1 0xA0 SHL SUB AND DUP2 JUMP JUMPDEST PUSH1 0x40 MLOAD PUSH1 0x1 PUSH1 0x1 PUSH1 0xA0 SHL SUB SWAP1 SWAP2 AND DUP2 MSTORE PUSH1 0x20 ADD PUSH2 0x2CE JUMP JUMPDEST PUSH1 0x0 PUSH1 0x1 PUSH1 0x1 PUSH1 0xA0 SHL SUB DUP4 AND PUSH2 0x8F3 JUMPI PUSH1 0x40 MLOAD PUSH3 0x461BCD PUSH1 0xE5 SHL DUP2 MSTORE PUSH1 0x20 PUSH1 0x4 DUP3 ADD MSTORE PUSH1 0x2A PUSH1 0x24 DUP3 ADD MSTORE PUSH32 0x455243313135353A2061646472657373207A65726F206973206E6F7420612076 PUSH1 0x44 DUP3 ADD MSTORE PUSH32 0x616C6964206F776E657200000000000000000000000000000000000000000000 PUSH1 0x64 DUP3 ADD MSTORE PUSH1 0x84 ADD JUMPDEST PUSH1 0x40 MLOAD DUP1 SWAP2 SUB SWAP1 REVERT JUMPDEST POP PUSH1 0x0 SWAP1 DUP2 MSTORE PUSH1 0x20 DUP2 DUP2 MSTORE PUSH1 0x40 DUP1 DUP4 KECCAK256 PUSH1 0x1 PUSH1 0x1 PUSH1 0xA0 SHL SUB SWAP5 SWAP1 SWAP5 AND DUP4 MSTORE SWAP3 SWAP1 MSTORE KECCAK256 SLOAD SWAP1 JUMP JUMPDEST PUSH1 0x0 PUSH2 0x924 DUP3 PUSH2 0x16D1 JUMP JUMPDEST SWAP3 SWAP2 POP POP JUMP JUMPDEST PUSH2 0x932 PUSH2 0x16F6 JUMP JUMPDEST CALLER PUSH1 0x1 PUSH1 0x1 PUSH1 0xA0 SHL SUB DUP6 AND EQ PUSH2 0x98A JUMPI PUSH1 0x40 MLOAD PUSH3 0x461BCD PUSH1 0xE5 SHL DUP2 MSTORE PUSH1 0x20 PUSH1 0x4 DUP3 ADD MSTORE PUSH1 0xE PUSH1 0x24 DUP3 ADD MSTORE PUSH32 0x6E6F7420617574686F72697A6564000000000000000000000000000000000000 PUSH1 0x44 DUP3 ADD MSTORE PUSH1 0x64 ADD PUSH2 0x8EA JUMP JUMPDEST PUSH1 0x0 DUP3 DUP2 MSTORE PUSH1 0xA PUSH1 0x20 MSTORE PUSH1 0x40 DUP2 KECCAK256 SLOAD PUSH2 0x9A4 SWAP1 DUP4 SWAP1 PUSH2 0x31B0 JUMP JUMPDEST SWAP1 POP DUP1 CALLVALUE LT ISZERO PUSH2 0x9F6 JUMPI PUSH1 0x40 MLOAD PUSH3 0x461BCD PUSH1 0xE5 SHL DUP2 MSTORE PUSH1 0x20 PUSH1 0x4 DUP3 ADD MSTORE PUSH1 0x12 PUSH1 0x24 DUP3 ADD MSTORE PUSH32 0x496E73756666696369656E742066756E64730000000000000000000000000000 PUSH1 0x44 DUP3 ADD MSTORE PUSH1 0x64 ADD PUSH2 0x8EA JUMP JUMPDEST PUSH2 0xA12 DUP6 DUP6 DUP6 DUP6 PUSH1 0x40 MLOAD DUP1 PUSH1 0x20 ADD PUSH1 0x40 MSTORE DUP1 PUSH1 0x0 DUP2 MSTORE POP PUSH2 0x174B JUMP JUMPDEST PUSH1 0x1 PUSH1 0x1 PUSH1 0xA0 SHL SUB DUP5 AND PUSH1 0x0 SWAP1 DUP2 MSTORE PUSH32 0xAE31DE4E6EB5EF760DD5745B55A6757794DFBCC58D4DABD5746FB21D667FF6B7 PUSH1 0x20 MSTORE PUSH1 0x40 SWAP1 KECCAK256 SLOAD PUSH1 0xFF AND PUSH2 0xA7B JUMPI PUSH2 0xA7B PUSH32 0x5690342A5622B53EBB7DBF01640710D2F9BF4AF2652BFFA51830F5FB49CC30B3 DUP6 PUSH2 0x18F6 JUMP JUMPDEST POP POP POP POP POP JUMP JUMPDEST PUSH1 0x0 DUP2 DUP2 MSTORE PUSH1 0x8 PUSH1 0x20 MSTORE PUSH1 0x40 SWAP1 KECCAK256 DUP1 SLOAD PUSH1 0x60 SWAP2 SWAP1 PUSH2 0xA9F SWAP1 PUSH2 0x31CF JUMP JUMPDEST DUP1 PUSH1 0x1F ADD PUSH1 0x20 DUP1 SWAP2 DIV MUL PUSH1 0x20 ADD PUSH1 0x40 MLOAD SWAP1 DUP2 ADD PUSH1 0x40 MSTORE DUP1 SWAP3 SWAP2 SWAP1 DUP2 DUP2 MSTORE PUSH1 0x20 ADD DUP3 DUP1 SLOAD PUSH2 0xACB SWAP1 PUSH2 0x31CF JUMP JUMPDEST DUP1 ISZERO PUSH2 0xB18 JUMPI DUP1 PUSH1 0x1F LT PUSH2 0xAED JUMPI PUSH2 0x100 DUP1 DUP4 SLOAD DIV MUL DUP4 MSTORE SWAP2 PUSH1 0x20 ADD SWAP2 PUSH2 0xB18 JUMP JUMPDEST DUP3 ADD SWAP2 SWAP1 PUSH1 0x0 MSTORE PUSH1 0x20 PUSH1 0x0 KECCAK256 SWAP1 JUMPDEST DUP2 SLOAD DUP2 MSTORE SWAP1 PUSH1 0x1 ADD SWAP1 PUSH1 0x20 ADD DUP1 DUP4 GT PUSH2 0xAFB JUMPI DUP3 SWAP1 SUB PUSH1 0x1F AND DUP3 ADD SWAP2 JUMPDEST POP POP POP POP POP SWAP1 POP SWAP2 SWAP1 POP JUMP JUMPDEST PUSH1 0x0 DUP3 DUP2 MSTORE PUSH1 0x7 PUSH1 0x20 SWAP1 DUP2 MSTORE PUSH1 0x40 DUP1 DUP4 KECCAK256 DUP2 MLOAD DUP1 DUP4 ADD SWAP1 SWAP3 MSTORE SLOAD PUSH1 0x1 PUSH1 0x1 PUSH1 0xA0 SHL SUB DUP2 AND DUP1 DUP4 MSTORE PUSH1 0x1 PUSH1 0xA0 SHL SWAP1 SWAP2 DIV PUSH3 0xFFFFFF AND SWAP3 DUP3 ADD DUP4 SWAP1 MSTORE SWAP3 SWAP2 PUSH2 0x2710 SWAP1 PUSH2 0xB6E SWAP1 DUP7 PUSH2 0x31B0 JUMP JUMPDEST PUSH2 0xB78 SWAP2 SWAP1 PUSH2 0x3209 JUMP JUMPDEST SWAP2 POP POP SWAP3 POP SWAP3 SWAP1 POP JUMP JUMPDEST PUSH1 0x1 PUSH1 0x1 PUSH1 0xA0 SHL SUB DUP6 AND CALLER EQ DUP1 PUSH2 0xB9E JUMPI POP PUSH2 0xB9E DUP6 CALLER PUSH2 0x794 JUMP JUMPDEST PUSH2 0xC02 JUMPI PUSH1 0x40 MLOAD PUSH3 0x461BCD PUSH1 0xE5 SHL DUP2 MSTORE PUSH1 0x20 PUSH1 0x4 DUP3 ADD MSTORE PUSH1 0x2F PUSH1 0x24 DUP3 ADD MSTORE PUSH32 0x455243313135353A2063616C6C6572206973206E6F7420746F6B656E206F776E PUSH1 0x44 DUP3 ADD MSTORE PUSH15 0x195C881B9BDC88185C1C1C9BDD9959 PUSH1 0x8A SHL PUSH1 0x64 DUP3 ADD MSTORE PUSH1 0x84 ADD PUSH2 0x8EA JUMP JUMPDEST PUSH2 0xA7B DUP6 DUP6 DUP6 DUP6 DUP6 PUSH2 0x1998 JUMP JUMPDEST PUSH1 0x0 DUP3 DUP2 MSTORE PUSH1 0x3 PUSH1 0x20 MSTORE PUSH1 0x40 SWAP1 KECCAK256 PUSH1 0x1 ADD SLOAD PUSH2 0xC2A DUP2 PUSH2 0x1BF6 JUMP JUMPDEST PUSH2 0xC34 DUP4 DUP4 PUSH2 0x18F6 JUMP JUMPDEST POP POP POP JUMP JUMPDEST PUSH1 0x1 PUSH1 0x1 PUSH1 0xA0 SHL SUB DUP2 AND CALLER EQ PUSH2 0xCB7 JUMPI PUSH1 0x40 MLOAD PUSH3 0x461BCD PUSH1 0xE5 SHL DUP2 MSTORE PUSH1 0x20 PUSH1 0x4 DUP3 ADD MSTORE PUSH1 0x2F PUSH1 0x24 DUP3 ADD MSTORE PUSH32 0x416363657373436F6E74726F6C3A2063616E206F6E6C792072656E6F756E6365 PUSH1 0x44 DUP3 ADD MSTORE PUSH32 0x20726F6C657320666F722073656C660000000000000000000000000000000000 PUSH1 0x64 DUP3 ADD MSTORE PUSH1 0x84 ADD PUSH2 0x8EA JUMP JUMPDEST PUSH2 0xCC1 DUP3 DUP3 PUSH2 0x1C03 JUMP JUMPDEST POP POP JUMP JUMPDEST PUSH1 0x0 DUP6 PUSH1 0x1 DUP2 GT ISZERO PUSH2 0xCD9 JUMPI PUSH2 0xCD9 PUSH2 0x322B JUMP JUMPDEST SUB PUSH2 0xD2F JUMPI PUSH1 0x3 DUP3 GT ISZERO PUSH2 0xD2F JUMPI PUSH1 0x40 MLOAD PUSH3 0x461BCD PUSH1 0xE5 SHL DUP2 MSTORE PUSH1 0x20 PUSH1 0x4 DUP3 ADD MSTORE PUSH1 0x14 PUSH1 0x24 DUP3 ADD MSTORE PUSH32 0x63616E2774206D696E742074686174206D616E79000000000000000000000000 PUSH1 0x44 DUP3 ADD MSTORE PUSH1 0x64 ADD PUSH2 0x8EA JUMP JUMPDEST PUSH1 0x1 DUP6 PUSH1 0x1 DUP2 GT ISZERO PUSH2 0xD43 JUMPI PUSH2 0xD43 PUSH2 0x322B JUMP JUMPDEST SUB PUSH2 0xE20 JUMPI PUSH1 0x1 PUSH1 0x1 PUSH1 0xA0 SHL SUB DUP5 AND PUSH1 0x0 SWAP1 DUP2 MSTORE PUSH32 0xE62B464510CEE50B1276C2D445C9313AB6ECC5A2AE8CB01CCE19B3A02959D36E PUSH1 0x20 MSTORE PUSH1 0x40 SWAP1 KECCAK256 SLOAD PUSH1 0xFF AND PUSH2 0xDCF JUMPI PUSH1 0x40 MLOAD PUSH3 0x461BCD PUSH1 0xE5 SHL DUP2 MSTORE PUSH1 0x20 PUSH1 0x4 DUP3 ADD MSTORE PUSH1 0x10 PUSH1 0x24 DUP3 ADD MSTORE PUSH32 0x6E6F742040616C6C6F7765644C69737400000000000000000000000000000000 PUSH1 0x44 DUP3 ADD MSTORE PUSH1 0x64 ADD PUSH2 0x8EA JUMP JUMPDEST PUSH1 0x3 DUP3 GT ISZERO PUSH2 0xE20 JUMPI PUSH1 0x40 MLOAD PUSH3 0x461BCD PUSH1 0xE5 SHL DUP2 MSTORE PUSH1 0x20 PUSH1 0x4 DUP3 ADD MSTORE PUSH1 0x14 PUSH1 0x24 DUP3 ADD MSTORE PUSH32 0x63616E2774206D696E742074686174206D616E79000000000000000000000000 PUSH1 0x44 DUP3 ADD MSTORE PUSH1 0x64 ADD PUSH2 0x8EA JUMP JUMPDEST PUSH2 0xE3B DUP5 DUP5 DUP5 PUSH1 0x40 MLOAD DUP1 PUSH1 0x20 ADD PUSH1 0x40 MSTORE DUP1 PUSH1 0x0 DUP2 MSTORE POP PUSH2 0x1C86 JUMP JUMPDEST PUSH1 0x0 DUP4 DUP2 MSTORE PUSH1 0x9 PUSH1 0x20 MSTORE PUSH1 0x40 SWAP1 KECCAK256 DUP1 SLOAD PUSH20 0xFFFFFFFFFFFFFFFFFFFFFFFFFFFFFFFFFFFFFFFF NOT AND PUSH1 0x1 PUSH1 0x1 PUSH1 0xA0 SHL SUB DUP7 AND OR SWAP1 SSTORE PUSH2 0xA7B DUP4 DUP3 PUSH2 0x1D91 JUMP JUMPDEST PUSH1 0x60 DUP2 MLOAD DUP4 MLOAD EQ PUSH2 0xEF2 JUMPI PUSH1 0x40 MLOAD PUSH3 0x461BCD PUSH1 0xE5 SHL DUP2 MSTORE PUSH1 0x20 PUSH1 0x4 DUP3 ADD MSTORE PUSH1 0x29 PUSH1 0x24 DUP3 ADD MSTORE PUSH32 0x455243313135353A206163636F756E747320616E6420696473206C656E677468 PUSH1 0x44 DUP3 ADD MSTORE PUSH32 0x206D69736D617463680000000000000000000000000000000000000000000000 PUSH1 0x64 DUP3 ADD MSTORE PUSH1 0x84 ADD PUSH2 0x8EA JUMP JUMPDEST PUSH1 0x0 DUP4 MLOAD PUSH8 0xFFFFFFFFFFFFFFFF DUP2 GT ISZERO PUSH2 0xF0E JUMPI PUSH2 0xF0E PUSH2 0x2B91 JUMP JUMPDEST PUSH1 0x40 MLOAD SWAP1 DUP1 DUP3 MSTORE DUP1 PUSH1 0x20 MUL PUSH1 0x20 ADD DUP3 ADD PUSH1 0x40 MSTORE DUP1 ISZERO PUSH2 0xF37 JUMPI DUP2 PUSH1 0x20 ADD PUSH1 0x20 DUP3 MUL DUP1 CALLDATASIZE DUP4 CALLDATACOPY ADD SWAP1 POP JUMPDEST POP SWAP1 POP PUSH1 0x0 JUMPDEST DUP5 MLOAD DUP2 LT ISZERO PUSH2 0xFAF JUMPI PUSH2 0xF82 DUP6 DUP3 DUP2 MLOAD DUP2 LT PUSH2 0xF5B JUMPI PUSH2 0xF5B PUSH2 0x3241 JUMP JUMPDEST PUSH1 0x20 MUL PUSH1 0x20 ADD ADD MLOAD DUP6 DUP4 DUP2 MLOAD DUP2 LT PUSH2 0xF75 JUMPI PUSH2 0xF75 PUSH2 0x3241 JUMP JUMPDEST PUSH1 0x20 MUL PUSH1 0x20 ADD ADD MLOAD PUSH2 0x870 JUMP JUMPDEST DUP3 DUP3 DUP2 MLOAD DUP2 LT PUSH2 0xF94 JUMPI PUSH2 0xF94 PUSH2 0x3241 JUMP JUMPDEST PUSH1 0x20 SWAP1 DUP2 MUL SWAP2 SWAP1 SWAP2 ADD ADD MSTORE PUSH2 0xFA8 DUP2 PUSH2 0x3257 JUMP JUMPDEST SWAP1 POP PUSH2 0xF3D JUMP JUMPDEST POP SWAP4 SWAP3 POP POP POP JUMP JUMPDEST PUSH32 0x7804D923F43A17D325D77E781528E0793B2EDD9890AB45FC64EFD7B4B427744C PUSH2 0xFE1 DUP2 PUSH2 0x1BF6 JUMP JUMPDEST DUP2 MLOAD PUSH2 0xC34 SWAP1 PUSH1 0x5 SWAP1 PUSH1 0x20 DUP6 ADD SWAP1 PUSH2 0x2997 JUMP JUMPDEST PUSH1 0x1 PUSH1 0x1 PUSH1 0xA0 SHL SUB DUP4 AND CALLER EQ DUP1 PUSH2 0x1010 JUMPI POP PUSH2 0x1010 DUP4 CALLER PUSH2 0x794 JUMP JUMPDEST PUSH2 0x1074 JUMPI PUSH1 0x40 MLOAD PUSH3 0x461BCD PUSH1 0xE5 SHL DUP2 MSTORE PUSH1 0x20 PUSH1 0x4 DUP3 ADD MSTORE PUSH1 0x2F PUSH1 0x24 DUP3 ADD MSTORE PUSH32 0x455243313135353A2063616C6C6572206973206E6F7420746F6B656E206F776E PUSH1 0x44 DUP3 ADD MSTORE PUSH15 0x195C881B9BDC88185C1C1C9BDD9959 PUSH1 0x8A SHL PUSH1 0x64 DUP3 ADD MSTORE PUSH1 0x84 ADD PUSH2 0x8EA JUMP JUMPDEST PUSH2 0xC34 DUP4 DUP4 DUP4 PUSH2 0x1DB0 JUMP JUMPDEST PUSH1 0x5 DUP1 SLOAD PUSH2 0x108C SWAP1 PUSH2 0x31CF JUMP JUMPDEST DUP1 PUSH1 0x1F ADD PUSH1 0x20 DUP1 SWAP2 DIV MUL PUSH1 0x20 ADD PUSH1 0x40 MLOAD SWAP1 DUP2 ADD PUSH1 0x40 MSTORE DUP1 SWAP3 SWAP2 SWAP1 DUP2 DUP2 MSTORE PUSH1 0x20 ADD DUP3 DUP1 SLOAD PUSH2 0x10B8 SWAP1 PUSH2 0x31CF JUMP JUMPDEST DUP1 ISZERO PUSH2 0x1105 JUMPI DUP1 PUSH1 0x1F LT PUSH2 0x10DA JUMPI PUSH2 0x100 DUP1 DUP4 SLOAD DIV MUL DUP4 MSTORE SWAP2 PUSH1 0x20 ADD SWAP2 PUSH2 0x1105 JUMP JUMPDEST DUP3 ADD SWAP2 SWAP1 PUSH1 0x0 MSTORE PUSH1 0x20 PUSH1 0x0 KECCAK256 SWAP1 JUMPDEST DUP2 SLOAD DUP2 MSTORE SWAP1 PUSH1 0x1 ADD SWAP1 PUSH1 0x20 ADD DUP1 DUP4 GT PUSH2 0x10E8 JUMPI DUP3 SWAP1 SUB PUSH1 0x1F AND DUP3 ADD SWAP2 JUMPDEST POP POP POP POP POP DUP2 JUMP JUMPDEST PUSH32 0x5690342A5622B53EBB7DBF01640710D2F9BF4AF2652BFFA51830F5FB49CC30B3 PUSH2 0x1137 DUP2 PUSH2 0x1BF6 JUMP JUMPDEST PUSH2 0x113F PUSH2 0x16F6 JUMP JUMPDEST DUP4 DUP3 EQ PUSH2 0x118E JUMPI PUSH1 0x40 MLOAD PUSH3 0x461BCD PUSH1 0xE5 SHL DUP2 MSTORE PUSH1 0x20 PUSH1 0x4 DUP3 ADD MSTORE PUSH1 0x1A PUSH1 0x24 DUP3 ADD MSTORE PUSH32 0x4561636820746F6B656E206E6565647320616E20616D6F756E74000000000000 PUSH1 0x44 DUP3 ADD MSTORE PUSH1 0x64 ADD PUSH2 0x8EA JUMP JUMPDEST PUSH2 0x11FC DUP7 DUP7 DUP7 DUP1 DUP1 PUSH1 0x20 MUL PUSH1 0x20 ADD PUSH1 0x40 MLOAD SWAP1 DUP2 ADD PUSH1 0x40 MSTORE DUP1 SWAP4 SWAP3 SWAP2 SWAP1 DUP2 DUP2 MSTORE PUSH1 0x20 ADD DUP4 DUP4 PUSH1 0x20 MUL DUP1 DUP3 DUP5 CALLDATACOPY PUSH1 0x0 SWAP3 ADD SWAP2 SWAP1 SWAP2 MSTORE POP POP PUSH1 0x40 DUP1 MLOAD PUSH1 0x20 DUP1 DUP11 MUL DUP3 DUP2 ADD DUP3 ADD SWAP1 SWAP4 MSTORE DUP10 DUP3 MSTORE SWAP1 SWAP4 POP DUP10 SWAP3 POP DUP9 SWAP2 DUP3 SWAP2 DUP6 ADD SWAP1 DUP5 SWAP1 DUP1 DUP3 DUP5 CALLDATACOPY PUSH1 0x0 SWAP3 ADD SWAP2 SWAP1 SWAP2 MSTORE POP PUSH2 0x1DB0 SWAP3 POP POP POP JUMP JUMPDEST PUSH1 0x0 JUMPDEST DUP5 DUP2 GT PUSH2 0x1262 JUMPI PUSH1 0x9 PUSH1 0x0 DUP8 DUP8 DUP5 DUP2 DUP2 LT PUSH2 0x121C JUMPI PUSH2 0x121C PUSH2 0x3241 JUMP JUMPDEST PUSH1 0x20 SWAP1 DUP2 MUL SWAP3 SWAP1 SWAP3 ADD CALLDATALOAD DUP4 MSTORE POP DUP2 ADD SWAP2 SWAP1 SWAP2 MSTORE PUSH1 0x40 ADD PUSH1 0x0 KECCAK256 DUP1 SLOAD PUSH20 0xFFFFFFFFFFFFFFFFFFFFFFFFFFFFFFFFFFFFFFFF NOT AND SWAP1 SSTORE DUP1 PUSH2 0x125A DUP2 PUSH2 0x3257 JUMP JUMPDEST SWAP2 POP POP PUSH2 0x11FF JUMP JUMPDEST POP POP POP POP POP POP POP JUMP JUMPDEST PUSH32 0x9F2DF0FED2C77648DE5860A4CC508CD0818C85B8B8A1AB4CEEEF8D981C8956A6 PUSH2 0x1295 DUP2 PUSH2 0x1BF6 JUMP JUMPDEST PUSH2 0x2710 DUP3 GT ISZERO PUSH2 0x12E7 JUMPI PUSH1 0x40 MLOAD PUSH3 0x461BCD PUSH1 0xE5 SHL DUP2 MSTORE PUSH1 0x20 PUSH1 0x4 DUP3 ADD MSTORE PUSH1 0x8 PUSH1 0x24 DUP3 ADD MSTORE PUSH32 0x746F6F2068696768000000000000000000000000000000000000000000000000 PUSH1 0x44 DUP3 ADD MSTORE PUSH1 0x64 ADD PUSH2 0x8EA JUMP JUMPDEST POP PUSH1 0x40 DUP1 MLOAD DUP1 DUP3 ADD DUP3 MSTORE PUSH1 0x1 PUSH1 0x1 PUSH1 0xA0 SHL SUB SWAP4 DUP5 AND DUP2 MSTORE PUSH3 0xFFFFFF SWAP3 DUP4 AND PUSH1 0x20 DUP1 DUP4 ADD SWAP2 DUP3 MSTORE PUSH1 0x0 SWAP7 DUP8 MSTORE PUSH1 0x7 SWAP1 MSTORE SWAP2 SWAP1 SWAP5 KECCAK256 SWAP4 MLOAD DUP5 SLOAD SWAP2 MLOAD SWAP1 SWAP3 AND PUSH1 0x1 PUSH1 0xA0 SHL MUL PUSH32 0xFFFFFFFFFFFFFFFFFF0000000000000000000000000000000000000000000000 SWAP1 SWAP2 AND SWAP2 SWAP1 SWAP3 AND OR OR SWAP1 SSTORE JUMP JUMPDEST PUSH2 0xCC1 CALLER DUP4 DUP4 PUSH2 0x1FF5 JUMP JUMPDEST PUSH1 0x6 DUP1 SLOAD PUSH2 0x108C SWAP1 PUSH2 0x31CF JUMP JUMPDEST PUSH1 0x0 DUP3 DUP2 MSTORE PUSH1 0x3 PUSH1 0x20 MSTORE PUSH1 0x40 SWAP1 KECCAK256 PUSH1 0x1 ADD SLOAD PUSH2 0x138A DUP2 PUSH2 0x1BF6 JUMP JUMPDEST PUSH2 0xC34 DUP4 DUP4 PUSH2 0x1C03 JUMP JUMPDEST PUSH32 0x9F2DF0FED2C77648DE5860A4CC508CD0818C85B8B8A1AB4CEEEF8D981C8956A6 PUSH2 0x13BE DUP2 PUSH2 0x1BF6 JUMP JUMPDEST PUSH2 0x13C6 PUSH2 0x16F6 JUMP JUMPDEST DUP4 DUP3 EQ PUSH2 0x1415 JUMPI PUSH1 0x40 MLOAD PUSH3 0x461BCD PUSH1 0xE5 SHL DUP2 MSTORE PUSH1 0x20 PUSH1 0x4 DUP3 ADD MSTORE PUSH1 0x1A PUSH1 0x24 DUP3 ADD MSTORE PUSH32 0x4561636820746F6B656E206E6565647320616E20616D6F756E74000000000000 PUSH1 0x44 DUP3 ADD MSTORE PUSH1 0x64 ADD PUSH2 0x8EA JUMP JUMPDEST PUSH2 0x1491 DUP7 DUP7 DUP7 DUP1 DUP1 PUSH1 0x20 MUL PUSH1 0x20 ADD PUSH1 0x40 MLOAD SWAP1 DUP2 ADD PUSH1 0x40 MSTORE DUP1 SWAP4 SWAP3 SWAP2 SWAP1 DUP2 DUP2 MSTORE PUSH1 0x20 ADD DUP4 DUP4 PUSH1 0x20 MUL DUP1 DUP3 DUP5 CALLDATACOPY PUSH1 0x0 SWAP3 ADD SWAP2 SWAP1 SWAP2 MSTORE POP POP PUSH1 0x40 DUP1 MLOAD PUSH1 0x20 DUP1 DUP11 MUL DUP3 DUP2 ADD DUP3 ADD SWAP1 SWAP4 MSTORE DUP10 DUP3 MSTORE SWAP1 SWAP4 POP DUP10 SWAP3 POP DUP9 SWAP2 DUP3 SWAP2 DUP6 ADD SWAP1 DUP5 SWAP1 DUP1 DUP3 DUP5 CALLDATACOPY PUSH1 0x0 SWAP3 ADD DUP3 SWAP1 MSTORE POP PUSH1 0x40 DUP1 MLOAD PUSH1 0x20 DUP2 ADD SWAP1 SWAP2 MSTORE SWAP1 DUP2 MSTORE SWAP3 POP PUSH2 0x20E9 SWAP2 POP POP JUMP JUMPDEST PUSH1 0x0 JUMPDEST DUP5 DUP2 GT PUSH2 0x1262 JUMPI DUP7 PUSH1 0x9 PUSH1 0x0 DUP9 DUP9 DUP6 DUP2 DUP2 LT PUSH2 0x14B2 JUMPI PUSH2 0x14B2 PUSH2 0x3241 JUMP JUMPDEST SWAP1 POP PUSH1 0x20 MUL ADD CALLDATALOAD DUP2 MSTORE PUSH1 0x20 ADD SWAP1 DUP2 MSTORE PUSH1 0x20 ADD PUSH1 0x0 KECCAK256 PUSH1 0x0 PUSH2 0x100 EXP DUP2 SLOAD DUP2 PUSH1 0x1 PUSH1 0x1 PUSH1 0xA0 SHL SUB MUL NOT AND SWAP1 DUP4 PUSH1 0x1 PUSH1 0x1 PUSH1 0xA0 SHL SUB AND MUL OR SWAP1 SSTORE POP DUP1 DUP1 PUSH2 0x14F6 SWAP1 PUSH2 0x3257 JUMP JUMPDEST SWAP2 POP POP PUSH2 0x1494 JUMP JUMPDEST PUSH32 0x5690342A5622B53EBB7DBF01640710D2F9BF4AF2652BFFA51830F5FB49CC30B3 PUSH2 0x1528 DUP2 PUSH2 0x1BF6 JUMP JUMPDEST CALLER PUSH1 0x1 PUSH1 0x1 PUSH1 0xA0 SHL SUB DUP6 AND EQ PUSH2 0x1580 JUMPI PUSH1 0x40 MLOAD PUSH3 0x461BCD PUSH1 0xE5 SHL DUP2 MSTORE PUSH1 0x20 PUSH1 0x4 DUP3 ADD DUP2 SWAP1 MSTORE PUSH1 0x24 DUP3 ADD MSTORE PUSH32 0x596F752063616E206F6E6C79206275726E20796F7572206F776E20746F6B656E PUSH1 0x44 DUP3 ADD MSTORE PUSH1 0x64 ADD PUSH2 0x8EA JUMP JUMPDEST PUSH2 0x158B DUP5 DUP5 DUP5 PUSH2 0x22AF JUMP JUMPDEST POP POP PUSH1 0x0 SWAP1 DUP2 MSTORE PUSH1 0x9 PUSH1 0x20 MSTORE PUSH1 0x40 SWAP1 KECCAK256 DUP1 SLOAD PUSH20 0xFFFFFFFFFFFFFFFFFFFFFFFFFFFFFFFFFFFFFFFF NOT AND SWAP1 SSTORE POP JUMP JUMPDEST PUSH1 0x1 PUSH1 0x1 PUSH1 0xA0 SHL SUB DUP6 AND CALLER EQ DUP1 PUSH2 0x15D5 JUMPI POP PUSH2 0x15D5 DUP6 CALLER PUSH2 0x794 JUMP JUMPDEST PUSH2 0x1639 JUMPI PUSH1 0x40 MLOAD PUSH3 0x461BCD PUSH1 0xE5 SHL DUP2 MSTORE PUSH1 0x20 PUSH1 0x4 DUP3 ADD MSTORE PUSH1 0x2F PUSH1 0x24 DUP3 ADD MSTORE PUSH32 0x455243313135353A2063616C6C6572206973206E6F7420746F6B656E206F776E PUSH1 0x44 DUP3 ADD MSTORE PUSH15 0x195C881B9BDC88185C1C1C9BDD9959 PUSH1 0x8A SHL PUSH1 0x64 DUP3 ADD MSTORE PUSH1 0x84 ADD PUSH2 0x8EA JUMP JUMPDEST PUSH2 0xA7B DUP6 DUP6 DUP6 DUP6 DUP6 PUSH2 0x174B JUMP JUMPDEST PUSH1 0x1 PUSH1 0x1 PUSH1 0xA0 SHL SUB DUP4 AND CALLER EQ DUP1 PUSH2 0x1662 JUMPI POP PUSH2 0x1662 DUP4 CALLER PUSH2 0x794 JUMP JUMPDEST PUSH2 0x16C6 JUMPI PUSH1 0x40 MLOAD PUSH3 0x461BCD PUSH1 0xE5 SHL DUP2 MSTORE PUSH1 0x20 PUSH1 0x4 DUP3 ADD MSTORE PUSH1 0x2F PUSH1 0x24 DUP3 ADD MSTORE PUSH32 0x455243313135353A2063616C6C6572206973206E6F7420746F6B656E206F776E PUSH1 0x44 DUP3 ADD MSTORE PUSH15 0x195C881B9BDC88185C1C1C9BDD9959 PUSH1 0x8A SHL PUSH1 0x64 DUP3 ADD MSTORE PUSH1 0x84 ADD PUSH2 0x8EA JUMP JUMPDEST PUSH2 0xC34 DUP4 DUP4 DUP4 PUSH2 0x22AF JUMP JUMPDEST PUSH1 0x0 PUSH1 0x1 PUSH1 0x1 PUSH1 0xE0 SHL SUB NOT DUP3 AND PUSH4 0x7965DB0B PUSH1 0xE0 SHL EQ DUP1 PUSH2 0x924 JUMPI POP PUSH2 0x924 DUP3 PUSH2 0x242B JUMP JUMPDEST PUSH1 0x4 SLOAD PUSH1 0xFF AND ISZERO PUSH2 0x1749 JUMPI PUSH1 0x40 MLOAD PUSH3 0x461BCD PUSH1 0xE5 SHL DUP2 MSTORE PUSH1 0x20 PUSH1 0x4 DUP3 ADD MSTORE PUSH1 0x10 PUSH1 0x24 DUP3 ADD MSTORE PUSH32 0x5061757361626C653A2070617573656400000000000000000000000000000000 PUSH1 0x44 DUP3 ADD MSTORE PUSH1 0x64 ADD PUSH2 0x8EA JUMP JUMPDEST JUMP JUMPDEST PUSH1 0x1 PUSH1 0x1 PUSH1 0xA0 SHL SUB DUP5 AND PUSH2 0x17AF JUMPI PUSH1 0x40 MLOAD PUSH3 0x461BCD PUSH1 0xE5 SHL DUP2 MSTORE PUSH1 0x20 PUSH1 0x4 DUP3 ADD MSTORE PUSH1 0x25 PUSH1 0x24 DUP3 ADD MSTORE PUSH32 0x455243313135353A207472616E7366657220746F20746865207A65726F206164 PUSH1 0x44 DUP3 ADD MSTORE PUSH5 0x6472657373 PUSH1 0xD8 SHL PUSH1 0x64 DUP3 ADD MSTORE PUSH1 0x84 ADD PUSH2 0x8EA JUMP JUMPDEST CALLER PUSH1 0x0 PUSH2 0x17BB DUP6 PUSH2 0x247B JUMP JUMPDEST SWAP1 POP PUSH1 0x0 PUSH2 0x17C8 DUP6 PUSH2 0x247B JUMP JUMPDEST SWAP1 POP PUSH1 0x0 DUP7 DUP2 MSTORE PUSH1 0x20 DUP2 DUP2 MSTORE PUSH1 0x40 DUP1 DUP4 KECCAK256 PUSH1 0x1 PUSH1 0x1 PUSH1 0xA0 SHL SUB DUP13 AND DUP5 MSTORE SWAP1 SWAP2 MSTORE SWAP1 KECCAK256 SLOAD DUP6 DUP2 LT ISZERO PUSH2 0x184E JUMPI PUSH1 0x40 MLOAD PUSH3 0x461BCD PUSH1 0xE5 SHL DUP2 MSTORE PUSH1 0x20 PUSH1 0x4 DUP3 ADD MSTORE PUSH1 0x2A PUSH1 0x24 DUP3 ADD MSTORE PUSH32 0x455243313135353A20696E73756666696369656E742062616C616E636520666F PUSH1 0x44 DUP3 ADD MSTORE PUSH10 0x39103A3930B739B332B9 PUSH1 0xB1 SHL PUSH1 0x64 DUP3 ADD MSTORE PUSH1 0x84 ADD PUSH2 0x8EA JUMP JUMPDEST PUSH1 0x0 DUP8 DUP2 MSTORE PUSH1 0x20 DUP2 DUP2 MSTORE PUSH1 0x40 DUP1 DUP4 KECCAK256 PUSH1 0x1 PUSH1 0x1 PUSH1 0xA0 SHL SUB DUP14 DUP2 AND DUP6 MSTORE SWAP3 MSTORE DUP1 DUP4 KECCAK256 DUP10 DUP6 SUB SWAP1 SSTORE SWAP1 DUP11 AND DUP3 MSTORE DUP2 KECCAK256 DUP1 SLOAD DUP9 SWAP3 SWAP1 PUSH2 0x188B SWAP1 DUP5 SWAP1 PUSH2 0x3270 JUMP JUMPDEST SWAP1 SWAP2 SSTORE POP POP PUSH1 0x40 DUP1 MLOAD DUP9 DUP2 MSTORE PUSH1 0x20 DUP2 ADD DUP9 SWAP1 MSTORE PUSH1 0x1 PUSH1 0x1 PUSH1 0xA0 SHL SUB DUP1 DUP12 AND SWAP3 DUP13 DUP3 AND SWAP3 SWAP2 DUP9 AND SWAP2 PUSH32 0xC3D58168C5AE7397731D063D5BBF3D657854427343F4C083240F7AACAA2D0F62 SWAP2 ADD PUSH1 0x40 MLOAD DUP1 SWAP2 SUB SWAP1 LOG4 PUSH2 0x18EB DUP5 DUP11 DUP11 DUP11 DUP11 DUP11 PUSH2 0x24C6 JUMP JUMPDEST POP POP POP POP POP POP POP POP POP JUMP JUMPDEST PUSH1 0x0 DUP3 DUP2 MSTORE PUSH1 0x3 PUSH1 0x20 SWAP1 DUP2 MSTORE PUSH1 0x40 DUP1 DUP4 KECCAK256 PUSH1 0x1 PUSH1 0x1 PUSH1 0xA0 SHL SUB DUP6 AND DUP5 MSTORE SWAP1 SWAP2 MSTORE SWAP1 KECCAK256 SLOAD PUSH1 0xFF AND PUSH2 0xCC1 JUMPI PUSH1 0x0 DUP3 DUP2 MSTORE PUSH1 0x3 PUSH1 0x20 SWAP1 DUP2 MSTORE PUSH1 0x40 DUP1 DUP4 KECCAK256 PUSH1 0x1 PUSH1 0x1 PUSH1 0xA0 SHL SUB DUP6 AND DUP5 MSTORE SWAP1 SWAP2 MSTORE SWAP1 KECCAK256 DUP1 SLOAD PUSH1 0xFF NOT AND PUSH1 0x1 OR SWAP1 SSTORE PUSH2 0x1954 CALLER SWAP1 JUMP JUMPDEST PUSH1 0x1 PUSH1 0x1 PUSH1 0xA0 SHL SUB AND DUP2 PUSH1 0x1 PUSH1 0x1 PUSH1 0xA0 SHL SUB AND DUP4 PUSH32 0x2F8788117E7EFF1D82E926EC794901D17C78024A50270940304540A733656F0D PUSH1 0x40 MLOAD PUSH1 0x40 MLOAD DUP1 SWAP2 SUB SWAP1 LOG4 POP POP JUMP JUMPDEST DUP2 MLOAD DUP4 MLOAD EQ PUSH2 0x19FA JUMPI PUSH1 0x40 MLOAD PUSH3 0x461BCD PUSH1 0xE5 SHL DUP2 MSTORE PUSH1 0x20 PUSH1 0x4 DUP3 ADD MSTORE PUSH1 0x28 PUSH1 0x24 DUP3 ADD MSTORE PUSH32 0x455243313135353A2069647320616E6420616D6F756E7473206C656E67746820 PUSH1 0x44 DUP3 ADD MSTORE PUSH8 0xDAD2E6DAC2E8C6D PUSH1 0xC3 SHL PUSH1 0x64 DUP3 ADD MSTORE PUSH1 0x84 ADD PUSH2 0x8EA JUMP JUMPDEST PUSH1 0x1 PUSH1 0x1 PUSH1 0xA0 SHL SUB DUP5 AND PUSH2 0x1A5E JUMPI PUSH1 0x40 MLOAD PUSH3 0x461BCD PUSH1 0xE5 SHL DUP2 MSTORE PUSH1 0x20 PUSH1 0x4 DUP3 ADD MSTORE PUSH1 0x25 PUSH1 0x24 DUP3 ADD MSTORE PUSH32 0x455243313135353A207472616E7366657220746F20746865207A65726F206164 PUSH1 0x44 DUP3 ADD MSTORE PUSH5 0x6472657373 PUSH1 0xD8 SHL PUSH1 0x64 DUP3 ADD MSTORE PUSH1 0x84 ADD PUSH2 0x8EA JUMP JUMPDEST CALLER PUSH1 0x0 JUMPDEST DUP5 MLOAD DUP2 LT ISZERO PUSH2 0x1B88 JUMPI PUSH1 0x0 DUP6 DUP3 DUP2 MLOAD DUP2 LT PUSH2 0x1A7F JUMPI PUSH2 0x1A7F PUSH2 0x3241 JUMP JUMPDEST PUSH1 0x20 MUL PUSH1 0x20 ADD ADD MLOAD SWAP1 POP PUSH1 0x0 DUP6 DUP4 DUP2 MLOAD DUP2 LT PUSH2 0x1A9D JUMPI PUSH2 0x1A9D PUSH2 0x3241 JUMP JUMPDEST PUSH1 0x20 SWAP1 DUP2 MUL SWAP2 SWAP1 SWAP2 ADD DUP2 ADD MLOAD PUSH1 0x0 DUP5 DUP2 MSTORE DUP1 DUP4 MSTORE PUSH1 0x40 DUP1 DUP3 KECCAK256 PUSH1 0x1 PUSH1 0x1 PUSH1 0xA0 SHL SUB DUP15 AND DUP4 MSTORE SWAP1 SWAP4 MSTORE SWAP2 SWAP1 SWAP2 KECCAK256 SLOAD SWAP1 SWAP2 POP DUP2 DUP2 LT ISZERO PUSH2 0x1B30 JUMPI PUSH1 0x40 MLOAD PUSH3 0x461BCD PUSH1 0xE5 SHL DUP2 MSTORE PUSH1 0x20 PUSH1 0x4 DUP3 ADD MSTORE PUSH1 0x2A PUSH1 0x24 DUP3 ADD MSTORE PUSH32 0x455243313135353A20696E73756666696369656E742062616C616E636520666F PUSH1 0x44 DUP3 ADD MSTORE PUSH10 0x39103A3930B739B332B9 PUSH1 0xB1 SHL PUSH1 0x64 DUP3 ADD MSTORE PUSH1 0x84 ADD PUSH2 0x8EA JUMP JUMPDEST PUSH1 0x0 DUP4 DUP2 MSTORE PUSH1 0x20 DUP2 DUP2 MSTORE PUSH1 0x40 DUP1 DUP4 KECCAK256 PUSH1 0x1 PUSH1 0x1 PUSH1 0xA0 SHL SUB DUP15 DUP2 AND DUP6 MSTORE SWAP3 MSTORE DUP1 DUP4 KECCAK256 DUP6 DUP6 SUB SWAP1 SSTORE SWAP1 DUP12 AND DUP3 MSTORE DUP2 KECCAK256 DUP1 SLOAD DUP5 SWAP3 SWAP1 PUSH2 0x1B6D SWAP1 DUP5 SWAP1 PUSH2 0x3270 JUMP JUMPDEST SWAP3 POP POP DUP2 SWAP1 SSTORE POP POP POP POP DUP1 PUSH2 0x1B81 SWAP1 PUSH2 0x3257 JUMP JUMPDEST SWAP1 POP PUSH2 0x1A62 JUMP JUMPDEST POP DUP5 PUSH1 0x1 PUSH1 0x1 PUSH1 0xA0 SHL SUB AND DUP7 PUSH1 0x1 PUSH1 0x1 PUSH1 0xA0 SHL SUB AND DUP3 PUSH1 0x1 PUSH1 0x1 PUSH1 0xA0 SHL SUB AND PUSH32 0x4A39DC06D4C0DBC64B70AF90FD698A233A518AA5D07E595D983B8C0526C8F7FB DUP8 DUP8 PUSH1 0x40 MLOAD PUSH2 0x1BD8 SWAP3 SWAP2 SWAP1 PUSH2 0x3288 JUMP JUMPDEST PUSH1 0x40 MLOAD DUP1 SWAP2 SUB SWAP1 LOG4 PUSH2 0x1BEE DUP2 DUP8 DUP8 DUP8 DUP8 DUP8 PUSH2 0x266B JUMP JUMPDEST POP POP POP POP POP POP JUMP JUMPDEST PUSH2 0x1C00 DUP2 CALLER PUSH2 0x2767 JUMP JUMPDEST POP JUMP JUMPDEST PUSH1 0x0 DUP3 DUP2 MSTORE PUSH1 0x3 PUSH1 0x20 SWAP1 DUP2 MSTORE PUSH1 0x40 DUP1 DUP4 KECCAK256 PUSH1 0x1 PUSH1 0x1 PUSH1 0xA0 SHL SUB DUP6 AND DUP5 MSTORE SWAP1 SWAP2 MSTORE SWAP1 KECCAK256 SLOAD PUSH1 0xFF AND ISZERO PUSH2 0xCC1 JUMPI PUSH1 0x0 DUP3 DUP2 MSTORE PUSH1 0x3 PUSH1 0x20 SWAP1 DUP2 MSTORE PUSH1 0x40 DUP1 DUP4 KECCAK256 PUSH1 0x1 PUSH1 0x1 PUSH1 0xA0 SHL SUB DUP6 AND DUP1 DUP6 MSTORE SWAP3 MSTORE DUP1 DUP4 KECCAK256 DUP1 SLOAD PUSH1 0xFF NOT AND SWAP1 SSTORE MLOAD CALLER SWAP3 DUP6 SWAP2 PUSH32 0xF6391F5C32D9C69D2A47EA670B442974B53935D1EDC7FD64EB21E047A839171B SWAP2 SWAP1 LOG4 POP POP JUMP JUMPDEST PUSH1 0x1 PUSH1 0x1 PUSH1 0xA0 SHL SUB DUP5 AND PUSH2 0x1CE6 JUMPI PUSH1 0x40 MLOAD PUSH3 0x461BCD PUSH1 0xE5 SHL DUP2 MSTORE PUSH1 0x20 PUSH1 0x4 DUP3 ADD MSTORE PUSH1 0x21 PUSH1 0x24 DUP3 ADD MSTORE PUSH32 0x455243313135353A206D696E7420746F20746865207A65726F20616464726573 PUSH1 0x44 DUP3 ADD MSTORE PUSH1 0x73 PUSH1 0xF8 SHL PUSH1 0x64 DUP3 ADD MSTORE PUSH1 0x84 ADD PUSH2 0x8EA JUMP JUMPDEST CALLER PUSH1 0x0 PUSH2 0x1CF2 DUP6 PUSH2 0x247B JUMP JUMPDEST SWAP1 POP PUSH1 0x0 PUSH2 0x1CFF DUP6 PUSH2 0x247B JUMP JUMPDEST SWAP1 POP PUSH1 0x0 DUP7 DUP2 MSTORE PUSH1 0x20 DUP2 DUP2 MSTORE PUSH1 0x40 DUP1 DUP4 KECCAK256 PUSH1 0x1 PUSH1 0x1 PUSH1 0xA0 SHL SUB DUP12 AND DUP5 MSTORE SWAP1 SWAP2 MSTORE DUP2 KECCAK256 DUP1 SLOAD DUP8 SWAP3 SWAP1 PUSH2 0x1D31 SWAP1 DUP5 SWAP1 PUSH2 0x3270 JUMP JUMPDEST SWAP1 SWAP2 SSTORE POP POP PUSH1 0x40 DUP1 MLOAD DUP8 DUP2 MSTORE PUSH1 0x20 DUP2 ADD DUP8 SWAP1 MSTORE PUSH1 0x1 PUSH1 0x1 PUSH1 0xA0 SHL SUB DUP1 DUP11 AND SWAP3 PUSH1 0x0 SWAP3 SWAP2 DUP8 AND SWAP2 PUSH32 0xC3D58168C5AE7397731D063D5BBF3D657854427343F4C083240F7AACAA2D0F62 SWAP2 ADD PUSH1 0x40 MLOAD DUP1 SWAP2 SUB SWAP1 LOG4 PUSH2 0x1262 DUP4 PUSH1 0x0 DUP10 DUP10 DUP10 DUP10 PUSH2 0x24C6 JUMP JUMPDEST PUSH1 0x0 DUP3 DUP2 MSTORE PUSH1 0x8 PUSH1 0x20 SWAP1 DUP2 MSTORE PUSH1 0x40 SWAP1 SWAP2 KECCAK256 DUP3 MLOAD PUSH2 0xC34 SWAP3 DUP5 ADD SWAP1 PUSH2 0x2997 JUMP JUMPDEST PUSH1 0x1 PUSH1 0x1 PUSH1 0xA0 SHL SUB DUP4 AND PUSH2 0x1E12 JUMPI PUSH1 0x40 MLOAD PUSH3 0x461BCD PUSH1 0xE5 SHL DUP2 MSTORE PUSH1 0x20 PUSH1 0x4 DUP3 ADD MSTORE PUSH1 0x23 PUSH1 0x24 DUP3 ADD MSTORE PUSH32 0x455243313135353A206275726E2066726F6D20746865207A65726F2061646472 PUSH1 0x44 DUP3 ADD MSTORE PUSH3 0x657373 PUSH1 0xE8 SHL PUSH1 0x64 DUP3 ADD MSTORE PUSH1 0x84 ADD PUSH2 0x8EA JUMP JUMPDEST DUP1 MLOAD DUP3 MLOAD EQ PUSH2 0x1E74 JUMPI PUSH1 0x40 MLOAD PUSH3 0x461BCD PUSH1 0xE5 SHL DUP2 MSTORE PUSH1 0x20 PUSH1 0x4 DUP3 ADD MSTORE PUSH1 0x28 PUSH1 0x24 DUP3 ADD MSTORE PUSH32 0x455243313135353A2069647320616E6420616D6F756E7473206C656E67746820 PUSH1 0x44 DUP3 ADD MSTORE PUSH8 0xDAD2E6DAC2E8C6D PUSH1 0xC3 SHL PUSH1 0x64 DUP3 ADD MSTORE PUSH1 0x84 ADD PUSH2 0x8EA JUMP JUMPDEST PUSH1 0x40 DUP1 MLOAD PUSH1 0x20 DUP2 ADD SWAP1 SWAP2 MSTORE PUSH1 0x0 SWAP1 DUP2 SWAP1 MSTORE CALLER SWAP1 JUMPDEST DUP4 MLOAD DUP2 LT ISZERO PUSH2 0x1F86 JUMPI PUSH1 0x0 DUP5 DUP3 DUP2 MLOAD DUP2 LT PUSH2 0x1EA5 JUMPI PUSH2 0x1EA5 PUSH2 0x3241 JUMP JUMPDEST PUSH1 0x20 MUL PUSH1 0x20 ADD ADD MLOAD SWAP1 POP PUSH1 0x0 DUP5 DUP4 DUP2 MLOAD DUP2 LT PUSH2 0x1EC3 JUMPI PUSH2 0x1EC3 PUSH2 0x3241 JUMP JUMPDEST PUSH1 0x20 SWAP1 DUP2 MUL SWAP2 SWAP1 SWAP2 ADD DUP2 ADD MLOAD PUSH1 0x0 DUP5 DUP2 MSTORE DUP1 DUP4 MSTORE PUSH1 0x40 DUP1 DUP3 KECCAK256 PUSH1 0x1 PUSH1 0x1 PUSH1 0xA0 SHL SUB DUP13 AND DUP4 MSTORE SWAP1 SWAP4 MSTORE SWAP2 SWAP1 SWAP2 KECCAK256 SLOAD SWAP1 SWAP2 POP DUP2 DUP2 LT ISZERO PUSH2 0x1F4F JUMPI PUSH1 0x40 MLOAD PUSH3 0x461BCD PUSH1 0xE5 SHL DUP2 MSTORE PUSH1 0x20 PUSH1 0x4 DUP3 ADD MSTORE PUSH1 0x24 DUP1 DUP3 ADD MSTORE PUSH32 0x455243313135353A206275726E20616D6F756E7420657863656564732062616C PUSH1 0x44 DUP3 ADD MSTORE PUSH4 0x616E6365 PUSH1 0xE0 SHL PUSH1 0x64 DUP3 ADD MSTORE PUSH1 0x84 ADD PUSH2 0x8EA JUMP JUMPDEST PUSH1 0x0 SWAP3 DUP4 MSTORE PUSH1 0x20 DUP4 DUP2 MSTORE PUSH1 0x40 DUP1 DUP6 KECCAK256 PUSH1 0x1 PUSH1 0x1 PUSH1 0xA0 SHL SUB DUP12 AND DUP7 MSTORE SWAP1 SWAP2 MSTORE SWAP1 SWAP3 KECCAK256 SWAP2 SUB SWAP1 SSTORE DUP1 PUSH2 0x1F7E DUP2 PUSH2 0x3257 JUMP JUMPDEST SWAP2 POP POP PUSH2 0x1E88 JUMP JUMPDEST POP PUSH1 0x0 PUSH1 0x1 PUSH1 0x1 PUSH1 0xA0 SHL SUB AND DUP5 PUSH1 0x1 PUSH1 0x1 PUSH1 0xA0 SHL SUB AND DUP3 PUSH1 0x1 PUSH1 0x1 PUSH1 0xA0 SHL SUB AND PUSH32 0x4A39DC06D4C0DBC64B70AF90FD698A233A518AA5D07E595D983B8C0526C8F7FB DUP7 DUP7 PUSH1 0x40 MLOAD PUSH2 0x1FD7 SWAP3 SWAP2 SWAP1 PUSH2 0x3288 JUMP JUMPDEST PUSH1 0x40 MLOAD DUP1 SWAP2 SUB SWAP1 LOG4 PUSH1 0x40 DUP1 MLOAD PUSH1 0x20 DUP2 ADD SWAP1 SWAP2 MSTORE PUSH1 0x0 SWAP1 MSTORE JUMPDEST POP POP POP POP JUMP JUMPDEST DUP2 PUSH1 0x1 PUSH1 0x1 PUSH1 0xA0 SHL SUB AND DUP4 PUSH1 0x1 PUSH1 0x1 PUSH1 0xA0 SHL SUB AND SUB PUSH2 0x207C JUMPI PUSH1 0x40 MLOAD PUSH3 0x461BCD PUSH1 0xE5 SHL DUP2 MSTORE PUSH1 0x20 PUSH1 0x4 DUP3 ADD MSTORE PUSH1 0x29 PUSH1 0x24 DUP3 ADD MSTORE PUSH32 0x455243313135353A2073657474696E6720617070726F76616C20737461747573 PUSH1 0x44 DUP3 ADD MSTORE PUSH32 0x20666F722073656C660000000000000000000000000000000000000000000000 PUSH1 0x64 DUP3 ADD MSTORE PUSH1 0x84 ADD PUSH2 0x8EA JUMP JUMPDEST PUSH1 0x1 PUSH1 0x1 PUSH1 0xA0 SHL SUB DUP4 DUP2 AND PUSH1 0x0 DUP2 DUP2 MSTORE PUSH1 0x1 PUSH1 0x20 SWAP1 DUP2 MSTORE PUSH1 0x40 DUP1 DUP4 KECCAK256 SWAP5 DUP8 AND DUP1 DUP5 MSTORE SWAP5 DUP3 MSTORE SWAP2 DUP3 SWAP1 KECCAK256 DUP1 SLOAD PUSH1 0xFF NOT AND DUP7 ISZERO ISZERO SWAP1 DUP2 OR SWAP1 SWAP2 SSTORE SWAP2 MLOAD SWAP2 DUP3 MSTORE PUSH32 0x17307EAB39AB6107E8899845AD3D59BD9653F200F220920489CA2B5937696C31 SWAP2 ADD PUSH1 0x40 MLOAD DUP1 SWAP2 SUB SWAP1 LOG3 POP POP POP JUMP JUMPDEST PUSH1 0x1 PUSH1 0x1 PUSH1 0xA0 SHL SUB DUP5 AND PUSH2 0x2149 JUMPI PUSH1 0x40 MLOAD PUSH3 0x461BCD PUSH1 0xE5 SHL DUP2 MSTORE PUSH1 0x20 PUSH1 0x4 DUP3 ADD MSTORE PUSH1 0x21 PUSH1 0x24 DUP3 ADD MSTORE PUSH32 0x455243313135353A206D696E7420746F20746865207A65726F20616464726573 PUSH1 0x44 DUP3 ADD MSTORE PUSH1 0x73 PUSH1 0xF8 SHL PUSH1 0x64 DUP3 ADD MSTORE PUSH1 0x84 ADD PUSH2 0x8EA JUMP JUMPDEST DUP2 MLOAD DUP4 MLOAD EQ PUSH2 0x21AB JUMPI PUSH1 0x40 MLOAD PUSH3 0x461BCD PUSH1 0xE5 SHL DUP2 MSTORE PUSH1 0x20 PUSH1 0x4 DUP3 ADD MSTORE PUSH1 0x28 PUSH1 0x24 DUP3 ADD MSTORE PUSH32 0x455243313135353A2069647320616E6420616D6F756E7473206C656E67746820 PUSH1 0x44 DUP3 ADD MSTORE PUSH8 0xDAD2E6DAC2E8C6D PUSH1 0xC3 SHL PUSH1 0x64 DUP3 ADD MSTORE PUSH1 0x84 ADD PUSH2 0x8EA JUMP JUMPDEST CALLER PUSH1 0x0 JUMPDEST DUP5 MLOAD DUP2 LT ISZERO PUSH2 0x2247 JUMPI DUP4 DUP2 DUP2 MLOAD DUP2 LT PUSH2 0x21CA JUMPI PUSH2 0x21CA PUSH2 0x3241 JUMP JUMPDEST PUSH1 0x20 MUL PUSH1 0x20 ADD ADD MLOAD PUSH1 0x0 DUP1 DUP8 DUP5 DUP2 MLOAD DUP2 LT PUSH2 0x21E7 JUMPI PUSH2 0x21E7 PUSH2 0x3241 JUMP JUMPDEST PUSH1 0x20 MUL PUSH1 0x20 ADD ADD MLOAD DUP2 MSTORE PUSH1 0x20 ADD SWAP1 DUP2 MSTORE PUSH1 0x20 ADD PUSH1 0x0 KECCAK256 PUSH1 0x0 DUP9 PUSH1 0x1 PUSH1 0x1 PUSH1 0xA0 SHL SUB AND PUSH1 0x1 PUSH1 0x1 PUSH1 0xA0 SHL SUB AND DUP2 MSTORE PUSH1 0x20 ADD SWAP1 DUP2 MSTORE PUSH1 0x20 ADD PUSH1 0x0 KECCAK256 PUSH1 0x0 DUP3 DUP3 SLOAD PUSH2 0x222F SWAP2 SWAP1 PUSH2 0x3270 JUMP JUMPDEST SWAP1 SWAP2 SSTORE POP DUP2 SWAP1 POP PUSH2 0x223F DUP2 PUSH2 0x3257 JUMP JUMPDEST SWAP2 POP POP PUSH2 0x21AF JUMP JUMPDEST POP DUP5 PUSH1 0x1 PUSH1 0x1 PUSH1 0xA0 SHL SUB AND PUSH1 0x0 PUSH1 0x1 PUSH1 0x1 PUSH1 0xA0 SHL SUB AND DUP3 PUSH1 0x1 PUSH1 0x1 PUSH1 0xA0 SHL SUB AND PUSH32 0x4A39DC06D4C0DBC64B70AF90FD698A233A518AA5D07E595D983B8C0526C8F7FB DUP8 DUP8 PUSH1 0x40 MLOAD PUSH2 0x2298 SWAP3 SWAP2 SWAP1 PUSH2 0x3288 JUMP JUMPDEST PUSH1 0x40 MLOAD DUP1 SWAP2 SUB SWAP1 LOG4 PUSH2 0xA7B DUP2 PUSH1 0x0 DUP8 DUP8 DUP8 DUP8 PUSH2 0x266B JUMP JUMPDEST PUSH1 0x1 PUSH1 0x1 PUSH1 0xA0 SHL SUB DUP4 AND PUSH2 0x2311 JUMPI PUSH1 0x40 MLOAD PUSH3 0x461BCD PUSH1 0xE5 SHL DUP2 MSTORE PUSH1 0x20 PUSH1 0x4 DUP3 ADD MSTORE PUSH1 0x23 PUSH1 0x24 DUP3 ADD MSTORE PUSH32 0x455243313135353A206275726E2066726F6D20746865207A65726F2061646472 PUSH1 0x44 DUP3 ADD MSTORE PUSH3 0x657373 PUSH1 0xE8 SHL PUSH1 0x64 DUP3 ADD MSTORE PUSH1 0x84 ADD PUSH2 0x8EA JUMP JUMPDEST CALLER PUSH1 0x0 PUSH2 0x231D DUP5 PUSH2 0x247B JUMP JUMPDEST SWAP1 POP PUSH1 0x0 PUSH2 0x232A DUP5 PUSH2 0x247B JUMP JUMPDEST PUSH1 0x40 DUP1 MLOAD PUSH1 0x20 DUP1 DUP3 ADD DUP4 MSTORE PUSH1 0x0 SWAP2 DUP3 SWAP1 MSTORE DUP9 DUP3 MSTORE DUP2 DUP2 MSTORE DUP3 DUP3 KECCAK256 PUSH1 0x1 PUSH1 0x1 PUSH1 0xA0 SHL SUB DUP12 AND DUP4 MSTORE SWAP1 MSTORE KECCAK256 SLOAD SWAP1 SWAP2 POP DUP5 DUP2 LT ISZERO PUSH2 0x23B3 JUMPI PUSH1 0x40 MLOAD PUSH3 0x461BCD PUSH1 0xE5 SHL DUP2 MSTORE PUSH1 0x20 PUSH1 0x4 DUP3 ADD MSTORE PUSH1 0x24 DUP1 DUP3 ADD MSTORE PUSH32 0x455243313135353A206275726E20616D6F756E7420657863656564732062616C PUSH1 0x44 DUP3 ADD MSTORE PUSH4 0x616E6365 PUSH1 0xE0 SHL PUSH1 0x64 DUP3 ADD MSTORE PUSH1 0x84 ADD PUSH2 0x8EA JUMP JUMPDEST PUSH1 0x0 DUP7 DUP2 MSTORE PUSH1 0x20 DUP2 DUP2 MSTORE PUSH1 0x40 DUP1 DUP4 KECCAK256 PUSH1 0x1 PUSH1 0x1 PUSH1 0xA0 SHL SUB DUP12 DUP2 AND DUP1 DUP7 MSTORE SWAP2 DUP5 MSTORE DUP3 DUP6 KECCAK256 DUP11 DUP8 SUB SWAP1 SSTORE DUP3 MLOAD DUP12 DUP2 MSTORE SWAP4 DUP5 ADD DUP11 SWAP1 MSTORE SWAP1 SWAP3 SWAP1 DUP9 AND SWAP2 PUSH32 0xC3D58168C5AE7397731D063D5BBF3D657854427343F4C083240F7AACAA2D0F62 SWAP2 ADD PUSH1 0x40 MLOAD DUP1 SWAP2 SUB SWAP1 LOG4 PUSH1 0x40 DUP1 MLOAD PUSH1 0x20 DUP2 ADD SWAP1 SWAP2 MSTORE PUSH1 0x0 SWAP1 MSTORE PUSH2 0x1262 JUMP JUMPDEST PUSH1 0x0 PUSH1 0x1 PUSH1 0x1 PUSH1 0xE0 SHL SUB NOT DUP3 AND PUSH4 0x6CDB3D13 PUSH1 0xE1 SHL EQ DUP1 PUSH2 0x245C JUMPI POP PUSH1 0x1 PUSH1 0x1 PUSH1 0xE0 SHL SUB NOT DUP3 AND PUSH4 0x3A24D07 PUSH1 0xE2 SHL EQ JUMPDEST DUP1 PUSH2 0x924 JUMPI POP PUSH4 0x1FFC9A7 PUSH1 0xE0 SHL PUSH1 0x1 PUSH1 0x1 PUSH1 0xE0 SHL SUB NOT DUP4 AND EQ PUSH2 0x924 JUMP JUMPDEST PUSH1 0x40 DUP1 MLOAD PUSH1 0x1 DUP1 DUP3 MSTORE DUP2 DUP4 ADD SWAP1 SWAP3 MSTORE PUSH1 0x60 SWAP2 PUSH1 0x0 SWAP2 SWAP1 PUSH1 0x20 DUP1 DUP4 ADD SWAP1 DUP1 CALLDATASIZE DUP4 CALLDATACOPY ADD SWAP1 POP POP SWAP1 POP DUP3 DUP2 PUSH1 0x0 DUP2 MLOAD DUP2 LT PUSH2 0x24B5 JUMPI PUSH2 0x24B5 PUSH2 0x3241 JUMP JUMPDEST PUSH1 0x20 SWAP1 DUP2 MUL SWAP2 SWAP1 SWAP2 ADD ADD MSTORE SWAP3 SWAP2 POP POP JUMP JUMPDEST PUSH1 0x1 PUSH1 0x1 PUSH1 0xA0 SHL SUB DUP5 AND EXTCODESIZE ISZERO PUSH2 0x1BEE JUMPI PUSH1 0x40 MLOAD PUSH4 0xF23A6E61 PUSH1 0xE0 SHL DUP2 MSTORE PUSH1 0x1 PUSH1 0x1 PUSH1 0xA0 SHL SUB DUP6 AND SWAP1 PUSH4 0xF23A6E61 SWAP1 PUSH2 0x250A SWAP1 DUP10 SWAP1 DUP10 SWAP1 DUP9 SWAP1 DUP9 SWAP1 DUP9 SWAP1 PUSH1 0x4 ADD PUSH2 0x32B6 JUMP JUMPDEST PUSH1 0x20 PUSH1 0x40 MLOAD DUP1 DUP4 SUB DUP2 PUSH1 0x0 DUP8 GAS CALL SWAP3 POP POP POP DUP1 ISZERO PUSH2 0x2545 JUMPI POP PUSH1 0x40 DUP1 MLOAD PUSH1 0x1F RETURNDATASIZE SWAP1 DUP2 ADD PUSH1 0x1F NOT AND DUP3 ADD SWAP1 SWAP3 MSTORE PUSH2 0x2542 SWAP2 DUP2 ADD SWAP1 PUSH2 0x32F9 JUMP JUMPDEST PUSH1 0x1 JUMPDEST PUSH2 0x25FA JUMPI PUSH2 0x2551 PUSH2 0x3316 JUMP JUMPDEST DUP1 PUSH4 0x8C379A0 SUB PUSH2 0x258A JUMPI POP PUSH2 0x2565 PUSH2 0x3332 JUMP JUMPDEST DUP1 PUSH2 0x2570 JUMPI POP PUSH2 0x258C JUMP JUMPDEST DUP1 PUSH1 0x40 MLOAD PUSH3 0x461BCD PUSH1 0xE5 SHL DUP2 MSTORE PUSH1 0x4 ADD PUSH2 0x8EA SWAP2 SWAP1 PUSH2 0x2B5C JUMP JUMPDEST POP JUMPDEST PUSH1 0x40 MLOAD PUSH3 0x461BCD PUSH1 0xE5 SHL DUP2 MSTORE PUSH1 0x20 PUSH1 0x4 DUP3 ADD MSTORE PUSH1 0x34 PUSH1 0x24 DUP3 ADD MSTORE PUSH32 0x455243313135353A207472616E7366657220746F206E6F6E2045524331313535 PUSH1 0x44 DUP3 ADD MSTORE PUSH32 0x526563656976657220696D706C656D656E746572000000000000000000000000 PUSH1 0x64 DUP3 ADD MSTORE PUSH1 0x84 ADD PUSH2 0x8EA JUMP JUMPDEST PUSH1 0x1 PUSH1 0x1 PUSH1 0xE0 SHL SUB NOT DUP2 AND PUSH4 0xF23A6E61 PUSH1 0xE0 SHL EQ PUSH2 0x1262 JUMPI PUSH1 0x40 MLOAD PUSH3 0x461BCD PUSH1 0xE5 SHL DUP2 MSTORE PUSH1 0x20 PUSH1 0x4 DUP3 ADD MSTORE PUSH1 0x28 PUSH1 0x24 DUP3 ADD MSTORE PUSH32 0x455243313135353A204552433131353552656365697665722072656A65637465 PUSH1 0x44 DUP3 ADD MSTORE PUSH8 0x6420746F6B656E73 PUSH1 0xC0 SHL PUSH1 0x64 DUP3 ADD MSTORE PUSH1 0x84 ADD PUSH2 0x8EA JUMP JUMPDEST PUSH1 0x1 PUSH1 0x1 PUSH1 0xA0 SHL SUB DUP5 AND EXTCODESIZE ISZERO PUSH2 0x1BEE JUMPI PUSH1 0x40 MLOAD PUSH4 0xBC197C81 PUSH1 0xE0 SHL DUP2 MSTORE PUSH1 0x1 PUSH1 0x1 PUSH1 0xA0 SHL SUB DUP6 AND SWAP1 PUSH4 0xBC197C81 SWAP1 PUSH2 0x26AF SWAP1 DUP10 SWAP1 DUP10 SWAP1 DUP9 SWAP1 DUP9 SWAP1 DUP9 SWAP1 PUSH1 0x4 ADD PUSH2 0x33BC JUMP JUMPDEST PUSH1 0x20 PUSH1 0x40 MLOAD DUP1 DUP4 SUB DUP2 PUSH1 0x0 DUP8 GAS CALL SWAP3 POP POP POP DUP1 ISZERO PUSH2 0x26EA JUMPI POP PUSH1 0x40 DUP1 MLOAD PUSH1 0x1F RETURNDATASIZE SWAP1 DUP2 ADD PUSH1 0x1F NOT AND DUP3 ADD SWAP1 SWAP3 MSTORE PUSH2 0x26E7 SWAP2 DUP2 ADD SWAP1 PUSH2 0x32F9 JUMP JUMPDEST PUSH1 0x1 JUMPDEST PUSH2 0x26F6 JUMPI PUSH2 0x2551 PUSH2 0x3316 JUMP JUMPDEST PUSH1 0x1 PUSH1 0x1 PUSH1 0xE0 SHL SUB NOT DUP2 AND PUSH4 0xBC197C81 PUSH1 0xE0 SHL EQ PUSH2 0x1262 JUMPI PUSH1 0x40 MLOAD PUSH3 0x461BCD PUSH1 0xE5 SHL DUP2 MSTORE PUSH1 0x20 PUSH1 0x4 DUP3 ADD MSTORE PUSH1 0x28 PUSH1 0x24 DUP3 ADD MSTORE PUSH32 0x455243313135353A204552433131353552656365697665722072656A65637465 PUSH1 0x44 DUP3 ADD MSTORE PUSH8 0x6420746F6B656E73 PUSH1 0xC0 SHL PUSH1 0x64 DUP3 ADD MSTORE PUSH1 0x84 ADD PUSH2 0x8EA JUMP JUMPDEST PUSH1 0x0 DUP3 DUP2 MSTORE PUSH1 0x3 PUSH1 0x20 SWAP1 DUP2 MSTORE PUSH1 0x40 DUP1 DUP4 KECCAK256 PUSH1 0x1 PUSH1 0x1 PUSH1 0xA0 SHL SUB DUP6 AND DUP5 MSTORE SWAP1 SWAP2 MSTORE SWAP1 KECCAK256 SLOAD PUSH1 0xFF AND PUSH2 0xCC1 JUMPI PUSH2 0x27A5 DUP2 PUSH1 0x1 PUSH1 0x1 PUSH1 0xA0 SHL SUB AND PUSH1 0x14 PUSH2 0x27E7 JUMP JUMPDEST PUSH2 0x27B0 DUP4 PUSH1 0x20 PUSH2 0x27E7 JUMP JUMPDEST PUSH1 0x40 MLOAD PUSH1 0x20 ADD PUSH2 0x27C1 SWAP3 SWAP2 SWAP1 PUSH2 0x341A JUMP JUMPDEST PUSH1 0x40 DUP1 MLOAD PUSH1 0x1F NOT DUP2 DUP5 SUB ADD DUP2 MSTORE SWAP1 DUP3 SWAP1 MSTORE PUSH3 0x461BCD PUSH1 0xE5 SHL DUP3 MSTORE PUSH2 0x8EA SWAP2 PUSH1 0x4 ADD PUSH2 0x2B5C JUMP JUMPDEST PUSH1 0x60 PUSH1 0x0 PUSH2 0x27F6 DUP4 PUSH1 0x2 PUSH2 0x31B0 JUMP JUMPDEST PUSH2 0x2801 SWAP1 PUSH1 0x2 PUSH2 0x3270 JUMP JUMPDEST PUSH8 0xFFFFFFFFFFFFFFFF DUP2 GT ISZERO PUSH2 0x2819 JUMPI PUSH2 0x2819 PUSH2 0x2B91 JUMP JUMPDEST PUSH1 0x40 MLOAD SWAP1 DUP1 DUP3 MSTORE DUP1 PUSH1 0x1F ADD PUSH1 0x1F NOT AND PUSH1 0x20 ADD DUP3 ADD PUSH1 0x40 MSTORE DUP1 ISZERO PUSH2 0x2843 JUMPI PUSH1 0x20 DUP3 ADD DUP2 DUP1 CALLDATASIZE DUP4 CALLDATACOPY ADD SWAP1 POP JUMPDEST POP SWAP1 POP PUSH1 0x3 PUSH1 0xFC SHL DUP2 PUSH1 0x0 DUP2 MLOAD DUP2 LT PUSH2 0x285E JUMPI PUSH2 0x285E PUSH2 0x3241 JUMP JUMPDEST PUSH1 0x20 ADD ADD SWAP1 PUSH1 0x1 PUSH1 0x1 PUSH1 0xF8 SHL SUB NOT AND SWAP1 DUP2 PUSH1 0x0 BYTE SWAP1 MSTORE8 POP PUSH1 0xF PUSH1 0xFB SHL DUP2 PUSH1 0x1 DUP2 MLOAD DUP2 LT PUSH2 0x288D JUMPI PUSH2 0x288D PUSH2 0x3241 JUMP JUMPDEST PUSH1 0x20 ADD ADD SWAP1 PUSH1 0x1 PUSH1 0x1 PUSH1 0xF8 SHL SUB NOT AND SWAP1 DUP2 PUSH1 0x0 BYTE SWAP1 MSTORE8 POP PUSH1 0x0 PUSH2 0x28B1 DUP5 PUSH1 0x2 PUSH2 0x31B0 JUMP JUMPDEST PUSH2 0x28BC SWAP1 PUSH1 0x1 PUSH2 0x3270 JUMP JUMPDEST SWAP1 POP JUMPDEST PUSH1 0x1 DUP2 GT ISZERO PUSH2 0x2941 JUMPI PUSH32 0x3031323334353637383961626364656600000000000000000000000000000000 DUP6 PUSH1 0xF AND PUSH1 0x10 DUP2 LT PUSH2 0x28FD JUMPI PUSH2 0x28FD PUSH2 0x3241 JUMP JUMPDEST BYTE PUSH1 0xF8 SHL DUP3 DUP3 DUP2 MLOAD DUP2 LT PUSH2 0x2913 JUMPI PUSH2 0x2913 PUSH2 0x3241 JUMP JUMPDEST PUSH1 0x20 ADD ADD SWAP1 PUSH1 0x1 PUSH1 0x1 PUSH1 0xF8 SHL SUB NOT AND SWAP1 DUP2 PUSH1 0x0 BYTE SWAP1 MSTORE8 POP PUSH1 0x4 SWAP5 SWAP1 SWAP5 SHR SWAP4 PUSH2 0x293A DUP2 PUSH2 0x349B JUMP JUMPDEST SWAP1 POP PUSH2 0x28BF JUMP JUMPDEST POP DUP4 ISZERO PUSH2 0x2990 JUMPI PUSH1 0x40 MLOAD PUSH3 0x461BCD PUSH1 0xE5 SHL DUP2 MSTORE PUSH1 0x20 PUSH1 0x4 DUP3 ADD DUP2 SWAP1 MSTORE PUSH1 0x24 DUP3 ADD MSTORE PUSH32 0x537472696E67733A20686578206C656E67746820696E73756666696369656E74 PUSH1 0x44 DUP3 ADD MSTORE PUSH1 0x64 ADD PUSH2 0x8EA JUMP JUMPDEST SWAP4 SWAP3 POP POP POP JUMP JUMPDEST DUP3 DUP1 SLOAD PUSH2 0x29A3 SWAP1 PUSH2 0x31CF JUMP JUMPDEST SWAP1 PUSH1 0x0 MSTORE PUSH1 0x20 PUSH1 0x0 KECCAK256 SWAP1 PUSH1 0x1F ADD PUSH1 0x20 SWAP1 DIV DUP2 ADD SWAP3 DUP3 PUSH2 0x29C5 JUMPI PUSH1 0x0 DUP6 SSTORE PUSH2 0x2A0B JUMP JUMPDEST DUP3 PUSH1 0x1F LT PUSH2 0x29DE JUMPI DUP1 MLOAD PUSH1 0xFF NOT AND DUP4 DUP1 ADD OR DUP6 SSTORE PUSH2 0x2A0B JUMP JUMPDEST DUP3 DUP1 ADD PUSH1 0x1 ADD DUP6 SSTORE DUP3 ISZERO PUSH2 0x2A0B JUMPI SWAP2 DUP3 ADD JUMPDEST DUP3 DUP2 GT ISZERO PUSH2 0x2A0B JUMPI DUP3 MLOAD DUP3 SSTORE SWAP2 PUSH1 0x20 ADD SWAP2 SWAP1 PUSH1 0x1 ADD SWAP1 PUSH2 0x29F0 JUMP JUMPDEST POP PUSH2 0x2A17 SWAP3 SWAP2 POP PUSH2 0x2A1B JUMP JUMPDEST POP SWAP1 JUMP JUMPDEST JUMPDEST DUP1 DUP3 GT ISZERO PUSH2 0x2A17 JUMPI PUSH1 0x0 DUP2 SSTORE PUSH1 0x1 ADD PUSH2 0x2A1C JUMP JUMPDEST DUP1 CALLDATALOAD PUSH1 0x1 PUSH1 0x1 PUSH1 0xA0 SHL SUB DUP2 AND DUP2 EQ PUSH2 0x2A47 JUMPI PUSH1 0x0 DUP1 REVERT JUMPDEST SWAP2 SWAP1 POP JUMP JUMPDEST PUSH1 0x0 DUP1 PUSH1 0x40 DUP4 DUP6 SUB SLT ISZERO PUSH2 0x2A5F JUMPI PUSH1 0x0 DUP1 REVERT JUMPDEST PUSH2 0x2A68 DUP4 PUSH2 0x2A30 JUMP JUMPDEST SWAP5 PUSH1 0x20 SWAP4 SWAP1 SWAP4 ADD CALLDATALOAD SWAP4 POP POP POP JUMP JUMPDEST PUSH1 0x1 PUSH1 0x1 PUSH1 0xE0 SHL SUB NOT DUP2 AND DUP2 EQ PUSH2 0x1C00 JUMPI PUSH1 0x0 DUP1 REVERT JUMPDEST PUSH1 0x0 PUSH1 0x20 DUP3 DUP5 SUB SLT ISZERO PUSH2 0x2A9E JUMPI PUSH1 0x0 DUP1 REVERT JUMPDEST DUP2 CALLDATALOAD PUSH2 0x2990 DUP2 PUSH2 0x2A76 JUMP JUMPDEST PUSH1 0x0 DUP1 PUSH1 0x0 DUP1 PUSH1 0x80 DUP6 DUP8 SUB SLT ISZERO PUSH2 0x2ABF JUMPI PUSH1 0x0 DUP1 REVERT JUMPDEST PUSH2 0x2AC8 DUP6 PUSH2 0x2A30 JUMP JUMPDEST SWAP4 POP PUSH2 0x2AD6 PUSH1 0x20 DUP7 ADD PUSH2 0x2A30 JUMP JUMPDEST SWAP4 SWAP7 SWAP4 SWAP6 POP POP POP POP PUSH1 0x40 DUP3 ADD CALLDATALOAD SWAP2 PUSH1 0x60 ADD CALLDATALOAD SWAP1 JUMP JUMPDEST PUSH1 0x0 PUSH1 0x20 DUP3 DUP5 SUB SLT ISZERO PUSH2 0x2AFD JUMPI PUSH1 0x0 DUP1 REVERT JUMPDEST POP CALLDATALOAD SWAP2 SWAP1 POP JUMP JUMPDEST PUSH1 0x0 JUMPDEST DUP4 DUP2 LT ISZERO PUSH2 0x2B1F JUMPI DUP2 DUP2 ADD MLOAD DUP4 DUP3 ADD MSTORE PUSH1 0x20 ADD PUSH2 0x2B07 JUMP JUMPDEST DUP4 DUP2 GT ISZERO PUSH2 0x1FEF JUMPI POP POP PUSH1 0x0 SWAP2 ADD MSTORE JUMP JUMPDEST PUSH1 0x0 DUP2 MLOAD DUP1 DUP5 MSTORE PUSH2 0x2B48 DUP2 PUSH1 0x20 DUP7 ADD PUSH1 0x20 DUP7 ADD PUSH2 0x2B04 JUMP JUMPDEST PUSH1 0x1F ADD PUSH1 0x1F NOT AND SWAP3 SWAP1 SWAP3 ADD PUSH1 0x20 ADD SWAP3 SWAP2 POP POP JUMP JUMPDEST PUSH1 0x20 DUP2 MSTORE PUSH1 0x0 PUSH2 0x2990 PUSH1 0x20 DUP4 ADD DUP5 PUSH2 0x2B30 JUMP JUMPDEST PUSH1 0x0 DUP1 PUSH1 0x40 DUP4 DUP6 SUB SLT ISZERO PUSH2 0x2B82 JUMPI PUSH1 0x0 DUP1 REVERT JUMPDEST POP POP DUP1 CALLDATALOAD SWAP3 PUSH1 0x20 SWAP1 SWAP2 ADD CALLDATALOAD SWAP2 POP JUMP JUMPDEST PUSH4 0x4E487B71 PUSH1 0xE0 SHL PUSH1 0x0 MSTORE PUSH1 0x41 PUSH1 0x4 MSTORE PUSH1 0x24 PUSH1 0x0 REVERT JUMPDEST PUSH1 0x1F DUP3 ADD PUSH1 0x1F NOT AND DUP2 ADD PUSH8 0xFFFFFFFFFFFFFFFF DUP2 GT DUP3 DUP3 LT OR ISZERO PUSH2 0x2BCD JUMPI PUSH2 0x2BCD PUSH2 0x2B91 JUMP JUMPDEST PUSH1 0x40 MSTORE POP POP JUMP JUMPDEST PUSH1 0x0 PUSH8 0xFFFFFFFFFFFFFFFF DUP3 GT ISZERO PUSH2 0x2BEE JUMPI PUSH2 0x2BEE PUSH2 0x2B91 JUMP JUMPDEST POP PUSH1 0x5 SHL PUSH1 0x20 ADD SWAP1 JUMP JUMPDEST PUSH1 0x0 DUP3 PUSH1 0x1F DUP4 ADD SLT PUSH2 0x2C09 JUMPI PUSH1 0x0 DUP1 REVERT JUMPDEST DUP2 CALLDATALOAD PUSH1 0x20 PUSH2 0x2C16 DUP3 PUSH2 0x2BD4 JUMP JUMPDEST PUSH1 0x40 MLOAD PUSH2 0x2C23 DUP3 DUP3 PUSH2 0x2BA7 JUMP JUMPDEST DUP4 DUP2 MSTORE PUSH1 0x5 SWAP4 SWAP1 SWAP4 SHL DUP6 ADD DUP3 ADD SWAP3 DUP3 DUP2 ADD SWAP2 POP DUP7 DUP5 GT ISZERO PUSH2 0x2C43 JUMPI PUSH1 0x0 DUP1 REVERT JUMPDEST DUP3 DUP7 ADD JUMPDEST DUP5 DUP2 LT ISZERO PUSH2 0x2C5E JUMPI DUP1 CALLDATALOAD DUP4 MSTORE SWAP2 DUP4 ADD SWAP2 DUP4 ADD PUSH2 0x2C47 JUMP JUMPDEST POP SWAP7 SWAP6 POP POP POP POP POP POP JUMP JUMPDEST PUSH1 0x0 DUP3 PUSH1 0x1F DUP4 ADD SLT PUSH2 0x2C7A JUMPI PUSH1 0x0 DUP1 REVERT JUMPDEST DUP2 CALLDATALOAD PUSH8 0xFFFFFFFFFFFFFFFF DUP2 GT ISZERO PUSH2 0x2C94 JUMPI PUSH2 0x2C94 PUSH2 0x2B91 JUMP JUMPDEST PUSH1 0x40 MLOAD PUSH2 0x2CAB PUSH1 0x1F DUP4 ADD PUSH1 0x1F NOT AND PUSH1 0x20 ADD DUP3 PUSH2 0x2BA7 JUMP JUMPDEST DUP2 DUP2 MSTORE DUP5 PUSH1 0x20 DUP4 DUP7 ADD ADD GT ISZERO PUSH2 0x2CC0 JUMPI PUSH1 0x0 DUP1 REVERT JUMPDEST DUP2 PUSH1 0x20 DUP6 ADD PUSH1 0x20 DUP4 ADD CALLDATACOPY PUSH1 0x0 SWAP2 DUP2 ADD PUSH1 0x20 ADD SWAP2 SWAP1 SWAP2 MSTORE SWAP4 SWAP3 POP POP POP JUMP JUMPDEST PUSH1 0x0 DUP1 PUSH1 0x0 DUP1 PUSH1 0x0 PUSH1 0xA0 DUP7 DUP9 SUB SLT ISZERO PUSH2 0x2CF5 JUMPI PUSH1 0x0 DUP1 REVERT JUMPDEST PUSH2 0x2CFE DUP7 PUSH2 0x2A30 JUMP JUMPDEST SWAP5 POP PUSH2 0x2D0C PUSH1 0x20 DUP8 ADD PUSH2 0x2A30 JUMP JUMPDEST SWAP4 POP PUSH1 0x40 DUP7 ADD CALLDATALOAD PUSH8 0xFFFFFFFFFFFFFFFF DUP1 DUP3 GT ISZERO PUSH2 0x2D29 JUMPI PUSH1 0x0 DUP1 REVERT JUMPDEST PUSH2 0x2D35 DUP10 DUP4 DUP11 ADD PUSH2 0x2BF8 JUMP JUMPDEST SWAP5 POP PUSH1 0x60 DUP9 ADD CALLDATALOAD SWAP2 POP DUP1 DUP3 GT ISZERO PUSH2 0x2D4B JUMPI PUSH1 0x0 DUP1 REVERT JUMPDEST PUSH2 0x2D57 DUP10 DUP4 DUP11 ADD PUSH2 0x2BF8 JUMP JUMPDEST SWAP4 POP PUSH1 0x80 DUP9 ADD CALLDATALOAD SWAP2 POP DUP1 DUP3 GT ISZERO PUSH2 0x2D6D JUMPI PUSH1 0x0 DUP1 REVERT JUMPDEST POP PUSH2 0x2D7A DUP9 DUP3 DUP10 ADD PUSH2 0x2C69 JUMP JUMPDEST SWAP2 POP POP SWAP3 SWAP6 POP SWAP3 SWAP6 SWAP1 SWAP4 POP JUMP JUMPDEST PUSH1 0x0 DUP1 PUSH1 0x40 DUP4 DUP6 SUB SLT ISZERO PUSH2 0x2D9A JUMPI PUSH1 0x0 DUP1 REVERT JUMPDEST DUP3 CALLDATALOAD SWAP2 POP PUSH2 0x2DAA PUSH1 0x20 DUP5 ADD PUSH2 0x2A30 JUMP JUMPDEST SWAP1 POP SWAP3 POP SWAP3 SWAP1 POP JUMP JUMPDEST PUSH1 0x0 DUP1 PUSH1 0x0 DUP1 PUSH1 0x0 PUSH1 0xA0 DUP7 DUP9 SUB SLT ISZERO PUSH2 0x2DCB JUMPI PUSH1 0x0 DUP1 REVERT JUMPDEST DUP6 CALLDATALOAD PUSH1 0x2 DUP2 LT PUSH2 0x2DDA JUMPI PUSH1 0x0 DUP1 REVERT JUMPDEST SWAP5 POP PUSH2 0x2DE8 PUSH1 0x20 DUP8 ADD PUSH2 0x2A30 JUMP JUMPDEST SWAP4 POP PUSH1 0x40 DUP7 ADD CALLDATALOAD SWAP3 POP PUSH1 0x60 DUP7 ADD CALLDATALOAD SWAP2 POP PUSH1 0x80 DUP7 ADD CALLDATALOAD PUSH8 0xFFFFFFFFFFFFFFFF DUP2 GT ISZERO PUSH2 0x2E12 JUMPI PUSH1 0x0 DUP1 REVERT JUMPDEST PUSH2 0x2D7A DUP9 DUP3 DUP10 ADD PUSH2 0x2C69 JUMP JUMPDEST PUSH1 0x0 DUP1 PUSH1 0x40 DUP4 DUP6 SUB SLT ISZERO PUSH2 0x2E31 JUMPI PUSH1 0x0 DUP1 REVERT JUMPDEST DUP3 CALLDATALOAD PUSH8 0xFFFFFFFFFFFFFFFF DUP1 DUP3 GT ISZERO PUSH2 0x2E49 JUMPI PUSH1 0x0 DUP1 REVERT JUMPDEST DUP2 DUP6 ADD SWAP2 POP DUP6 PUSH1 0x1F DUP4 ADD SLT PUSH2 0x2E5D JUMPI PUSH1 0x0 DUP1 REVERT JUMPDEST DUP2 CALLDATALOAD PUSH1 0x20 PUSH2 0x2E6A DUP3 PUSH2 0x2BD4 JUMP JUMPDEST PUSH1 0x40 MLOAD PUSH2 0x2E77 DUP3 DUP3 PUSH2 0x2BA7 JUMP JUMPDEST DUP4 DUP2 MSTORE PUSH1 0x5 SWAP4 SWAP1 SWAP4 SHL DUP6 ADD DUP3 ADD SWAP3 DUP3 DUP2 ADD SWAP2 POP DUP10 DUP5 GT ISZERO PUSH2 0x2E97 JUMPI PUSH1 0x0 DUP1 REVERT JUMPDEST SWAP5 DUP3 ADD SWAP5 JUMPDEST DUP4 DUP7 LT ISZERO PUSH2 0x2EBC JUMPI PUSH2 0x2EAD DUP7 PUSH2 0x2A30 JUMP JUMPDEST DUP3 MSTORE SWAP5 DUP3 ADD SWAP5 SWAP1 DUP3 ADD SWAP1 PUSH2 0x2E9C JUMP JUMPDEST SWAP7 POP POP DUP7 ADD CALLDATALOAD SWAP3 POP POP DUP1 DUP3 GT ISZERO PUSH2 0x2ED2 JUMPI PUSH1 0x0 DUP1 REVERT JUMPDEST POP PUSH2 0xB78 DUP6 DUP3 DUP7 ADD PUSH2 0x2BF8 JUMP JUMPDEST PUSH1 0x0 DUP2 MLOAD DUP1 DUP5 MSTORE PUSH1 0x20 DUP1 DUP6 ADD SWAP5 POP DUP1 DUP5 ADD PUSH1 0x0 JUMPDEST DUP4 DUP2 LT ISZERO PUSH2 0x2F0F JUMPI DUP2 MLOAD DUP8 MSTORE SWAP6 DUP3 ADD SWAP6 SWAP1 DUP3 ADD SWAP1 PUSH1 0x1 ADD PUSH2 0x2EF3 JUMP JUMPDEST POP SWAP5 SWAP6 SWAP5 POP POP POP POP POP JUMP JUMPDEST PUSH1 0x20 DUP2 MSTORE PUSH1 0x0 PUSH2 0x2990 PUSH1 0x20 DUP4 ADD DUP5 PUSH2 0x2EDF JUMP JUMPDEST PUSH1 0x0 PUSH1 0x20 DUP3 DUP5 SUB SLT ISZERO PUSH2 0x2F3F JUMPI PUSH1 0x0 DUP1 REVERT JUMPDEST DUP2 CALLDATALOAD PUSH8 0xFFFFFFFFFFFFFFFF DUP2 GT ISZERO PUSH2 0x2F56 JUMPI PUSH1 0x0 DUP1 REVERT JUMPDEST PUSH2 0x2F62 DUP5 DUP3 DUP6 ADD PUSH2 0x2C69 JUMP JUMPDEST SWAP5 SWAP4 POP POP POP POP JUMP JUMPDEST PUSH1 0x0 DUP1 PUSH1 0x0 PUSH1 0x60 DUP5 DUP7 SUB SLT ISZERO PUSH2 0x2F7F JUMPI PUSH1 0x0 DUP1 REVERT JUMPDEST PUSH2 0x2F88 DUP5 PUSH2 0x2A30 JUMP JUMPDEST SWAP3 POP PUSH1 0x20 DUP5 ADD CALLDATALOAD PUSH8 0xFFFFFFFFFFFFFFFF DUP1 DUP3 GT ISZERO PUSH2 0x2FA5 JUMPI PUSH1 0x0 DUP1 REVERT JUMPDEST PUSH2 0x2FB1 DUP8 DUP4 DUP9 ADD PUSH2 0x2BF8 JUMP JUMPDEST SWAP4 POP PUSH1 0x40 DUP7 ADD CALLDATALOAD SWAP2 POP DUP1 DUP3 GT ISZERO PUSH2 0x2FC7 JUMPI PUSH1 0x0 DUP1 REVERT JUMPDEST POP PUSH2 0x2FD4 DUP7 DUP3 DUP8 ADD PUSH2 0x2BF8 JUMP JUMPDEST SWAP2 POP POP SWAP3 POP SWAP3 POP SWAP3 JUMP JUMPDEST PUSH1 0x0 DUP1 DUP4 PUSH1 0x1F DUP5 ADD SLT PUSH2 0x2FF0 JUMPI PUSH1 0x0 DUP1 REVERT JUMPDEST POP DUP2 CALLDATALOAD PUSH8 0xFFFFFFFFFFFFFFFF DUP2 GT ISZERO PUSH2 0x3008 JUMPI PUSH1 0x0 DUP1 REVERT JUMPDEST PUSH1 0x20 DUP4 ADD SWAP2 POP DUP4 PUSH1 0x20 DUP3 PUSH1 0x5 SHL DUP6 ADD ADD GT ISZERO PUSH2 0x3023 JUMPI PUSH1 0x0 DUP1 REVERT JUMPDEST SWAP3 POP SWAP3 SWAP1 POP JUMP JUMPDEST PUSH1 0x0 DUP1 PUSH1 0x0 DUP1 PUSH1 0x0 PUSH1 0x60 DUP7 DUP9 SUB SLT ISZERO PUSH2 0x3042 JUMPI PUSH1 0x0 DUP1 REVERT JUMPDEST PUSH2 0x304B DUP7 PUSH2 0x2A30 JUMP JUMPDEST SWAP5 POP PUSH1 0x20 DUP7 ADD CALLDATALOAD PUSH8 0xFFFFFFFFFFFFFFFF DUP1 DUP3 GT ISZERO PUSH2 0x3068 JUMPI PUSH1 0x0 DUP1 REVERT JUMPDEST PUSH2 0x3074 DUP10 DUP4 DUP11 ADD PUSH2 0x2FDE JUMP JUMPDEST SWAP1 SWAP7 POP SWAP5 POP PUSH1 0x40 DUP9 ADD CALLDATALOAD SWAP2 POP DUP1 DUP3 GT ISZERO PUSH2 0x308D JUMPI PUSH1 0x0 DUP1 REVERT JUMPDEST POP PUSH2 0x309A DUP9 DUP3 DUP10 ADD PUSH2 0x2FDE JUMP JUMPDEST SWAP7 SWAP10 SWAP6 SWAP9 POP SWAP4 SWAP7 POP SWAP3 SWAP5 SWAP4 SWAP3 POP POP POP JUMP JUMPDEST PUSH1 0x0 DUP1 PUSH1 0x0 PUSH1 0x60 DUP5 DUP7 SUB SLT ISZERO PUSH2 0x30C0 JUMPI PUSH1 0x0 DUP1 REVERT JUMPDEST DUP4 CALLDATALOAD SWAP3 POP PUSH2 0x30D0 PUSH1 0x20 DUP6 ADD PUSH2 0x2A30 JUMP JUMPDEST SWAP2 POP PUSH1 0x40 DUP5 ADD CALLDATALOAD SWAP1 POP SWAP3 POP SWAP3 POP SWAP3 JUMP JUMPDEST PUSH1 0x0 DUP1 PUSH1 0x40 DUP4 DUP6 SUB SLT ISZERO PUSH2 0x30F3 JUMPI PUSH1 0x0 DUP1 REVERT JUMPDEST PUSH2 0x30FC DUP4 PUSH2 0x2A30 JUMP JUMPDEST SWAP2 POP PUSH1 0x20 DUP4 ADD CALLDATALOAD DUP1 ISZERO ISZERO DUP2 EQ PUSH2 0x3111 JUMPI PUSH1 0x0 DUP1 REVERT JUMPDEST DUP1 SWAP2 POP POP SWAP3 POP SWAP3 SWAP1 POP JUMP JUMPDEST PUSH1 0x0 DUP1 PUSH1 0x40 DUP4 DUP6 SUB SLT ISZERO PUSH2 0x312F JUMPI PUSH1 0x0 DUP1 REVERT JUMPDEST PUSH2 0x3138 DUP4 PUSH2 0x2A30 JUMP JUMPDEST SWAP2 POP PUSH2 0x2DAA PUSH1 0x20 DUP5 ADD PUSH2 0x2A30 JUMP JUMPDEST PUSH1 0x0 DUP1 PUSH1 0x0 PUSH1 0x60 DUP5 DUP7 SUB SLT ISZERO PUSH2 0x315B JUMPI PUSH1 0x0 DUP1 REVERT JUMPDEST PUSH2 0x3164 DUP5 PUSH2 0x2A30 JUMP JUMPDEST SWAP6 PUSH1 0x20 DUP6 ADD CALLDATALOAD SWAP6 POP PUSH1 0x40 SWAP1 SWAP5 ADD CALLDATALOAD SWAP4 SWAP3 POP POP POP JUMP JUMPDEST PUSH1 0x0 DUP1 PUSH1 0x0 DUP1 PUSH1 0x0 PUSH1 0xA0 DUP7 DUP9 SUB SLT ISZERO PUSH2 0x3191 JUMPI PUSH1 0x0 DUP1 REVERT JUMPDEST PUSH2 0x2DDA DUP7 PUSH2 0x2A30 JUMP JUMPDEST PUSH4 0x4E487B71 PUSH1 0xE0 SHL PUSH1 0x0 MSTORE PUSH1 0x11 PUSH1 0x4 MSTORE PUSH1 0x24 PUSH1 0x0 REVERT JUMPDEST PUSH1 0x0 DUP2 PUSH1 0x0 NOT DIV DUP4 GT DUP3 ISZERO ISZERO AND ISZERO PUSH2 0x31CA JUMPI PUSH2 0x31CA PUSH2 0x319A JUMP JUMPDEST POP MUL SWAP1 JUMP JUMPDEST PUSH1 0x1 DUP2 DUP2 SHR SWAP1 DUP3 AND DUP1 PUSH2 0x31E3 JUMPI PUSH1 0x7F DUP3 AND SWAP2 POP JUMPDEST PUSH1 0x20 DUP3 LT DUP2 SUB PUSH2 0x3203 JUMPI PUSH4 0x4E487B71 PUSH1 0xE0 SHL PUSH1 0x0 MSTORE PUSH1 0x22 PUSH1 0x4 MSTORE PUSH1 0x24 PUSH1 0x0 REVERT JUMPDEST POP SWAP2 SWAP1 POP JUMP JUMPDEST PUSH1 0x0 DUP3 PUSH2 0x3226 JUMPI PUSH4 0x4E487B71 PUSH1 0xE0 SHL PUSH1 0x0 MSTORE PUSH1 0x12 PUSH1 0x4 MSTORE PUSH1 0x24 PUSH1 0x0 REVERT JUMPDEST POP DIV SWAP1 JUMP JUMPDEST PUSH4 0x4E487B71 PUSH1 0xE0 SHL PUSH1 0x0 MSTORE PUSH1 0x21 PUSH1 0x4 MSTORE PUSH1 0x24 PUSH1 0x0 REVERT JUMPDEST PUSH4 0x4E487B71 PUSH1 0xE0 SHL PUSH1 0x0 MSTORE PUSH1 0x32 PUSH1 0x4 MSTORE PUSH1 0x24 PUSH1 0x0 REVERT JUMPDEST PUSH1 0x0 PUSH1 0x1 DUP3 ADD PUSH2 0x3269 JUMPI PUSH2 0x3269 PUSH2 0x319A JUMP JUMPDEST POP PUSH1 0x1 ADD SWAP1 JUMP JUMPDEST PUSH1 0x0 DUP3 NOT DUP3 GT ISZERO PUSH2 0x3283 JUMPI PUSH2 0x3283 PUSH2 0x319A JUMP JUMPDEST POP ADD SWAP1 JUMP JUMPDEST PUSH1 0x40 DUP2 MSTORE PUSH1 0x0 PUSH2 0x329B PUSH1 0x40 DUP4 ADD DUP6 PUSH2 0x2EDF JUMP JUMPDEST DUP3 DUP2 SUB PUSH1 0x20 DUP5 ADD MSTORE PUSH2 0x32AD DUP2 DUP6 PUSH2 0x2EDF JUMP JUMPDEST SWAP6 SWAP5 POP POP POP POP POP JUMP JUMPDEST PUSH1 0x0 PUSH1 0x1 PUSH1 0x1 PUSH1 0xA0 SHL SUB DUP1 DUP9 AND DUP4 MSTORE DUP1 DUP8 AND PUSH1 0x20 DUP5 ADD MSTORE POP DUP5 PUSH1 0x40 DUP4 ADD MSTORE DUP4 PUSH1 0x60 DUP4 ADD MSTORE PUSH1 0xA0 PUSH1 0x80 DUP4 ADD MSTORE PUSH2 0x32EE PUSH1 0xA0 DUP4 ADD DUP5 PUSH2 0x2B30 JUMP JUMPDEST SWAP8 SWAP7 POP POP POP POP POP POP POP JUMP JUMPDEST PUSH1 0x0 PUSH1 0x20 DUP3 DUP5 SUB SLT ISZERO PUSH2 0x330B JUMPI PUSH1 0x0 DUP1 REVERT JUMPDEST DUP2 MLOAD PUSH2 0x2990 DUP2 PUSH2 0x2A76 JUMP JUMPDEST PUSH1 0x0 PUSH1 0x3 RETURNDATASIZE GT ISZERO PUSH2 0x332F JUMPI PUSH1 0x4 PUSH1 0x0 DUP1 RETURNDATACOPY POP PUSH1 0x0 MLOAD PUSH1 0xE0 SHR JUMPDEST SWAP1 JUMP JUMPDEST PUSH1 0x0 PUSH1 0x44 RETURNDATASIZE LT ISZERO PUSH2 0x3340 JUMPI SWAP1 JUMP JUMPDEST PUSH1 0x40 MLOAD PUSH1 0x3 NOT RETURNDATASIZE DUP2 ADD PUSH1 0x4 DUP4 RETURNDATACOPY DUP2 MLOAD RETURNDATASIZE PUSH8 0xFFFFFFFFFFFFFFFF DUP2 PUSH1 0x24 DUP5 ADD GT DUP2 DUP5 GT OR ISZERO PUSH2 0x3370 JUMPI POP POP POP POP POP SWAP1 JUMP JUMPDEST DUP3 DUP6 ADD SWAP2 POP DUP2 MLOAD DUP2 DUP2 GT ISZERO PUSH2 0x3388 JUMPI POP POP POP POP POP POP SWAP1 JUMP JUMPDEST DUP5 RETURNDATASIZE DUP8 ADD ADD PUSH1 0x20 DUP3 DUP6 ADD ADD GT ISZERO PUSH2 0x33A2 JUMPI POP POP POP POP POP POP SWAP1 JUMP JUMPDEST PUSH2 0x33B1 PUSH1 0x20 DUP3 DUP7 ADD ADD DUP8 PUSH2 0x2BA7 JUMP JUMPDEST POP SWAP1 SWAP6 SWAP5 POP POP POP POP POP JUMP JUMPDEST PUSH1 0x0 PUSH1 0x1 PUSH1 0x1 PUSH1 0xA0 SHL SUB DUP1 DUP9 AND DUP4 MSTORE DUP1 DUP8 AND PUSH1 0x20 DUP5 ADD MSTORE POP PUSH1 0xA0 PUSH1 0x40 DUP4 ADD MSTORE PUSH2 0x33E8 PUSH1 0xA0 DUP4 ADD DUP7 PUSH2 0x2EDF JUMP JUMPDEST DUP3 DUP2 SUB PUSH1 0x60 DUP5 ADD MSTORE PUSH2 0x33FA DUP2 DUP7 PUSH2 0x2EDF JUMP JUMPDEST SWAP1 POP DUP3 DUP2 SUB PUSH1 0x80 DUP5 ADD MSTORE PUSH2 0x340E DUP2 DUP6 PUSH2 0x2B30 JUMP JUMPDEST SWAP9 SWAP8 POP POP POP POP POP POP POP POP JUMP JUMPDEST PUSH32 0x416363657373436F6E74726F6C3A206163636F756E7420000000000000000000 DUP2 MSTORE PUSH1 0x0 DUP4 MLOAD PUSH2 0x3452 DUP2 PUSH1 0x17 DUP6 ADD PUSH1 0x20 DUP9 ADD PUSH2 0x2B04 JUMP JUMPDEST PUSH32 0x206973206D697373696E6720726F6C6520000000000000000000000000000000 PUSH1 0x17 SWAP2 DUP5 ADD SWAP2 DUP3 ADD MSTORE DUP4 MLOAD PUSH2 0x348F DUP2 PUSH1 0x28 DUP5 ADD PUSH1 0x20 DUP9 ADD PUSH2 0x2B04 JUMP JUMPDEST ADD PUSH1 0x28 ADD SWAP5 SWAP4 POP POP POP POP JUMP JUMPDEST PUSH1 0x0 DUP2 PUSH2 0x34AA JUMPI PUSH2 0x34AA PUSH2 0x319A JUMP JUMPDEST POP PUSH1 0x0 NOT ADD SWAP1 JUMP INVALID LOG2 PUSH5 0x6970667358 0x22 SLT KECCAK256 0xBB EXTCODESIZE CALLDATACOPY CALLDATASIZE 0xC4 PUSH22 0x6DC2899A4511D048AF3DD73B73DC03337A9E69B7530A 0xC9 SLT PUSH7 0x2F64736F6C6343 STOP ADDMOD 0xD STOP CALLER "
    },
    "gasEstimates": {
      "creation": {
        "codeDepositCost": "2708800",
        "executionCost": "infinite",
        "totalCost": "infinite"
      },
      "external": {
        "ALLOWED_LIST_ROLE()": "252",
        "DEFAULT_ADMIN_ROLE()": "296",
        "FREELANCER()": "251",
        "FREELANCER_ROLE()": "296",
        "HODLR()": "273",
        "HODLR_ROLE()": "273",
        "MAX_MINT_LIMIT_PRIV()": "274",
        "MAX_MINT_LIMIT_PUB()": "275",
        "MINTER_ROLE()": "295",
        "PAUSER_ROLE()": "295",
        "URI_SETTER_ROLE()": "295",
        "balanceOf(address,uint256)": "2718",
        "balanceOfBatch(address[],uint256[])": "infinite",
        "baseExtension()": "infinite",
        "baseURI()": "infinite",
        "burn(address,uint256,uint256)": "infinite",
        "burnBatch(address,uint256[],uint256[])": "infinite",
        "getRoleAdmin(bytes32)": "2502",
        "grantRole(bytes32,address)": "infinite",
        "hasRole(bytes32,address)": "2744",
        "isApprovedForAll(address,address)": "infinite",
        "melt(address,uint256,uint256)": "infinite",
        "meltBatch(address,uint256[],uint256[])": "infinite",
        "mintBatch(address,uint256[],uint256[])": "infinite",
        "mintOne(uint8,address,uint256,uint256,string)": "infinite",
        "paused()": "2372",
        "renounceRole(bytes32,address)": "29031",
        "revokeRole(bytes32,address)": "infinite",
        "royaltyInfo(uint256,uint256)": "2903",
        "safeBatchTransferFrom(address,address,uint256[],uint256[],bytes)": "infinite",
        "safeTransferFrom(address,address,uint256,uint256,bytes)": "infinite",
        "setApprovalForAll(address,bool)": "26751",
        "setBaseURI(string)": "infinite",
        "setTokenRoyalty(uint256,address,uint256)": "infinite",
        "supportsInterface(bytes4)": "infinite",
        "tokenOwners(uint256)": "2587",
        "tokenPrices(uint256)": "2494",
        "transfer(address,address,uint256,uint256)": "infinite",
        "uri(uint256)": "infinite"
      },
      "internal": {
        "_setTokenURI(uint256,string memory)": "infinite",
        "getBaseURI()": "infinite",
        "initRoles()": "infinite"
      }
    },
    "methodIdentifiers": {
      "ALLOWED_LIST_ROLE()": "97059e32",
      "DEFAULT_ADMIN_ROLE()": "a217fddf",
      "FREELANCER()": "b8f7c8d3",
      "FREELANCER_ROLE()": "357fa9db",
      "HODLR()": "6cc606a6",
      "HODLR_ROLE()": "e5dc4d72",
      "MAX_MINT_LIMIT_PRIV()": "b053b5ff",
      "MAX_MINT_LIMIT_PUB()": "3765ecf7",
      "MINTER_ROLE()": "d5391393",
      "PAUSER_ROLE()": "e63ab1e9",
      "URI_SETTER_ROLE()": "7f345710",
      "balanceOf(address,uint256)": "00fdd58e",
      "balanceOfBatch(address[],uint256[])": "4e1273f4",
      "baseExtension()": "c6682862",
      "baseURI()": "6c0360eb",
      "burn(address,uint256,uint256)": "f5298aca",
      "burnBatch(address,uint256[],uint256[])": "6b20c454",
      "getRoleAdmin(bytes32)": "248a9ca3",
      "grantRole(bytes32,address)": "2f2ff15d",
      "hasRole(bytes32,address)": "91d14854",
      "isApprovedForAll(address,address)": "e985e9c5",
      "melt(address,uint256,uint256)": "ec1ca9b8",
      "meltBatch(address,uint256[],uint256[])": "8a5927e8",
      "mintBatch(address,uint256[],uint256[])": "d81d0a15",
      "mintOne(uint8,address,uint256,uint256,string)": "42061e9f",
      "paused()": "5c975abb",
      "renounceRole(bytes32,address)": "36568abe",
      "revokeRole(bytes32,address)": "d547741f",
      "royaltyInfo(uint256,uint256)": "2a55205a",
      "safeBatchTransferFrom(address,address,uint256[],uint256[],bytes)": "2eb2c2d6",
      "safeTransferFrom(address,address,uint256,uint256,bytes)": "f242432a",
      "setApprovalForAll(address,bool)": "a22cb465",
      "setBaseURI(string)": "55f804b3",
      "setTokenRoyalty(uint256,address,uint256)": "9713c807",
      "supportsInterface(bytes4)": "01ffc9a7",
      "tokenOwners(uint256)": "f8a14f46",
      "tokenPrices(uint256)": "e5afe3e6",
      "transfer(address,address,uint256,uint256)": "0411b252",
      "uri(uint256)": "0e89341c"
    }
  },
  "storageLayout": {
    "storage": [
      {
        "astId": 985,
        "contract": "ERC1155Facet.sol:ERC1155Facet",
        "label": "_balances",
        "offset": 0,
        "slot": "0",
        "type": "t_mapping(t_uint256,t_mapping(t_address,t_uint256))"
      },
      {
        "astId": 991,
        "contract": "ERC1155Facet.sol:ERC1155Facet",
        "label": "_operatorApprovals",
        "offset": 0,
        "slot": "1",
        "type": "t_mapping(t_address,t_mapping(t_address,t_bool))"
      },
      {
        "astId": 993,
        "contract": "ERC1155Facet.sol:ERC1155Facet",
        "label": "_uri",
        "offset": 0,
        "slot": "2",
        "type": "t_string_storage"
      },
      {
        "astId": 556,
        "contract": "ERC1155Facet.sol:ERC1155Facet",
        "label": "_roles",
        "offset": 0,
        "slot": "3",
        "type": "t_mapping(t_bytes32,t_struct(RoleData)551_storage)"
      },
      {
        "astId": 869,
        "contract": "ERC1155Facet.sol:ERC1155Facet",
        "label": "_paused",
        "offset": 0,
        "slot": "4",
        "type": "t_bool"
      },
      {
        "astId": 64,
        "contract": "ERC1155Facet.sol:ERC1155Facet",
        "label": "baseURI",
        "offset": 0,
        "slot": "5",
        "type": "t_string_storage"
      },
      {
        "astId": 67,
        "contract": "ERC1155Facet.sol:ERC1155Facet",
        "label": "baseExtension",
        "offset": 0,
        "slot": "6",
        "type": "t_string_storage"
      },
      {
        "astId": 77,
        "contract": "ERC1155Facet.sol:ERC1155Facet",
        "label": "_royalties",
        "offset": 0,
        "slot": "7",
        "type": "t_mapping(t_uint256,t_struct(RoyaltyInfo)72_storage)"
      },
      {
        "astId": 81,
        "contract": "ERC1155Facet.sol:ERC1155Facet",
        "label": "_tokenURIs",
        "offset": 0,
        "slot": "8",
        "type": "t_mapping(t_uint256,t_string_storage)"
      },
      {
        "astId": 85,
        "contract": "ERC1155Facet.sol:ERC1155Facet",
        "label": "tokenOwners",
        "offset": 0,
        "slot": "9",
        "type": "t_mapping(t_uint256,t_address)"
      },
      {
        "astId": 89,
        "contract": "ERC1155Facet.sol:ERC1155Facet",
        "label": "tokenPrices",
        "offset": 0,
        "slot": "10",
        "type": "t_mapping(t_uint256,t_uint256)"
      }
    ],
    "types": {
      "t_address": {
        "encoding": "inplace",
        "label": "address",
        "numberOfBytes": "20"
      },
      "t_bool": {
        "encoding": "inplace",
        "label": "bool",
        "numberOfBytes": "1"
      },
      "t_bytes32": {
        "encoding": "inplace",
        "label": "bytes32",
        "numberOfBytes": "32"
      },
      "t_mapping(t_address,t_bool)": {
        "encoding": "mapping",
        "key": "t_address",
        "label": "mapping(address => bool)",
        "numberOfBytes": "32",
        "value": "t_bool"
      },
      "t_mapping(t_address,t_mapping(t_address,t_bool))": {
        "encoding": "mapping",
        "key": "t_address",
        "label": "mapping(address => mapping(address => bool))",
        "numberOfBytes": "32",
        "value": "t_mapping(t_address,t_bool)"
      },
      "t_mapping(t_address,t_uint256)": {
        "encoding": "mapping",
        "key": "t_address",
        "label": "mapping(address => uint256)",
        "numberOfBytes": "32",
        "value": "t_uint256"
      },
      "t_mapping(t_bytes32,t_struct(RoleData)551_storage)": {
        "encoding": "mapping",
        "key": "t_bytes32",
        "label": "mapping(bytes32 => struct AccessControl.RoleData)",
        "numberOfBytes": "32",
        "value": "t_struct(RoleData)551_storage"
      },
      "t_mapping(t_uint256,t_address)": {
        "encoding": "mapping",
        "key": "t_uint256",
        "label": "mapping(uint256 => address)",
        "numberOfBytes": "32",
        "value": "t_address"
      },
      "t_mapping(t_uint256,t_mapping(t_address,t_uint256))": {
        "encoding": "mapping",
        "key": "t_uint256",
        "label": "mapping(uint256 => mapping(address => uint256))",
        "numberOfBytes": "32",
        "value": "t_mapping(t_address,t_uint256)"
      },
      "t_mapping(t_uint256,t_string_storage)": {
        "encoding": "mapping",
        "key": "t_uint256",
        "label": "mapping(uint256 => string)",
        "numberOfBytes": "32",
        "value": "t_string_storage"
      },
      "t_mapping(t_uint256,t_struct(RoyaltyInfo)72_storage)": {
        "encoding": "mapping",
        "key": "t_uint256",
        "label": "mapping(uint256 => struct ERC1155Facet.RoyaltyInfo)",
        "numberOfBytes": "32",
        "value": "t_struct(RoyaltyInfo)72_storage"
      },
      "t_mapping(t_uint256,t_uint256)": {
        "encoding": "mapping",
        "key": "t_uint256",
        "label": "mapping(uint256 => uint256)",
        "numberOfBytes": "32",
        "value": "t_uint256"
      },
      "t_string_storage": {
        "encoding": "bytes",
        "label": "string",
        "numberOfBytes": "32"
      },
      "t_struct(RoleData)551_storage": {
        "encoding": "inplace",
        "label": "struct AccessControl.RoleData",
        "members": [
          {
            "astId": 548,
            "contract": "ERC1155Facet.sol:ERC1155Facet",
            "label": "members",
            "offset": 0,
            "slot": "0",
            "type": "t_mapping(t_address,t_bool)"
          },
          {
            "astId": 550,
            "contract": "ERC1155Facet.sol:ERC1155Facet",
            "label": "adminRole",
            "offset": 0,
            "slot": "1",
            "type": "t_bytes32"
          }
        ],
        "numberOfBytes": "64"
      },
      "t_struct(RoyaltyInfo)72_storage": {
        "encoding": "inplace",
        "label": "struct ERC1155Facet.RoyaltyInfo",
        "members": [
          {
            "astId": 69,
            "contract": "ERC1155Facet.sol:ERC1155Facet",
            "label": "recipient",
            "offset": 0,
            "slot": "0",
            "type": "t_address"
          },
          {
            "astId": 71,
            "contract": "ERC1155Facet.sol:ERC1155Facet",
            "label": "amount",
            "offset": 20,
            "slot": "0",
            "type": "t_uint24"
          }
        ],
        "numberOfBytes": "32"
      },
      "t_uint24": {
        "encoding": "inplace",
        "label": "uint24",
        "numberOfBytes": "3"
      },
      "t_uint256": {
        "encoding": "inplace",
        "label": "uint256",
        "numberOfBytes": "32"
      }
    }
  },
  "userdoc": {
    "kind": "user",
    "methods": {},
    "version": 1
  }
}